{
  "abi": [
    {
      "inputs": [
        {
          "internalType": "address",
          "name": "_creator_address",
          "type": "address"
        },
        {
          "internalType": "address",
          "name": "_interep_address",
          "type": "address"
        }
      ],
      "stateMutability": "nonpayable",
      "type": "constructor"
    },
    {
      "anonymous": false,
      "inputs": [
        {
          "indexed": true,
          "internalType": "uint256",
          "name": "marketId",
          "type": "uint256"
        },
        {
          "components": [
            {
              "internalType": "uint256",
              "name": "managers_stake",
              "type": "uint256"
            },
            {
              "internalType": "uint256",
              "name": "approved_principal",
              "type": "uint256"
            },
            {
              "internalType": "uint256",
              "name": "approved_yield",
              "type": "uint256"
            }
          ],
          "indexed": false,
          "internalType": "struct Controller.ApprovalData",
          "name": "data",
          "type": "tuple"
        }
      ],
      "name": "MarketApproved",
      "type": "event"
    },
    {
      "anonymous": false,
      "inputs": [
        {
          "indexed": true,
          "internalType": "uint256",
          "name": "marketId",
          "type": "uint256"
        }
      ],
      "name": "MarketDenied",
      "type": "event"
    },
    {
      "anonymous": false,
      "inputs": [
        {
          "indexed": true,
          "internalType": "uint256",
          "name": "marketId",
          "type": "uint256"
        },
        {
          "indexed": true,
          "internalType": "address",
          "name": "vault",
          "type": "address"
        },
        {
          "indexed": true,
          "internalType": "address",
          "name": "recipient",
          "type": "address"
        },
        {
          "indexed": false,
          "internalType": "address",
          "name": "pool",
          "type": "address"
        },
        {
          "indexed": false,
          "internalType": "address",
          "name": "longZCB",
          "type": "address"
        },
        {
          "indexed": false,
          "internalType": "address",
          "name": "shortZCB",
          "type": "address"
        },
        {
          "components": [
            {
              "internalType": "bytes32",
              "name": "name",
              "type": "bytes32"
            },
            {
              "internalType": "bool",
              "name": "isPool",
              "type": "bool"
            },
            {
              "internalType": "bool",
              "name": "trusted",
              "type": "bool"
            },
            {
              "internalType": "uint256",
              "name": "balance",
              "type": "uint256"
            },
            {
              "internalType": "uint256",
              "name": "faceValue",
              "type": "uint256"
            },
            {
              "internalType": "uint256",
              "name": "marketId",
              "type": "uint256"
            },
            {
              "internalType": "uint256",
              "name": "principal",
              "type": "uint256"
            },
            {
              "internalType": "uint256",
              "name": "expectedYield",
              "type": "uint256"
            },
            {
              "internalType": "uint256",
              "name": "duration",
              "type": "uint256"
            },
            {
              "internalType": "string",
              "name": "description",
              "type": "string"
            },
            {
              "internalType": "address",
              "name": "instrument_address",
              "type": "address"
            },
            {
              "internalType": "enum Vault.InstrumentType",
              "name": "instrument_type",
              "type": "uint8"
            },
            {
              "internalType": "uint256",
              "name": "maturityDate",
              "type": "uint256"
            },
            {
              "components": [
                {
                  "internalType": "uint256",
                  "name": "saleAmount",
                  "type": "uint256"
                },
                {
                  "internalType": "uint256",
                  "name": "initPrice",
                  "type": "uint256"
                },
                {
                  "internalType": "uint256",
                  "name": "promisedReturn",
                  "type": "uint256"
                },
                {
                  "internalType": "uint256",
                  "name": "inceptionTime",
                  "type": "uint256"
                },
                {
                  "internalType": "uint256",
                  "name": "inceptionPrice",
                  "type": "uint256"
                },
                {
                  "internalType": "uint256",
                  "name": "leverageFactor",
                  "type": "uint256"
                },
                {
                  "internalType": "uint256",
                  "name": "managementFee",
                  "type": "uint256"
                }
              ],
              "internalType": "struct Vault.PoolData",
              "name": "poolData",
              "type": "tuple"
            }
          ],
          "indexed": false,
          "internalType": "struct Vault.InstrumentData",
          "name": "instrumentData",
          "type": "tuple"
        }
      ],
      "name": "MarketInitiated",
      "type": "event"
    },
    {
      "anonymous": false,
      "inputs": [
        {
          "indexed": true,
          "internalType": "uint256",
          "name": "marketId",
          "type": "uint256"
        },
        {
          "indexed": false,
          "internalType": "bool",
          "name": "atLoss",
          "type": "bool"
        },
        {
          "indexed": false,
          "internalType": "uint256",
          "name": "extraGain",
          "type": "uint256"
        },
        {
          "indexed": false,
          "internalType": "uint256",
          "name": "principalLoss",
          "type": "uint256"
        },
        {
          "indexed": false,
          "internalType": "bool",
          "name": "premature",
          "type": "bool"
        }
      ],
      "name": "MarketResolved",
      "type": "event"
    },
    {
      "anonymous": false,
      "inputs": [
        {
          "indexed": true,
          "internalType": "address",
          "name": "vault",
          "type": "address"
        },
        {
          "indexed": false,
          "internalType": "uint256",
          "name": "vaultId",
          "type": "uint256"
        },
        {
          "indexed": false,
          "internalType": "address",
          "name": "underlying",
          "type": "address"
        },
        {
          "indexed": false,
          "internalType": "bool",
          "name": "onlyVerified",
          "type": "bool"
        },
        {
          "indexed": false,
          "internalType": "uint256",
          "name": "r",
          "type": "uint256"
        },
        {
          "indexed": false,
          "internalType": "uint256",
          "name": "assetLimit",
          "type": "uint256"
        },
        {
          "indexed": false,
          "internalType": "uint256",
          "name": "totalAssetLimit",
          "type": "uint256"
        },
        {
          "components": [
            {
              "internalType": "uint256",
              "name": "N",
              "type": "uint256"
            },
            {
              "internalType": "uint256",
              "name": "sigma",
              "type": "uint256"
            },
            {
              "internalType": "uint256",
              "name": "alpha",
              "type": "uint256"
            },
            {
              "internalType": "uint256",
              "name": "omega",
              "type": "uint256"
            },
            {
              "internalType": "uint256",
              "name": "delta",
              "type": "uint256"
            },
            {
              "internalType": "uint256",
              "name": "r",
              "type": "uint256"
            },
            {
              "internalType": "uint256",
              "name": "s",
              "type": "uint256"
            },
            {
              "internalType": "uint256",
              "name": "steak",
              "type": "uint256"
            }
          ],
          "indexed": false,
          "internalType": "struct MarketManager.MarketParameters",
          "name": "defaultParams",
          "type": "tuple"
        }
      ],
      "name": "VaultCreated",
      "type": "event"
    },
    {
      "inputs": [
        {
          "internalType": "address",
          "name": "",
          "type": "address"
        }
      ],
      "name": "ad_to_id",
      "outputs": [
        {
          "internalType": "uint256",
          "name": "",
          "type": "uint256"
        }
      ],
      "stateMutability": "view",
      "type": "function"
    },
    {
      "inputs": [
        {
          "internalType": "uint256",
          "name": "marketId",
          "type": "uint256"
        }
      ],
      "name": "approvalCondition",
      "outputs": [
        {
          "internalType": "bool",
          "name": "",
          "type": "bool"
        }
      ],
      "stateMutability": "view",
      "type": "function"
    },
    {
      "inputs": [
        {
          "internalType": "uint256",
          "name": "marketId",
          "type": "uint256"
        }
      ],
      "name": "approveMarket",
      "outputs": [],
      "stateMutability": "nonpayable",
      "type": "function"
    },
    {
      "inputs": [
        {
          "internalType": "uint256",
          "name": "marketId",
          "type": "uint256"
        }
      ],
      "name": "beforeResolve",
      "outputs": [],
      "stateMutability": "nonpayable",
      "type": "function"
    },
    {
      "inputs": [
        {
          "internalType": "address",
          "name": "underlying",
          "type": "address"
        },
        {
          "internalType": "bool",
          "name": "_onlyVerified",
          "type": "bool"
        },
        {
          "internalType": "uint256",
          "name": "_r",
          "type": "uint256"
        },
        {
          "internalType": "uint256",
          "name": "_asset_limit",
          "type": "uint256"
        },
        {
          "internalType": "uint256",
          "name": "_total_asset_limit",
          "type": "uint256"
        },
        {
          "components": [
            {
              "internalType": "uint256",
              "name": "N",
              "type": "uint256"
            },
            {
              "internalType": "uint256",
              "name": "sigma",
              "type": "uint256"
            },
            {
              "internalType": "uint256",
              "name": "alpha",
              "type": "uint256"
            },
            {
              "internalType": "uint256",
              "name": "omega",
              "type": "uint256"
            },
            {
              "internalType": "uint256",
              "name": "delta",
              "type": "uint256"
            },
            {
              "internalType": "uint256",
              "name": "r",
              "type": "uint256"
            },
            {
              "internalType": "uint256",
              "name": "s",
              "type": "uint256"
            },
            {
              "internalType": "uint256",
              "name": "steak",
              "type": "uint256"
            }
          ],
          "internalType": "struct MarketManager.MarketParameters",
          "name": "default_params",
          "type": "tuple"
        }
      ],
      "name": "createVault",
      "outputs": [],
      "stateMutability": "nonpayable",
      "type": "function"
    },
    {
      "inputs": [
        {
          "internalType": "uint256",
          "name": "marketId",
          "type": "uint256"
        }
      ],
      "name": "deduct_selling_fee",
      "outputs": [
        {
          "internalType": "uint256",
          "name": "",
          "type": "uint256"
        }
      ],
      "stateMutability": "view",
      "type": "function"
    },
    {
      "inputs": [
        {
          "internalType": "uint256",
          "name": "marketId",
          "type": "uint256"
        },
        {
          "internalType": "address",
          "name": "validator",
          "type": "address"
        }
      ],
      "name": "deniedValidator",
      "outputs": [
        {
          "internalType": "uint256",
          "name": "collateral_amount",
          "type": "uint256"
        }
      ],
      "stateMutability": "nonpayable",
      "type": "function"
    },
    {
      "inputs": [
        {
          "internalType": "uint256",
          "name": "marketId",
          "type": "uint256"
        }
      ],
      "name": "denyMarket",
      "outputs": [],
      "stateMutability": "nonpayable",
      "type": "function"
    },
    {
      "inputs": [
        {
          "internalType": "uint256",
          "name": "marketId",
          "type": "uint256"
        },
        {
          "internalType": "bool",
          "name": "emergency",
          "type": "bool"
        }
      ],
      "name": "forceCloseInstrument",
      "outputs": [
        {
          "internalType": "bool",
          "name": "",
          "type": "bool"
        }
      ],
      "stateMutability": "nonpayable",
      "type": "function"
    },
    {
      "inputs": [
        {
          "internalType": "uint256",
          "name": "requestId",
          "type": "uint256"
        },
        {
          "internalType": "uint256[]",
          "name": "randomWords",
          "type": "uint256[]"
        }
      ],
      "name": "fulfillRandomWords",
      "outputs": [],
      "stateMutability": "nonpayable",
      "type": "function"
    },
    {
      "inputs": [
        {
          "internalType": "uint256",
          "name": "marketId",
          "type": "uint256"
        }
      ],
      "name": "getApprovalData",
      "outputs": [
        {
          "components": [
            {
              "internalType": "uint256",
              "name": "managers_stake",
              "type": "uint256"
            },
            {
              "internalType": "uint256",
              "name": "approved_principal",
              "type": "uint256"
            },
            {
              "internalType": "uint256",
              "name": "approved_yield",
              "type": "uint256"
            }
          ],
          "internalType": "struct Controller.ApprovalData",
          "name": "",
          "type": "tuple"
        }
      ],
      "stateMutability": "view",
      "type": "function"
    },
    {
      "inputs": [
        {
          "internalType": "uint256",
          "name": "marketId",
          "type": "uint256"
        }
      ],
      "name": "getFinalStake",
      "outputs": [
        {
          "internalType": "uint256",
          "name": "",
          "type": "uint256"
        }
      ],
      "stateMutability": "view",
      "type": "function"
    },
    {
      "inputs": [
        {
          "internalType": "uint256",
          "name": "marketId",
          "type": "uint256"
        }
      ],
      "name": "getInitialStake",
      "outputs": [
        {
          "internalType": "uint256",
          "name": "",
          "type": "uint256"
        }
      ],
      "stateMutability": "view",
      "type": "function"
    },
    {
      "inputs": [
        {
          "internalType": "uint256",
          "name": "marketId",
          "type": "uint256"
        }
      ],
      "name": "getInstrumentSnapShot",
      "outputs": [
        {
          "internalType": "uint256",
          "name": "managerStake",
          "type": "uint256"
        },
        {
          "internalType": "uint256",
          "name": "exposurePercentage",
          "type": "uint256"
        },
        {
          "internalType": "uint256",
          "name": "seniorAPR",
          "type": "uint256"
        },
        {
          "internalType": "uint256",
          "name": "approvalPrice",
          "type": "uint256"
        }
      ],
      "stateMutability": "nonpayable",
      "type": "function"
    },
    {
      "inputs": [
        {
          "internalType": "address",
          "name": "recipient",
          "type": "address"
        }
      ],
      "name": "getMarketId",
      "outputs": [
        {
          "internalType": "uint256",
          "name": "",
          "type": "uint256"
        }
      ],
      "stateMutability": "view",
      "type": "function"
    },
    {
      "inputs": [
        {
          "internalType": "uint256",
          "name": "vaultId",
          "type": "uint256"
        }
      ],
      "name": "getMarketIds",
      "outputs": [
        {
          "internalType": "uint256[]",
          "name": "",
          "type": "uint256[]"
        }
      ],
      "stateMutability": "view",
      "type": "function"
    },
    {
      "inputs": [
        {
          "internalType": "uint256",
          "name": "marketId",
          "type": "uint256"
        }
      ],
      "name": "getNumApproved",
      "outputs": [
        {
          "internalType": "uint256",
          "name": "",
          "type": "uint256"
        }
      ],
      "stateMutability": "view",
      "type": "function"
    },
    {
      "inputs": [
        {
          "internalType": "uint256",
          "name": "marketId",
          "type": "uint256"
        }
      ],
      "name": "getNumResolved",
      "outputs": [
        {
          "internalType": "uint256",
          "name": "",
          "type": "uint256"
        }
      ],
      "stateMutability": "view",
      "type": "function"
    },
    {
      "inputs": [
        {
          "internalType": "uint256",
          "name": "marketId",
          "type": "uint256"
        }
      ],
      "name": "getTotalStaked",
      "outputs": [
        {
          "internalType": "uint256",
          "name": "",
          "type": "uint256"
        }
      ],
      "stateMutability": "view",
      "type": "function"
    },
    {
      "inputs": [
        {
          "internalType": "uint256",
          "name": "marketId",
          "type": "uint256"
        }
      ],
      "name": "getTotalSupply",
      "outputs": [
        {
          "internalType": "uint256",
          "name": "",
          "type": "uint256"
        }
      ],
      "stateMutability": "view",
      "type": "function"
    },
    {
      "inputs": [
        {
          "internalType": "uint256",
          "name": "marketId",
          "type": "uint256"
        }
      ],
      "name": "getTotalValidatorSales",
      "outputs": [
        {
          "internalType": "uint256",
          "name": "",
          "type": "uint256"
        }
      ],
      "stateMutability": "view",
      "type": "function"
    },
    {
      "inputs": [
        {
          "internalType": "address",
          "name": "trader",
          "type": "address"
        }
      ],
      "name": "getTraderScore",
      "outputs": [
        {
          "internalType": "uint256",
          "name": "",
          "type": "uint256"
        }
      ],
      "stateMutability": "view",
      "type": "function"
    },
    {
      "inputs": [
        {
          "internalType": "uint256",
          "name": "marketId",
          "type": "uint256"
        }
      ],
      "name": "getValidatorCap",
      "outputs": [
        {
          "internalType": "uint256",
          "name": "",
          "type": "uint256"
        }
      ],
      "stateMutability": "view",
      "type": "function"
    },
    {
      "inputs": [
        {
          "internalType": "uint256",
          "name": "marketId",
          "type": "uint256"
        }
      ],
      "name": "getValidatorPrice",
      "outputs": [
        {
          "internalType": "uint256",
          "name": "",
          "type": "uint256"
        }
      ],
      "stateMutability": "view",
      "type": "function"
    },
    {
      "inputs": [
        {
          "internalType": "uint256",
          "name": "marketId",
          "type": "uint256"
        }
      ],
      "name": "getValidatorRequiredCollateral",
      "outputs": [
        {
          "internalType": "uint256",
          "name": "",
          "type": "uint256"
        }
      ],
      "stateMutability": "view",
      "type": "function"
    },
    {
      "inputs": [
        {
          "internalType": "uint256",
          "name": "marketId",
          "type": "uint256"
        }
      ],
      "name": "getVault",
      "outputs": [
        {
          "internalType": "contract Vault",
          "name": "",
          "type": "address"
        }
      ],
      "stateMutability": "view",
      "type": "function"
    },
    {
      "inputs": [
        {
          "internalType": "uint256",
          "name": "marketId",
          "type": "uint256"
        }
      ],
      "name": "getVaultAd",
      "outputs": [
        {
          "internalType": "address",
          "name": "",
          "type": "address"
        }
      ],
      "stateMutability": "view",
      "type": "function"
    },
    {
      "inputs": [
        {
          "internalType": "uint256",
          "name": "vaultId",
          "type": "uint256"
        }
      ],
      "name": "getVaultfromId",
      "outputs": [
        {
          "internalType": "address",
          "name": "",
          "type": "address"
        }
      ],
      "stateMutability": "view",
      "type": "function"
    },
    {
      "inputs": [
        {
          "internalType": "uint256",
          "name": "marketId",
          "type": "uint256"
        },
        {
          "internalType": "address",
          "name": "validator",
          "type": "address"
        }
      ],
      "name": "hasApproved",
      "outputs": [
        {
          "internalType": "bool",
          "name": "",
          "type": "bool"
        }
      ],
      "stateMutability": "view",
      "type": "function"
    },
    {
      "inputs": [
        {
          "internalType": "uint256",
          "name": "",
          "type": "uint256"
        }
      ],
      "name": "id_parent",
      "outputs": [
        {
          "internalType": "uint256",
          "name": "",
          "type": "uint256"
        }
      ],
      "stateMutability": "view",
      "type": "function"
    },
    {
      "inputs": [
        {
          "internalType": "address",
          "name": "recipient",
          "type": "address"
        },
        {
          "components": [
            {
              "internalType": "bytes32",
              "name": "name",
              "type": "bytes32"
            },
            {
              "internalType": "bool",
              "name": "isPool",
              "type": "bool"
            },
            {
              "internalType": "bool",
              "name": "trusted",
              "type": "bool"
            },
            {
              "internalType": "uint256",
              "name": "balance",
              "type": "uint256"
            },
            {
              "internalType": "uint256",
              "name": "faceValue",
              "type": "uint256"
            },
            {
              "internalType": "uint256",
              "name": "marketId",
              "type": "uint256"
            },
            {
              "internalType": "uint256",
              "name": "principal",
              "type": "uint256"
            },
            {
              "internalType": "uint256",
              "name": "expectedYield",
              "type": "uint256"
            },
            {
              "internalType": "uint256",
              "name": "duration",
              "type": "uint256"
            },
            {
              "internalType": "string",
              "name": "description",
              "type": "string"
            },
            {
              "internalType": "address",
              "name": "instrument_address",
              "type": "address"
            },
            {
              "internalType": "enum Vault.InstrumentType",
              "name": "instrument_type",
              "type": "uint8"
            },
            {
              "internalType": "uint256",
              "name": "maturityDate",
              "type": "uint256"
            },
            {
              "components": [
                {
                  "internalType": "uint256",
                  "name": "saleAmount",
                  "type": "uint256"
                },
                {
                  "internalType": "uint256",
                  "name": "initPrice",
                  "type": "uint256"
                },
                {
                  "internalType": "uint256",
                  "name": "promisedReturn",
                  "type": "uint256"
                },
                {
                  "internalType": "uint256",
                  "name": "inceptionTime",
                  "type": "uint256"
                },
                {
                  "internalType": "uint256",
                  "name": "inceptionPrice",
                  "type": "uint256"
                },
                {
                  "internalType": "uint256",
                  "name": "leverageFactor",
                  "type": "uint256"
                },
                {
                  "internalType": "uint256",
                  "name": "managementFee",
                  "type": "uint256"
                }
              ],
              "internalType": "struct Vault.PoolData",
              "name": "poolData",
              "type": "tuple"
            }
          ],
          "internalType": "struct Vault.InstrumentData",
          "name": "instrumentData",
          "type": "tuple"
        },
        {
          "internalType": "uint256",
          "name": "vaultId",
          "type": "uint256"
        }
      ],
      "name": "initiateMarket",
      "outputs": [],
      "stateMutability": "nonpayable",
      "type": "function"
    },
    {
      "inputs": [
        {
          "internalType": "address",
          "name": "trader",
          "type": "address"
        },
        {
          "internalType": "uint256",
          "name": "r",
          "type": "uint256"
        }
      ],
      "name": "isReputable",
      "outputs": [
        {
          "internalType": "bool",
          "name": "",
          "type": "bool"
        }
      ],
      "stateMutability": "view",
      "type": "function"
    },
    {
      "inputs": [
        {
          "internalType": "uint256",
          "name": "marketId",
          "type": "uint256"
        },
        {
          "internalType": "address",
          "name": "user",
          "type": "address"
        }
      ],
      "name": "isValidator",
      "outputs": [
        {
          "internalType": "bool",
          "name": "",
          "type": "bool"
        }
      ],
      "stateMutability": "view",
      "type": "function"
    },
    {
      "inputs": [
        {
          "internalType": "address",
          "name": "addr",
          "type": "address"
        }
      ],
      "name": "isVerified",
      "outputs": [
        {
          "internalType": "bool",
          "name": "",
          "type": "bool"
        }
      ],
      "stateMutability": "view",
      "type": "function"
    },
    {
      "inputs": [
        {
          "internalType": "uint256",
          "name": "marketId",
          "type": "uint256"
        }
      ],
      "name": "marketCondition",
      "outputs": [
        {
          "internalType": "bool",
          "name": "",
          "type": "bool"
        }
      ],
      "stateMutability": "view",
      "type": "function"
    },
    {
      "inputs": [
        {
          "internalType": "uint256",
          "name": "marketId",
          "type": "uint256"
        }
      ],
      "name": "marketIdToVaultId",
      "outputs": [
        {
          "internalType": "uint256",
          "name": "",
          "type": "uint256"
        }
      ],
      "stateMutability": "view",
      "type": "function"
    },
    {
      "inputs": [
        {
          "internalType": "uint256",
          "name": "marketId",
          "type": "uint256"
        }
      ],
      "name": "marketId_to_vaultId",
      "outputs": [
        {
          "internalType": "uint256",
          "name": "",
          "type": "uint256"
        }
      ],
      "stateMutability": "view",
      "type": "function"
    },
    {
      "inputs": [
        {
          "internalType": "uint256",
          "name": "",
          "type": "uint256"
        }
      ],
      "name": "market_data",
      "outputs": [
        {
          "internalType": "address",
          "name": "instrument_address",
          "type": "address"
        },
        {
          "internalType": "address",
          "name": "utilizer",
          "type": "address"
        }
      ],
      "stateMutability": "view",
      "type": "function"
    },
    {
      "inputs": [
        {
          "internalType": "uint256",
          "name": "marketId",
          "type": "uint256"
        },
        {
          "internalType": "uint256",
          "name": "amount",
          "type": "uint256"
        }
      ],
      "name": "pullLeverage",
      "outputs": [],
      "stateMutability": "nonpayable",
      "type": "function"
    },
    {
      "inputs": [
        {
          "internalType": "uint256",
          "name": "marketId",
          "type": "uint256"
        },
        {
          "internalType": "address",
          "name": "validator",
          "type": "address"
        }
      ],
      "name": "redeemValidator",
      "outputs": [],
      "stateMutability": "nonpayable",
      "type": "function"
    },
    {
      "inputs": [
        {
          "internalType": "uint256",
          "name": "amount",
          "type": "uint256"
        },
        {
          "internalType": "address",
          "name": "to",
          "type": "address"
        },
        {
          "internalType": "uint256",
          "name": "marketId",
          "type": "uint256"
        }
      ],
      "name": "redeem_transfer",
      "outputs": [],
      "stateMutability": "nonpayable",
      "type": "function"
    },
    {
      "inputs": [
        {
          "internalType": "uint256",
          "name": "marketId",
          "type": "uint256"
        }
      ],
      "name": "resolveCondition",
      "outputs": [
        {
          "internalType": "bool",
          "name": "",
          "type": "bool"
        }
      ],
      "stateMutability": "view",
      "type": "function"
    },
    {
      "inputs": [
        {
          "internalType": "uint256",
          "name": "marketId",
          "type": "uint256"
        }
      ],
      "name": "resolveMarket",
      "outputs": [],
      "stateMutability": "nonpayable",
      "type": "function"
    },
    {
      "inputs": [],
      "name": "riskTransferPenalty",
      "outputs": [
        {
          "internalType": "uint256",
          "name": "",
          "type": "uint256"
        }
      ],
      "stateMutability": "view",
      "type": "function"
    },
    {
      "inputs": [
        {
          "internalType": "address",
          "name": "_marketManager",
          "type": "address"
        }
      ],
      "name": "setMarketManager",
      "outputs": [],
      "stateMutability": "nonpayable",
      "type": "function"
    },
    {
      "inputs": [
        {
          "internalType": "address",
          "name": "_poolFactory",
          "type": "address"
        }
      ],
      "name": "setPoolFactory",
      "outputs": [],
      "stateMutability": "nonpayable",
      "type": "function"
    },
    {
      "inputs": [
        {
          "internalType": "address",
          "name": "_reputationManager",
          "type": "address"
        }
      ],
      "name": "setReputationManager",
      "outputs": [],
      "stateMutability": "nonpayable",
      "type": "function"
    },
    {
      "inputs": [
        {
          "internalType": "address",
          "name": "_validatorManager",
          "type": "address"
        }
      ],
      "name": "setValidatorManager",
      "outputs": [],
      "stateMutability": "nonpayable",
      "type": "function"
    },
    {
      "inputs": [
        {
          "internalType": "address",
          "name": "_vaultFactory",
          "type": "address"
        }
      ],
      "name": "setVaultFactory",
      "outputs": [],
      "stateMutability": "nonpayable",
      "type": "function"
    },
    {
      "inputs": [
        {
          "internalType": "uint256",
          "name": "marketId",
          "type": "uint256"
        }
      ],
      "name": "testApproveMarket",
      "outputs": [],
      "stateMutability": "nonpayable",
      "type": "function"
    },
    {
      "inputs": [
        {
          "internalType": "uint256",
          "name": "marketId",
          "type": "uint256"
        }
      ],
      "name": "testResolveMarket",
      "outputs": [],
      "stateMutability": "nonpayable",
      "type": "function"
    },
    {
      "inputs": [],
      "name": "testVerifyAddress",
      "outputs": [],
      "stateMutability": "nonpayable",
      "type": "function"
    },
    {
      "inputs": [
        {
          "internalType": "uint256",
          "name": "marketId",
          "type": "uint256"
        }
      ],
      "name": "unlockValidatorStake",
      "outputs": [],
      "stateMutability": "nonpayable",
      "type": "function"
    },
    {
      "inputs": [
        {
          "internalType": "uint256",
          "name": "marketId",
          "type": "uint256"
        }
      ],
      "name": "validatorApprove",
      "outputs": [
        {
          "internalType": "uint256",
          "name": "",
          "type": "uint256"
        }
      ],
      "stateMutability": "nonpayable",
      "type": "function"
    },
    {
      "inputs": [
        {
          "internalType": "uint256",
          "name": "marketId",
          "type": "uint256"
        }
      ],
      "name": "validatorResolve",
      "outputs": [],
      "stateMutability": "nonpayable",
      "type": "function"
    },
    {
      "inputs": [
        {
          "internalType": "uint256",
          "name": "",
          "type": "uint256"
        },
        {
          "internalType": "uint256",
          "name": "",
          "type": "uint256"
        }
      ],
      "name": "vault_to_marketIds",
      "outputs": [
        {
          "internalType": "uint256",
          "name": "",
          "type": "uint256"
        }
      ],
      "stateMutability": "view",
      "type": "function"
    },
    {
      "inputs": [
        {
          "internalType": "uint256",
          "name": "",
          "type": "uint256"
        }
      ],
      "name": "vaults",
      "outputs": [
        {
          "internalType": "contract Vault",
          "name": "",
          "type": "address"
        }
      ],
      "stateMutability": "view",
      "type": "function"
    },
    {
      "inputs": [
        {
          "internalType": "address",
          "name": "",
          "type": "address"
        }
      ],
      "name": "verified",
      "outputs": [
        {
          "internalType": "bool",
          "name": "",
          "type": "bool"
        }
      ],
      "stateMutability": "view",
      "type": "function"
    },
    {
      "inputs": [
        {
          "internalType": "uint256",
          "name": "marketId",
          "type": "uint256"
        }
      ],
      "name": "viewValidators",
      "outputs": [
        {
          "internalType": "address[]",
          "name": "",
          "type": "address[]"
        }
      ],
      "stateMutability": "view",
      "type": "function"
    }
  ],
  "bytecode": {
    "object": "0x60806040523480156200001157600080fd5b50604051620056ad380380620056ad833981016040819052620000349162000078565b50600880546001600160a01b0319166001600160a01b0392909216919091179055620000b0565b80516001600160a01b03811681146200007357600080fd5b919050565b600080604083850312156200008c57600080fd5b62000097836200005b565b9150620000a7602084016200005b565b90509250929050565b6155ed80620000c06000396000f3fe608060405234801561001057600080fd5b50600436106103995760003560e01c80638c64ea4a116101e9578063b9209e331161010f578063d65ec964116100ad578063e8e3fbb71161007c578063e8e3fbb7146108d4578063ebd4dc46146108e7578063f0fd1d38146108fa578063f25fcc9f1461090d57600080fd5b8063d65ec96414610888578063d82aff111461089b578063da0a697f146108ae578063e8a78026146108c157600080fd5b8063cabe2ae1116100e9578063cabe2ae11461084f578063ce93ec671461043a578063d122713614610862578063d466461c1461087557600080fd5b8063b9209e3314610810578063c3f956fa1461083c578063c4abc6501461073357600080fd5b80639403b63411610187578063ad4e4e7011610156578063ad4e4e70146107b7578063b1b7e1f2146107ca578063b37eedcd146107ea578063b743939b146107fd57600080fd5b80639403b634146107335780639fe1458b14610746578063a40c63f71461076f578063ac1b6b011461078257600080fd5b80638f5709a5116101c35780638f5709a5146106da5780638fbbc868146106ed57806392ab723e1461070d578063937b6feb1461072057600080fd5b80638c64ea4a146106325780638d4f16d7146106735780638dc3d9b4146106c757600080fd5b806338ba4614116102ce57806356a837f41161026c578063805798ac1161023b578063805798ac146105e657806381e1b07c146105f9578063830e2a021461060c578063875e487e1461061f57600080fd5b806356a837f4146105915780636399d03d146105a457806365bc5ef9146105b75780637789ec5a146105c657600080fd5b806345f34e92116102a857806345f34e9214610545578063473597a014610558578063482c0aa81461056b5780634cb440871461057e57600080fd5b806338ba4614146104ff5780633ea7fbdb146105125780633ec8dc3b1461052557600080fd5b80632358d5a81161033b5780632f8899f3116103155780632f8899f314610493578063340e04b3146104a657806337b4dd3a146104b957806337bc93b0146104ec57600080fd5b80632358d5a81461045a57806323f2a73f1461046d5780632b8587341461048057600080fd5b806308ad90a51161037757806308ad90a5146103f15780630c33df18146104045780630db065f41461041757806314f2b14c1461043a57600080fd5b806303cccb351461039e57806305a1ce99146103a857806308a8333f146103d0575b600080fd5b6103a6610936565b005b6103bb6103b63660046144bc565b6109be565b60405190151581526020015b60405180910390f35b6103e36103de3660046144bc565b610a33565b6040519081526020016103c7565b6103e36103ff3660046144fa565b610b79565b6103bb610412366004614530565b610be9565b6103bb6104253660046144fa565b60026020526000908152604090205460ff1681565b6103e36104483660046144bc565b60009081526006602052604090205490565b6103bb610468366004614560565b610cc6565b6103bb61047b366004614560565b610d3d565b6103a661048e3660046144bc565b610d77565b6103e36104a13660046144bc565b610f34565b6103a66104b4366004614639565b610f66565b6104cc6104c73660046144bc565b611069565b6040805194855260208501939093529183015260608201526080016103c7565b6103e36104fa3660046144bc565b611420565b6103a661050d366004614726565b611452565b6103a66105203660046144fa565b6114ba565b6105386105333660046144bc565b61151b565b6040516103c791906147c7565b6103a66105533660046144fa565b61158d565b6103a66105663660046144fa565b6115ee565b6103e3610579366004614814565b61164f565b6103a661058c3660046144bc565b611680565b6103a661059f3660046144fa565b6117e3565b6103a66105b23660046144bc565b6118da565b6103e367016345785d8a000081565b6103e36105d43660046144fa565b60046020526000908152604090205481565b6103e36105f43660046144bc565b611aac565b6103bb6106073660046144bc565b611ade565b6103e361061a366004614560565b611b10565b6103e361062d3660046144bc565b611bc9565b61065b6106403660046144bc565b6005602052600090815260409020546001600160a01b031681565b6040516001600160a01b0390911681526020016103c7565b6106a76106813660046144bc565b600360205260009081526040902080546001909101546001600160a01b03918216911682565b604080516001600160a01b039384168152929091166020830152016103c7565b6103a66106d53660046144bc565b611bfb565b6103a66106e8366004614560565b611c32565b6103e36106fb3660046144bc565b60066020526000908152604090205481565b6103e361071b3660046144bc565b611caa565b6103e361072e3660046144bc565b611d55565b61065b6107413660046144bc565b611d87565b61065b6107543660046144bc565b6000908152600560205260409020546001600160a01b031690565b6103e361077d3660046144bc565b611daf565b6107956107903660046144bc565b611de1565b60408051825181526020808401519082015291810151908201526060016103c7565b6103a66107c53660046144bc565b611e13565b6107dd6107d83660046144bc565b611e4a565b6040516103c79190614871565b6103a66107f83660046144bc565b611eac565b6103bb61080b3660046144bc565b611f50565b6103bb61081e3660046144fa565b6001600160a01b031660009081526002602052604090205460ff1690565b6103a661084a3660046144bc565b612356565b6103a661085d3660046144bc565b61254d565b6103e36108703660046144bc565b612f18565b6103e36108833660046144bc565b613084565b6103e36108963660046144bc565b6130b6565b6103a66108a93660046144fa565b6130e8565b6103a66108bc366004614814565b61315c565b6103bb6108cf366004614884565b6131dc565b6103a66108e23660046149a2565b613216565b6103e36108f53660046144bc565b613b4f565b6103a6610908366004614ae3565b613b81565b6103e361091b3660046144fa565b6001600160a01b031660009081526004602052604090205490565b3360008181526002602052604090819020805460ff19166001179055600c549051630622fd1760e01b81526004810192909252670de0b6b3a764000060248301526001600160a01b031690630622fd1790604401600060405180830381600087803b1580156109a457600080fd5b505af11580156109b8573d6000803e3d6000fd5b50505050565b600080546040516305a1ce9960e01b8152600481018490526001600160a01b03909116906305a1ce99906024015b602060405180830381865afa158015610a09573d6000803e3d6000fd5b505050506040513d601f19601f82011682018060405250810190610a2d9190614b26565b92915050565b600080610a3f83611d87565b6001600160a01b0316639ec4d40e846040518263ffffffff1660e01b8152600401610a6c91815260200190565b600060405180830381865afa158015610a89573d6000803e3d6000fd5b505050506040513d6000823e601f3d908101601f19168201604052610ab19190810190614c2c565b6101000151670de0b6b3a764000042610ac986611d87565b6001600160a01b0316639ec4d40e876040518263ffffffff1660e01b8152600401610af691815260200190565b600060405180830381865afa158015610b13573d6000803e3d6000fd5b505050506040513d6000823e601f3d908101601f19168201604052610b3b9190810190614c2c565b6101800151610b4a9190614d67565b610b549190614d7a565b610b5e9190614d91565b9050610b728167016345785d8a0000613c13565b9392505050565b600c546040516344c7439360e01b81526001600160a01b03838116600483015260009216906344c74393906024015b602060405180830381865afa158015610bc5573d6000803e3d6000fd5b505050506040513d601f19601f82011682018060405250810190610a2d9190614db3565b600082815260066020908152604080832054835260059091528082205490516359dc5c6f60e01b8152600481018590526001600160a01b039091169081906359dc5c6f90602401600060405180830381600087803b158015610c4a57600080fd5b505af1158015610c5e573d6000803e3d6000fd5b5050604051630ae161cd60e21b8152600481018790526001600160a01b0384169250632b8587349150602401600060405180830381600087803b158015610ca457600080fd5b505af1158015610cb8573d6000803e3d6000fd5b506001979650505050505050565b6000805460405163046b1ab560e31b8152600481018590526001600160a01b03848116602483015290911690632358d5a8906044015b602060405180830381865afa158015610d19573d6000803e3d6000fd5b505050506040513d601f19601f82011682018060405250810190610b729190614b26565b600080546040516323f2a73f60e01b8152600481018590526001600160a01b038481166024830152909116906323f2a73f90604401610cfc565b600954604051638a6cac3d60e01b81526004810183905260009182916001600160a01b0390911690638a6cac3d9060240160c060405180830381865afa158015610dc5573d6000803e3d6000fd5b505050506040513d601f19601f82011682018060405250810190610de99190614dcc565b505093505050915081158015610dfc5750805b610e4d5760405162461bcd60e51b815260206004820152601960248201527f6d61726b657420636f6e646974696f6e73206e6f74206d65740000000000000060448201526064015b60405180910390fd5b610e5683611ade565b610eb65760405162461bcd60e51b815260206004820152602b60248201527f6e6f7420656e6f7567682076616c696461746f7273206861766520766f74656460448201526a20746f207265736f6c766560a81b6064820152608401610e44565b6000838152600660209081526040808320548352600590915290819020549051630ae161cd60e21b8152600481018590526001600160a01b0390911690632b858734906024015b600060405180830381600087803b158015610f1757600080fd5b505af1158015610f2b573d6000803e3d6000fd5b50505050505050565b60008054604051632f8899f360e01b8152600481018490526001600160a01b0390911690632f8899f390602401610ba8565b600a5460405163da33133360e01b815260009182916001600160a01b039091169063da33133390610fa7908b9030908c908c908c908c908c90600401614e97565b60408051808303816000875af1158015610fc5573d6000803e3d6000fd5b505050506040513d601f19601f82011682018060405250810190610fe99190614ee6565b6000818152600560205260409081902080546001600160a01b0319166001600160a01b0385169081179091559051929450909250907f7ecb7591c061739d6ccd6a6299e0adf7d3447c390b9321530e0a400f7c65d1b7906110579084908c908c908c908c908c908c90614f14565b60405180910390a25050505050505050565b60095460405163eb44fdd360e01b81526004810183905260009182918291829182916001600160a01b03169063eb44fdd390602401600060405180830381865afa1580156110bb573d6000803e3d6000fd5b505050506040513d6000823e601f3d908101601f191682016040526110e39190810190614f55565b905060006110f087611de1565b905060006110fd88611d87565b6001600160a01b0316639ec4d40e896040518263ffffffff1660e01b815260040161112a91815260200190565b600060405180830381865afa158015611147573d6000803e3d6000fd5b505050506040513d6000823e601f3d908101601f1916820160405261116f9190810190614c2c565b82519750905061120461118189611d87565b6001600160a01b03166301e1d1146040518163ffffffff1660e01b8152600401602060405180830381865afa1580156111be573d6000803e3d6000fd5b505050506040513d601f19601f820116820180604052508101906111e29190614db3565b6111ed906001615019565b835160208501516111fe9190614d67565b90613c28565b955080602001516113fd5781516000908190156113865773__$7f722a1af7b4060aab6915c87e2e2208cb$__63018b03518560000151600088600001516001600160a01b0316636e2f7ad36040518163ffffffff1660e01b8152600401602060405180830381865afa15801561127e573d6000803e3d6000fd5b505050506040513d601f19601f820116820180604052508101906112a29190614db3565b89600001516001600160a01b0316634df7e3d06040518163ffffffff1660e01b8152600401602060405180830381865afa1580156112e4573d6000803e3d6000fd5b505050506040513d601f19601f820116820180604052508101906113089190614db3565b6040516001600160e01b031960e087901b16815260048101949094526024840192909252604483015260648201526001608482015260a4016040805180830381865af415801561135c573d6000803e3d6000fd5b505050506040513d601f19601f82011682018060405250810190611380919061502c565b90925090505b835160c084015160009161139991614d67565b8385608001516113a99190614d67565b6113b39190614d67565b905060008560200151116113c85760006113f0565b845160c08501516113f091906113df906001615019565b6113e99190614d67565b8290613c28565b9750819650505050611416565b806101a00151604001519450806101a001516080015193505b5050509193509193565b6000805460405163037bc93b60e41b8152600481018490526001600160a01b03909116906337bc93b090602401610ba8565b600054604051630e2e918560e21b81526001600160a01b03909116906338ba4614906114849085908590600401615050565b600060405180830381600087803b15801561149e57600080fd5b505af11580156114b2573d6000803e3d6000fd5b505050505050565b6009546001600160a01b03163314806114dd57506008546001600160a01b031633145b6114f95760405162461bcd60e51b8152600401610e4490615069565b600a80546001600160a01b0319166001600160a01b0392909216919091179055565b600054604051633ec8dc3b60e01b8152600481018390526060916001600160a01b031690633ec8dc3b90602401600060405180830381865afa158015611565573d6000803e3d6000fd5b505050506040513d6000823e601f3d908101601f19168201604052610a2d919081019061508b565b6009546001600160a01b03163314806115b057506008546001600160a01b031633145b6115cc5760405162461bcd60e51b8152600401610e4490615069565b600080546001600160a01b0319166001600160a01b0392909216919091179055565b6009546001600160a01b031633148061161157506008546001600160a01b031633145b61162d5760405162461bcd60e51b8152600401610e4490615069565b600b80546001600160a01b0319166001600160a01b0392909216919091179055565b6007602052816000526040600020818154811061166b57600080fd5b90600052602060002001600091509150505481565b8061168b8133610d3d565b806116a057506008546001600160a01b031633145b6116d55760405162461bcd60e51b8152600401610e44906020808252600490820152630855985b60e21b604082015260600190565b600082815260066020908152604080832054835260059091529081902054905163d746d3ef60e01b8152600481018490526001600160a01b039091169063d746d3ef90602401600060405180830381600087803b15801561173557600080fd5b505af1158015611749573d6000803e3d6000fd5b5050505061175682613c3d565b600954604051634cb4408760e01b8152600481018490526001600160a01b0390911690634cb4408790602401600060405180830381600087803b15801561179c57600080fd5b505af11580156117b0573d6000803e3d6000fd5b50506040518492507f38274fdcd6150638fa33375a76a55bc5b507aa04639aef21fcf7a1bf0b9c095d9150600090a25050565b6009546001600160a01b031633148061180657506008546001600160a01b031633145b6118225760405162461bcd60e51b8152600401610e4490615069565b6009546001600160a01b03166118605760405162461bcd60e51b8152602060048201526003602482015262306d6d60e81b6044820152606401610e44565b600c80546001600160a01b0319166001600160a01b038381169182179092556009546040516315aa0dfd60e21b81526004810192909252909116906356a837f4906024015b600060405180830381600087803b1580156118bf57600080fd5b505af11580156118d3573d6000803e3d6000fd5b5050505050565b806118e58133610d3d565b806118fa57506008546001600160a01b031633145b61192f5760405162461bcd60e51b8152600401610e44906020808252600490820152630855985b60e21b604082015260600190565b6000828152600660209081526040808320548352600590915280822054905163709a664160e11b8152600481018590528291829182916001600160a01b03169063e134cc82906024016080604051808303816000875af1158015611997573d6000803e3d6000fd5b505050506040513d601f19601f820116820180604052508101906119bb9190615124565b93509350935093506119d08685858585613cf5565b60008054878252600160208190526040928390200154915163665293b360e11b8152600481018990526024810192909252604482018490526001600160a01b03169063cca5276690606401600060405180830381600087803b158015611a3557600080fd5b505af1158015611a49573d6000803e3d6000fd5b50505050611a5686613c3d565b60408051851515815260208101859052908101839052811515606082015286907f77220ccc88401eef4453630e1f9b709ab45bd7912e6599a260abd10a84ac3ed2906080015b60405180910390a2505050505050565b60008054604051632015e62b60e21b8152600481018490526001600160a01b039091169063805798ac90602401610ba8565b600080546040516320786c1f60e21b8152600481018490526001600160a01b03909116906381e1b07c906024016109ec565b6009546000906001600160a01b0316331480611b3657506008546001600160a01b031633145b611b525760405162461bcd60e51b8152600401610e4490615069565b600054604051634187150160e11b8152600481018590526001600160a01b0384811660248301529091169063830e2a02906044016020604051808303816000875af1158015611ba5573d6000803e3d6000fd5b505050506040513d601f19601f82011682018060405250810190610b729190614db3565b600080546040516343af243f60e11b8152600481018490526001600160a01b039091169063875e487e90602401610ba8565b600054604051636172cd6760e01b8152600481018390523360248201526001600160a01b0390911690636172cd67906044016118a5565b6009546001600160a01b0316331480611c5557506008546001600160a01b031633145b611c715760405162461bcd60e51b8152600401610e4490615069565b600054604051638f5709a560e01b8152600481018490526001600160a01b03838116602483015290911690638f5709a590604401611484565b60095460405163054d50b360e21b8152600481018390526000916001600160a01b03169063153542cc90602401602060405180830381865afa158015611cf4573d6000803e3d6000fd5b505050506040513d601f19601f82011682018060405250810190611d189190615170565b6001600160a01b03166318160ddd6040518163ffffffff1660e01b8152600401602060405180830381865afa158015610bc5573d6000803e3d6000fd5b6000805460405163937b6feb60e01b8152600481018490526001600160a01b039091169063937b6feb90602401610ba8565b600090815260066020908152604080832054835260059091529020546001600160a01b031690565b6000805460405163a40c63f760e01b8152600481018490526001600160a01b039091169063a40c63f790602401610ba8565b611e0560405180606001604052806000815260200160008152602001600081525090565b600091909152600160205290565b60005460405163f23566b560e01b8152600481018390523360248201526001600160a01b039091169063f23566b5906044016118a5565b600081815260076020908152604091829020805483518184028101840190945280845260609392830182828015611ea057602002820191906000526020600020905b815481526020019060010190808311611e8c575b50505050509050919050565b6008546001600160a01b03163314611eef5760405162461bcd60e51b815260206004820152600660248201526510b7bbb732b960d11b6044820152606401610e44565b611ef881611f50565b611f445760405162461bcd60e51b815260206004820152601860248201527f6d61726b657420636f6e646974696f6e206e6f74206d657400000000000000006044820152606401610e44565b611f4d8161254d565b50565b60095460405163b1283e7760e01b81526004810183905260009182916001600160a01b039091169063b1283e7790602401600060405180830381865afa158015611f9e573d6000803e3d6000fd5b505050506040513d6000823e601f3d908101601f19168201604052611fc6919081019061518d565b965050505050505080156120cb57611fdd83611d87565b6001600160a01b0316639ec4d40e846040518263ffffffff1660e01b815260040161200a91815260200190565b600060405180830381865afa158015612027573d6000803e3d6000fd5b505050506040513d6000823e601f3d908101601f1916820160405261204f9190810190614c2c565b6101a001515160095460405163661f1cf560e01b8152600481018690526001600160a01b039091169063661f1cf590602401602060405180830381865afa15801561209e573d6000803e3d6000fd5b505050506040513d601f19601f820116820180604052508101906120c29190614db3565b10159392505050565b60006120d684611d87565b6001600160a01b0316639ec4d40e856040518263ffffffff1660e01b815260040161210391815260200190565b600060405180830381865afa158015612120573d6000803e3d6000fd5b505050506040513d6000823e601f3d908101601f191682016040526121489190810190614c2c565b60c00151604080518082018252600f81526e36b0b935b2ba31b7b73234ba34b7b760891b6020820152600954915163661f1cf560e01b8152600481018890529293506122649290916001600160a01b03169063661f1cf590602401602060405180830381865afa1580156121c0573d6000803e3d6000fd5b505050506040513d601f19601f820116820180604052508101906121e49190614db3565b60095460405163c6ceb96b60e01b81526004810189905261225f916001600160a01b03169063c6ceb96b9060240161010060405180830381865afa158015612230573d6000803e3d6000fd5b505050506040513d601f19601f82011682018060405250810190612254919061522c565b604001518590613c13565b613fab565b60095460405163c6ceb96b60e01b8152600481018690526122df916001600160a01b03169063c6ceb96b9060240161010060405180830381865afa1580156122b0573d6000803e3d6000fd5b505050506040513d601f19601f820116820180604052508101906122d4919061522c565b604001518290613c13565b60095460405163661f1cf560e01b8152600481018790526001600160a01b039091169063661f1cf590602401602060405180830381865afa158015612328573d6000803e3d6000fd5b505050506040513d601f19601f8201168201806040525081019061234c9190614db3565b1015949350505050565b6000818152600660209081526040808320548352600590915290819020549051630ae161cd60e21b8152600481018390526001600160a01b0390911690632b85873490602401600060405180830381600087803b1580156123b657600080fd5b505af11580156123ca573d6000803e3d6000fd5b5050506000828152600660209081526040808320548352600590915280822054905163709a664160e11b8152600481018590529192508291829182916001600160a01b039091169063e134cc82906024016080604051808303816000875af115801561243a573d6000803e3d6000fd5b505050506040513d601f19601f8201168201806040525081019061245e9190615124565b93509350935093506124738585858585613cf5565b60008054868252600160208190526040928390200154915163665293b360e11b8152600481018890526024810192909252604482018490526001600160a01b03169063cca5276690606401600060405180830381600087803b1580156124d857600080fd5b505af11580156124ec573d6000803e3d6000fd5b505050506124f985613c3d565b60408051851515815260208101859052908101839052811515606082015285907f77220ccc88401eef4453630e1f9b709ab45bd7912e6599a260abd10a84ac3ed29060800160405180910390a25050505050565b6000546001600160a01b031633148061257057506008546001600160a01b031633145b6125a95760405162461bcd60e51b815260206004820152600a60248201526910bb30b634b230ba37b960b11b6044820152606401610e44565b6000818152600660209081526040808320548352600590915280822054600954915163068bcd8d60e01b8152600481018590526001600160a01b039182169392919091169063068bcd8d90602401602060405180830381865afa158015612614573d6000803e3d6000fd5b505050506040513d601f19601f820116820180604052508101906126389190615170565b600954604051634bee760b60e11b8152600481018690529192506001600160a01b0316906397dcec1690602401602060405180830381865afa158015612682573d6000803e3d6000fd5b505050506040513d601f19601f820116820180604052508101906126a69190614db3565b6003146126e85760405162461bcd60e51b815260206004820152601060248201526f10b6b0b935b2ba21b7b73234ba34b7b760811b6044820152606401610e44565b60405163238f0e7560e11b8152600481018490526001600160a01b0383169063471e1cea90602401602060405180830381865afa15801561272d573d6000803e3d6000fd5b505050506040513d601f19601f820116820180604052508101906127519190614b26565b6127945760405162461bcd60e51b815260206004820152601460248201527310b4b739ba393ab6b2b73a21b7b73234ba34b7b760611b6044820152606401610e44565b60095460405163cabe2ae160e01b8152600481018590526001600160a01b039091169063cabe2ae190602401600060405180830381600087803b1580156127da57600080fd5b505af11580156127ee573d6000803e3d6000fd5b505060095460405163b1283e7760e01b815260048101879052600093506001600160a01b03909116915063b1283e7790602401600060405180830381865afa15801561283e573d6000803e3d6000fd5b505050506040513d6000823e601f3d908101601f19168201604052612866919081019061518d565b60095460405163661f1cf560e01b8152600481018d9052919850600097506001600160a01b0316955063661f1cf5945060240192506128a3915050565b602060405180830381865afa1580156128c0573d6000803e3d6000fd5b505050506040513d601f19601f820116820180604052508101906128e49190614db3565b604051634b7e8e2160e11b8152306004820152602481018290529091506001600160a01b038416906396fd1c4290604401600060405180830381600087803b15801561292f57600080fd5b505af1158015612943573d6000803e3d6000fd5b50506040516376da9e9f60e11b815260048101889052600092506001600160a01b038716915063edb53d3e90602401602060405180830381865afa15801561298f573d6000803e3d6000fd5b505050506040513d601f19601f820116820180604052508101906129b39190615170565b9050846001600160a01b031663c5d664c66040518163ffffffff1660e01b8152600401602060405180830381865afa1580156129f3573d6000803e3d6000fd5b505050506040513d601f19601f82011682018060405250810190612a179190615170565b60405163095ea7b360e01b81526001600160a01b03838116600483015260248201859052919091169063095ea7b3906044016020604051808303816000875af1158015612a68573d6000803e3d6000fd5b505050506040513d601f19601f82011682018060405250810190612a8c9190614b26565b508215612c955760095460405163054d50b360e21b815260048101889052612bde9188916001600160a01b039091169063153542cc90602401602060405180830381865afa158015612ae2573d6000803e3d6000fd5b505050506040513d601f19601f82011682018060405250810190612b069190615170565b6001600160a01b03166318160ddd6040518163ffffffff1660e01b8152600401602060405180830381865afa158015612b43573d6000803e3d6000fd5b505050506040513d601f19601f82011682018060405250810190612b679190614db3565b604051634f626a0760e11b8152600481018a90526001600160a01b03891690639ec4d40e90602401600060405180830381865afa158015612bac573d6000803e3d6000fd5b505050506040513d6000823e601f3d908101601f19168201604052612bd49190810190614c2c565b6101a00151613ff7565b604051636e553f6560e01b8152600481018390523060248201526000906001600160a01b03831690636e553f65906044016020604051808303816000875af1158015612c2e573d6000803e3d6000fd5b505050506040513d601f19601f82011682018060405250810190612c529190614db3565b11612c905760405162461bcd60e51b815260206004820152600e60248201526d11115413d4d25517d1905253115160921b6044820152606401610e44565b612df6565b6040516303d972f160e21b8152600481018790526001600160a01b03861690630f65cbc490602401602060405180830381865afa158015612cda573d6000803e3d6000fd5b505050506040513d601f19601f82011682018060405250810190612cfe9190614db3565b600003612d1457612d0f8685614107565b612d1d565b612d1d86614352565b846001600160a01b031663c5d664c66040518163ffffffff1660e01b8152600401602060405180830381865afa158015612d5b573d6000803e3d6000fd5b505050506040513d601f19601f82011682018060405250810190612d7f9190615170565b60405163a9059cbb60e01b81526001600160a01b03838116600483015260248201859052919091169063a9059cbb906044016020604051808303816000875af1158015612dd0573d6000803e3d6000fd5b505050506040513d601f19601f82011682018060405250810190612df49190614b26565b505b6000868152600160208190526040918290208481559151624e1afd60e81b81526004810189905260248101859052908201546044820152600290910154606482015283151560848201526001600160a01b03861690634e1afd009060a401600060405180830381600087803b158015612e6e57600080fd5b505af1158015612e82573d6000803e3d6000fd5b50505050836001600160a01b0316638d01450f6040518163ffffffff1660e01b8152600401600060405180830381600087803b158015612ec157600080fd5b505af1158015612ed5573d6000803e3d6000fd5b5050506000878152600160205260409081902090518892507fa5a0c282064b5581aa97f2fdef075816b806dd6394a5eaaf1831ec95a1f79d5791611a9c916152bb565b600080546040516317c2ad2760e21b815260048101849052336024820152829182916001600160a01b0390911690635f0ab49c9060440160408051808303816000875af1158015612f6d573d6000803e3d6000fd5b505050506040513d601f19601f82011682018060405250810190612f91919061502c565b60095460405163334b11d360e11b81526004810188905260248101849052604481018390523360648201529294509092506001600160a01b03169063669623a690608401600060405180830381600087803b158015612fef57600080fd5b505af1158015613003573d6000803e3d6000fd5b50505050613010846109be565b1561307d5761301e8461254d565b60095460405163cabe2ae160e01b8152600481018690526001600160a01b039091169063cabe2ae190602401600060405180830381600087803b15801561306457600080fd5b505af1158015613078573d6000803e3d6000fd5b505050505b5092915050565b60008054604051633519918760e21b8152600481018490526001600160a01b039091169063d466461c90602401610ba8565b60008054604051633597b25960e21b8152600481018490526001600160a01b039091169063d65ec96490602401610ba8565b6009546001600160a01b031633148061310b57506008546001600160a01b031633145b6131275760405162461bcd60e51b8152600401610e4490615069565b6001600160a01b03811661313a57600080fd5b600980546001600160a01b0319166001600160a01b0392909216919091179055565b6009546001600160a01b031633148061317f57506008546001600160a01b031633145b61319b5760405162461bcd60e51b8152600401610e4490615069565b6131a482611d87565b600954604051633c16f3ed60e21b8152600481018490526001600160a01b03918216602482015291169063f05bcfb490604401611484565b600c54604051637453c01360e11b81526001600160a01b03848116600483015260248201849052600092169063e8a7802690604401610cfc565b6001600160a01b0383166132585760405162461bcd60e51b815260206004820152600960248201526830b2323932b9b9982960b91b6044820152606401610e44565b6101408201516001600160a01b031661329f5760405162461bcd60e51b815260206004820152600960248201526861646472657373304960b81b6044820152606401610e44565b6000818152600560205260409020546001600160a01b03166132ef5760405162461bcd60e51b815260206004820152600960248201526830b2323932b9b9982b60b91b6044820152606401610e44565b600081815260056020908152604080832054600954825163764bc84160e11b815292516001600160a01b039283169594919092169263ec97908292600480830193928290030181865afa15801561334a573d6000803e3d6000fd5b505050506040513d601f19601f8201168201806040525081019061336e9190614db3565b60008181526006602090815260408083208790558683526007825280832080546001818101835591855283852001859055815180830183526101408a01516001600160a01b0390811682528b8116828601908152878752600390955294839020905181549086166001600160a01b031991821617825593519101805491851691909316179091556009548151637572cb1f60e01b81529151939450821692634e042a5992861691637572cb1f916004808301926101009291908290030181865afa158015613440573d6000803e3d6000fd5b505050506040513d601f19601f82011682018060405250810190613464919061522c565b846001600160a01b0316636c321c8a6040518163ffffffff1660e01b8152600401602060405180830381865afa1580156134a2573d6000803e3d6000fd5b505050506040513d601f19601f820116820180604052508101906134c69190614db3565b846040518463ffffffff1660e01b81526004016134e5939291906152dc565b600060405180830381600087803b1580156134ff57600080fd5b505af1158015613513573d6000803e3d6000fd5b5050600b5460008681526005602090815260408083205481516362eb326360e11b8152915193965086955085946001600160a01b039081169463981f513694919092169263c5d664c692600480830193928290030181865afa15801561357d573d6000803e3d6000fd5b505050506040513d601f19601f820116820180604052508101906135a19190615170565b60095460405160e084901b6001600160e01b03191681526001600160a01b039283166004820152911660248201526044016060604051808303816000875af11580156135f1573d6000803e3d6000fd5b505050506040513d601f19601f8201168201806040525081019061361591906152fe565b92509250925086602001511561389557670de0b6b3a7640000876101a00151602001511115801561365457506101a08701516080810151602090910151105b61368c5760405162461bcd60e51b8152602060048201526009602482015268282924a1a29022a92960b91b6044820152606401610e44565b6101a08701805142606090910152518051602082015160809092015160095460405163c6ceb96b60e01b8152600481018990526001600160a01b03868116956334327d8b95949093909291169063c6ceb96b9060240161010060405180830381865afa158015613700573d6000803e3d6000fd5b505050506040513d601f19601f82011682018060405250810190613724919061522c565b602001516040516001600160e01b031960e087901b16815260048101949094526024840192909252604483015260648201526084016020604051808303816000875af1158015613778573d6000803e3d6000fd5b505050506040513d601f19601f8201168201806040525081019061379c9190614db3565b6101a088015160c0015260095461012088015160405163080ec90d60e21b81526001600160a01b039092169163203b2434916137e5918891869189918991600190600401615377565b600060405180830381600087803b1580156137ff57600080fd5b505af1158015613813573d6000803e3d6000fd5b50506000546101a08a01515160208b0151604051639c84342360e01b8152600481018a90526024810192909252151560448201526001600160a01b039091169250639c8434239150606401600060405180830381600087803b15801561387857600080fd5b505af115801561388c573d6000803e3d6000fd5b50505050613a65565b60c087015160e088015160095460405163c6ceb96b60e01b8152600481018890526001600160a01b03858116946375e2d946949093909291169063c6ceb96b9060240161010060405180830381865afa1580156138f6573d6000803e3d6000fd5b505050506040513d601f19601f8201168201806040525081019061391a919061522c565b602001516040516001600160e01b031960e086901b168152600481019390935260248301919091526044820152606401600060405180830381600087803b15801561396457600080fd5b505af1158015613978573d6000803e3d6000fd5b50506009546101208a015160405163080ec90d60e21b81526001600160a01b03909216935063203b243492506139bb918891869189918991600090600401615377565b600060405180830381600087803b1580156139d557600080fd5b505af11580156139e9573d6000803e3d6000fd5b505060005460c08a015160208b0151604051639c84342360e01b8152600481018a90526024810192909252151560448201526001600160a01b039091169250639c8434239150606401600060405180830381600087803b158015613a4c57600080fd5b505af1158015613a60573d6000803e3d6000fd5b505050505b60a087018490526040516398d796e760e01b81526001600160a01b038616906398d796e790613a98908a90600401615509565b600060405180830381600087803b158015613ab257600080fd5b505af1158015613ac6573d6000803e3d6000fd5b505050600087815260056020526040908190205490516001600160a01b038b811693509091169086907fc276e8dd3cf2547c0646ef7093b7ef8fb4edc8fde6df7574f8757ca3336e940f90613b22908690899089908f9061551c565b60405180910390a45050506001600160a01b03909416600090815260046020526040902093909355505050565b600080546040516375ea6e2360e11b8152600481018490526001600160a01b039091169063ebd4dc4690602401610ba8565b6009546001600160a01b0316331480613ba457506008546001600160a01b031633145b613bc05760405162461bcd60e51b8152600401610e4490615069565b6000818152600660209081526040808320548352600590915290819020549051633c16f3ed60e21b8152600481018590526001600160a01b0384811660248301529091169063f05bcfb490604401610efd565b6000610b728383670de0b6b3a764000061441d565b6000610b7283670de0b6b3a76400008461441d565b60095460405163068bcd8d60e01b8152600481018390526001600160a01b039091169063068bcd8d90602401602060405180830381865afa158015613c86573d6000803e3d6000fd5b505050506040513d601f19601f82011682018060405250810190613caa9190615170565b6001600160a01b03166396fd1c42613cc183611d87565b6040516001600160e01b031960e084901b1681526001600160a01b03909116600482015260001960248201526044016118a5565b8315613d09578215613d0957613d0961555a565b60095460405163054d50b360e21b8152600481018790526000916001600160a01b03169063153542cc90602401602060405180830381865afa158015613d53573d6000803e3d6000fd5b505050506040513d601f19601f82011682018060405250810190613d779190615170565b6001600160a01b03166318160ddd6040518163ffffffff1660e01b8152600401602060405180830381865afa158015613db4573d6000803e3d6000fd5b505050506040513d601f19601f82011682018060405250810190613dd89190614db3565b90506000808511613dea576000613eb8565b60095460405163920f4e5560e01b8152600481018990526001600160a01b039091169063920f4e5590602401602060405180830381865afa158015613e33573d6000803e3d6000fd5b505050506040513d601f19601f82011682018060405250810190613e579190615170565b6001600160a01b03166318160ddd6040518163ffffffff1660e01b8152600401602060405180830381865afa158015613e94573d6000803e3d6000fd5b505050506040513d601f19601f82011682018060405250810190613eb89190614db3565b9050600086613eee57613ed5613ece8385615019565b8790613c28565b613ee790670de0b6b3a7640000615019565b9050613f2d565b613ef88584613c28565b670de0b6b3a764000011613f0e57506000613f2d565b613f188584613c28565b613f2a90670de0b6b3a7640000614d67565b90505b6009546040516361fa5af560e01b8152600481018a9052881515602482015285156044820152606481018390526001600160a01b03909116906361fa5af590608401600060405180830381600087803b158015613f8957600080fd5b505af1158015613f9d573d6000803e3d6000fd5b505050505050505050505050565b613ff2838383604051602401613fc393929190615570565b60408051601f198184030181529190526020810180516001600160e01b031663969cdd0360e01b17905261443b565b505050565b60008160a001511161403a5760405162461bcd60e51b815260206004820152600c60248201526b18102622ab2fa320a1aa27a960a11b6044820152606401610e44565b60405180606001604052806000815260200161407c83608001516140768560a00151670de0b6b3a764000061406f9190615019565b8790613c13565b90613c13565b8152602001600081525060016000858152602001908152602001600020600082015181600001556020820151816001015560408201518160020155905050613ff2604051806040016040528060098152602001681c1c9a5b98da5c185b60ba1b81525061410283608001516140768560a00151670de0b6b3a764000061406f9190615019565b61445c565b600082815260066020908152604080832054835260059091528082205490516318353be960e21b81526004810185905282916001600160a01b0316906360d4efa4906024016040805180830381865afa158015614168573d6000803e3d6000fd5b505050506040513d601f19601f8201168201806040525081019061418c919061502c565b60095460405163661f1cf560e01b8152600481018890529294509092506000916142949161428e916001600160a01b039091169063661f1cf590602401602060405180830381865afa1580156141e6573d6000803e3d6000fd5b505050506040513d601f19601f8201168201806040525081019061420a9190614db3565b60095460405163c6ceb96b60e01b8152600481018a9052670de0b6b3a7640000916001600160a01b03169063c6ceb96b9060240161010060405180830381865afa15801561425c573d6000803e3d6000fd5b505050506040513d601f19601f82011682018060405250810190614280919061522c565b60c001516140769190615019565b846144a5565b9050600061430a856001600160a01b03166314e2b929846040518263ffffffff1660e01b81526004016142c991815260200190565b602060405180830381865afa1580156142e6573d6000803e3d6000fd5b505050506040513d601f19601f8201168201806040525081019061428e9190614db3565b60408051606081018252600080825260208083019687528284019485529981526001998a90529190912090518155925196830196909655509351600290940193909355505050565b600081815260066020908152604080832054835260059091528082205490516318353be960e21b81526004810184905282916001600160a01b0316906360d4efa4906024016040805180830381865afa1580156143b3573d6000803e3d6000fd5b505050506040513d601f19601f820116820180604052508101906143d7919061502c565b6040805160608101825260008082526020808301958652828401948552978152600197889052919091209051815591519482019490945592516002909301929092555050565b600082600019048411830215820261443457600080fd5b5091020490565b80516a636f6e736f6c652e6c6f67602083016000808483855afa5050505050565b6144a18282604051602401614472929190615595565b60408051601f198184030181529190526020810180516001600160e01b03166309710a9d60e41b17905261443b565b5050565b6000818311156144b55781610b72565b5090919050565b6000602082840312156144ce57600080fd5b5035919050565b6001600160a01b0381168114611f4d57600080fd5b80356144f5816144d5565b919050565b60006020828403121561450c57600080fd5b8135610b72816144d5565b8015158114611f4d57600080fd5b80356144f581614517565b6000806040838503121561454357600080fd5b82359150602083013561455581614517565b809150509250929050565b6000806040838503121561457357600080fd5b823591506020830135614555816144d5565b634e487b7160e01b600052604160045260246000fd5b60405161010081016001600160401b03811182821017156145be576145be614585565b60405290565b60405160e081016001600160401b03811182821017156145be576145be614585565b6040516101c081016001600160401b03811182821017156145be576145be614585565b604051601f8201601f191681016001600160401b038111828210171561463157614631614585565b604052919050565b6000806000806000808688036101a081121561465457600080fd5b873561465f816144d5565b9650602088013561466f81614517565b9550604088013594506060880135935060808801359250610100609f19820181131561469a57600080fd5b6146a261459b565b915060a0890135825260c0890135602083015260e0890135604083015280890135606083015250610120880135608082015261014088013560a082015261016088013560c082015261018088013560e0820152809150509295509295509295565b60006001600160401b0382111561471c5761471c614585565b5060051b60200190565b6000806040838503121561473957600080fd5b823591506020808401356001600160401b0381111561475757600080fd5b8401601f8101861361476857600080fd5b803561477b61477682614703565b614609565b81815260059190911b8201830190838101908883111561479a57600080fd5b928401925b828410156147b85783358252928401929084019061479f565b80955050505050509250929050565b6020808252825182820181905260009190848201906040850190845b818110156148085783516001600160a01b0316835292840192918401916001016147e3565b50909695505050505050565b6000806040838503121561482757600080fd5b50508035926020909101359150565b600081518084526020808501945080840160005b838110156148665781518752958201959082019060010161484a565b509495945050505050565b602081526000610b726020830184614836565b6000806040838503121561489757600080fd5b82356148a2816144d5565b946020939093013593505050565b60006001600160401b038211156148c9576148c9614585565b50601f01601f191660200190565b600082601f8301126148e857600080fd5b81356148f6614776826148b0565b81815284602083860101111561490b57600080fd5b816020850160208301376000918101602001919091529392505050565b60068110611f4d57600080fd5b80356144f581614928565b600060e0828403121561495257600080fd5b61495a6145c4565b9050813581526020820135602082015260408201356040820152606082013560608201526080820135608082015260a082013560a082015260c082013560c082015292915050565b6000806000606084860312156149b757600080fd5b83356149c2816144d5565b925060208401356001600160401b03808211156149de57600080fd5b9085019061028082880312156149f357600080fd5b6149fb6145e6565b82358152614a0b60208401614525565b6020820152614a1c60408401614525565b6040820152606083013560608201526080830135608082015260a083013560a082015260c083013560c082015260e083013560e08201526101008084013581830152506101208084013583811115614a7357600080fd5b614a7f8a8287016148d7565b8284015250506101409150614a958284016144ea565b828201526101609150614aa9828401614935565b82820152610180915081830135828201526101a09150614acb88838501614940565b82820152809450505050604084013590509250925092565b600080600060608486031215614af857600080fd5b833592506020840135614b0a816144d5565b929592945050506040919091013590565b80516144f581614517565b600060208284031215614b3857600080fd5b8151610b7281614517565b60005b83811015614b5e578181015183820152602001614b46565b50506000910152565b600082601f830112614b7857600080fd5b8151614b86614776826148b0565b818152846020838601011115614b9b57600080fd5b614bac826020830160208701614b43565b949350505050565b80516144f5816144d5565b80516144f581614928565b600060e08284031215614bdc57600080fd5b614be46145c4565b9050815181526020820151602082015260408201516040820152606082015160608201526080820151608082015260a082015160a082015260c082015160c082015292915050565b600060208284031215614c3e57600080fd5b81516001600160401b0380821115614c5557600080fd5b908301906102808286031215614c6a57600080fd5b614c726145e6565b82518152614c8260208401614b1b565b6020820152614c9360408401614b1b565b6040820152606083015160608201526080830151608082015260a083015160a082015260c083015160c082015260e083015160e08201526101008084015181830152506101208084015183811115614cea57600080fd5b614cf688828701614b67565b8284015250506101409150614d0c828401614bb4565b828201526101609150614d20828401614bbf565b82820152610180915081830151828201526101a09150614d4286838501614bca565b91810191909152949350505050565b634e487b7160e01b600052601160045260246000fd5b81810381811115610a2d57610a2d614d51565b8082028115828204841417610a2d57610a2d614d51565b600082614dae57634e487b7160e01b600052601260045260246000fd5b500490565b600060208284031215614dc557600080fd5b5051919050565b60008060008060008060c08789031215614de557600080fd5b8651614df081614517565b6020880151909650614e0181614517565b6040880151909550614e1281614517565b6060880151909450614e2381614517565b6080880151909350614e3481614517565b8092505060a087015190509295509295509295565b805182526020810151602083015260408101516040830152606081015160608301526080810151608083015260a081015160a083015260c081015160c083015260e081015160e08301525050565b6001600160a01b038881168252871660208201528515156040820152606081018590526080810184905260a081018390526101c08101614eda60c0830184614e49565b98975050505050505050565b60008060408385031215614ef957600080fd5b8251614f04816144d5565b6020939093015192949293505050565b8781526001600160a01b03871660208201528515156040820152606081018590526080810184905260a081018390526101c08101614eda60c0830184614e49565b600060208284031215614f6757600080fd5b81516001600160401b0380821115614f7e57600080fd5b9083019060e08286031215614f9257600080fd5b614f9a6145c4565b614fa383614bb4565b8152614fb160208401614bb4565b6020820152614fc260408401614bb4565b6040820152606083015182811115614fd957600080fd5b614fe587828601614b67565b6060830152506080830151608082015260a083015160a082015261500b60c08401614b1b565b60c082015295945050505050565b80820180821115610a2d57610a2d614d51565b6000806040838503121561503f57600080fd5b505080516020909101519092909150565b828152604060208201526000614bac6040830184614836565b60208082526008908201526710b6b0b730b3b2b960c11b604082015260600190565b6000602080838503121561509e57600080fd5b82516001600160401b038111156150b457600080fd5b8301601f810185136150c557600080fd5b80516150d361477682614703565b81815260059190911b820183019083810190878311156150f257600080fd5b928401925b8284101561511957835161510a816144d5565b825292840192908401906150f7565b979650505050505050565b6000806000806080858703121561513a57600080fd5b845161514581614517565b809450506020850151925060408501519150606085015161516581614517565b939692955090935050565b60006020828403121561518257600080fd5b8151610b72816144d5565b600080600080600080600060e0888a0312156151a857600080fd5b87516151b3816144d5565b60208901519097506151c4816144d5565b60408901519096506151d5816144d5565b60608901519095506001600160401b038111156151f157600080fd5b6151fd8a828b01614b67565b9450506080880151925060a0880151915060c088015161521c81614517565b8091505092959891949750929550565b600061010080838503121561524057600080fd5b604051908101906001600160401b038211818310171561526257615262614585565b81604052835181526020840151602082015260408401516040820152606084015160608201526080840151608082015260a084015160a082015260c084015160c082015260e084015160e0820152809250505092915050565b81548152600182015460208201526002820154604082015260608101610a2d565b61014081016152eb8286614e49565b6101008201939093526101200152919050565b60008060006060848603121561531357600080fd5b835161531e816144d5565b602085015190935061532f816144d5565b6040850151909250615340816144d5565b809150509250925092565b60008151808452615363816020860160208601614b43565b601f01601f19169290920160200192915050565b8681526001600160a01b03868116602083015285811660408301528416606082015260c0608082018190526000906153b19083018561534b565b905082151560a0830152979650505050505050565b600681106153e457634e487b7160e01b600052602160045260246000fd5b9052565b6000610280825184526020830151615404602086018215159052565b506040830151615418604086018215159052565b50606083015160608501526080830151608085015260a083015160a085015260c083015160c085015260e083015160e085015261010080840151818601525061012080840151828287015261546f8387018261534b565b925050506101408084015161548e828701826001600160a01b03169052565b5050610160808401516154a3828701826153c6565b505061018083810151908501526101a08084015180518287015260208101516101c087015260408101516101e08701526060810151610200870152608081015161022087015260a081015161024087015260c08101516102608701525090949350505050565b602081526000610b7260208301846153e8565b6001600160a01b038581168252848116602083015283166040820152608060608201819052600090615550908301846153e8565b9695505050505050565b634e487b7160e01b600052600160045260246000fd5b606081526000615583606083018661534b565b60208301949094525060400152919050565b6040815260006155a8604083018561534b565b9050826020830152939250505056fea264697066735822122011195ffd141c2e7ba9115b84e54289122e486e4498937eedb063d79ec049666464736f6c63430008110033",
    "linkReferences": {
      "contracts/bonds/GBC.sol": {
        "LinearCurve": [
          {
            "start": 4829,
            "length": 20
          }
        ]
      }
    }
  },
  "methodIdentifiers": {
    "ad_to_id(address)": "7789ec5a",
    "approvalCondition(uint256)": "05a1ce99",
    "approveMarket(uint256)": "cabe2ae1",
    "beforeResolve(uint256)": "2b858734",
    "createVault(address,bool,uint256,uint256,uint256,(uint256,uint256,uint256,uint256,uint256,uint256,uint256,uint256))": "340e04b3",
    "deduct_selling_fee(uint256)": "08a8333f",
    "deniedValidator(uint256,address)": "830e2a02",
    "denyMarket(uint256)": "4cb44087",
    "forceCloseInstrument(uint256,bool)": "0c33df18",
    "fulfillRandomWords(uint256,uint256[])": "38ba4614",
    "getApprovalData(uint256)": "ac1b6b01",
    "getFinalStake(uint256)": "937b6feb",
    "getInitialStake(uint256)": "875e487e",
    "getInstrumentSnapShot(uint256)": "37b4dd3a",
    "getMarketId(address)": "f25fcc9f",
    "getMarketIds(uint256)": "b1b7e1f2",
    "getNumApproved(uint256)": "805798ac",
    "getNumResolved(uint256)": "ebd4dc46",
    "getTotalStaked(uint256)": "2f8899f3",
    "getTotalSupply(uint256)": "92ab723e",
    "getTotalValidatorSales(uint256)": "37bc93b0",
    "getTraderScore(address)": "08ad90a5",
    "getValidatorCap(uint256)": "d466461c",
    "getValidatorPrice(uint256)": "a40c63f7",
    "getValidatorRequiredCollateral(uint256)": "d65ec964",
    "getVault(uint256)": "9403b634",
    "getVaultAd(uint256)": "c4abc650",
    "getVaultfromId(uint256)": "9fe1458b",
    "hasApproved(uint256,address)": "2358d5a8",
    "id_parent(uint256)": "8fbbc868",
    "initiateMarket(address,(bytes32,bool,bool,uint256,uint256,uint256,uint256,uint256,uint256,string,address,uint8,uint256,(uint256,uint256,uint256,uint256,uint256,uint256,uint256)),uint256)": "e8e3fbb7",
    "isReputable(address,uint256)": "e8a78026",
    "isValidator(uint256,address)": "23f2a73f",
    "isVerified(address)": "b9209e33",
    "marketCondition(uint256)": "b743939b",
    "marketIdToVaultId(uint256)": "ce93ec67",
    "marketId_to_vaultId(uint256)": "14f2b14c",
    "market_data(uint256)": "8d4f16d7",
    "pullLeverage(uint256,uint256)": "da0a697f",
    "redeemValidator(uint256,address)": "8f5709a5",
    "redeem_transfer(uint256,address,uint256)": "f0fd1d38",
    "resolveCondition(uint256)": "81e1b07c",
    "resolveMarket(uint256)": "6399d03d",
    "riskTransferPenalty()": "65bc5ef9",
    "setMarketManager(address)": "d82aff11",
    "setPoolFactory(address)": "473597a0",
    "setReputationManager(address)": "56a837f4",
    "setValidatorManager(address)": "45f34e92",
    "setVaultFactory(address)": "3ea7fbdb",
    "testApproveMarket(uint256)": "b37eedcd",
    "testResolveMarket(uint256)": "c3f956fa",
    "testVerifyAddress()": "03cccb35",
    "unlockValidatorStake(uint256)": "8dc3d9b4",
    "validatorApprove(uint256)": "d1227136",
    "validatorResolve(uint256)": "ad4e4e70",
    "vault_to_marketIds(uint256,uint256)": "482c0aa8",
    "vaults(uint256)": "8c64ea4a",
    "verified(address)": "0db065f4",
    "viewValidators(uint256)": "3ec8dc3b"
  },
  "id": 13
}