{
  "abi": [
    {
      "inputs": [
        {
          "internalType": "address",
          "name": "_creator_address",
          "type": "address"
        },
        {
          "internalType": "address",
          "name": "_interep_address",
          "type": "address"
        }
      ],
      "stateMutability": "nonpayable",
      "type": "constructor"
    },
    {
      "anonymous": false,
      "inputs": [
        {
          "indexed": true,
          "internalType": "uint256",
          "name": "marketId",
          "type": "uint256"
        },
        {
          "components": [
            {
              "internalType": "uint256",
              "name": "managers_stake",
              "type": "uint256"
            },
            {
              "internalType": "uint256",
              "name": "approved_principal",
              "type": "uint256"
            },
            {
              "internalType": "uint256",
              "name": "approved_yield",
              "type": "uint256"
            }
          ],
          "indexed": false,
          "internalType": "struct Controller.ApprovalData",
          "name": "data",
          "type": "tuple"
        }
      ],
      "name": "MarketApproved",
      "type": "event"
    },
    {
      "anonymous": false,
      "inputs": [
        {
          "indexed": true,
          "internalType": "uint256",
          "name": "marketId",
          "type": "uint256"
        }
      ],
      "name": "MarketDenied",
      "type": "event"
    },
    {
      "anonymous": false,
      "inputs": [
        {
          "indexed": true,
          "internalType": "uint256",
          "name": "marketId",
          "type": "uint256"
        },
        {
          "indexed": true,
          "internalType": "address",
          "name": "vault",
          "type": "address"
        },
        {
          "indexed": true,
          "internalType": "address",
          "name": "recipient",
          "type": "address"
        },
        {
          "indexed": false,
          "internalType": "address",
          "name": "pool",
          "type": "address"
        },
        {
          "indexed": false,
          "internalType": "address",
          "name": "longZCB",
          "type": "address"
        },
        {
          "indexed": false,
          "internalType": "address",
          "name": "shortZCB",
          "type": "address"
        },
        {
          "components": [
            {
              "internalType": "bytes32",
              "name": "name",
              "type": "bytes32"
            },
            {
              "internalType": "bool",
              "name": "isPool",
              "type": "bool"
            },
            {
              "internalType": "bool",
              "name": "trusted",
              "type": "bool"
            },
            {
              "internalType": "uint256",
              "name": "balance",
              "type": "uint256"
            },
            {
              "internalType": "uint256",
              "name": "faceValue",
              "type": "uint256"
            },
            {
              "internalType": "uint256",
              "name": "marketId",
              "type": "uint256"
            },
            {
              "internalType": "uint256",
              "name": "principal",
              "type": "uint256"
            },
            {
              "internalType": "uint256",
              "name": "expectedYield",
              "type": "uint256"
            },
            {
              "internalType": "uint256",
              "name": "duration",
              "type": "uint256"
            },
            {
              "internalType": "string",
              "name": "description",
              "type": "string"
            },
            {
              "internalType": "address",
              "name": "instrument_address",
              "type": "address"
            },
            {
              "internalType": "enum Vault.InstrumentType",
              "name": "instrument_type",
              "type": "uint8"
            },
            {
              "internalType": "uint256",
              "name": "maturityDate",
              "type": "uint256"
            },
            {
              "components": [
                {
                  "internalType": "uint256",
                  "name": "saleAmount",
                  "type": "uint256"
                },
                {
                  "internalType": "uint256",
                  "name": "initPrice",
                  "type": "uint256"
                },
                {
                  "internalType": "uint256",
                  "name": "promisedReturn",
                  "type": "uint256"
                },
                {
                  "internalType": "uint256",
                  "name": "inceptionTime",
                  "type": "uint256"
                },
                {
                  "internalType": "uint256",
                  "name": "inceptionPrice",
                  "type": "uint256"
                },
                {
                  "internalType": "uint256",
                  "name": "leverageFactor",
                  "type": "uint256"
                },
                {
                  "internalType": "uint256",
                  "name": "managementFee",
                  "type": "uint256"
                }
              ],
              "internalType": "struct Vault.PoolData",
              "name": "poolData",
              "type": "tuple"
            }
          ],
          "indexed": false,
          "internalType": "struct Vault.InstrumentData",
          "name": "instrumentData",
          "type": "tuple"
        }
      ],
      "name": "MarketInitiated",
      "type": "event"
    },
    {
      "anonymous": false,
      "inputs": [
        {
          "indexed": true,
          "internalType": "uint256",
          "name": "marketId",
          "type": "uint256"
        },
        {
          "indexed": false,
          "internalType": "bool",
          "name": "atLoss",
          "type": "bool"
        },
        {
          "indexed": false,
          "internalType": "uint256",
          "name": "extraGain",
          "type": "uint256"
        },
        {
          "indexed": false,
          "internalType": "uint256",
          "name": "principalLoss",
          "type": "uint256"
        },
        {
          "indexed": false,
          "internalType": "bool",
          "name": "premature",
          "type": "bool"
        }
      ],
      "name": "MarketResolved",
      "type": "event"
    },
    {
      "anonymous": false,
      "inputs": [
        {
          "indexed": true,
          "internalType": "uint256",
          "name": "marketId",
          "type": "uint256"
        },
        {
          "indexed": false,
          "internalType": "uint256",
          "name": "amount",
          "type": "uint256"
        },
        {
          "indexed": false,
          "internalType": "address",
          "name": "to",
          "type": "address"
        }
      ],
      "name": "RedeemTransfer",
      "type": "event"
    },
    {
      "anonymous": false,
      "inputs": [
        {
          "indexed": true,
          "internalType": "address",
          "name": "vault",
          "type": "address"
        },
        {
          "indexed": false,
          "internalType": "uint256",
          "name": "vaultId",
          "type": "uint256"
        },
        {
          "indexed": false,
          "internalType": "address",
          "name": "underlying",
          "type": "address"
        },
        {
          "indexed": false,
          "internalType": "bool",
          "name": "onlyVerified",
          "type": "bool"
        },
        {
          "indexed": false,
          "internalType": "uint256",
          "name": "r",
          "type": "uint256"
        },
        {
          "indexed": false,
          "internalType": "uint256",
          "name": "assetLimit",
          "type": "uint256"
        },
        {
          "indexed": false,
          "internalType": "uint256",
          "name": "totalAssetLimit",
          "type": "uint256"
        },
        {
          "components": [
            {
              "internalType": "uint256",
              "name": "N",
              "type": "uint256"
            },
            {
              "internalType": "uint256",
              "name": "sigma",
              "type": "uint256"
            },
            {
              "internalType": "uint256",
              "name": "alpha",
              "type": "uint256"
            },
            {
              "internalType": "uint256",
              "name": "omega",
              "type": "uint256"
            },
            {
              "internalType": "uint256",
              "name": "delta",
              "type": "uint256"
            },
            {
              "internalType": "uint256",
              "name": "r",
              "type": "uint256"
            },
            {
              "internalType": "uint256",
              "name": "s",
              "type": "uint256"
            },
            {
              "internalType": "uint256",
              "name": "steak",
              "type": "uint256"
            }
          ],
          "indexed": false,
          "internalType": "struct MarketManager.MarketParameters",
          "name": "defaultParams",
          "type": "tuple"
        }
      ],
      "name": "VaultCreated",
      "type": "event"
    },
    {
      "inputs": [
        {
          "internalType": "address",
          "name": "",
          "type": "address"
        }
      ],
      "name": "ad_to_id",
      "outputs": [
        {
          "internalType": "uint256",
          "name": "",
          "type": "uint256"
        }
      ],
      "stateMutability": "view",
      "type": "function"
    },
    {
      "inputs": [
        {
          "internalType": "uint256",
          "name": "marketId",
          "type": "uint256"
        }
      ],
      "name": "approvalCondition",
      "outputs": [
        {
          "internalType": "bool",
          "name": "",
          "type": "bool"
        }
      ],
      "stateMutability": "view",
      "type": "function"
    },
    {
      "inputs": [
        {
          "internalType": "uint256",
          "name": "marketId",
          "type": "uint256"
        }
      ],
      "name": "approveMarket",
      "outputs": [],
      "stateMutability": "nonpayable",
      "type": "function"
    },
    {
      "inputs": [
        {
          "internalType": "uint256",
          "name": "marketId",
          "type": "uint256"
        }
      ],
      "name": "beforeResolve",
      "outputs": [],
      "stateMutability": "nonpayable",
      "type": "function"
    },
    {
      "inputs": [
        {
          "internalType": "address",
          "name": "underlying",
          "type": "address"
        },
        {
          "internalType": "bool",
          "name": "_onlyVerified",
          "type": "bool"
        },
        {
          "internalType": "uint256",
          "name": "_r",
          "type": "uint256"
        },
        {
          "internalType": "uint256",
          "name": "_asset_limit",
          "type": "uint256"
        },
        {
          "internalType": "uint256",
          "name": "_total_asset_limit",
          "type": "uint256"
        },
        {
          "components": [
            {
              "internalType": "uint256",
              "name": "N",
              "type": "uint256"
            },
            {
              "internalType": "uint256",
              "name": "sigma",
              "type": "uint256"
            },
            {
              "internalType": "uint256",
              "name": "alpha",
              "type": "uint256"
            },
            {
              "internalType": "uint256",
              "name": "omega",
              "type": "uint256"
            },
            {
              "internalType": "uint256",
              "name": "delta",
              "type": "uint256"
            },
            {
              "internalType": "uint256",
              "name": "r",
              "type": "uint256"
            },
            {
              "internalType": "uint256",
              "name": "s",
              "type": "uint256"
            },
            {
              "internalType": "uint256",
              "name": "steak",
              "type": "uint256"
            }
          ],
          "internalType": "struct MarketManager.MarketParameters",
          "name": "default_params",
          "type": "tuple"
        },
        {
          "internalType": "string",
          "name": "_description",
          "type": "string"
        }
      ],
      "name": "createVault",
      "outputs": [],
      "stateMutability": "nonpayable",
      "type": "function"
    },
    {
      "inputs": [
        {
          "internalType": "uint256",
          "name": "marketId",
          "type": "uint256"
        },
        {
          "internalType": "address",
          "name": "validator",
          "type": "address"
        }
      ],
      "name": "deniedValidator",
      "outputs": [
        {
          "internalType": "uint256",
          "name": "collateral_amount",
          "type": "uint256"
        }
      ],
      "stateMutability": "nonpayable",
      "type": "function"
    },
    {
      "inputs": [
        {
          "internalType": "uint256",
          "name": "marketId",
          "type": "uint256"
        }
      ],
      "name": "denyMarket",
      "outputs": [],
      "stateMutability": "nonpayable",
      "type": "function"
    },
    {
      "inputs": [
        {
          "internalType": "uint256",
          "name": "marketId",
          "type": "uint256"
        },
        {
          "internalType": "bool",
          "name": "emergency",
          "type": "bool"
        }
      ],
      "name": "forceCloseInstrument",
      "outputs": [
        {
          "internalType": "bool",
          "name": "",
          "type": "bool"
        }
      ],
      "stateMutability": "nonpayable",
      "type": "function"
    },
    {
      "inputs": [
        {
          "internalType": "uint256",
          "name": "requestId",
          "type": "uint256"
        },
        {
          "internalType": "uint256[]",
          "name": "randomWords",
          "type": "uint256[]"
        }
      ],
      "name": "fulfillRandomWords",
      "outputs": [],
      "stateMutability": "nonpayable",
      "type": "function"
    },
    {
      "inputs": [
        {
          "internalType": "uint256",
          "name": "marketId",
          "type": "uint256"
        }
      ],
      "name": "getApprovalData",
      "outputs": [
        {
          "components": [
            {
              "internalType": "uint256",
              "name": "managers_stake",
              "type": "uint256"
            },
            {
              "internalType": "uint256",
              "name": "approved_principal",
              "type": "uint256"
            },
            {
              "internalType": "uint256",
              "name": "approved_yield",
              "type": "uint256"
            }
          ],
          "internalType": "struct Controller.ApprovalData",
          "name": "",
          "type": "tuple"
        }
      ],
      "stateMutability": "view",
      "type": "function"
    },
    {
      "inputs": [
        {
          "internalType": "uint256",
          "name": "marketId",
          "type": "uint256"
        }
      ],
      "name": "getFinalStake",
      "outputs": [
        {
          "internalType": "uint256",
          "name": "",
          "type": "uint256"
        }
      ],
      "stateMutability": "view",
      "type": "function"
    },
    {
      "inputs": [
        {
          "internalType": "uint256",
          "name": "marketId",
          "type": "uint256"
        }
      ],
      "name": "getInitialStake",
      "outputs": [
        {
          "internalType": "uint256",
          "name": "",
          "type": "uint256"
        }
      ],
      "stateMutability": "view",
      "type": "function"
    },
    {
      "inputs": [
        {
          "internalType": "uint256",
          "name": "marketId",
          "type": "uint256"
        }
      ],
      "name": "getInstrumentSnapShot",
      "outputs": [
        {
          "internalType": "uint256",
          "name": "managerStake",
          "type": "uint256"
        },
        {
          "internalType": "uint256",
          "name": "exposurePercentage",
          "type": "uint256"
        },
        {
          "internalType": "uint256",
          "name": "seniorAPR",
          "type": "uint256"
        },
        {
          "internalType": "uint256",
          "name": "approvalPrice",
          "type": "uint256"
        }
      ],
      "stateMutability": "view",
      "type": "function"
    },
    {
      "inputs": [
        {
          "internalType": "address",
          "name": "recipient",
          "type": "address"
        }
      ],
      "name": "getMarketId",
      "outputs": [
        {
          "internalType": "uint256",
          "name": "",
          "type": "uint256"
        }
      ],
      "stateMutability": "view",
      "type": "function"
    },
    {
      "inputs": [
        {
          "internalType": "uint256",
          "name": "vaultId",
          "type": "uint256"
        }
      ],
      "name": "getMarketIds",
      "outputs": [
        {
          "internalType": "uint256[]",
          "name": "",
          "type": "uint256[]"
        }
      ],
      "stateMutability": "view",
      "type": "function"
    },
    {
      "inputs": [
        {
          "internalType": "uint256",
          "name": "marketId",
          "type": "uint256"
        }
      ],
      "name": "getNumApproved",
      "outputs": [
        {
          "internalType": "uint256",
          "name": "",
          "type": "uint256"
        }
      ],
      "stateMutability": "view",
      "type": "function"
    },
    {
      "inputs": [
        {
          "internalType": "uint256",
          "name": "marketId",
          "type": "uint256"
        }
      ],
      "name": "getNumResolved",
      "outputs": [
        {
          "internalType": "uint256",
          "name": "",
          "type": "uint256"
        }
      ],
      "stateMutability": "view",
      "type": "function"
    },
    {
      "inputs": [
        {
          "internalType": "uint256",
          "name": "marketId",
          "type": "uint256"
        }
      ],
      "name": "getTotalStaked",
      "outputs": [
        {
          "internalType": "uint256",
          "name": "",
          "type": "uint256"
        }
      ],
      "stateMutability": "view",
      "type": "function"
    },
    {
      "inputs": [
        {
          "internalType": "uint256",
          "name": "marketId",
          "type": "uint256"
        }
      ],
      "name": "getTotalSupply",
      "outputs": [
        {
          "internalType": "uint256",
          "name": "",
          "type": "uint256"
        }
      ],
      "stateMutability": "view",
      "type": "function"
    },
    {
      "inputs": [
        {
          "internalType": "uint256",
          "name": "marketId",
          "type": "uint256"
        }
      ],
      "name": "getTotalValidatorSales",
      "outputs": [
        {
          "internalType": "uint256",
          "name": "",
          "type": "uint256"
        }
      ],
      "stateMutability": "view",
      "type": "function"
    },
    {
      "inputs": [
        {
          "internalType": "address",
          "name": "trader",
          "type": "address"
        }
      ],
      "name": "getTraderScore",
      "outputs": [
        {
          "internalType": "uint256",
          "name": "",
          "type": "uint256"
        }
      ],
      "stateMutability": "view",
      "type": "function"
    },
    {
      "inputs": [
        {
          "internalType": "uint256",
          "name": "marketId",
          "type": "uint256"
        }
      ],
      "name": "getValidatorCap",
      "outputs": [
        {
          "internalType": "uint256",
          "name": "",
          "type": "uint256"
        }
      ],
      "stateMutability": "view",
      "type": "function"
    },
    {
      "inputs": [
        {
          "internalType": "uint256",
          "name": "marketId",
          "type": "uint256"
        }
      ],
      "name": "getValidatorPrice",
      "outputs": [
        {
          "internalType": "uint256",
          "name": "",
          "type": "uint256"
        }
      ],
      "stateMutability": "view",
      "type": "function"
    },
    {
      "inputs": [
        {
          "internalType": "uint256",
          "name": "marketId",
          "type": "uint256"
        }
      ],
      "name": "getValidatorRequiredCollateral",
      "outputs": [
        {
          "internalType": "uint256",
          "name": "",
          "type": "uint256"
        }
      ],
      "stateMutability": "view",
      "type": "function"
    },
    {
      "inputs": [
        {
          "internalType": "uint256",
          "name": "marketId",
          "type": "uint256"
        }
      ],
      "name": "getVault",
      "outputs": [
        {
          "internalType": "contract Vault",
          "name": "",
          "type": "address"
        }
      ],
      "stateMutability": "view",
      "type": "function"
    },
    {
      "inputs": [
        {
          "internalType": "uint256",
          "name": "marketId",
          "type": "uint256"
        }
      ],
      "name": "getVaultAd",
      "outputs": [
        {
          "internalType": "address",
          "name": "",
          "type": "address"
        }
      ],
      "stateMutability": "view",
      "type": "function"
    },
    {
      "inputs": [
        {
          "internalType": "uint256",
          "name": "vaultId",
          "type": "uint256"
        }
      ],
      "name": "getVaultSnapShot",
      "outputs": [
        {
          "internalType": "uint256",
          "name": "totalProtection",
          "type": "uint256"
        },
        {
          "internalType": "uint256",
          "name": "totalEstimatedAPR",
          "type": "uint256"
        },
        {
          "internalType": "uint256",
          "name": "goalAPR",
          "type": "uint256"
        },
        {
          "internalType": "uint256",
          "name": "exchangeRate",
          "type": "uint256"
        }
      ],
      "stateMutability": "view",
      "type": "function"
    },
    {
      "inputs": [
        {
          "internalType": "uint256",
          "name": "vaultId",
          "type": "uint256"
        }
      ],
      "name": "getVaultfromId",
      "outputs": [
        {
          "internalType": "address",
          "name": "",
          "type": "address"
        }
      ],
      "stateMutability": "view",
      "type": "function"
    },
    {
      "inputs": [
        {
          "internalType": "uint256",
          "name": "marketId",
          "type": "uint256"
        },
        {
          "internalType": "address",
          "name": "validator",
          "type": "address"
        }
      ],
      "name": "hasApproved",
      "outputs": [
        {
          "internalType": "bool",
          "name": "",
          "type": "bool"
        }
      ],
      "stateMutability": "view",
      "type": "function"
    },
    {
      "inputs": [
        {
          "internalType": "uint256",
          "name": "",
          "type": "uint256"
        }
      ],
      "name": "id_parent",
      "outputs": [
        {
          "internalType": "uint256",
          "name": "",
          "type": "uint256"
        }
      ],
      "stateMutability": "view",
      "type": "function"
    },
    {
      "inputs": [
        {
          "internalType": "address",
          "name": "recipient",
          "type": "address"
        },
        {
          "components": [
            {
              "internalType": "bytes32",
              "name": "name",
              "type": "bytes32"
            },
            {
              "internalType": "bool",
              "name": "isPool",
              "type": "bool"
            },
            {
              "internalType": "bool",
              "name": "trusted",
              "type": "bool"
            },
            {
              "internalType": "uint256",
              "name": "balance",
              "type": "uint256"
            },
            {
              "internalType": "uint256",
              "name": "faceValue",
              "type": "uint256"
            },
            {
              "internalType": "uint256",
              "name": "marketId",
              "type": "uint256"
            },
            {
              "internalType": "uint256",
              "name": "principal",
              "type": "uint256"
            },
            {
              "internalType": "uint256",
              "name": "expectedYield",
              "type": "uint256"
            },
            {
              "internalType": "uint256",
              "name": "duration",
              "type": "uint256"
            },
            {
              "internalType": "string",
              "name": "description",
              "type": "string"
            },
            {
              "internalType": "address",
              "name": "instrument_address",
              "type": "address"
            },
            {
              "internalType": "enum Vault.InstrumentType",
              "name": "instrument_type",
              "type": "uint8"
            },
            {
              "internalType": "uint256",
              "name": "maturityDate",
              "type": "uint256"
            },
            {
              "components": [
                {
                  "internalType": "uint256",
                  "name": "saleAmount",
                  "type": "uint256"
                },
                {
                  "internalType": "uint256",
                  "name": "initPrice",
                  "type": "uint256"
                },
                {
                  "internalType": "uint256",
                  "name": "promisedReturn",
                  "type": "uint256"
                },
                {
                  "internalType": "uint256",
                  "name": "inceptionTime",
                  "type": "uint256"
                },
                {
                  "internalType": "uint256",
                  "name": "inceptionPrice",
                  "type": "uint256"
                },
                {
                  "internalType": "uint256",
                  "name": "leverageFactor",
                  "type": "uint256"
                },
                {
                  "internalType": "uint256",
                  "name": "managementFee",
                  "type": "uint256"
                }
              ],
              "internalType": "struct Vault.PoolData",
              "name": "poolData",
              "type": "tuple"
            }
          ],
          "internalType": "struct Vault.InstrumentData",
          "name": "instrumentData",
          "type": "tuple"
        },
        {
          "internalType": "uint256",
          "name": "vaultId",
          "type": "uint256"
        }
      ],
      "name": "initiateMarket",
      "outputs": [],
      "stateMutability": "nonpayable",
      "type": "function"
    },
    {
      "inputs": [
        {
          "internalType": "address",
          "name": "trader",
          "type": "address"
        },
        {
          "internalType": "uint256",
          "name": "r",
          "type": "uint256"
        }
      ],
      "name": "isReputable",
      "outputs": [
        {
          "internalType": "bool",
          "name": "",
          "type": "bool"
        }
      ],
      "stateMutability": "view",
      "type": "function"
    },
    {
      "inputs": [
        {
          "internalType": "uint256",
          "name": "marketId",
          "type": "uint256"
        },
        {
          "internalType": "address",
          "name": "user",
          "type": "address"
        }
      ],
      "name": "isValidator",
      "outputs": [
        {
          "internalType": "bool",
          "name": "",
          "type": "bool"
        }
      ],
      "stateMutability": "view",
      "type": "function"
    },
    {
      "inputs": [
        {
          "internalType": "address",
          "name": "addr",
          "type": "address"
        }
      ],
      "name": "isVerified",
      "outputs": [
        {
          "internalType": "bool",
          "name": "",
          "type": "bool"
        }
      ],
      "stateMutability": "view",
      "type": "function"
    },
    {
      "inputs": [
        {
          "internalType": "uint256",
          "name": "marketId",
          "type": "uint256"
        }
      ],
      "name": "marketCondition",
      "outputs": [
        {
          "internalType": "bool",
          "name": "",
          "type": "bool"
        }
      ],
      "stateMutability": "view",
      "type": "function"
    },
    {
      "inputs": [
        {
          "internalType": "uint256",
          "name": "marketId",
          "type": "uint256"
        }
      ],
      "name": "marketIdToVaultId",
      "outputs": [
        {
          "internalType": "uint256",
          "name": "",
          "type": "uint256"
        }
      ],
      "stateMutability": "view",
      "type": "function"
    },
    {
      "inputs": [
        {
          "internalType": "uint256",
          "name": "marketId",
          "type": "uint256"
        }
      ],
      "name": "marketId_to_vaultId",
      "outputs": [
        {
          "internalType": "uint256",
          "name": "",
          "type": "uint256"
        }
      ],
      "stateMutability": "view",
      "type": "function"
    },
    {
      "inputs": [
        {
          "internalType": "uint256",
          "name": "",
          "type": "uint256"
        }
      ],
      "name": "market_data",
      "outputs": [
        {
          "internalType": "address",
          "name": "instrument_address",
          "type": "address"
        },
        {
          "internalType": "address",
          "name": "utilizer",
          "type": "address"
        }
      ],
      "stateMutability": "view",
      "type": "function"
    },
    {
      "inputs": [
        {
          "internalType": "uint256",
          "name": "marketId",
          "type": "uint256"
        },
        {
          "internalType": "uint256",
          "name": "amount",
          "type": "uint256"
        }
      ],
      "name": "pullLeverage",
      "outputs": [],
      "stateMutability": "nonpayable",
      "type": "function"
    },
    {
      "inputs": [
        {
          "internalType": "uint256",
          "name": "marketId",
          "type": "uint256"
        },
        {
          "internalType": "address",
          "name": "validator",
          "type": "address"
        }
      ],
      "name": "redeemValidator",
      "outputs": [],
      "stateMutability": "nonpayable",
      "type": "function"
    },
    {
      "inputs": [
        {
          "internalType": "uint256",
          "name": "amount",
          "type": "uint256"
        },
        {
          "internalType": "address",
          "name": "to",
          "type": "address"
        },
        {
          "internalType": "uint256",
          "name": "marketId",
          "type": "uint256"
        }
      ],
      "name": "redeem_transfer",
      "outputs": [],
      "stateMutability": "nonpayable",
      "type": "function"
    },
    {
      "inputs": [
        {
          "internalType": "uint256",
          "name": "marketId",
          "type": "uint256"
        }
      ],
      "name": "resolveCondition",
      "outputs": [
        {
          "internalType": "bool",
          "name": "",
          "type": "bool"
        }
      ],
      "stateMutability": "view",
      "type": "function"
    },
    {
      "inputs": [
        {
          "internalType": "uint256",
          "name": "marketId",
          "type": "uint256"
        }
      ],
      "name": "resolveMarket",
      "outputs": [],
      "stateMutability": "nonpayable",
      "type": "function"
    },
    {
      "inputs": [
        {
          "internalType": "address",
          "name": "_marketManager",
          "type": "address"
        }
      ],
      "name": "setMarketManager",
      "outputs": [],
      "stateMutability": "nonpayable",
      "type": "function"
    },
    {
      "inputs": [
        {
          "internalType": "address",
          "name": "_poolFactory",
          "type": "address"
        }
      ],
      "name": "setPoolFactory",
      "outputs": [],
      "stateMutability": "nonpayable",
      "type": "function"
    },
    {
      "inputs": [
        {
          "internalType": "address",
          "name": "_reputationManager",
          "type": "address"
        }
      ],
      "name": "setReputationManager",
      "outputs": [],
      "stateMutability": "nonpayable",
      "type": "function"
    },
    {
      "inputs": [
        {
          "internalType": "address",
          "name": "_validatorManager",
          "type": "address"
        }
      ],
      "name": "setValidatorManager",
      "outputs": [],
      "stateMutability": "nonpayable",
      "type": "function"
    },
    {
      "inputs": [
        {
          "internalType": "address",
          "name": "_vaultFactory",
          "type": "address"
        }
      ],
      "name": "setVaultFactory",
      "outputs": [],
      "stateMutability": "nonpayable",
      "type": "function"
    },
    {
      "inputs": [
        {
          "internalType": "uint256",
          "name": "marketId",
          "type": "uint256"
        }
      ],
      "name": "testApproveMarket",
      "outputs": [],
      "stateMutability": "nonpayable",
      "type": "function"
    },
    {
      "inputs": [
        {
          "internalType": "uint256",
          "name": "marketId",
          "type": "uint256"
        }
      ],
      "name": "testResolveMarket",
      "outputs": [],
      "stateMutability": "nonpayable",
      "type": "function"
    },
    {
      "inputs": [],
      "name": "testVerifyAddress",
      "outputs": [],
      "stateMutability": "nonpayable",
      "type": "function"
    },
    {
      "inputs": [
        {
          "internalType": "uint256",
          "name": "marketId",
          "type": "uint256"
        }
      ],
      "name": "unlockValidatorStake",
      "outputs": [],
      "stateMutability": "nonpayable",
      "type": "function"
    },
    {
      "inputs": [
        {
          "internalType": "uint256",
          "name": "marketId",
          "type": "uint256"
        }
      ],
      "name": "validatorApprove",
      "outputs": [
        {
          "internalType": "uint256",
          "name": "",
          "type": "uint256"
        }
      ],
      "stateMutability": "nonpayable",
      "type": "function"
    },
    {
      "inputs": [
        {
          "internalType": "uint256",
          "name": "marketId",
          "type": "uint256"
        }
      ],
      "name": "validatorResolve",
      "outputs": [],
      "stateMutability": "nonpayable",
      "type": "function"
    },
    {
      "inputs": [
        {
          "internalType": "uint256",
          "name": "",
          "type": "uint256"
        },
        {
          "internalType": "uint256",
          "name": "",
          "type": "uint256"
        }
      ],
      "name": "vault_to_marketIds",
      "outputs": [
        {
          "internalType": "uint256",
          "name": "",
          "type": "uint256"
        }
      ],
      "stateMutability": "view",
      "type": "function"
    },
    {
      "inputs": [
        {
          "internalType": "uint256",
          "name": "",
          "type": "uint256"
        }
      ],
      "name": "vaults",
      "outputs": [
        {
          "internalType": "contract Vault",
          "name": "",
          "type": "address"
        }
      ],
      "stateMutability": "view",
      "type": "function"
    },
    {
      "inputs": [
        {
          "internalType": "address",
          "name": "",
          "type": "address"
        }
      ],
      "name": "verified",
      "outputs": [
        {
          "internalType": "bool",
          "name": "",
          "type": "bool"
        }
      ],
      "stateMutability": "view",
      "type": "function"
    },
    {
      "inputs": [
        {
          "internalType": "uint256",
          "name": "marketId",
          "type": "uint256"
        }
      ],
      "name": "viewValidators",
      "outputs": [
        {
          "internalType": "address[]",
          "name": "",
          "type": "address[]"
        }
      ],
      "stateMutability": "view",
      "type": "function"
    }
  ],
  "bytecode": {
    "object": "0x60806040523480156200001157600080fd5b506040516200595138038062005951833981016040819052620000349162000078565b50600880546001600160a01b0319166001600160a01b0392909216919091179055620000b0565b80516001600160a01b03811681146200007357600080fd5b919050565b600080604083850312156200008c57600080fd5b62000097836200005b565b9150620000a7602084016200005b565b90509250929050565b61589180620000c06000396000f3fe608060405234801561001057600080fd5b506004361061038e5760003560e01c80638f5709a5116101de578063c4abc6501161010f578063d82aff11116100ad578063e8e3fbb71161007c578063e8e3fbb7146108ba578063ebd4dc46146108cd578063f0fd1d38146108e0578063f25fcc9f146108f357600080fd5b8063d82aff111461086e578063da0a697f14610881578063e8858b4f14610894578063e8a78026146108a757600080fd5b8063ce93ec67116100e9578063ce93ec671461041c578063d122713614610835578063d466461c14610848578063d65ec9641461085b57600080fd5b8063c4abc650146106f3578063c8f559c01461080f578063cabe2ae11461082257600080fd5b8063ac1b6b011161017c578063b37eedcd11610156578063b37eedcd146107aa578063b743939b146107bd578063b9209e33146107d0578063c3f956fa146107fc57600080fd5b8063ac1b6b0114610742578063ad4e4e7014610777578063b1b7e1f21461078a57600080fd5b8063937b6feb116101b8578063937b6feb146106e05780639403b634146106f35780639fe1458b14610706578063a40c63f71461072f57600080fd5b80638f5709a51461069a5780638fbbc868146106ad57806392ab723e146106cd57600080fd5b80633ec8dc3b116102c35780637789ec5a11610261578063875e487e11610230578063875e487e146105df5780638c64ea4a146105f25780638d4f16d7146106335780638dc3d9b41461068757600080fd5b80637789ec5a14610586578063805798ac146105a657806381e1b07c146105b9578063830e2a02146105cc57600080fd5b8063482c0aa81161029d578063482c0aa81461053a5780634cb440871461054d57806356a837f4146105605780636399d03d1461057357600080fd5b80633ec8dc3b146104f457806345f34e9214610514578063473597a01461052757600080fd5b806323f2a73f1161033057806337b4dd3a1161030a57806337b4dd3a1461048857806337bc93b0146104bb57806338ba4614146104ce5780633ea7fbdb146104e157600080fd5b806323f2a73f1461044f5780632b858734146104625780632f8899f31461047557600080fd5b80630c33df181161036c5780630c33df18146103e65780630db065f4146103f957806314f2b14c1461041c5780632358d5a81461043c57600080fd5b806303cccb351461039357806305a1ce991461039d57806308ad90a5146103c5575b600080fd5b61039b61091c565b005b6103b06103ab3660046146c1565b6109a4565b60405190151581526020015b60405180910390f35b6103d86103d33660046146ff565b610a19565b6040519081526020016103bc565b6103b06103f4366004614735565b610a89565b6103b06104073660046146ff565b60026020526000908152604090205460ff1681565b6103d861042a3660046146c1565b60009081526006602052604090205490565b6103b061044a366004614765565b610b66565b6103b061045d366004614765565b610be4565b61039b6104703660046146c1565b610c1e565b6103d86104833660046146c1565b610dda565b61049b6104963660046146c1565b610e0c565b6040805194855260208501939093529183015260608201526080016103bc565b6103d86104c93660046146c1565b6111c3565b61039b6104dc366004614861565b6111f5565b61039b6104ef3660046146ff565b61125d565b6105076105023660046146c1565b6112be565b6040516103bc9190614902565b61039b6105223660046146ff565b611330565b61039b6105353660046146ff565b611391565b6103d861054836600461494f565b6113f2565b61039b61055b3660046146c1565b611423565b61039b61056e3660046146ff565b611586565b61039b6105813660046146c1565b61167d565b6103d86105943660046146ff565b60046020526000908152604090205481565b6103d86105b43660046146c1565b61184f565b6103b06105c73660046146c1565b611881565b6103d86105da366004614765565b6118b3565b6103d86105ed3660046146c1565b61196c565b61061b6106003660046146c1565b6005602052600090815260409020546001600160a01b031681565b6040516001600160a01b0390911681526020016103bc565b6106676106413660046146c1565b600360205260009081526040902080546001909101546001600160a01b03918216911682565b604080516001600160a01b039384168152929091166020830152016103bc565b61039b6106953660046146c1565b61199e565b61039b6106a8366004614765565b6119d5565b6103d86106bb3660046146c1565b60066020526000908152604090205481565b6103d86106db3660046146c1565b611a4d565b6103d86106ee3660046146c1565b611af8565b61061b6107013660046146c1565b611b2a565b61061b6107143660046146c1565b6000908152600560205260409020546001600160a01b031690565b6103d861073d3660046146c1565b611b52565b6107556107503660046146c1565b611b84565b60408051825181526020808401519082015291810151908201526060016103bc565b61039b6107853660046146c1565b611bb6565b61079d6107983660046146c1565b611bed565b6040516103bc91906149ac565b61039b6107b83660046146c1565b611c4f565b6103b06107cb3660046146c1565b611cf3565b6103b06107de3660046146ff565b6001600160a01b031660009081526002602052604090205460ff1690565b61039b61080a3660046146c1565b6120f9565b61049b61081d3660046146c1565b6122f0565b61039b6108303660046146c1565b6125ef565b6103d86108433660046146c1565b612fbd565b6103d86108563660046146c1565b613129565b6103d86108693660046146c1565b61315b565b61039b61087c3660046146ff565b61318d565b61039b61088f36600461494f565b613201565b61039b6108a2366004614a07565b613281565b6103b06108b5366004614b04565b6133ad565b61039b6108c8366004614c22565b6133e7565b6103d86108db3660046146c1565b613d83565b61039b6108ee366004614d63565b613db5565b6103d86109013660046146ff565b6001600160a01b031660009081526004602052604090205490565b3360008181526002602052604090819020805460ff19166001179055600c549051630622fd1760e01b81526004810192909252670de0b6b3a764000060248301526001600160a01b031690630622fd1790604401600060405180830381600087803b15801561098a57600080fd5b505af115801561099e573d6000803e3d6000fd5b50505050565b600080546040516305a1ce9960e01b8152600481018490526001600160a01b03909116906305a1ce99906024015b602060405180830381865afa1580156109ef573d6000803e3d6000fd5b505050506040513d601f19601f82011682018060405250810190610a139190614da6565b92915050565b600c546040516344c7439360e01b81526001600160a01b03838116600483015260009216906344c74393906024015b602060405180830381865afa158015610a65573d6000803e3d6000fd5b505050506040513d601f19601f82011682018060405250810190610a139190614dc3565b600082815260066020908152604080832054835260059091528082205490516359dc5c6f60e01b8152600481018590526001600160a01b039091169081906359dc5c6f90602401600060405180830381600087803b158015610aea57600080fd5b505af1158015610afe573d6000803e3d6000fd5b5050604051630ae161cd60e21b8152600481018790526001600160a01b0384169250632b8587349150602401600060405180830381600087803b158015610b4457600080fd5b505af1158015610b58573d6000803e3d6000fd5b506001979650505050505050565b6000805460405163046b1ab560e31b8152600481018590526001600160a01b03848116602483015290911690632358d5a8906044015b602060405180830381865afa158015610bb9573d6000803e3d6000fd5b505050506040513d601f19601f82011682018060405250810190610bdd9190614da6565b9392505050565b600080546040516323f2a73f60e01b8152600481018590526001600160a01b038481166024830152909116906323f2a73f90604401610b9c565b600954604051638a6cac3d60e01b81526004810183905260009182916001600160a01b0390911690638a6cac3d9060240160c060405180830381865afa158015610c6c573d6000803e3d6000fd5b505050506040513d601f19601f82011682018060405250810190610c909190614ddc565b505093505050915081158015610ca35750805b610cf45760405162461bcd60e51b815260206004820152601960248201527f6d61726b657420636f6e646974696f6e73206e6f74206d65740000000000000060448201526064015b60405180910390fd5b610cfd83611881565b610d5d5760405162461bcd60e51b815260206004820152602b60248201527f6e6f7420656e6f7567682076616c696461746f7273206861766520766f74656460448201526a20746f207265736f6c766560a81b6064820152608401610ceb565b6000838152600660209081526040808320548352600590915290819020549051630ae161cd60e21b8152600481018590526001600160a01b0390911690632b85873490602401600060405180830381600087803b158015610dbd57600080fd5b505af1158015610dd1573d6000803e3d6000fd5b50505050505050565b60008054604051632f8899f360e01b8152600481018490526001600160a01b0390911690632f8899f390602401610a48565b60095460405163eb44fdd360e01b81526004810183905260009182918291829182916001600160a01b03169063eb44fdd390602401600060405180830381865afa158015610e5e573d6000803e3d6000fd5b505050506040513d6000823e601f3d908101601f19168201604052610e869190810190614ed5565b90506000610e9387611b84565b90506000610ea088611b2a565b6001600160a01b0316639ec4d40e896040518263ffffffff1660e01b8152600401610ecd91815260200190565b600060405180830381865afa158015610eea573d6000803e3d6000fd5b505050506040513d6000823e601f3d908101601f19168201604052610f129190810190615006565b825197509050610fa7610f2489611b2a565b6001600160a01b03166301e1d1146040518163ffffffff1660e01b8152600401602060405180830381865afa158015610f61573d6000803e3d6000fd5b505050506040513d601f19601f82011682018060405250810190610f859190614dc3565b610f90906001615141565b83516020850151610fa19190615154565b90613ebc565b955080602001516111a05781516000908190156111295773__$7f722a1af7b4060aab6915c87e2e2208cb$__63018b03518560000151600088600001516001600160a01b0316636e2f7ad36040518163ffffffff1660e01b8152600401602060405180830381865afa158015611021573d6000803e3d6000fd5b505050506040513d601f19601f820116820180604052508101906110459190614dc3565b89600001516001600160a01b0316634df7e3d06040518163ffffffff1660e01b8152600401602060405180830381865afa158015611087573d6000803e3d6000fd5b505050506040513d601f19601f820116820180604052508101906110ab9190614dc3565b6040516001600160e01b031960e087901b16815260048101949094526024840192909252604483015260648201526001608482015260a4016040805180830381865af41580156110ff573d6000803e3d6000fd5b505050506040513d601f19601f820116820180604052508101906111239190615167565b90925090505b835160c084015160009161113c91615154565b83856080015161114c9190615154565b6111569190615154565b9050600085602001511161116b576000611193565b845160c08501516111939190611182906001615141565b61118c9190615154565b8290613ebc565b97508196505050506111b9565b806101a00151604001519450806101a001516080015193505b5050509193509193565b6000805460405163037bc93b60e41b8152600481018490526001600160a01b03909116906337bc93b090602401610a48565b600054604051630e2e918560e21b81526001600160a01b03909116906338ba461490611227908590859060040161518b565b600060405180830381600087803b15801561124157600080fd5b505af1158015611255573d6000803e3d6000fd5b505050505050565b6009546001600160a01b031633148061128057506008546001600160a01b031633145b61129c5760405162461bcd60e51b8152600401610ceb906151a4565b600a80546001600160a01b0319166001600160a01b0392909216919091179055565b600054604051633ec8dc3b60e01b8152600481018390526060916001600160a01b031690633ec8dc3b90602401600060405180830381865afa158015611308573d6000803e3d6000fd5b505050506040513d6000823e601f3d908101601f19168201604052610a1391908101906151c6565b6009546001600160a01b031633148061135357506008546001600160a01b031633145b61136f5760405162461bcd60e51b8152600401610ceb906151a4565b600080546001600160a01b0319166001600160a01b0392909216919091179055565b6009546001600160a01b03163314806113b457506008546001600160a01b031633145b6113d05760405162461bcd60e51b8152600401610ceb906151a4565b600b80546001600160a01b0319166001600160a01b0392909216919091179055565b6007602052816000526040600020818154811061140e57600080fd5b90600052602060002001600091509150505481565b8061142e8133610be4565b8061144357506008546001600160a01b031633145b6114785760405162461bcd60e51b8152600401610ceb906020808252600490820152630855985b60e21b604082015260600190565b600082815260066020908152604080832054835260059091529081902054905163d746d3ef60e01b8152600481018490526001600160a01b039091169063d746d3ef90602401600060405180830381600087803b1580156114d857600080fd5b505af11580156114ec573d6000803e3d6000fd5b505050506114f982613ed1565b600954604051634cb4408760e01b8152600481018490526001600160a01b0390911690634cb4408790602401600060405180830381600087803b15801561153f57600080fd5b505af1158015611553573d6000803e3d6000fd5b50506040518492507f38274fdcd6150638fa33375a76a55bc5b507aa04639aef21fcf7a1bf0b9c095d9150600090a25050565b6009546001600160a01b03163314806115a957506008546001600160a01b031633145b6115c55760405162461bcd60e51b8152600401610ceb906151a4565b6009546001600160a01b03166116035760405162461bcd60e51b8152602060048201526003602482015262306d6d60e81b6044820152606401610ceb565b600c80546001600160a01b0319166001600160a01b038381169182179092556009546040516315aa0dfd60e21b81526004810192909252909116906356a837f4906024015b600060405180830381600087803b15801561166257600080fd5b505af1158015611676573d6000803e3d6000fd5b5050505050565b806116888133610be4565b8061169d57506008546001600160a01b031633145b6116d25760405162461bcd60e51b8152600401610ceb906020808252600490820152630855985b60e21b604082015260600190565b6000828152600660209081526040808320548352600590915280822054905163709a664160e11b8152600481018590528291829182916001600160a01b03169063e134cc82906024016080604051808303816000875af115801561173a573d6000803e3d6000fd5b505050506040513d601f19601f8201168201806040525081019061175e919061525f565b93509350935093506117738685858585613f89565b60008054878252600160208190526040928390200154915163665293b360e11b8152600481018990526024810192909252604482018490526001600160a01b03169063cca5276690606401600060405180830381600087803b1580156117d857600080fd5b505af11580156117ec573d6000803e3d6000fd5b505050506117f986613ed1565b60408051851515815260208101859052908101839052811515606082015286907f77220ccc88401eef4453630e1f9b709ab45bd7912e6599a260abd10a84ac3ed2906080015b60405180910390a2505050505050565b60008054604051632015e62b60e21b8152600481018490526001600160a01b039091169063805798ac90602401610a48565b600080546040516320786c1f60e21b8152600481018490526001600160a01b03909116906381e1b07c906024016109d2565b6009546000906001600160a01b03163314806118d957506008546001600160a01b031633145b6118f55760405162461bcd60e51b8152600401610ceb906151a4565b600054604051634187150160e11b8152600481018590526001600160a01b0384811660248301529091169063830e2a02906044016020604051808303816000875af1158015611948573d6000803e3d6000fd5b505050506040513d601f19601f82011682018060405250810190610bdd9190614dc3565b600080546040516343af243f60e11b8152600481018490526001600160a01b039091169063875e487e90602401610a48565b600054604051636172cd6760e01b8152600481018390523360248201526001600160a01b0390911690636172cd6790604401611648565b6009546001600160a01b03163314806119f857506008546001600160a01b031633145b611a145760405162461bcd60e51b8152600401610ceb906151a4565b600054604051638f5709a560e01b8152600481018490526001600160a01b03838116602483015290911690638f5709a590604401611227565b60095460405163054d50b360e21b8152600481018390526000916001600160a01b03169063153542cc90602401602060405180830381865afa158015611a97573d6000803e3d6000fd5b505050506040513d601f19601f82011682018060405250810190611abb91906152ab565b6001600160a01b03166318160ddd6040518163ffffffff1660e01b8152600401602060405180830381865afa158015610a65573d6000803e3d6000fd5b6000805460405163937b6feb60e01b8152600481018490526001600160a01b039091169063937b6feb90602401610a48565b600090815260066020908152604080832054835260059091529020546001600160a01b031690565b6000805460405163a40c63f760e01b8152600481018490526001600160a01b039091169063a40c63f790602401610a48565b611ba860405180606001604052806000815260200160008152602001600081525090565b600091909152600160205290565b60005460405163f23566b560e01b8152600481018390523360248201526001600160a01b039091169063f23566b590604401611648565b600081815260076020908152604091829020805483518184028101840190945280845260609392830182828015611c4357602002820191906000526020600020905b815481526020019060010190808311611c2f575b50505050509050919050565b6008546001600160a01b03163314611c925760405162461bcd60e51b815260206004820152600660248201526510b7bbb732b960d11b6044820152606401610ceb565b611c9b81611cf3565b611ce75760405162461bcd60e51b815260206004820152601860248201527f6d61726b657420636f6e646974696f6e206e6f74206d657400000000000000006044820152606401610ceb565b611cf0816125ef565b50565b60095460405163b1283e7760e01b81526004810183905260009182916001600160a01b039091169063b1283e7790602401600060405180830381865afa158015611d41573d6000803e3d6000fd5b505050506040513d6000823e601f3d908101601f19168201604052611d6991908101906152c8565b96505050505050508015611e6e57611d8083611b2a565b6001600160a01b0316639ec4d40e846040518263ffffffff1660e01b8152600401611dad91815260200190565b600060405180830381865afa158015611dca573d6000803e3d6000fd5b505050506040513d6000823e601f3d908101601f19168201604052611df29190810190615006565b6101a001515160095460405163661f1cf560e01b8152600481018690526001600160a01b039091169063661f1cf590602401602060405180830381865afa158015611e41573d6000803e3d6000fd5b505050506040513d601f19601f82011682018060405250810190611e659190614dc3565b10159392505050565b6000611e7984611b2a565b6001600160a01b0316639ec4d40e856040518263ffffffff1660e01b8152600401611ea691815260200190565b600060405180830381865afa158015611ec3573d6000803e3d6000fd5b505050506040513d6000823e601f3d908101601f19168201604052611eeb9190810190615006565b60c00151604080518082018252600f81526e36b0b935b2ba31b7b73234ba34b7b760891b6020820152600954915163661f1cf560e01b8152600481018890529293506120079290916001600160a01b03169063661f1cf590602401602060405180830381865afa158015611f63573d6000803e3d6000fd5b505050506040513d601f19601f82011682018060405250810190611f879190614dc3565b60095460405163c6ceb96b60e01b815260048101899052612002916001600160a01b03169063c6ceb96b9060240161010060405180830381865afa158015611fd3573d6000803e3d6000fd5b505050506040513d601f19601f82011682018060405250810190611ff79190615367565b60400151859061428b565b61423f565b60095460405163c6ceb96b60e01b815260048101869052612082916001600160a01b03169063c6ceb96b9060240161010060405180830381865afa158015612053573d6000803e3d6000fd5b505050506040513d601f19601f820116820180604052508101906120779190615367565b60400151829061428b565b60095460405163661f1cf560e01b8152600481018790526001600160a01b039091169063661f1cf590602401602060405180830381865afa1580156120cb573d6000803e3d6000fd5b505050506040513d601f19601f820116820180604052508101906120ef9190614dc3565b1015949350505050565b6000818152600660209081526040808320548352600590915290819020549051630ae161cd60e21b8152600481018390526001600160a01b0390911690632b85873490602401600060405180830381600087803b15801561215957600080fd5b505af115801561216d573d6000803e3d6000fd5b5050506000828152600660209081526040808320548352600590915280822054905163709a664160e11b8152600481018590529192508291829182916001600160a01b039091169063e134cc82906024016080604051808303816000875af11580156121dd573d6000803e3d6000fd5b505050506040513d601f19601f82011682018060405250810190612201919061525f565b93509350935093506122168585858585613f89565b60008054868252600160208190526040928390200154915163665293b360e11b8152600481018890526024810192909252604482018490526001600160a01b03169063cca5276690606401600060405180830381600087803b15801561227b57600080fd5b505af115801561228f573d6000803e3d6000fd5b5050505061229c85613ed1565b60408051851515815260208101859052908101839052811515606082015285907f77220ccc88401eef4453630e1f9b709ab45bd7912e6599a260abd10a84ac3ed29060800160405180910390a25050505050565b60008060008060006007600087815260200190815260200160002080548060200260200160405190810160405280929190818152602001828054801561235557602002820191906000526020600020905b815481526020019060010190808311612341575b5050505050905060005b815181101561245b5760008061238d848481518110612380576123806153f6565b6020026020010151610e0c565b50909350915061239f9050828261428b565b6123a99088615141565b60095485519198506001600160a01b03169063661f1cf5908690869081106123d3576123d36153f6565b60200260200101516040518263ffffffff1660e01b81526004016123f991815260200190565b602060405180830381865afa158015612416573d6000803e3d6000fd5b505050506040513d601f19601f8201168201806040525081019061243a9190614dc3565b6124449089615141565b9750505080806124539061540c565b91505061235f565b506000868152600560209081526040918290205482516336190e4560e11b815292516001600160a01b0390911692670c7d713b49da00009283928592636c321c8a9260048083019391928290030181865afa1580156124be573d6000803e3d6000fd5b505050506040513d601f19601f820116820180604052508101906124e29190614dc3565b1161256f5761256886612562846001600160a01b0316636c321c8a6040518163ffffffff1660e01b8152600401602060405180830381865afa15801561252c573d6000803e3d6000fd5b505050506040513d601f19601f820116820180604052508101906125509190614dc3565b61255b906001615141565b8490613ebc565b9061428b565b9450612573565b8594505b60405163ef8b30f760e01b8152670de0b6b3a764000060048201526001600160a01b0383169063ef8b30f790602401602060405180830381865afa1580156125bf573d6000803e3d6000fd5b505050506040513d601f19601f820116820180604052508101906125e39190614dc3565b93505050509193509193565b6000546001600160a01b031633148061261257506008546001600160a01b031633145b61264b5760405162461bcd60e51b815260206004820152600a60248201526910bb30b634b230ba37b960b11b6044820152606401610ceb565b6000818152600660209081526040808320548352600590915280822054600954915163068bcd8d60e01b8152600481018590526001600160a01b039182169392919091169063068bcd8d90602401602060405180830381865afa1580156126b6573d6000803e3d6000fd5b505050506040513d601f19601f820116820180604052508101906126da91906152ab565b600954604051634bee760b60e11b8152600481018690529192506001600160a01b0316906397dcec1690602401602060405180830381865afa158015612724573d6000803e3d6000fd5b505050506040513d601f19601f820116820180604052508101906127489190614dc3565b60031461278a5760405162461bcd60e51b815260206004820152601060248201526f10b6b0b935b2ba21b7b73234ba34b7b760811b6044820152606401610ceb565b60405163238f0e7560e11b8152600481018490526001600160a01b0383169063471e1cea90602401602060405180830381865afa1580156127cf573d6000803e3d6000fd5b505050506040513d601f19601f820116820180604052508101906127f39190614da6565b6128365760405162461bcd60e51b815260206004820152601460248201527310b4b739ba393ab6b2b73a21b7b73234ba34b7b760611b6044820152606401610ceb565b60095460405163cabe2ae160e01b8152600481018590526001600160a01b039091169063cabe2ae190602401600060405180830381600087803b15801561287c57600080fd5b505af1158015612890573d6000803e3d6000fd5b505060095460405163b1283e7760e01b815260048101879052600093506001600160a01b03909116915063b1283e7790602401600060405180830381865afa1580156128e0573d6000803e3d6000fd5b505050506040513d6000823e601f3d908101601f1916820160405261290891908101906152c8565b60095460405163661f1cf560e01b8152600481018d9052919850600097506001600160a01b0316955063661f1cf594506024019250612945915050565b602060405180830381865afa158015612962573d6000803e3d6000fd5b505050506040513d601f19601f820116820180604052508101906129869190614dc3565b604051634b7e8e2160e11b8152306004820152602481018290529091506001600160a01b038416906396fd1c4290604401600060405180830381600087803b1580156129d157600080fd5b505af11580156129e5573d6000803e3d6000fd5b50506040516376da9e9f60e11b815260048101889052600092506001600160a01b038716915063edb53d3e90602401602060405180830381865afa158015612a31573d6000803e3d6000fd5b505050506040513d601f19601f82011682018060405250810190612a5591906152ab565b9050846001600160a01b031663c5d664c66040518163ffffffff1660e01b8152600401602060405180830381865afa158015612a95573d6000803e3d6000fd5b505050506040513d601f19601f82011682018060405250810190612ab991906152ab565b60405163095ea7b360e01b81526001600160a01b03838116600483015260248201859052919091169063095ea7b3906044016020604051808303816000875af1158015612b0a573d6000803e3d6000fd5b505050506040513d601f19601f82011682018060405250810190612b2e9190614da6565b508215612d3a5760095460405163054d50b360e21b815260048101889052612c809188916001600160a01b039091169063153542cc90602401602060405180830381865afa158015612b84573d6000803e3d6000fd5b505050506040513d601f19601f82011682018060405250810190612ba891906152ab565b6001600160a01b03166318160ddd6040518163ffffffff1660e01b8152600401602060405180830381865afa158015612be5573d6000803e3d6000fd5b505050506040513d601f19601f82011682018060405250810190612c099190614dc3565b604051634f626a0760e11b8152600481018a90526001600160a01b03891690639ec4d40e90602401600060405180830381865afa158015612c4e573d6000803e3d6000fd5b505050506040513d6000823e601f3d908101601f19168201604052612c769190810190615006565b6101a001516142a0565b604051636e553f6560e01b8152600481018390526001600160a01b03868116602483015260009190831690636e553f65906044016020604051808303816000875af1158015612cd3573d6000803e3d6000fd5b505050506040513d601f19601f82011682018060405250810190612cf79190614dc3565b11612d355760405162461bcd60e51b815260206004820152600e60248201526d11115413d4d25517d1905253115160921b6044820152606401610ceb565b612e9b565b6040516303d972f160e21b8152600481018790526001600160a01b03861690630f65cbc490602401602060405180830381865afa158015612d7f573d6000803e3d6000fd5b505050506040513d601f19601f82011682018060405250810190612da39190614dc3565b600003612db957612db48685614355565b612dc2565b612dc2866145a0565b846001600160a01b031663c5d664c66040518163ffffffff1660e01b8152600401602060405180830381865afa158015612e00573d6000803e3d6000fd5b505050506040513d601f19601f82011682018060405250810190612e2491906152ab565b60405163a9059cbb60e01b81526001600160a01b03838116600483015260248201859052919091169063a9059cbb906044016020604051808303816000875af1158015612e75573d6000803e3d6000fd5b505050506040513d601f19601f82011682018060405250810190612e999190614da6565b505b6000868152600160208190526040918290208481559151624e1afd60e81b81526004810189905260248101859052908201546044820152600290910154606482015283151560848201526001600160a01b03861690634e1afd009060a401600060405180830381600087803b158015612f1357600080fd5b505af1158015612f27573d6000803e3d6000fd5b50505050836001600160a01b0316638d01450f6040518163ffffffff1660e01b8152600401600060405180830381600087803b158015612f6657600080fd5b505af1158015612f7a573d6000803e3d6000fd5b5050506000878152600160205260409081902090518892507fa5a0c282064b5581aa97f2fdef075816b806dd6394a5eaaf1831ec95a1f79d579161183f91615425565b600080546040516317c2ad2760e21b815260048101849052336024820152829182916001600160a01b0390911690635f0ab49c9060440160408051808303816000875af1158015613012573d6000803e3d6000fd5b505050506040513d601f19601f820116820180604052508101906130369190615167565b60095460405163334b11d360e11b81526004810188905260248101849052604481018390523360648201529294509092506001600160a01b03169063669623a690608401600060405180830381600087803b15801561309457600080fd5b505af11580156130a8573d6000803e3d6000fd5b505050506130b5846109a4565b15613122576130c3846125ef565b60095460405163cabe2ae160e01b8152600481018690526001600160a01b039091169063cabe2ae190602401600060405180830381600087803b15801561310957600080fd5b505af115801561311d573d6000803e3d6000fd5b505050505b5092915050565b60008054604051633519918760e21b8152600481018490526001600160a01b039091169063d466461c90602401610a48565b60008054604051633597b25960e21b8152600481018490526001600160a01b039091169063d65ec96490602401610a48565b6009546001600160a01b03163314806131b057506008546001600160a01b031633145b6131cc5760405162461bcd60e51b8152600401610ceb906151a4565b6001600160a01b0381166131df57600080fd5b600980546001600160a01b0319166001600160a01b0392909216919091179055565b6009546001600160a01b031633148061322457506008546001600160a01b031633145b6132405760405162461bcd60e51b8152600401610ceb906151a4565b61324982611b2a565b600954604051633c16f3ed60e21b8152600481018490526001600160a01b03918216602482015291169063f05bcfb490604401611227565b600a5460405160009182916001600160a01b0390911690631fe84c5b908c9030906132ba908e908e908e908e908d908d90602001615446565b604051602081830303815290604052896040518563ffffffff1660e01b81526004016132e9949392919061550d565b60408051808303816000875af1158015613307573d6000803e3d6000fd5b505050506040513d601f19601f8201168201806040525081019061332b9190615553565b6000818152600560205260409081902080546001600160a01b0319166001600160a01b0385169081179091559051929450909250907f7ecb7591c061739d6ccd6a6299e0adf7d3447c390b9321530e0a400f7c65d1b7906133999084908e908e908e908e908e908e90615581565b60405180910390a250505050505050505050565b600c54604051637453c01360e11b81526001600160a01b03848116600483015260248201849052600092169063e8a7802690604401610b9c565b6001600160a01b0383166134295760405162461bcd60e51b815260206004820152600960248201526830b2323932b9b9982960b91b6044820152606401610ceb565b6101408201516001600160a01b03166134705760405162461bcd60e51b815260206004820152600960248201526861646472657373304960b81b6044820152606401610ceb565b6000818152600560205260409020546001600160a01b03166134c05760405162461bcd60e51b815260206004820152600960248201526830b2323932b9b9982b60b91b6044820152606401610ceb565b600081815260056020908152604080832054600954825163764bc84160e11b815292516001600160a01b039283169594919092169263ec97908292600480830193928290030181865afa15801561351b573d6000803e3d6000fd5b505050506040513d601f19601f8201168201806040525081019061353f9190614dc3565b60008181526006602090815260408083208790558683526007825280832080546001818101835591855283852001859055815180830183526101408a01516001600160a01b0390811682528b8116828601908152878752600390955294839020905181549086166001600160a01b031991821617825593519101805491851691909316179091556009548151637572cb1f60e01b81529151939450821692634e042a5992861691637572cb1f916004808301926101009291908290030181865afa158015613611573d6000803e3d6000fd5b505050506040513d601f19601f820116820180604052508101906136359190615367565b846001600160a01b0316636c321c8a6040518163ffffffff1660e01b8152600401602060405180830381865afa158015613673573d6000803e3d6000fd5b505050506040513d601f19601f820116820180604052508101906136979190614dc3565b846040518463ffffffff1660e01b81526004016136b6939291906155ce565b600060405180830381600087803b1580156136d057600080fd5b505af11580156136e4573d6000803e3d6000fd5b5050600b5460008681526005602090815260408083205481516362eb326360e11b8152915193965086955085946001600160a01b039081169463981f513694919092169263c5d664c692600480830193928290030181865afa15801561374e573d6000803e3d6000fd5b505050506040513d601f19601f8201168201806040525081019061377291906152ab565b60095460405160e084901b6001600160e01b03191681526001600160a01b039283166004820152911660248201526044016060604051808303816000875af11580156137c2573d6000803e3d6000fd5b505050506040513d601f19601f820116820180604052508101906137e691906155f0565b925092509250866020015115613aac57670de0b6b3a7640000876101a00151602001511115801561382557506101a08701516080810151602090910151105b61385d5760405162461bcd60e51b8152602060048201526009602482015268282924a1a29022a92960b91b6044820152606401610ceb565b6000876101a0015160400151116138a35760405162461bcd60e51b815260206004820152600a6024820152692922aa2aa9271022a92960b11b6044820152606401610ceb565b6101a08701805142606090910152518051602082015160809092015160095460405163c6ceb96b60e01b8152600481018990526001600160a01b03868116956334327d8b95949093909291169063c6ceb96b9060240161010060405180830381865afa158015613917573d6000803e3d6000fd5b505050506040513d601f19601f8201168201806040525081019061393b9190615367565b602001516040516001600160e01b031960e087901b16815260048101949094526024840192909252604483015260648201526084016020604051808303816000875af115801561398f573d6000803e3d6000fd5b505050506040513d601f19601f820116820180604052508101906139b39190614dc3565b6101a088015160c0015260095461012088015160405163080ec90d60e21b81526001600160a01b039092169163203b2434916139fc91889186918991899160019060040161563d565b600060405180830381600087803b158015613a1657600080fd5b505af1158015613a2a573d6000803e3d6000fd5b50506000546101a08a01515160208b0151604051639c84342360e01b8152600481018a90526024810192909252151560448201526001600160a01b039091169250639c8434239150606401600060405180830381600087803b158015613a8f57600080fd5b505af1158015613aa3573d6000803e3d6000fd5b50505050613c99565b60095460405163c6ceb96b60e01b8152600481018690526000916001600160a01b03169063c6ceb96b9060240161010060405180830381865afa158015613af7573d6000803e3d6000fd5b505050506040513d601f19601f82011682018060405250810190613b1b9190615367565b60c089015160e08a015160208301516040808501516080860151915163ac4bc1cb60e01b8152600481019590955260248501939093526044840191909152606483019190915260848201529091506001600160a01b0383169063ac4bc1cb9060a401600060405180830381600087803b158015613b9757600080fd5b505af1158015613bab573d6000803e3d6000fd5b50506009546101208b015160405163080ec90d60e21b81526001600160a01b03909216935063203b24349250613bee91899187918a918a9160009060040161563d565b600060405180830381600087803b158015613c0857600080fd5b505af1158015613c1c573d6000803e3d6000fd5b505060005460c08b015160208c0151604051639c84342360e01b8152600481018b90526024810192909252151560448201526001600160a01b039091169250639c8434239150606401600060405180830381600087803b158015613c7f57600080fd5b505af1158015613c93573d6000803e3d6000fd5b50505050505b60a087018490526040516398d796e760e01b81526001600160a01b038616906398d796e790613ccc908a906004016157cf565b600060405180830381600087803b158015613ce657600080fd5b505af1158015613cfa573d6000803e3d6000fd5b505050600087815260056020526040908190205490516001600160a01b038b811693509091169086907fc276e8dd3cf2547c0646ef7093b7ef8fb4edc8fde6df7574f8757ca3336e940f90613d56908690899089908f906157e2565b60405180910390a45050506001600160a01b03909416600090815260046020526040902093909355505050565b600080546040516375ea6e2360e11b8152600481018490526001600160a01b039091169063ebd4dc4690602401610a48565b6009546001600160a01b0316331480613dd857506008546001600160a01b031633145b613df45760405162461bcd60e51b8152600401610ceb906151a4565b6000818152600660209081526040808320548352600590915290819020549051633c16f3ed60e21b8152600481018590526001600160a01b0384811660248301529091169063f05bcfb490604401600060405180830381600087803b158015613e5c57600080fd5b505af1158015613e70573d6000803e3d6000fd5b5050604080518681526001600160a01b03861660208201528493507f23eee7127e8ffafe0ff607129c8dc9492da94a3ee89d9690587399ac0e4e644f92500160405180910390a2505050565b6000610bdd83670de0b6b3a76400008461466b565b60095460405163068bcd8d60e01b8152600481018390526001600160a01b039091169063068bcd8d90602401602060405180830381865afa158015613f1a573d6000803e3d6000fd5b505050506040513d601f19601f82011682018060405250810190613f3e91906152ab565b6001600160a01b03166396fd1c42613f5583611b2a565b6040516001600160e01b031960e084901b1681526001600160a01b0390911660048201526000196024820152604401611648565b8315613f9d578215613f9d57613f9d615820565b60095460405163054d50b360e21b8152600481018790526000916001600160a01b03169063153542cc90602401602060405180830381865afa158015613fe7573d6000803e3d6000fd5b505050506040513d601f19601f8201168201806040525081019061400b91906152ab565b6001600160a01b03166318160ddd6040518163ffffffff1660e01b8152600401602060405180830381865afa158015614048573d6000803e3d6000fd5b505050506040513d601f19601f8201168201806040525081019061406c9190614dc3565b9050600080851161407e57600061414c565b60095460405163920f4e5560e01b8152600481018990526001600160a01b039091169063920f4e5590602401602060405180830381865afa1580156140c7573d6000803e3d6000fd5b505050506040513d601f19601f820116820180604052508101906140eb91906152ab565b6001600160a01b03166318160ddd6040518163ffffffff1660e01b8152600401602060405180830381865afa158015614128573d6000803e3d6000fd5b505050506040513d601f19601f8201168201806040525081019061414c9190614dc3565b9050600086614182576141696141628385615141565b8790613ebc565b61417b90670de0b6b3a7640000615141565b90506141c1565b61418c8584613ebc565b670de0b6b3a7640000116141a2575060006141c1565b6141ac8584613ebc565b6141be90670de0b6b3a7640000615154565b90505b6009546040516361fa5af560e01b8152600481018a9052881515602482015285156044820152606481018390526001600160a01b03909116906361fa5af590608401600060405180830381600087803b15801561421d57600080fd5b505af1158015614231573d6000803e3d6000fd5b505050505050505050505050565b61428683838360405160240161425793929190615836565b60408051601f198184030181529190526020810180516001600160e01b031663969cdd0360e01b179052614689565b505050565b6000610bdd8383670de0b6b3a764000061466b565b60008160a00151116142e35760405162461bcd60e51b815260206004820152600c60248201526b18102622ab2fa320a1aa27a960a11b6044820152606401610ceb565b60405180606001604052806000815260200161431f83608001516125628560a00151670de0b6b3a76400006143189190615141565b879061428b565b81526000602091820181905294855260018082526040958690208351815591830151908201559301516002909301929092555050565b600082815260066020908152604080832054835260059091528082205490516318353be960e21b81526004810185905282916001600160a01b0316906360d4efa4906024016040805180830381865afa1580156143b6573d6000803e3d6000fd5b505050506040513d601f19601f820116820180604052508101906143da9190615167565b60095460405163661f1cf560e01b8152600481018890529294509092506000916144e2916144dc916001600160a01b039091169063661f1cf590602401602060405180830381865afa158015614434573d6000803e3d6000fd5b505050506040513d601f19601f820116820180604052508101906144589190614dc3565b60095460405163c6ceb96b60e01b8152600481018a9052670de0b6b3a7640000916001600160a01b03169063c6ceb96b9060240161010060405180830381865afa1580156144aa573d6000803e3d6000fd5b505050506040513d601f19601f820116820180604052508101906144ce9190615367565b60c001516125629190615141565b846146aa565b90506000614558856001600160a01b03166314e2b929846040518263ffffffff1660e01b815260040161451791815260200190565b602060405180830381865afa158015614534573d6000803e3d6000fd5b505050506040513d601f19601f820116820180604052508101906144dc9190614dc3565b60408051606081018252600080825260208083019687528284019485529981526001998a90529190912090518155925196830196909655509351600290940193909355505050565b600081815260066020908152604080832054835260059091528082205490516318353be960e21b81526004810184905282916001600160a01b0316906360d4efa4906024016040805180830381865afa158015614601573d6000803e3d6000fd5b505050506040513d601f19601f820116820180604052508101906146259190615167565b6040805160608101825260008082526020808301958652828401948552978152600197889052919091209051815591519482019490945592516002909301929092555050565b600082600019048411830215820261468257600080fd5b5091020490565b80516a636f6e736f6c652e6c6f67602083016000808483855afa5050505050565b6000818311156146ba5781610bdd565b5090919050565b6000602082840312156146d357600080fd5b5035919050565b6001600160a01b0381168114611cf057600080fd5b80356146fa816146da565b919050565b60006020828403121561471157600080fd5b8135610bdd816146da565b8015158114611cf057600080fd5b80356146fa8161471c565b6000806040838503121561474857600080fd5b82359150602083013561475a8161471c565b809150509250929050565b6000806040838503121561477857600080fd5b82359150602083013561475a816146da565b634e487b7160e01b600052604160045260246000fd5b60405161010081016001600160401b03811182821017156147c3576147c361478a565b60405290565b60405160e081016001600160401b03811182821017156147c3576147c361478a565b6040516101c081016001600160401b03811182821017156147c3576147c361478a565b604051601f8201601f191681016001600160401b03811182821017156148365761483661478a565b604052919050565b60006001600160401b038211156148575761485761478a565b5060051b60200190565b6000806040838503121561487457600080fd5b823591506020808401356001600160401b0381111561489257600080fd5b8401601f810186136148a357600080fd5b80356148b66148b18261483e565b61480e565b81815260059190911b820183019083810190888311156148d557600080fd5b928401925b828410156148f3578335825292840192908401906148da565b80955050505050509250929050565b6020808252825182820181905260009190848201906040850190845b818110156149435783516001600160a01b03168352928401929184019160010161491e565b50909695505050505050565b6000806040838503121561496257600080fd5b50508035926020909101359150565b600081518084526020808501945080840160005b838110156149a157815187529582019590820190600101614985565b509495945050505050565b602081526000610bdd6020830184614971565b60008083601f8401126149d157600080fd5b5081356001600160401b038111156149e857600080fd5b602083019150836020828501011115614a0057600080fd5b9250929050565b600080600080600080600080888a036101c0811215614a2557600080fd5b8935614a30816146da565b985060208a0135614a408161471c565b975060408a0135965060608a0135955060808a01359450610100609f198201811315614a6b57600080fd5b614a736147a0565b915060a08b0135825260c08b0135602083015260e08b01356040830152808b01356060830152506101208a013560808201526101408a013560a08201526101608a013560c08201526101808a013560e0820152809350506101a08901356001600160401b03811115614ae457600080fd5b614af08b828c016149bf565b999c989b5096995094979396929594505050565b60008060408385031215614b1757600080fd5b8235614b22816146da565b946020939093013593505050565b60006001600160401b03821115614b4957614b4961478a565b50601f01601f191660200190565b600082601f830112614b6857600080fd5b8135614b766148b182614b30565b818152846020838601011115614b8b57600080fd5b816020850160208301376000918101602001919091529392505050565b60068110611cf057600080fd5b80356146fa81614ba8565b600060e08284031215614bd257600080fd5b614bda6147c9565b9050813581526020820135602082015260408201356040820152606082013560608201526080820135608082015260a082013560a082015260c082013560c082015292915050565b600080600060608486031215614c3757600080fd5b8335614c42816146da565b925060208401356001600160401b0380821115614c5e57600080fd5b908501906102808288031215614c7357600080fd5b614c7b6147eb565b82358152614c8b6020840161472a565b6020820152614c9c6040840161472a565b6040820152606083013560608201526080830135608082015260a083013560a082015260c083013560c082015260e083013560e08201526101008084013581830152506101208084013583811115614cf357600080fd5b614cff8a828701614b57565b8284015250506101409150614d158284016146ef565b828201526101609150614d29828401614bb5565b82820152610180915081830135828201526101a09150614d4b88838501614bc0565b82820152809450505050604084013590509250925092565b600080600060608486031215614d7857600080fd5b833592506020840135614d8a816146da565b929592945050506040919091013590565b80516146fa8161471c565b600060208284031215614db857600080fd5b8151610bdd8161471c565b600060208284031215614dd557600080fd5b5051919050565b60008060008060008060c08789031215614df557600080fd5b8651614e008161471c565b6020880151909650614e118161471c565b6040880151909550614e228161471c565b6060880151909450614e338161471c565b6080880151909350614e448161471c565b8092505060a087015190509295509295509295565b80516146fa816146da565b60005b83811015614e7f578181015183820152602001614e67565b50506000910152565b600082601f830112614e9957600080fd5b8151614ea76148b182614b30565b818152846020838601011115614ebc57600080fd5b614ecd826020830160208701614e64565b949350505050565b600060208284031215614ee757600080fd5b81516001600160401b0380821115614efe57600080fd5b9083019060e08286031215614f1257600080fd5b614f1a6147c9565b614f2383614e59565b8152614f3160208401614e59565b6020820152614f4260408401614e59565b6040820152606083015182811115614f5957600080fd5b614f6587828601614e88565b6060830152506080830151608082015260a083015160a0820152614f8b60c08401614d9b565b60c082015295945050505050565b80516146fa81614ba8565b600060e08284031215614fb657600080fd5b614fbe6147c9565b9050815181526020820151602082015260408201516040820152606082015160608201526080820151608082015260a082015160a082015260c082015160c082015292915050565b60006020828403121561501857600080fd5b81516001600160401b038082111561502f57600080fd5b90830190610280828603121561504457600080fd5b61504c6147eb565b8251815261505c60208401614d9b565b602082015261506d60408401614d9b565b6040820152606083015160608201526080830151608082015260a083015160a082015260c083015160c082015260e083015160e082015261010080840151818301525061012080840151838111156150c457600080fd5b6150d088828701614e88565b82840152505061014091506150e6828401614e59565b8282015261016091506150fa828401614f99565b82820152610180915081830151828201526101a0915061511c86838501614fa4565b91810191909152949350505050565b634e487b7160e01b600052601160045260246000fd5b80820180821115610a1357610a1361512b565b81810381811115610a1357610a1361512b565b6000806040838503121561517a57600080fd5b505080516020909101519092909150565b828152604060208201526000614ecd6040830184614971565b60208082526008908201526710b6b0b730b3b2b960c11b604082015260600190565b600060208083850312156151d957600080fd5b82516001600160401b038111156151ef57600080fd5b8301601f8101851361520057600080fd5b805161520e6148b18261483e565b81815260059190911b8201830190838101908783111561522d57600080fd5b928401925b82841015615254578351615245816146da565b82529284019290840190615232565b979650505050505050565b6000806000806080858703121561527557600080fd5b84516152808161471c565b80945050602085015192506040850151915060608501516152a08161471c565b939692955090935050565b6000602082840312156152bd57600080fd5b8151610bdd816146da565b600080600080600080600060e0888a0312156152e357600080fd5b87516152ee816146da565b60208901519097506152ff816146da565b6040890151909650615310816146da565b60608901519095506001600160401b0381111561532c57600080fd5b6153388a828b01614e88565b9450506080880151925060a0880151915060c08801516153578161471c565b8091505092959891949750929550565b600061010080838503121561537b57600080fd5b604051908101906001600160401b038211818310171561539d5761539d61478a565b81604052835181526020840151602082015260408401516040820152606084015160608201526080840151608082015260a084015160a082015260c084015160c082015260e084015160e0820152809250505092915050565b634e487b7160e01b600052603260045260246000fd5b60006001820161541e5761541e61512b565b5060010190565b81548152600182015460208201526002820154604082015260608101610a13565b861515815285602082015284604082015283606082015260a060808201528160a0820152818360c0830137600081830160c090810191909152601f909201601f1916010195945050505050565b600081518084526154ab816020860160208601614e64565b601f01601f19169290920160200192915050565b805182526020810151602083015260408101516040830152606081015160608301526080810151608083015260a081015160a083015260c081015160c083015260e081015160e08301525050565b6001600160a01b038581168252841660208201526101606040820181905260009061553a83820186615493565b91505061554a60608301846154bf565b95945050505050565b6000806040838503121561556657600080fd5b8251615571816146da565b6020939093015192949293505050565b8781526001600160a01b03871660208201528515156040820152606081018590526080810184905260a081018390526101c081016155c260c08301846154bf565b98975050505050505050565b61014081016155dd82866154bf565b6101008201939093526101200152919050565b60008060006060848603121561560557600080fd5b8351615610816146da565b6020850151909350615621816146da565b6040850151909250615632816146da565b809150509250925092565b8681526001600160a01b03868116602083015285811660408301528416606082015260c06080820181905260009061567790830185615493565b905082151560a0830152979650505050505050565b600681106156aa57634e487b7160e01b600052602160045260246000fd5b9052565b60006102808251845260208301516156ca602086018215159052565b5060408301516156de604086018215159052565b50606083015160608501526080830151608085015260a083015160a085015260c083015160c085015260e083015160e085015261010080840151818601525061012080840151828287015261573583870182615493565b9250505061014080840151615754828701826001600160a01b03169052565b5050610160808401516157698287018261568c565b505061018083810151908501526101a08084015180518287015260208101516101c087015260408101516101e08701526060810151610200870152608081015161022087015260a081015161024087015260c08101516102608701525090949350505050565b602081526000610bdd60208301846156ae565b6001600160a01b038581168252848116602083015283166040820152608060608201819052600090615816908301846156ae565b9695505050505050565b634e487b7160e01b600052600160045260246000fd5b6060815260006158496060830186615493565b6020830194909452506040015291905056fea2646970667358221220d682919d36983ab30cf67eb4ded8a556879d1164be1d90ecdfff1fa1cfc1ef3e64736f6c63430008110033",
    "linkReferences": {
      "contracts/bonds/GBC.sol": {
        "LinearCurve": [
          {
            "start": 4224,
            "length": 20
          }
        ]
      }
    }
  },
  "methodIdentifiers": {
    "ad_to_id(address)": "7789ec5a",
    "approvalCondition(uint256)": "05a1ce99",
    "approveMarket(uint256)": "cabe2ae1",
    "beforeResolve(uint256)": "2b858734",
    "createVault(address,bool,uint256,uint256,uint256,(uint256,uint256,uint256,uint256,uint256,uint256,uint256,uint256),string)": "e8858b4f",
    "deniedValidator(uint256,address)": "830e2a02",
    "denyMarket(uint256)": "4cb44087",
    "forceCloseInstrument(uint256,bool)": "0c33df18",
    "fulfillRandomWords(uint256,uint256[])": "38ba4614",
    "getApprovalData(uint256)": "ac1b6b01",
    "getFinalStake(uint256)": "937b6feb",
    "getInitialStake(uint256)": "875e487e",
    "getInstrumentSnapShot(uint256)": "37b4dd3a",
    "getMarketId(address)": "f25fcc9f",
    "getMarketIds(uint256)": "b1b7e1f2",
    "getNumApproved(uint256)": "805798ac",
    "getNumResolved(uint256)": "ebd4dc46",
    "getTotalStaked(uint256)": "2f8899f3",
    "getTotalSupply(uint256)": "92ab723e",
    "getTotalValidatorSales(uint256)": "37bc93b0",
    "getTraderScore(address)": "08ad90a5",
    "getValidatorCap(uint256)": "d466461c",
    "getValidatorPrice(uint256)": "a40c63f7",
    "getValidatorRequiredCollateral(uint256)": "d65ec964",
    "getVault(uint256)": "9403b634",
    "getVaultAd(uint256)": "c4abc650",
    "getVaultSnapShot(uint256)": "c8f559c0",
    "getVaultfromId(uint256)": "9fe1458b",
    "hasApproved(uint256,address)": "2358d5a8",
    "id_parent(uint256)": "8fbbc868",
    "initiateMarket(address,(bytes32,bool,bool,uint256,uint256,uint256,uint256,uint256,uint256,string,address,uint8,uint256,(uint256,uint256,uint256,uint256,uint256,uint256,uint256)),uint256)": "e8e3fbb7",
    "isReputable(address,uint256)": "e8a78026",
    "isValidator(uint256,address)": "23f2a73f",
    "isVerified(address)": "b9209e33",
    "marketCondition(uint256)": "b743939b",
    "marketIdToVaultId(uint256)": "ce93ec67",
    "marketId_to_vaultId(uint256)": "14f2b14c",
    "market_data(uint256)": "8d4f16d7",
    "pullLeverage(uint256,uint256)": "da0a697f",
    "redeemValidator(uint256,address)": "8f5709a5",
    "redeem_transfer(uint256,address,uint256)": "f0fd1d38",
    "resolveCondition(uint256)": "81e1b07c",
    "resolveMarket(uint256)": "6399d03d",
    "setMarketManager(address)": "d82aff11",
    "setPoolFactory(address)": "473597a0",
    "setReputationManager(address)": "56a837f4",
    "setValidatorManager(address)": "45f34e92",
    "setVaultFactory(address)": "3ea7fbdb",
    "testApproveMarket(uint256)": "b37eedcd",
    "testResolveMarket(uint256)": "c3f956fa",
    "testVerifyAddress()": "03cccb35",
    "unlockValidatorStake(uint256)": "8dc3d9b4",
    "validatorApprove(uint256)": "d1227136",
    "validatorResolve(uint256)": "ad4e4e70",
    "vault_to_marketIds(uint256,uint256)": "482c0aa8",
    "vaults(uint256)": "8c64ea4a",
    "verified(address)": "0db065f4",
    "viewValidators(uint256)": "3ec8dc3b"
  },
  "id": 13
}