{
  "abi": [
    {
      "inputs": [
        {
          "internalType": "address",
          "name": "vault",
          "type": "address"
        },
        {
          "internalType": "address",
          "name": "_borrower",
          "type": "address"
        },
        {
          "internalType": "uint256",
          "name": "_principal",
          "type": "uint256"
        },
        {
          "internalType": "uint256",
          "name": "_notionalInterest",
          "type": "uint256"
        },
        {
          "internalType": "uint256",
          "name": "_duration",
          "type": "uint256"
        },
        {
          "internalType": "uint256",
          "name": "_faceValue",
          "type": "uint256"
        },
        {
          "internalType": "address",
          "name": "_collateral",
          "type": "address"
        },
        {
          "internalType": "address",
          "name": "_oracle",
          "type": "address"
        },
        {
          "internalType": "uint256",
          "name": "_collateral_balance",
          "type": "uint256"
        },
        {
          "internalType": "uint256",
          "name": "_collateral_type",
          "type": "uint256"
        }
      ],
      "stateMutability": "nonpayable",
      "type": "constructor"
    },
    {
      "anonymous": false,
      "inputs": [
        {
          "indexed": false,
          "internalType": "uint256",
          "name": "amount",
          "type": "uint256"
        }
      ],
      "name": "DepositCollateral",
      "type": "event"
    },
    {
      "anonymous": false,
      "inputs": [
        {
          "indexed": false,
          "internalType": "uint256",
          "name": "amount",
          "type": "uint256"
        }
      ],
      "name": "Drawdown",
      "type": "event"
    },
    {
      "anonymous": false,
      "inputs": [
        {
          "indexed": true,
          "internalType": "address",
          "name": "to",
          "type": "address"
        },
        {
          "indexed": false,
          "internalType": "uint256",
          "name": "amount",
          "type": "uint256"
        }
      ],
      "name": "LiquidityTransfer",
      "type": "event"
    },
    {
      "anonymous": false,
      "inputs": [
        {
          "indexed": true,
          "internalType": "address",
          "name": "to",
          "type": "address"
        },
        {
          "indexed": false,
          "internalType": "uint256",
          "name": "amount",
          "type": "uint256"
        }
      ],
      "name": "LiquidityTransferFrom",
      "type": "event"
    },
    {
      "anonymous": false,
      "inputs": [
        {
          "indexed": false,
          "internalType": "uint256",
          "name": "amount",
          "type": "uint256"
        }
      ],
      "name": "Repay",
      "type": "event"
    },
    {
      "inputs": [],
      "name": "Utilizer",
      "outputs": [
        {
          "internalType": "address",
          "name": "",
          "type": "address"
        }
      ],
      "stateMutability": "view",
      "type": "function"
    },
    {
      "inputs": [
        {
          "internalType": "address",
          "name": "user",
          "type": "address"
        }
      ],
      "name": "balanceOfUnderlying",
      "outputs": [
        {
          "internalType": "uint256",
          "name": "",
          "type": "uint256"
        }
      ],
      "stateMutability": "view",
      "type": "function"
    },
    {
      "inputs": [],
      "name": "beginGracePeriod",
      "outputs": [],
      "stateMutability": "nonpayable",
      "type": "function"
    },
    {
      "inputs": [],
      "name": "borrower",
      "outputs": [
        {
          "internalType": "address",
          "name": "",
          "type": "address"
        }
      ],
      "stateMutability": "view",
      "type": "function"
    },
    {
      "inputs": [],
      "name": "collateral",
      "outputs": [
        {
          "internalType": "address",
          "name": "",
          "type": "address"
        }
      ],
      "stateMutability": "view",
      "type": "function"
    },
    {
      "inputs": [],
      "name": "collateral_balance",
      "outputs": [
        {
          "internalType": "uint256",
          "name": "",
          "type": "uint256"
        }
      ],
      "stateMutability": "view",
      "type": "function"
    },
    {
      "inputs": [],
      "name": "collateral_type",
      "outputs": [
        {
          "internalType": "enum CreditLine.CollateralType",
          "name": "",
          "type": "uint8"
        }
      ],
      "stateMutability": "view",
      "type": "function"
    },
    {
      "inputs": [],
      "name": "declareDefault",
      "outputs": [],
      "stateMutability": "nonpayable",
      "type": "function"
    },
    {
      "inputs": [
        {
          "internalType": "uint256",
          "name": "amount",
          "type": "uint256"
        }
      ],
      "name": "depositCollateral",
      "outputs": [],
      "stateMutability": "nonpayable",
      "type": "function"
    },
    {
      "inputs": [],
      "name": "drawdown",
      "outputs": [],
      "stateMutability": "nonpayable",
      "type": "function"
    },
    {
      "inputs": [],
      "name": "estimatedTotalAssets",
      "outputs": [
        {
          "internalType": "uint256",
          "name": "",
          "type": "uint256"
        }
      ],
      "stateMutability": "view",
      "type": "function"
    },
    {
      "inputs": [],
      "name": "getApprovedBorrowConditions",
      "outputs": [
        {
          "internalType": "uint256",
          "name": "",
          "type": "uint256"
        },
        {
          "internalType": "uint256",
          "name": "",
          "type": "uint256"
        }
      ],
      "stateMutability": "view",
      "type": "function"
    },
    {
      "inputs": [],
      "name": "getCollateralRatio",
      "outputs": [
        {
          "internalType": "uint256",
          "name": "",
          "type": "uint256"
        }
      ],
      "stateMutability": "view",
      "type": "function"
    },
    {
      "inputs": [],
      "name": "getCurrentLoanStatus",
      "outputs": [
        {
          "internalType": "uint256",
          "name": "",
          "type": "uint256"
        }
      ],
      "stateMutability": "view",
      "type": "function"
    },
    {
      "inputs": [],
      "name": "getMaturityBalance",
      "outputs": [
        {
          "internalType": "uint256",
          "name": "",
          "type": "uint256"
        }
      ],
      "stateMutability": "view",
      "type": "function"
    },
    {
      "inputs": [],
      "name": "getProxy",
      "outputs": [
        {
          "internalType": "address",
          "name": "",
          "type": "address"
        }
      ],
      "stateMutability": "view",
      "type": "function"
    },
    {
      "inputs": [],
      "name": "getRemainingOwed",
      "outputs": [
        {
          "internalType": "uint256",
          "name": "",
          "type": "uint256"
        },
        {
          "internalType": "uint256",
          "name": "",
          "type": "uint256"
        }
      ],
      "stateMutability": "view",
      "type": "function"
    },
    {
      "inputs": [],
      "name": "instrumentApprovalCondition",
      "outputs": [
        {
          "internalType": "bool",
          "name": "",
          "type": "bool"
        }
      ],
      "stateMutability": "view",
      "type": "function"
    },
    {
      "inputs": [],
      "name": "interestToRepay",
      "outputs": [
        {
          "internalType": "uint256",
          "name": "",
          "type": "uint256"
        }
      ],
      "stateMutability": "view",
      "type": "function"
    },
    {
      "inputs": [
        {
          "internalType": "uint256",
          "name": "amount",
          "type": "uint256"
        }
      ],
      "name": "isLiquid",
      "outputs": [
        {
          "internalType": "bool",
          "name": "",
          "type": "bool"
        }
      ],
      "stateMutability": "view",
      "type": "function"
    },
    {
      "inputs": [
        {
          "internalType": "address",
          "name": "collateral",
          "type": "address"
        }
      ],
      "name": "isLiquidatable",
      "outputs": [
        {
          "internalType": "bool",
          "name": "",
          "type": "bool"
        }
      ],
      "stateMutability": "view",
      "type": "function"
    },
    {
      "inputs": [],
      "name": "isLocked",
      "outputs": [
        {
          "internalType": "bool",
          "name": "",
          "type": "bool"
        }
      ],
      "stateMutability": "view",
      "type": "function"
    },
    {
      "inputs": [],
      "name": "liquidateAllPositions",
      "outputs": [
        {
          "internalType": "uint256",
          "name": "_amountFreed",
          "type": "uint256"
        }
      ],
      "stateMutability": "nonpayable",
      "type": "function"
    },
    {
      "inputs": [
        {
          "internalType": "address",
          "name": "buyer",
          "type": "address"
        }
      ],
      "name": "liquidateOwnership",
      "outputs": [],
      "stateMutability": "nonpayable",
      "type": "function"
    },
    {
      "inputs": [
        {
          "internalType": "uint256",
          "name": "_amountNeeded",
          "type": "uint256"
        }
      ],
      "name": "liquidatePosition",
      "outputs": [
        {
          "internalType": "uint256",
          "name": "_liquidatedAmount",
          "type": "uint256"
        },
        {
          "internalType": "uint256",
          "name": "_loss",
          "type": "uint256"
        }
      ],
      "stateMutability": "nonpayable",
      "type": "function"
    },
    {
      "inputs": [],
      "name": "loanStatus",
      "outputs": [
        {
          "internalType": "enum CreditLine.LoanStatus",
          "name": "",
          "type": "uint8"
        }
      ],
      "stateMutability": "view",
      "type": "function"
    },
    {
      "inputs": [],
      "name": "onDefault",
      "outputs": [],
      "stateMutability": "nonpayable",
      "type": "function"
    },
    {
      "inputs": [
        {
          "internalType": "uint256",
          "name": "max_principal",
          "type": "uint256"
        },
        {
          "internalType": "uint256",
          "name": "quoted_yield",
          "type": "uint256"
        }
      ],
      "name": "onMarketApproval",
      "outputs": [],
      "stateMutability": "nonpayable",
      "type": "function"
    },
    {
      "inputs": [],
      "name": "onMaturity",
      "outputs": [],
      "stateMutability": "nonpayable",
      "type": "function"
    },
    {
      "inputs": [],
      "name": "oracle",
      "outputs": [
        {
          "internalType": "address",
          "name": "",
          "type": "address"
        }
      ],
      "stateMutability": "view",
      "type": "function"
    },
    {
      "inputs": [],
      "name": "prepareWithdraw",
      "outputs": [
        {
          "internalType": "uint256",
          "name": "_profit",
          "type": "uint256"
        },
        {
          "internalType": "uint256",
          "name": "_loss",
          "type": "uint256"
        },
        {
          "internalType": "uint256",
          "name": "_debtPayment",
          "type": "uint256"
        }
      ],
      "stateMutability": "nonpayable",
      "type": "function"
    },
    {
      "inputs": [
        {
          "internalType": "uint256",
          "name": "amount",
          "type": "uint256"
        }
      ],
      "name": "pullRawFunds",
      "outputs": [],
      "stateMutability": "nonpayable",
      "type": "function"
    },
    {
      "inputs": [
        {
          "internalType": "uint256",
          "name": "amount",
          "type": "uint256"
        },
        {
          "internalType": "address",
          "name": "to",
          "type": "address"
        }
      ],
      "name": "pushCollateralToVault",
      "outputs": [],
      "stateMutability": "nonpayable",
      "type": "function"
    },
    {
      "inputs": [],
      "name": "readyForWithdrawal",
      "outputs": [
        {
          "internalType": "bool",
          "name": "",
          "type": "bool"
        }
      ],
      "stateMutability": "view",
      "type": "function"
    },
    {
      "inputs": [
        {
          "internalType": "uint256",
          "name": "amount",
          "type": "uint256"
        }
      ],
      "name": "redeemUnderlying",
      "outputs": [
        {
          "internalType": "bool",
          "name": "",
          "type": "bool"
        }
      ],
      "stateMutability": "nonpayable",
      "type": "function"
    },
    {
      "inputs": [
        {
          "internalType": "uint256",
          "name": "_repay_amount",
          "type": "uint256"
        }
      ],
      "name": "repay",
      "outputs": [],
      "stateMutability": "nonpayable",
      "type": "function"
    },
    {
      "inputs": [],
      "name": "setGracePeriod",
      "outputs": [],
      "stateMutability": "nonpayable",
      "type": "function"
    },
    {
      "inputs": [
        {
          "internalType": "address",
          "name": "_Utilizer",
          "type": "address"
        }
      ],
      "name": "setUtilizer",
      "outputs": [],
      "stateMutability": "nonpayable",
      "type": "function"
    },
    {
      "inputs": [
        {
          "internalType": "address",
          "name": "newVault",
          "type": "address"
        }
      ],
      "name": "setVault",
      "outputs": [],
      "stateMutability": "nonpayable",
      "type": "function"
    },
    {
      "inputs": [],
      "name": "store_internal_balance",
      "outputs": [],
      "stateMutability": "nonpayable",
      "type": "function"
    },
    {
      "inputs": [],
      "name": "underlying",
      "outputs": [
        {
          "internalType": "contract ERC20",
          "name": "",
          "type": "address"
        }
      ],
      "stateMutability": "view",
      "type": "function"
    },
    {
      "inputs": [
        {
          "internalType": "uint256",
          "name": "",
          "type": "uint256"
        }
      ],
      "name": "validators",
      "outputs": [
        {
          "internalType": "address",
          "name": "",
          "type": "address"
        }
      ],
      "stateMutability": "view",
      "type": "function"
    },
    {
      "inputs": [],
      "name": "vault",
      "outputs": [
        {
          "internalType": "contract Vault",
          "name": "",
          "type": "address"
        }
      ],
      "stateMutability": "view",
      "type": "function"
    }
  ],
  "bytecode": {
    "object": "0x60a06040523480156200001157600080fd5b50604051620031da380380620031da8339810160408190526200003491620002dc565b600180546001600160a01b0319166001600160a01b038c16908117909155604080516362eb326360e11b815290518c928c92909163c5d664c6916004808201926020929091908290030181865afa15801562000094573d6000803e3d6000fd5b505050506040513d601f19601f82011682018060405250810190620000ba919062000383565b600080546001600160a01b0319166001600160a01b0392831690811790915560405163095ea7b360e01b8152918416600483015260001960248301529063095ea7b3906044016020604051808303816000875af115801562000120573d6000803e3d6000fd5b505050506040513d601f19601f82011682018060405250810190620001469190620003aa565b50600480546001600160a01b0319166001600160a01b039283161790558a16608052506200017d88670de0b6b3a7640000620003ce565b6007556200019487670de0b6b3a7640000620003ce565b600855600a869055620001b085670de0b6b3a7640000620003ce565b600955601280546001600160a01b038087166001600160a01b0319928316179092556013805492861692909116919091179055620001f782670de0b6b3a7640000620003ce565b6014558060038111156200020f576200020f620003fa565b6015805460ff191660018360038111156200022e576200022e620003fa565b0217905550601a805460ff1916905560405130908a906200024f90620002b5565b6001600160a01b03928316815291166020820152604001604051809103906000f08015801562000283573d6000803e3d6000fd5b50601d80546001600160a01b0319166001600160a01b0392909216919091179055506200041098505050505050505050565b6109ab806200282f83390190565b6001600160a01b0381168114620002d957600080fd5b50565b6000806000806000806000806000806101408b8d031215620002fd57600080fd5b8a516200030a81620002c3565b60208c0151909a506200031d81620002c3565b8099505060408b0151975060608b0151965060808b0151955060a08b0151945060c08b01516200034d81620002c3565b60e08c01519094506200036081620002c3565b809350506101008b015191506101208b015190509295989b9194979a5092959850565b6000602082840312156200039657600080fd5b8151620003a381620002c3565b9392505050565b600060208284031215620003bd57600080fd5b81518015158114620003a357600080fd5b8082028115828204841417620003f457634e487b7160e01b600052601160045260246000fd5b92915050565b634e487b7160e01b600052602160045260246000fd5b6080516123fc6200043360003960008181610428015261151e01526123fc6000f3fe608060405234801561001057600080fd5b50600436106102695760003560e01c80637dc0d1d011610151578063bdf0f253116100c3578063d8dfeb4511610087578063d8dfeb45146104f4578063db37546d14610507578063e77ef21f1461051a578063efbb5cb01461039b578063f3aa68d314610522578063fbfa77cf1461052a57600080fd5b8063bdf0f253146104bb578063ca0565f5146104c3578063cd377c531461039b578063cdddd4e5146104cb578063d832f791146104e157600080fd5b80638a7a2d83116101155780638a7a2d831461046d578063933a9ce814610475578063a4e2d63414610486578063aeae11aa14610498578063b93a02f3146104a0578063bad4a01f146104a857600080fd5b80637dc0d1d0146104105780637df1f1b91461042357806383e754a01461044a578063852a12e314610452578063857f37cf1461046557600080fd5b8063416288dd116101ea57806357b25996116101ae57806357b25996146103b55780636817031b146103c85780636f307dc3146103db5780636febd543146103ee5780637003dc66146103f6578063767c30531461039b57600080fd5b8063416288dd14610365578063424cfe72146102e357806349dcf4ed1461037857806350bb4beb1461039b578063537d9409146103a257600080fd5b8063187526d911610231578063187526d9146102e5578063350896fe1461030157806335aa2e441461032c578063371fd8e61461033f5780633af9e6691461035257600080fd5b8063042e02cf1461026e578063074ca9661461029757806310d6f857146102b15780631104aafd146102c857806315c98ece146102d0575b600080fd5b61028261027c366004612137565b50600090565b60405190151581526020015b60405180910390f35b601a546102a49060ff1681565b60405161028e919061216a565b6102ba60145481565b60405190815260200161028e565b6002546102ba565b6102e36102de366004612137565b61053d565b005b600d54600e545b6040805192835260208301919091520161028e565b600454610314906001600160a01b031681565b6040516001600160a01b03909116815260200161028e565b61031461033a366004612184565b61066a565b6102e361034d366004612184565b610694565b6102ba610360366004612137565b61083b565b6102e361037336600461219d565b61093c565b61038061099e565b6040805193845260208401929092529082015260600161028e565b60006102ba565b6102826103b0366004612184565b610a38565b6102e36103c3366004612137565b610a7f565b6102e36103d6366004612137565b610b75565b600054610314906001600160a01b031681565b6102e3610c58565b6015546104039060ff1681565b60405161028e91906121bf565b601354610314906001600160a01b031681565b6103147f000000000000000000000000000000000000000000000000000000000000000081565b610282610dc8565b610282610460366004612184565b610fa0565b6102e3611046565b6102e36110aa565b601d546001600160a01b0316610314565b600154600160a01b900460ff16610282565b6102ba6111a2565b6102ec6111f8565b6102e36104b6366004612184565b611283565b610282611370565b6102e36113d9565b6102ec6104d9366004612184565b600080915091565b6102e36104ef366004612184565b6115e7565b601254610314906001600160a01b031681565b6102e36105153660046121d3565b611679565b6102e36117d9565b6102e3611982565b600154610314906001600160a01b031681565b600160009054906101000a90046001600160a01b03166001600160a01b0316638da5cb5b6040518163ffffffff1660e01b8152600401602060405180830381865afa158015610590573d6000803e3d6000fd5b505050506040513d601f19601f820116820180604052508101906105b49190612203565b6001600160a01b0316336001600160a01b031614806105e257503360009081526006602052604090205460ff165b6106075760405162461bcd60e51b81526004016105fe90612220565b60405180910390fd5b601d5460405163157a618f60e11b81526001600160a01b03838116600483015290911690632af4c31e906024015b600060405180830381600087803b15801561064f57600080fd5b505af1158015610663573d6000803e3d6000fd5b5050505050565b6005818154811061067a57600080fd5b6000918252602090912001546001600160a01b0316905081565b6004546001600160a01b031633146106be5760405162461bcd60e51b81526004016105fe90612245565b6001546040516396d6487960e01b81523060048201526001600160a01b03909116906396d6487990602401602060405180830381865afa158015610706573d6000803e3d6000fd5b505050506040513d601f19601f8201168201806040525081019061072a9190612268565b6107655760405162461bcd60e51b815260206004820152600c60248201526b139bdd08185c1c1c9bdd995960a21b60448201526064016105fe565b600061076f6111a2565b905060008282811061079e5761078583856122a0565b61078f90836122b3565b6000600f5591508290506107ac565b6107a881846122a0565b600f555b6107b68282611aa6565b156107ec57436019556107c7611b85565b156107de57601a805460ff191660041790556107ec565b601a805460ff191660051790555b6107f4611bc2565b601b55610802333086611bd6565b6040518481527fa6ffc78a660e4971a47a0f916a0abae483804e6f42c9292ed06aa64f8fe462309060200160405180910390a150505050565b6000306001600160a01b038316036108ce576003546000546040516370a0823160e01b81526001600160a01b038581166004830152909116906370a0823190602401602060405180830381865afa15801561089a573d6000803e3d6000fd5b505050506040513d601f19601f820116820180604052508101906108be91906122c6565b6108c891906122a0565b92915050565b6000546040516370a0823160e01b81526001600160a01b038481166004830152909116906370a0823190602401602060405180830381865afa158015610918573d6000803e3d6000fd5b505050506040513d601f19601f820116820180604052508101906108c891906122c6565b6001546001600160a01b031633146109665760405162461bcd60e51b81526004016105fe906122df565b60078290556008819055600a54610988906109819084611d56565b8290611d72565b600b555050601a805460ff19166001179055565b565b600154600090819081906001600160a01b031633146109cf5760405162461bcd60e51b81526004016105fe906122df565b6109d7611370565b610a1b5760405162461bcd60e51b81526020600482015260156024820152746e6f7420726561647920746f20776974686472617760581b60448201526064016105fe565b610a336001805460ff60a01b1916600160a01b179055565b909192565b6000610a6d604051806040016040528060088152602001671a5cdb1a5c5d5a5960c21b815250610a673061083b565b84611d87565b81610a773061083b565b101592915050565b600160009054906101000a90046001600160a01b03166001600160a01b0316638da5cb5b6040518163ffffffff1660e01b8152600401602060405180830381865afa158015610ad2573d6000803e3d6000fd5b505050506040513d601f19601f82011682018060405250810190610af69190612203565b6001600160a01b0316336001600160a01b03161480610b2457503360009081526006602052604090205460ff165b610b405760405162461bcd60e51b81526004016105fe90612220565b6001600160a01b038116610b5357600080fd5b600480546001600160a01b0319166001600160a01b0392909216919091179055565b600160009054906101000a90046001600160a01b03166001600160a01b0316638da5cb5b6040518163ffffffff1660e01b8152600401602060405180830381865afa158015610bc8573d6000803e3d6000fd5b505050506040513d601f19601f82011682018060405250810190610bec9190612203565b6001600160a01b0316336001600160a01b03161480610c1a57503360009081526006602052604090205460ff165b610c365760405162461bcd60e51b81526004016105fe90612220565b600180546001600160a01b0319166001600160a01b0392909216919091179055565b600160009054906101000a90046001600160a01b03166001600160a01b0316638da5cb5b6040518163ffffffff1660e01b8152600401602060405180830381865afa158015610cab573d6000803e3d6000fd5b505050506040513d601f19601f82011682018060405250810190610ccf9190612203565b6001600160a01b0316336001600160a01b03161480610cfd57503360009081526006602052604090205460ff165b610d195760405162461bcd60e51b81526004016105fe90612220565b6007601a5460ff166007811115610d3257610d32612154565b14610d3c57600080fd5b6000546007546001600160a01b03909116906323b872dd9033903090610d649060029061230d565b6040518463ffffffff1660e01b8152600401610d829392919061232f565b6020604051808303816000875af1158015610da1573d6000803e3d6000fd5b505050506040513d601f19601f82011682018060405250810190610dc59190612268565b50565b60008060155460ff166003811115610de257610de2612154565b1480610e045750600160155460ff166003811115610e0257610e02612154565b145b15610ec6576014546012546040516370a0823160e01b81523060048201526001600160a01b03909116906370a0823190602401602060405180830381865afa158015610e54573d6000803e3d6000fd5b505050506040513d601f19601f82011682018060405250810190610e7891906122c6565b1015610ec65760405162461bcd60e51b815260206004820152601760248201527f496e73756666696369656e7420636f6c6c61746572616c00000000000000000060448201526064016105fe565b600260155460ff166003811115610edf57610edf612154565b148015610f605750601d60009054906101000a90046001600160a01b03166001600160a01b031663524d81d36040518163ffffffff1660e01b8152600401602060405180830381865afa158015610f3a573d6000803e3d6000fd5b505050506040513d601f19601f82011682018060405250810190610f5e91906122c6565b155b15610f9a5760405162461bcd60e51b815260206004820152600a602482015269027bbb732b939b434b8160b51b60448201526064016105fe565b50600190565b6001546000906001600160a01b03163314610fcd5760405162461bcd60e51b81526004016105fe906122df565b60005460015460405163a9059cbb60e01b81526001600160a01b0391821660048201526024810185905291169063a9059cbb906044016020604051808303816000875af1158015611022573d6000803e3d6000fd5b505050506040513d601f19601f820116820180604052508101906108c89190612268565b6000600d5411801561105a57506000600e54115b61108f5760405162461bcd60e51b81526020600482015260066024820152651c995c185a5960d21b60448201526064016105fe565b42601c55601a80546006919060ff19166001835b0217905550565b600160009054906101000a90046001600160a01b03166001600160a01b0316638da5cb5b6040518163ffffffff1660e01b8152600401602060405180830381865afa1580156110fd573d6000803e3d6000fd5b505050506040513d601f19601f820116820180604052508101906111219190612203565b6001600160a01b0316336001600160a01b0316148061114f57503360009081526006602052604090205460ff165b61116b5760405162461bcd60e51b81526004016105fe90612220565b6006601a5460ff16600781111561118457611184612154565b1461118e57600080fd5b601a80546007919060ff19166001836110a3565b6000806111c2601b546111b3611bc2565b6111bd91906122a0565b611dce565b9050600f546111e86111e1600d54600b54611d5690919063ffffffff16565b8390611d56565b6111f291906122b3565b91505090565b6001546040516396d6487960e01b815230600482015260009182916001600160a01b03909116906396d6487990602401602060405180830381865afa158015611245573d6000803e3d6000fd5b505050506040513d601f19601f820116820180604052508101906112699190612268565b1561127a5750506007546008549091565b50600091829150565b6004546001600160a01b031633146112ad5760405162461bcd60e51b81526004016105fe90612245565b6012546001600160a01b03166112c257600080fd5b6012546040516323b872dd60e01b81526001600160a01b03909116906323b872dd906112f69033903090869060040161232f565b6020604051808303816000875af1158015611315573d6000803e3d6000fd5b505050506040513d601f19601f820116820180604052508101906113399190612268565b506040518181527faf109966ac3222213230f1317e7851e5a7d44b53f924cb801aa2e80705cefc869060200160405180910390a150565b60006005601a5460ff16600781111561138b5761138b612154565b14806113ad57506007601a5460ff1660078111156113ab576113ab612154565b145b806113ce57506004601a5460ff1660078111156113cc576113cc612154565b145b15610f9a5750600190565b6004546001600160a01b031633146114035760405162461bcd60e51b81526004016105fe90612245565b6004601a5460ff16600781111561141c5761141c612154565b148061143e57506005601a5460ff16600781111561143c5761143c612154565b145b6114785760405162461bcd60e51b815260206004820152600b60248201526a139bdd081b585d1d5c995960aa1b60448201526064016105fe565b60195443116114b75760405162461bcd60e51b815260206004820152600b60248201526a109b1bd8dac8195c5d585b60aa1b60448201526064016105fe565b600060155460ff1660038111156114d0576114d0612154565b14806114f25750600160155460ff1660038111156114f0576114f0612154565b145b15611504576114ff611df1565b611584565b601d5460405163157a618f60e11b81526001600160a01b037f00000000000000000000000000000000000000000000000000000000000000008116600483015290911690632af4c31e90602401600060405180830381600087803b15801561156b57600080fd5b505af115801561157f573d6000803e3d6000fd5b505050505b60006004601a5460ff16600781111561159f5761159f612154565b146115ab5760006115ae565b60015b60015460405163109d3ea960e11b815230600482015282151560248201529192506001600160a01b03169063213a7d5290604401610635565b6000546040516323b872dd60e01b81526001600160a01b03909116906323b872dd9061161b9033903090869060040161232f565b6020604051808303816000875af115801561163a573d6000803e3d6000fd5b505050506040513d601f19601f8201168201806040525081019061165e9190612268565b50806003600082825461167191906122b3565b909155505050565b600160009054906101000a90046001600160a01b03166001600160a01b0316638da5cb5b6040518163ffffffff1660e01b8152600401602060405180830381865afa1580156116cc573d6000803e3d6000fd5b505050506040513d601f19601f820116820180604052508101906116f09190612203565b6001600160a01b0316336001600160a01b0316148061171e57503360009081526006602052604090205460ff165b61173a5760405162461bcd60e51b81526004016105fe90612220565b6007601a5460ff16600781111561175357611753612154565b1461175d57600080fd5b60125460405163a9059cbb60e01b81526001600160a01b038381166004830152602482018590529091169063a9059cbb906044016020604051808303816000875af11580156117b0573d6000803e3d6000fd5b505050506040513d601f19601f820116820180604052508101906117d49190612268565b505050565b6004546001600160a01b031633146118035760405162461bcd60e51b81526004016105fe90612245565b6001546040516396d6487960e01b81523060048201526001600160a01b03909116906396d6487990602401602060405180830381865afa15801561184b573d6000803e3d6000fd5b505050506040513d601f19601f8201168201806040525081019061186f9190612268565b6118aa5760405162461bcd60e51b815260206004820152600c60248201526b139bdd08185c1c1c9bdd995960a21b60448201526064016105fe565b6001601a5460ff1660078111156118c3576118c3612154565b146119035760405162461bcd60e51b815260206004820152601060248201526f105b1c9958591e48189bdc9c9bddd95960821b60448201526064016105fe565b601a805460ff19166002179055426016819055601b5560085460075461192991906122b3565b600c55600754600d819055600854600e55611945903390611ea5565b7febf485edb8aa02238294ff7cda84b77f5afafa105e34f3bbf866534b7b5bd40e60075460405161197891815260200190565b60405180910390a1565b6001546001600160a01b031633146119ac5760405162461bcd60e51b81526004016105fe906122df565b6119b53061083b565b60025560015460408051637e0b9fe360e11b815290516001600160a01b039092169163fc173fc6916004808201926020929091908290030181865afa158015611a02573d6000803e3d6000fd5b505050506040513d601f19601f82011682018060405250810190611a269190612268565b1561099c57600154600254604051634b674ead60e11b81526001600160a01b03909216916396ce9d5a91611a609160040190815260200190565b602060405180830381865afa158015611a7d573d6000803e3d6000fd5b505050506040513d601f19601f82011682018060405250810190611aa191906122c6565b600255565b6000611abd611ab583856122b3565b600c54612067565b600c6000828254611ace91906122a0565b92505081905550611ae183600d54612067565b600d6000828254611af291906122a0565b92505081905550611b0582600e54612067565b600e6000828254611b1691906122a0565b925050819055508260106000828254611b2f91906122b3565b925050819055508160116000828254611b4891906122b3565b90915550508215611b5b57611b5b61207d565b6000600d546000148015611b6f5750600e54155b611b7a576000611b7d565b60015b949350505050565b600080670de0b6b3a7640000601154601054611ba191906122b3565b611bab91906122b3565b600854600754611bbb91906122b3565b1192915050565b6000611bd14262f099c06122b3565b905090565b600154600160a01b900460ff1615611bed57600080fd5b600160009054906101000a90046001600160a01b03166001600160a01b031663fc173fc66040518163ffffffff1660e01b8152600401602060405180830381865afa158015611c40573d6000803e3d6000fd5b505050506040513d601f19601f82011682018060405250810190611c649190612268565b15611cd95760015460405163098b6def60e11b8152600481018390526001600160a01b0390911690631316dbde90602401602060405180830381865afa158015611cb2573d6000803e3d6000fd5b505050506040513d601f19601f82011682018060405250810190611cd691906122c6565b90505b6000546040516323b872dd60e01b81526001600160a01b03909116906323b872dd90611d0d9086908690869060040161232f565b6020604051808303816000875af1158015611d2c573d6000803e3d6000fd5b505050506040513d601f19601f82011682018060405250810190611d509190612268565b50505050565b6000611d6b8383670de0b6b3a76400006120d2565b9392505050565b6000611d6b83670de0b6b3a7640000846120d2565b6117d4838383604051602401611d9f93929190612353565b60408051601f198184030181529190526020810180516001600160e01b031663969cdd0360e01b1790526120f1565b60006301e13380611de783670de0b6b3a76400006123af565b6108c8919061230d565b6005601a5460ff166007811115611e0a57611e0a612154565b1480611e2c57506004601a5460ff166007811115611e2a57611e2a612154565b145b611e6a5760405162461bcd60e51b815260206004820152600f60248201526e2637b0b71039ba30ba3ab99032b93960891b60448201526064016105fe565b60125460145460405163a9059cbb60e01b815233600482015260248101919091526001600160a01b039091169063a9059cbb90604401610d82565b600154600160a01b900460ff1615611ebc57600080fd5b600160009054906101000a90046001600160a01b03166001600160a01b031663fc173fc66040518163ffffffff1660e01b8152600401602060405180830381865afa158015611f0f573d6000803e3d6000fd5b505050506040513d601f19601f82011682018060405250810190611f339190612268565b15611fa85760015460405163098b6def60e11b8152600481018390526001600160a01b0390911690631316dbde90602401602060405180830381865afa158015611f81573d6000803e3d6000fd5b505050506040513d601f19601f82011682018060405250810190611fa591906122c6565b90505b60005460405163a9059cbb60e01b81526001600160a01b038481166004830152602482018490529091169063a9059cbb906044016020604051808303816000875af1158015611ffb573d6000803e3d6000fd5b505050506040513d601f19601f8201168201806040525081019061201f9190612268565b50816001600160a01b03167fdd49f6fb966737c9c27cb4f8ecec6be6c3556ffc9ff40ada739ed8262b2f992b8260405161205b91815260200190565b60405180910390a25050565b60008183106120765781611d6b565b5090919050565b6000612087611bc2565b612092600a54612112565b60165461209f91906122b3565b6120a991906122a0565b90506120cc6120c3600d546120bd84611dce565b90611d56565b600b5490611d56565b600e5550565b8282028115158415858304851417166120ea57600080fd5b0492915050565b80516a636f6e736f6c652e6c6f67602083016000808483855afa5050505050565b60006108c86301e1338083611d56565b6001600160a01b0381168114610dc557600080fd5b60006020828403121561214957600080fd5b8135611d6b81612122565b634e487b7160e01b600052602160045260246000fd5b602081016008831061217e5761217e612154565b91905290565b60006020828403121561219657600080fd5b5035919050565b600080604083850312156121b057600080fd5b50508035926020909101359150565b602081016004831061217e5761217e612154565b600080604083850312156121e657600080fd5b8235915060208301356121f881612122565b809150509250929050565b60006020828403121561221557600080fd5b8151611d6b81612122565b6020808252600b908201526a08585d5d1a1bdc9a5e995960aa1b604082015260600190565b60208082526009908201526810aaba34b634bd32b960b91b604082015260600190565b60006020828403121561227a57600080fd5b81518015158114611d6b57600080fd5b634e487b7160e01b600052601160045260246000fd5b818103818111156108c8576108c861228a565b808201808211156108c8576108c861228a565b6000602082840312156122d857600080fd5b5051919050565b60208082526014908201527318d85b1b195c881b5d5cdd081899481d985d5b1d60621b604082015260600190565b60008261232a57634e487b7160e01b600052601260045260246000fd5b500490565b6001600160a01b039384168152919092166020820152604081019190915260600190565b606081526000845180606084015260005b818110156123815760208188018101516080868401015201612364565b506000608082850101526080601f19601f830116840101915050836020830152826040830152949350505050565b80820281158282048414176108c8576108c861228a56fea264697066735822122049bfccad35692d9a791238cd5b466badd0167d92742c32ab199152b9600fe39864736f6c63430008110033608060405234801561001057600080fd5b506040516109ab3803806109ab83398101604081905261002f9161007c565b600080546001600160a01b039384166001600160a01b031991821617909155600180549290931691161790556100af565b80516001600160a01b038116811461007757600080fd5b919050565b6000806040838503121561008f57600080fd5b61009883610060565b91506100a660208401610060565b90509250929050565b6108ed806100be6000396000f3fe608060405234801561001057600080fd5b50600436106100935760003560e01c8063524d81d311610066578063524d81d31461018c578063893d20e81461019d57806399f3c79b146101c2578063bade64b1146101fe578063d4f804cf1461021157600080fd5b806301a3f256146100985780630eaad4891461012e5780632af4c31e146101665780633ac47fff14610179575b600080fd5b61012c6100a63660046106bd565b6002805460018082019092557f405787fa12a823e0f2b7631cc41b3ba8828b3321ca811111fa75cd3aa3bb5ace0180546001600160a01b0319166001600160a01b039490941693841790556000928352600460209081526040808520805460ff191690931790925560039052909120805463ffffffff191660e09290921c919091179055565b005b61015161013c366004610701565b60046020526000908152604090205460ff1681565b60405190151581526020015b60405180910390f35b61012c610174366004610701565b610224565b61012c61018736600461076c565b610291565b60025460405190815260200161015d565b6000546001600160a01b03165b6040516001600160a01b03909116815260200161015d565b6101e56101d0366004610701565b60036020526000908152604090205460e01b81565b6040516001600160e01b0319909116815260200161015d565b6101aa61020c3660046107ea565b610512565b61012c61021f366004610803565b61053c565b6000546001600160a01b0316331461026f5760405162461bcd60e51b81526020600482015260096024820152682737ba1037bbb732b960b91b60448201526064015b60405180910390fd5b600080546001600160a01b0319166001600160a01b0392909216919091179055565b6000546001600160a01b031633146102a857600080fd5b6001600160a01b03851660009081526004602052604090205460ff166102cd57600080fd5b6001600160a01b03841630146102fe576001600160a01b0385166000908152600460205260409020805460ff191690555b80156103dc576001600160a01b038581166000818152600360205260408082205490519388166024850152909260e09190911b9060440160408051601f198184030181529181526020820180516001600160e01b03166001600160e01b03199094169390931790925290516103739190610856565b6000604051808303816000865af19150503d80600081146103b0576040519150601f19603f3d011682016040523d82523d6000602084013e6103b5565b606091505b50509050806103d65760405162461bcd60e51b815260040161026690610885565b5061050b565b6001600160a01b038516600090815260036020908152604091829020548251601f860183900483028101830190935284835260e01b6001600160e01b0319169161044091869086908190840183828082843760009201919091525061068692505050565b6001600160e01b0319160361048a5760405162461bcd60e51b815260206004820152601060248201526f199d5b98c81b9bdd08185b1b1bddd95960821b6044820152606401610266565b6000856001600160a01b031684846040516104a69291906108a7565b6000604051808303816000865af19150503d80600081146104e3576040519150601f19603f3d011682016040523d82523d6000602084013e6104e8565b606091505b50509050806105095760405162461bcd60e51b815260040161026690610885565b505b5050505050565b6002818154811061052257600080fd5b6000918252602090912001546001600160a01b0316905081565b6001546001600160a01b0316331461055357600080fd5b6001600160a01b038316600090815260036020908152604091829020548251601f850183900483028101830190935283835260e01b6001600160e01b031916916105b791859085908190840183828082843760009201919091525061068692505050565b6001600160e01b031916036106015760405162461bcd60e51b815260206004820152601060248201526f199d5b98c81b9bdd08185b1b1bddd95960821b6044820152606401610266565b6000836001600160a01b0316838360405161061d9291906108a7565b6000604051808303816000865af19150503d806000811461065a576040519150601f19603f3d011682016040523d82523d6000602084013e61065f565b606091505b50509050806106805760405162461bcd60e51b815260040161026690610885565b50505050565b6000815160000361069957506000919050565b506004015190565b80356001600160a01b03811681146106b857600080fd5b919050565b600080604083850312156106d057600080fd5b6106d9836106a1565b915060208301356001600160e01b0319811681146106f657600080fd5b809150509250929050565b60006020828403121561071357600080fd5b61071c826106a1565b9392505050565b60008083601f84011261073557600080fd5b50813567ffffffffffffffff81111561074d57600080fd5b60208301915083602082850101111561076557600080fd5b9250929050565b60008060008060006080868803121561078457600080fd5b61078d866106a1565b945061079b602087016106a1565b9350604086013567ffffffffffffffff8111156107b757600080fd5b6107c388828901610723565b909450925050606086013580151581146107dc57600080fd5b809150509295509295909350565b6000602082840312156107fc57600080fd5b5035919050565b60008060006040848603121561081857600080fd5b610821846106a1565b9250602084013567ffffffffffffffff81111561083d57600080fd5b61084986828701610723565b9497909650939450505050565b6000825160005b81811015610877576020818601810151858301520161085d565b506000920191825250919050565b602080825260089082015267217375636365737360c01b604082015260600190565b818382376000910190815291905056fea2646970667358221220b026dab4d3d46e7b928c5f5185b78544df4be0fabe754e7817939d23de29f95564736f6c63430008110033",
    "linkReferences": {}
  },
  "methodIdentifiers": {
    "Utilizer()": "350896fe",
    "balanceOfUnderlying(address)": "3af9e669",
    "beginGracePeriod()": "857f37cf",
    "borrower()": "7df1f1b9",
    "collateral()": "d8dfeb45",
    "collateral_balance()": "10d6f857",
    "collateral_type()": "7003dc66",
    "declareDefault()": "8a7a2d83",
    "depositCollateral(uint256)": "bad4a01f",
    "drawdown()": "e77ef21f",
    "estimatedTotalAssets()": "efbb5cb0",
    "getApprovedBorrowConditions()": "b93a02f3",
    "getCollateralRatio()": "cd377c53",
    "getCurrentLoanStatus()": "767c3053",
    "getMaturityBalance()": "1104aafd",
    "getProxy()": "933a9ce8",
    "getRemainingOwed()": "187526d9",
    "instrumentApprovalCondition()": "83e754a0",
    "interestToRepay()": "aeae11aa",
    "isLiquid(uint256)": "537d9409",
    "isLiquidatable(address)": "042e02cf",
    "isLocked()": "a4e2d634",
    "liquidateAllPositions()": "50bb4beb",
    "liquidateOwnership(address)": "15c98ece",
    "liquidatePosition(uint256)": "cdddd4e5",
    "loanStatus()": "074ca966",
    "onDefault()": "6febd543",
    "onMarketApproval(uint256,uint256)": "416288dd",
    "onMaturity()": "ca0565f5",
    "oracle()": "7dc0d1d0",
    "prepareWithdraw()": "49dcf4ed",
    "pullRawFunds(uint256)": "d832f791",
    "pushCollateralToVault(uint256,address)": "db37546d",
    "readyForWithdrawal()": "bdf0f253",
    "redeemUnderlying(uint256)": "852a12e3",
    "repay(uint256)": "371fd8e6",
    "setGracePeriod()": "424cfe72",
    "setUtilizer(address)": "57b25996",
    "setVault(address)": "6817031b",
    "store_internal_balance()": "f3aa68d3",
    "underlying()": "6f307dc3",
    "validators(uint256)": "35aa2e44",
    "vault()": "fbfa77cf"
  },
  "id": 25
}