{
  "abi": [
    {
      "inputs": [
        {
          "internalType": "address",
          "name": "_creator_address",
          "type": "address"
        },
        {
          "internalType": "address",
          "name": "_controllerAddress",
          "type": "address"
        },
        {
          "internalType": "address",
          "name": "_vrfCoordinator",
          "type": "address"
        },
        {
          "internalType": "bytes32",
          "name": "_keyHash",
          "type": "bytes32"
        },
        {
          "internalType": "uint64",
          "name": "_subscriptionId",
          "type": "uint64"
        }
      ],
      "stateMutability": "nonpayable",
      "type": "constructor"
    },
    {
      "anonymous": false,
      "inputs": [
        {
          "indexed": true,
          "internalType": "uint256",
          "name": "marketId",
          "type": "uint256"
        },
        {
          "indexed": true,
          "internalType": "address",
          "name": "trader",
          "type": "address"
        },
        {
          "indexed": false,
          "internalType": "uint256",
          "name": "amountIn",
          "type": "uint256"
        },
        {
          "indexed": false,
          "internalType": "uint256",
          "name": "amountOut",
          "type": "uint256"
        }
      ],
      "name": "BondBuy",
      "type": "event"
    },
    {
      "anonymous": false,
      "inputs": [
        {
          "indexed": true,
          "internalType": "uint256",
          "name": "marketId",
          "type": "uint256"
        },
        {
          "indexed": false,
          "internalType": "bool",
          "name": "atLoss",
          "type": "bool"
        },
        {
          "indexed": false,
          "internalType": "bool",
          "name": "resolve",
          "type": "bool"
        },
        {
          "indexed": false,
          "internalType": "uint256",
          "name": "rp",
          "type": "uint256"
        }
      ],
      "name": "DeactivatedMarket",
      "type": "event"
    },
    {
      "anonymous": false,
      "inputs": [
        {
          "indexed": true,
          "internalType": "uint256",
          "name": "marketId",
          "type": "uint256"
        }
      ],
      "name": "MarketApproved",
      "type": "event"
    },
    {
      "anonymous": false,
      "inputs": [
        {
          "indexed": false,
          "internalType": "uint256",
          "name": "marketId",
          "type": "uint256"
        },
        {
          "indexed": false,
          "internalType": "uint256",
          "name": "totalCollateral",
          "type": "uint256"
        }
      ],
      "name": "MarketCollateralUpdate",
      "type": "event"
    },
    {
      "anonymous": false,
      "inputs": [
        {
          "indexed": true,
          "internalType": "uint256",
          "name": "marketId",
          "type": "uint256"
        }
      ],
      "name": "MarketDenied",
      "type": "event"
    },
    {
      "anonymous": false,
      "inputs": [
        {
          "indexed": true,
          "internalType": "uint256",
          "name": "marketId",
          "type": "uint256"
        },
        {
          "components": [
            {
              "internalType": "uint256",
              "name": "N",
              "type": "uint256"
            },
            {
              "internalType": "uint256",
              "name": "sigma",
              "type": "uint256"
            },
            {
              "internalType": "uint256",
              "name": "alpha",
              "type": "uint256"
            },
            {
              "internalType": "uint256",
              "name": "omega",
              "type": "uint256"
            },
            {
              "internalType": "uint256",
              "name": "delta",
              "type": "uint256"
            },
            {
              "internalType": "uint256",
              "name": "r",
              "type": "uint256"
            },
            {
              "internalType": "uint256",
              "name": "s",
              "type": "uint256"
            },
            {
              "internalType": "uint256",
              "name": "steak",
              "type": "uint256"
            }
          ],
          "indexed": false,
          "internalType": "struct MarketManager.MarketParameters",
          "name": "params",
          "type": "tuple"
        }
      ],
      "name": "MarketParametersSet",
      "type": "event"
    },
    {
      "anonymous": false,
      "inputs": [
        {
          "indexed": true,
          "internalType": "uint256",
          "name": "marketId",
          "type": "uint256"
        },
        {
          "components": [
            {
              "internalType": "bool",
              "name": "duringAssessment",
              "type": "bool"
            },
            {
              "internalType": "bool",
              "name": "onlyReputable",
              "type": "bool"
            },
            {
              "internalType": "bool",
              "name": "resolved",
              "type": "bool"
            },
            {
              "internalType": "bool",
              "name": "alive",
              "type": "bool"
            },
            {
              "internalType": "bool",
              "name": "atLoss",
              "type": "bool"
            },
            {
              "internalType": "uint256",
              "name": "base_budget",
              "type": "uint256"
            }
          ],
          "indexed": false,
          "internalType": "struct MarketManager.MarketPhaseData",
          "name": "data",
          "type": "tuple"
        }
      ],
      "name": "MarketPhaseSet",
      "type": "event"
    },
    {
      "anonymous": false,
      "inputs": [
        {
          "indexed": true,
          "internalType": "uint256",
          "name": "marketId",
          "type": "uint256"
        },
        {
          "indexed": false,
          "internalType": "bool",
          "name": "onlyReputable",
          "type": "bool"
        }
      ],
      "name": "MarketReputationSet",
      "type": "event"
    },
    {
      "anonymous": false,
      "inputs": [
        {
          "indexed": false,
          "internalType": "uint256",
          "name": "marketId",
          "type": "uint256"
        },
        {
          "indexed": false,
          "internalType": "address",
          "name": "trader",
          "type": "address"
        },
        {
          "indexed": false,
          "internalType": "bool",
          "name": "isLong",
          "type": "bool"
        }
      ],
      "name": "RedeemDenied",
      "type": "event"
    },
    {
      "anonymous": false,
      "inputs": [
        {
          "indexed": false,
          "internalType": "uint256",
          "name": "marketId",
          "type": "uint256"
        },
        {
          "indexed": false,
          "internalType": "address",
          "name": "manager",
          "type": "address"
        },
        {
          "indexed": false,
          "internalType": "uint256",
          "name": "totalCollateral",
          "type": "uint256"
        },
        {
          "indexed": false,
          "internalType": "bool",
          "name": "isLong",
          "type": "bool"
        }
      ],
      "name": "TraderCollateralUpdate",
      "type": "event"
    },
    {
      "inputs": [
        {
          "internalType": "uint256",
          "name": "marketId",
          "type": "uint256"
        }
      ],
      "name": "approveMarket",
      "outputs": [],
      "stateMutability": "nonpayable",
      "type": "function"
    },
    {
      "inputs": [
        {
          "internalType": "uint256",
          "name": "_marketId",
          "type": "uint256"
        },
        {
          "internalType": "int256",
          "name": "_amountIn",
          "type": "int256"
        },
        {
          "internalType": "uint256",
          "name": "_priceLimit",
          "type": "uint256"
        },
        {
          "internalType": "bytes",
          "name": "_tradeRequestData",
          "type": "bytes"
        }
      ],
      "name": "buyBond",
      "outputs": [
        {
          "internalType": "uint256",
          "name": "amountIn",
          "type": "uint256"
        },
        {
          "internalType": "uint256",
          "name": "amountOut",
          "type": "uint256"
        }
      ],
      "stateMutability": "nonpayable",
      "type": "function"
    },
    {
      "inputs": [
        {
          "internalType": "uint256",
          "name": "_marketId",
          "type": "uint256"
        },
        {
          "internalType": "uint256",
          "name": "_amountIn",
          "type": "uint256"
        },
        {
          "internalType": "uint256",
          "name": "_priceLimit",
          "type": "uint256"
        },
        {
          "internalType": "uint256",
          "name": "_leverage",
          "type": "uint256"
        }
      ],
      "name": "buyBondLevered",
      "outputs": [
        {
          "internalType": "uint256",
          "name": "amountIn",
          "type": "uint256"
        },
        {
          "internalType": "uint256",
          "name": "amountOut",
          "type": "uint256"
        }
      ],
      "stateMutability": "nonpayable",
      "type": "function"
    },
    {
      "inputs": [
        {
          "internalType": "uint256",
          "name": "marketId",
          "type": "uint256"
        },
        {
          "internalType": "uint16",
          "name": "point",
          "type": "uint16"
        },
        {
          "internalType": "uint256",
          "name": "funnel",
          "type": "uint256"
        }
      ],
      "name": "claimFunnel",
      "outputs": [
        {
          "internalType": "uint256",
          "name": "claimedAmount",
          "type": "uint256"
        }
      ],
      "stateMutability": "nonpayable",
      "type": "function"
    },
    {
      "inputs": [
        {
          "internalType": "uint256",
          "name": "_marketId",
          "type": "uint256"
        },
        {
          "internalType": "uint256",
          "name": "_amountIn",
          "type": "uint256"
        },
        {
          "internalType": "uint256",
          "name": "_priceLimit",
          "type": "uint256"
        },
        {
          "internalType": "bytes",
          "name": "_tradeRequestData",
          "type": "bytes"
        }
      ],
      "name": "coverBondShort",
      "outputs": [
        {
          "internalType": "uint256",
          "name": "amountIn",
          "type": "uint256"
        },
        {
          "internalType": "uint256",
          "name": "amountOut",
          "type": "uint256"
        }
      ],
      "stateMutability": "nonpayable",
      "type": "function"
    },
    {
      "inputs": [
        {
          "internalType": "uint256",
          "name": "marketId",
          "type": "uint256"
        },
        {
          "internalType": "bool",
          "name": "atLoss",
          "type": "bool"
        },
        {
          "internalType": "bool",
          "name": "resolve",
          "type": "bool"
        },
        {
          "internalType": "uint256",
          "name": "rp",
          "type": "uint256"
        }
      ],
      "name": "deactivateMarket",
      "outputs": [],
      "stateMutability": "nonpayable",
      "type": "function"
    },
    {
      "inputs": [
        {
          "internalType": "uint256",
          "name": "marketId",
          "type": "uint256"
        }
      ],
      "name": "denyMarket",
      "outputs": [],
      "stateMutability": "nonpayable",
      "type": "function"
    },
    {
      "inputs": [
        {
          "internalType": "uint256",
          "name": "marketId",
          "type": "uint256"
        }
      ],
      "name": "getCurrentMarketPhase",
      "outputs": [
        {
          "internalType": "uint256",
          "name": "",
          "type": "uint256"
        }
      ],
      "stateMutability": "view",
      "type": "function"
    },
    {
      "inputs": [
        {
          "internalType": "uint256",
          "name": "_id",
          "type": "uint256"
        }
      ],
      "name": "getMarket",
      "outputs": [
        {
          "components": [
            {
              "internalType": "contract SyntheticZCBPool",
              "name": "bondPool",
              "type": "address"
            },
            {
              "internalType": "contract ERC20",
              "name": "longZCB",
              "type": "address"
            },
            {
              "internalType": "contract ERC20",
              "name": "shortZCB",
              "type": "address"
            },
            {
              "internalType": "string",
              "name": "description",
              "type": "string"
            },
            {
              "internalType": "uint256",
              "name": "creationTimestamp",
              "type": "uint256"
            },
            {
              "internalType": "uint256",
              "name": "resolutionTimestamp",
              "type": "uint256"
            },
            {
              "internalType": "bool",
              "name": "isPool",
              "type": "bool"
            }
          ],
          "internalType": "struct MarketManager.CoreMarketData",
          "name": "",
          "type": "tuple"
        }
      ],
      "stateMutability": "view",
      "type": "function"
    },
    {
      "inputs": [
        {
          "internalType": "address",
          "name": "manager",
          "type": "address"
        }
      ],
      "name": "getMaxLeverage",
      "outputs": [
        {
          "internalType": "uint256",
          "name": "",
          "type": "uint256"
        }
      ],
      "stateMutability": "view",
      "type": "function"
    },
    {
      "inputs": [
        {
          "internalType": "uint256",
          "name": "marketId",
          "type": "uint256"
        }
      ],
      "name": "getParameters",
      "outputs": [
        {
          "components": [
            {
              "internalType": "uint256",
              "name": "N",
              "type": "uint256"
            },
            {
              "internalType": "uint256",
              "name": "sigma",
              "type": "uint256"
            },
            {
              "internalType": "uint256",
              "name": "alpha",
              "type": "uint256"
            },
            {
              "internalType": "uint256",
              "name": "omega",
              "type": "uint256"
            },
            {
              "internalType": "uint256",
              "name": "delta",
              "type": "uint256"
            },
            {
              "internalType": "uint256",
              "name": "r",
              "type": "uint256"
            },
            {
              "internalType": "uint256",
              "name": "s",
              "type": "uint256"
            },
            {
              "internalType": "uint256",
              "name": "steak",
              "type": "uint256"
            }
          ],
          "internalType": "struct MarketManager.MarketParameters",
          "name": "",
          "type": "tuple"
        }
      ],
      "stateMutability": "view",
      "type": "function"
    },
    {
      "inputs": [
        {
          "internalType": "uint256",
          "name": "marketId",
          "type": "uint256"
        }
      ],
      "name": "getPhaseData",
      "outputs": [
        {
          "components": [
            {
              "internalType": "bool",
              "name": "duringAssessment",
              "type": "bool"
            },
            {
              "internalType": "bool",
              "name": "onlyReputable",
              "type": "bool"
            },
            {
              "internalType": "bool",
              "name": "resolved",
              "type": "bool"
            },
            {
              "internalType": "bool",
              "name": "alive",
              "type": "bool"
            },
            {
              "internalType": "bool",
              "name": "atLoss",
              "type": "bool"
            },
            {
              "internalType": "uint256",
              "name": "base_budget",
              "type": "uint256"
            }
          ],
          "internalType": "struct MarketManager.MarketPhaseData",
          "name": "",
          "type": "tuple"
        }
      ],
      "stateMutability": "view",
      "type": "function"
    },
    {
      "inputs": [
        {
          "internalType": "uint256",
          "name": "marketId",
          "type": "uint256"
        }
      ],
      "name": "getPool",
      "outputs": [
        {
          "internalType": "contract SyntheticZCBPool",
          "name": "",
          "type": "address"
        }
      ],
      "stateMutability": "view",
      "type": "function"
    },
    {
      "inputs": [
        {
          "internalType": "uint256",
          "name": "marketId",
          "type": "uint256"
        }
      ],
      "name": "getShortZCB",
      "outputs": [
        {
          "internalType": "contract ERC20",
          "name": "",
          "type": "address"
        }
      ],
      "stateMutability": "view",
      "type": "function"
    },
    {
      "inputs": [
        {
          "internalType": "uint256",
          "name": "marketId",
          "type": "uint256"
        },
        {
          "internalType": "address",
          "name": "trader",
          "type": "address"
        }
      ],
      "name": "getTraderBudget",
      "outputs": [
        {
          "internalType": "uint256",
          "name": "",
          "type": "uint256"
        }
      ],
      "stateMutability": "view",
      "type": "function"
    },
    {
      "inputs": [
        {
          "internalType": "uint256",
          "name": "marketId",
          "type": "uint256"
        }
      ],
      "name": "getZCB",
      "outputs": [
        {
          "internalType": "contract ERC20",
          "name": "",
          "type": "address"
        }
      ],
      "stateMutability": "view",
      "type": "function"
    },
    {
      "inputs": [
        {
          "internalType": "uint256",
          "name": "marketId",
          "type": "uint256"
        }
      ],
      "name": "isMarketApproved",
      "outputs": [
        {
          "internalType": "bool",
          "name": "",
          "type": "bool"
        }
      ],
      "stateMutability": "view",
      "type": "function"
    },
    {
      "inputs": [
        {
          "internalType": "uint256",
          "name": "_marketId",
          "type": "uint256"
        },
        {
          "internalType": "uint256",
          "name": "_amountIn",
          "type": "uint256"
        }
      ],
      "name": "issuePoolBond",
      "outputs": [
        {
          "internalType": "uint256",
          "name": "issueQTY",
          "type": "uint256"
        }
      ],
      "stateMutability": "nonpayable",
      "type": "function"
    },
    {
      "inputs": [
        {
          "internalType": "uint256",
          "name": "",
          "type": "uint256"
        },
        {
          "internalType": "address",
          "name": "",
          "type": "address"
        }
      ],
      "name": "leveragePosition",
      "outputs": [
        {
          "internalType": "uint128",
          "name": "debt",
          "type": "uint128"
        },
        {
          "internalType": "uint128",
          "name": "amount",
          "type": "uint128"
        }
      ],
      "stateMutability": "view",
      "type": "function"
    },
    {
      "inputs": [
        {
          "internalType": "uint256",
          "name": "",
          "type": "uint256"
        }
      ],
      "name": "loggedCollaterals",
      "outputs": [
        {
          "internalType": "uint256",
          "name": "",
          "type": "uint256"
        }
      ],
      "stateMutability": "view",
      "type": "function"
    },
    {
      "inputs": [
        {
          "internalType": "uint256",
          "name": "",
          "type": "uint256"
        },
        {
          "internalType": "address",
          "name": "",
          "type": "address"
        }
      ],
      "name": "longTrades",
      "outputs": [
        {
          "internalType": "uint256",
          "name": "",
          "type": "uint256"
        }
      ],
      "stateMutability": "view",
      "type": "function"
    },
    {
      "inputs": [],
      "name": "makeEmptyMarketData",
      "outputs": [
        {
          "components": [
            {
              "internalType": "contract SyntheticZCBPool",
              "name": "bondPool",
              "type": "address"
            },
            {
              "internalType": "contract ERC20",
              "name": "longZCB",
              "type": "address"
            },
            {
              "internalType": "contract ERC20",
              "name": "shortZCB",
              "type": "address"
            },
            {
              "internalType": "string",
              "name": "description",
              "type": "string"
            },
            {
              "internalType": "uint256",
              "name": "creationTimestamp",
              "type": "uint256"
            },
            {
              "internalType": "uint256",
              "name": "resolutionTimestamp",
              "type": "uint256"
            },
            {
              "internalType": "bool",
              "name": "isPool",
              "type": "bool"
            }
          ],
          "internalType": "struct MarketManager.CoreMarketData",
          "name": "",
          "type": "tuple"
        }
      ],
      "stateMutability": "pure",
      "type": "function"
    },
    {
      "inputs": [],
      "name": "marketCount",
      "outputs": [
        {
          "internalType": "uint256",
          "name": "",
          "type": "uint256"
        }
      ],
      "stateMutability": "view",
      "type": "function"
    },
    {
      "inputs": [
        {
          "internalType": "uint256",
          "name": "",
          "type": "uint256"
        }
      ],
      "name": "markets",
      "outputs": [
        {
          "internalType": "contract SyntheticZCBPool",
          "name": "bondPool",
          "type": "address"
        },
        {
          "internalType": "contract ERC20",
          "name": "longZCB",
          "type": "address"
        },
        {
          "internalType": "contract ERC20",
          "name": "shortZCB",
          "type": "address"
        },
        {
          "internalType": "string",
          "name": "description",
          "type": "string"
        },
        {
          "internalType": "uint256",
          "name": "creationTimestamp",
          "type": "uint256"
        },
        {
          "internalType": "uint256",
          "name": "resolutionTimestamp",
          "type": "uint256"
        },
        {
          "internalType": "bool",
          "name": "isPool",
          "type": "bool"
        }
      ],
      "stateMutability": "view",
      "type": "function"
    },
    {
      "inputs": [
        {
          "internalType": "uint256",
          "name": "marketId",
          "type": "uint256"
        },
        {
          "internalType": "contract SyntheticZCBPool",
          "name": "bondPool",
          "type": "address"
        },
        {
          "internalType": "address",
          "name": "_longZCB",
          "type": "address"
        },
        {
          "internalType": "address",
          "name": "_shortZCB",
          "type": "address"
        },
        {
          "internalType": "string",
          "name": "_description",
          "type": "string"
        },
        {
          "internalType": "bool",
          "name": "isPool",
          "type": "bool"
        }
      ],
      "name": "newMarket",
      "outputs": [],
      "stateMutability": "nonpayable",
      "type": "function"
    },
    {
      "inputs": [],
      "name": "owner",
      "outputs": [
        {
          "internalType": "address",
          "name": "",
          "type": "address"
        }
      ],
      "stateMutability": "view",
      "type": "function"
    },
    {
      "inputs": [
        {
          "internalType": "uint256",
          "name": "",
          "type": "uint256"
        }
      ],
      "name": "parameters",
      "outputs": [
        {
          "internalType": "uint256",
          "name": "N",
          "type": "uint256"
        },
        {
          "internalType": "uint256",
          "name": "sigma",
          "type": "uint256"
        },
        {
          "internalType": "uint256",
          "name": "alpha",
          "type": "uint256"
        },
        {
          "internalType": "uint256",
          "name": "omega",
          "type": "uint256"
        },
        {
          "internalType": "uint256",
          "name": "delta",
          "type": "uint256"
        },
        {
          "internalType": "uint256",
          "name": "r",
          "type": "uint256"
        },
        {
          "internalType": "uint256",
          "name": "s",
          "type": "uint256"
        },
        {
          "internalType": "uint256",
          "name": "steak",
          "type": "uint256"
        }
      ],
      "stateMutability": "view",
      "type": "function"
    },
    {
      "inputs": [],
      "name": "queuedRepThreshold",
      "outputs": [
        {
          "internalType": "uint8",
          "name": "",
          "type": "uint8"
        }
      ],
      "stateMutability": "view",
      "type": "function"
    },
    {
      "inputs": [
        {
          "internalType": "address",
          "name": "",
          "type": "address"
        }
      ],
      "name": "queuedRepUpdates",
      "outputs": [
        {
          "internalType": "uint8",
          "name": "",
          "type": "uint8"
        }
      ],
      "stateMutability": "view",
      "type": "function"
    },
    {
      "inputs": [
        {
          "internalType": "uint256",
          "name": "marketId",
          "type": "uint256"
        }
      ],
      "name": "redeem",
      "outputs": [
        {
          "internalType": "uint256",
          "name": "collateral_redeem_amount",
          "type": "uint256"
        }
      ],
      "stateMutability": "nonpayable",
      "type": "function"
    },
    {
      "inputs": [
        {
          "internalType": "uint256",
          "name": "marketId",
          "type": "uint256"
        }
      ],
      "name": "redeemDeniedLeveredBond",
      "outputs": [
        {
          "internalType": "uint256",
          "name": "collateral_amount",
          "type": "uint256"
        }
      ],
      "stateMutability": "nonpayable",
      "type": "function"
    },
    {
      "inputs": [
        {
          "internalType": "uint256",
          "name": "marketId",
          "type": "uint256"
        },
        {
          "internalType": "bool",
          "name": "isLong",
          "type": "bool"
        }
      ],
      "name": "redeemDeniedMarket",
      "outputs": [],
      "stateMutability": "nonpayable",
      "type": "function"
    },
    {
      "inputs": [
        {
          "internalType": "uint256",
          "name": "marketId",
          "type": "uint256"
        }
      ],
      "name": "redeemLeveredBond",
      "outputs": [],
      "stateMutability": "nonpayable",
      "type": "function"
    },
    {
      "inputs": [
        {
          "internalType": "uint256",
          "name": "marketId",
          "type": "uint256"
        },
        {
          "internalType": "uint256",
          "name": "redeemAmount",
          "type": "uint256"
        }
      ],
      "name": "redeemPoolLongZCB",
      "outputs": [
        {
          "internalType": "uint256",
          "name": "collateral_redeem_amount",
          "type": "uint256"
        },
        {
          "internalType": "uint256",
          "name": "seniorAmount",
          "type": "uint256"
        }
      ],
      "stateMutability": "nonpayable",
      "type": "function"
    },
    {
      "inputs": [
        {
          "internalType": "uint256",
          "name": "marketId",
          "type": "uint256"
        }
      ],
      "name": "redeemShortZCB",
      "outputs": [
        {
          "internalType": "uint256",
          "name": "collateral_redeem_amount",
          "type": "uint256"
        }
      ],
      "stateMutability": "nonpayable",
      "type": "function"
    },
    {
      "inputs": [
        {
          "internalType": "uint256",
          "name": "",
          "type": "uint256"
        }
      ],
      "name": "redemption_prices",
      "outputs": [
        {
          "internalType": "uint256",
          "name": "",
          "type": "uint256"
        }
      ],
      "stateMutability": "view",
      "type": "function"
    },
    {
      "inputs": [
        {
          "internalType": "uint256",
          "name": "",
          "type": "uint256"
        }
      ],
      "name": "restriction_data",
      "outputs": [
        {
          "internalType": "bool",
          "name": "duringAssessment",
          "type": "bool"
        },
        {
          "internalType": "bool",
          "name": "onlyReputable",
          "type": "bool"
        },
        {
          "internalType": "bool",
          "name": "resolved",
          "type": "bool"
        },
        {
          "internalType": "bool",
          "name": "alive",
          "type": "bool"
        },
        {
          "internalType": "bool",
          "name": "atLoss",
          "type": "bool"
        },
        {
          "internalType": "uint256",
          "name": "base_budget",
          "type": "uint256"
        }
      ],
      "stateMutability": "view",
      "type": "function"
    },
    {
      "inputs": [
        {
          "internalType": "uint256",
          "name": "_marketId",
          "type": "uint256"
        },
        {
          "internalType": "uint256",
          "name": "_amountIn",
          "type": "uint256"
        },
        {
          "internalType": "uint256",
          "name": "_priceLimit",
          "type": "uint256"
        },
        {
          "internalType": "bytes",
          "name": "_tradeRequestData",
          "type": "bytes"
        }
      ],
      "name": "sellBond",
      "outputs": [
        {
          "internalType": "uint256",
          "name": "amountIn",
          "type": "uint256"
        },
        {
          "internalType": "uint256",
          "name": "amountOut",
          "type": "uint256"
        }
      ],
      "stateMutability": "nonpayable",
      "type": "function"
    },
    {
      "inputs": [
        {
          "components": [
            {
              "internalType": "uint256",
              "name": "N",
              "type": "uint256"
            },
            {
              "internalType": "uint256",
              "name": "sigma",
              "type": "uint256"
            },
            {
              "internalType": "uint256",
              "name": "alpha",
              "type": "uint256"
            },
            {
              "internalType": "uint256",
              "name": "omega",
              "type": "uint256"
            },
            {
              "internalType": "uint256",
              "name": "delta",
              "type": "uint256"
            },
            {
              "internalType": "uint256",
              "name": "r",
              "type": "uint256"
            },
            {
              "internalType": "uint256",
              "name": "s",
              "type": "uint256"
            },
            {
              "internalType": "uint256",
              "name": "steak",
              "type": "uint256"
            }
          ],
          "internalType": "struct MarketManager.MarketParameters",
          "name": "param",
          "type": "tuple"
        },
        {
          "internalType": "uint256",
          "name": "utilizationRate",
          "type": "uint256"
        },
        {
          "internalType": "uint256",
          "name": "marketId",
          "type": "uint256"
        }
      ],
      "name": "setParameters",
      "outputs": [],
      "stateMutability": "nonpayable",
      "type": "function"
    },
    {
      "inputs": [
        {
          "internalType": "address",
          "name": "_reputationManager",
          "type": "address"
        }
      ],
      "name": "setReputationManager",
      "outputs": [],
      "stateMutability": "nonpayable",
      "type": "function"
    },
    {
      "inputs": [
        {
          "internalType": "uint256",
          "name": "_marketId",
          "type": "uint256"
        },
        {
          "internalType": "uint256",
          "name": "_amountIn",
          "type": "uint256"
        },
        {
          "internalType": "uint256",
          "name": "_priceLimit",
          "type": "uint256"
        },
        {
          "internalType": "bytes",
          "name": "_tradeRequestData",
          "type": "bytes"
        }
      ],
      "name": "shortBond",
      "outputs": [
        {
          "internalType": "uint256",
          "name": "amountIn",
          "type": "uint256"
        },
        {
          "internalType": "uint256",
          "name": "amountOut",
          "type": "uint256"
        }
      ],
      "stateMutability": "nonpayable",
      "type": "function"
    },
    {
      "inputs": [
        {
          "internalType": "uint256",
          "name": "",
          "type": "uint256"
        },
        {
          "internalType": "address",
          "name": "",
          "type": "address"
        }
      ],
      "name": "shortTrades",
      "outputs": [
        {
          "internalType": "uint256",
          "name": "",
          "type": "uint256"
        }
      ],
      "stateMutability": "view",
      "type": "function"
    },
    {
      "inputs": [
        {
          "internalType": "uint256",
          "name": "amount",
          "type": "uint256"
        },
        {
          "internalType": "bytes",
          "name": "data",
          "type": "bytes"
        }
      ],
      "name": "tradeCallBack",
      "outputs": [],
      "stateMutability": "nonpayable",
      "type": "function"
    },
    {
      "inputs": [
        {
          "internalType": "uint256",
          "name": "marketId",
          "type": "uint256"
        },
        {
          "internalType": "uint256",
          "name": "collateral_required",
          "type": "uint256"
        },
        {
          "internalType": "uint256",
          "name": "zcb_for_sale",
          "type": "uint256"
        },
        {
          "internalType": "address",
          "name": "validator",
          "type": "address"
        }
      ],
      "name": "validatorApprove",
      "outputs": [],
      "stateMutability": "nonpayable",
      "type": "function"
    }
  ],
  "bytecode": {
    "object": "0x60806040523480156200001157600080fd5b506040516200636e3803806200636e8339810160408190526200003491620001e5565b60008054610100600160a81b0319166101006001600160a01b038716021790556002620000fc6040805160e0810182526000808252602082018190529181018290526060808201526080810182905260a0810182905260c08101919091526040518060e0016040528060006001600160a01b0316815260200160006001600160a01b0316815260200160006001600160a01b03168152602001604051806020016040528060008152508152602001600081526020016000815260200160001515815250905090565b8154600180820184556000938452602093849020835160079093020180546001600160a01b03199081166001600160a01b0394851617825594840151918101805486169284169290921790915560408301516002820180549095169216919091179092556060810151909190600382019062000179908262000301565b506080820151600482015560a0820151600582015560c0909101516006909101805491151560ff199092169190911790555050600380546001600160a01b0319163317905550620003cd915050565b80516001600160a01b0381168114620001e057600080fd5b919050565b600080600080600060a08688031215620001fe57600080fd5b6200020986620001c8565b94506200021960208701620001c8565b93506200022960408701620001c8565b6060870151608088015191945092506001600160401b03811681146200024e57600080fd5b809150509295509295909350565b634e487b7160e01b600052604160045260246000fd5b600181811c908216806200028757607f821691505b602082108103620002a857634e487b7160e01b600052602260045260246000fd5b50919050565b601f821115620002fc57600081815260208120601f850160051c81016020861015620002d75750805b601f850160051c820191505b81811015620002f857828155600101620002e3565b5050505b505050565b81516001600160401b038111156200031d576200031d6200025c565b62000335816200032e845462000272565b84620002ae565b602080601f8311600181146200036d5760008415620003545750858301515b600019600386901b1c1916600185901b178555620002f8565b600085815260208120601f198616915b828110156200039e578886015182559484019460019091019084016200037d565b5085821015620003bd5787850151600019600388901b60f8161c191681555b5050505050600190811b01905550565b615f9180620003dd6000396000f3fe608060405234801561001057600080fd5b50600436106102745760003560e01c80637c9bc5ce11610151578063b900a0ed116100c3578063d572595311610087578063d572595314610859578063da520d3e1461086c578063db006a751461087f578063eb44fdd314610892578063ec979082146108a5578063f7cf78d7146108ad57600080fd5b8063b900a0ed14610791578063bdce3867146107b4578063c6ceb96b146107c7578063cabe2ae1146107e7578063d36287f4146107fa57600080fd5b80638da5cb5b116101155780638da5cb5b146106fc578063920f4e551461070f57806397dcec16146107225780639ec3341614610735578063a72be9a114610758578063b1283e771461076b57600080fd5b80637c9bc5ce14610600578063808d856b14610620578063839ee8f614610633578063897ca174146106485780638a6cac3d1461067357600080fd5b80634e042a59116101ea578063661f1cf5116101ae578063661f1cf514610581578063669623a6146105a157806371bd6a09146105b4578063727b887f146105c757806373124349146105da578063765cd23a146105ed57600080fd5b80634e042a591461052257806351ba65221461053557806356a837f41461054857806361fa5af51461055b57806363f960d81461056e57600080fd5b80632a4a9dd11161023c5780632a4a9dd1146103325780633db969f4146103c357806341741c06146103d657806346b6a387146103f05780634cb44087146104035780634cba8cde1461041657600080fd5b806303cc40eb14610279578063068bcd8d146102a6578063153542cc146102d1578063203b2434146102e4578063214b3987146102f9575b600080fd5b61028c610287366004615269565b6108c0565b604080519283526020830191909152015b60405180910390f35b6102b96102b43660046152ca565b610aab565b6040516001600160a01b03909116815260200161029d565b6102b96102df3660046152ca565b610ae0565b6102f76102f2366004615309565b610b18565b005b6103246103073660046153a2565b600860209081526000928352604080842090915290825290205481565b60405190815260200161029d565b6103886103403660046152ca565b60066020528060005260406000206000915090508060000154908060010154908060020154908060030154908060040154908060050154908060060154908060070154905088565b604080519889526020890197909752958701949094526060860192909252608085015260a084015260c083015260e08201526101000161029d565b61028c6103d1366004615269565b610cc6565b6103de600381565b60405160ff909116815260200161029d565b61028c6103fe366004615269565b610dd8565b6102f76104113660046152ca565b611102565b6104cc6104243660046152ca565b6040805160c081018252600080825260208201819052918101829052606081018290526080810182905260a081019190915250600090815260056020908152604091829020825160c081018452815460ff8082161515835261010082048116151594830194909452620100008104841615159482019490945263010000008404831615156060820152640100000000909304909116151560808301526001015460a082015290565b60405161029d9190600060c08201905082511515825260208301511515602083015260408301511515604083015260608301511515606083015260808301511515608083015260a083015160a083015292915050565b6102f7610530366004615467565b6111e9565b61028c610543366004615269565b6113d4565b6102f76105563660046154fc565b611b2f565b6102f7610569366004615519565b611b9f565b6102f761057c366004615561565b611c8a565b61032461058f3660046152ca565b600a6020526000908152604090205481565b6102f76105af366004615586565b61229a565b61028c6105c23660046155c7565b61244d565b6103246105d53660046152ca565b61287e565b6103246105e83660046155c7565b612b7d565b6102f76105fb3660046152ca565b61311e565b61032461060e3660046152ca565b60046020526000908152604090205481565b61032461062e3660046154fc565b61355f565b61063b6135f7565b60405161029d9190615639565b6103246106563660046153a2565b600960209081526000928352604080842090915290825290205481565b6106c56106813660046152ca565b6005602052600090815260409020805460019091015460ff808316926101008104821692620100008204831692630100000083048116926401000000009004169086565b60408051961515875294151560208701529215159385019390935215156060840152901515608083015260a082015260c00161029d565b6003546102b9906001600160a01b031681565b6102b961071d3660046152ca565b613699565b6103246107303660046152ca565b6136d1565b6107486107433660046152ca565b6137cd565b604051901515815260200161029d565b6103246107663660046156ae565b613804565b61077e6107793660046152ca565b613826565b60405161029d97969594939291906156ed565b6103de61079f3660046154fc565b600b6020526000908152604090205460ff1681565b6103246107c23660046152ca565b613912565b6107da6107d53660046152ca565b613c37565b60405161029d9190615742565b6102f76107f53660046152ca565b613cec565b6108396108083660046153a2565b600c6020908152600092835260408084209091529082529020546001600160801b0380821691600160801b90041682565b604080516001600160801b0393841681529290911660208301520161029d565b6103246108673660046153a2565b613d7a565b6102f761087a36600461579b565b613e39565b61032461088d3660046152ca565b613f1e565b61063b6108a03660046152ca565b6143da565b600254610324565b61028c6108bb3660046157e7565b614540565b60008054819060ff16156108ef5760405162461bcd60e51b81526004016108e690615819565b60405180910390fd5b6000805460ff1916600117815560028054899081106109105761091061583e565b600091825260208083206007909202909101548a835260059091526040909120546001600160a01b03909116915060ff16156109f7576001600160a01b03811663556769ba60006109608a61586a565b604080513360208201528b91015b6040516020818303038152906040526040518563ffffffff1660e01b815260040161099c9493929190615886565b60408051808303816000875af11580156109ba573d6000803e3d6000fd5b505050506040513d601f19601f820116820180604052508101906109de91906158b7565b935091506109f28833848660016000614b0c565b610a94565b6001600160a01b03811663556769ba6000610a118a61586a565b604080513360208201528b91015b6040516020818303038152906040526040518563ffffffff1660e01b8152600401610a4d9493929190615886565b60408051808303816000875af1158015610a6b573d6000803e3d6000fd5b505050506040513d601f19601f82011682018060405250810190610a8f91906158b7565b935091505b506000805460ff1916905590969095509350505050565b600060028281548110610ac057610ac061583e565b60009182526020909120600790910201546001600160a01b031692915050565b600060028281548110610af557610af561583e565b60009182526020909120600160079092020101546001600160a01b031692915050565b60005461010090046001600160a01b0316331480610b4057506003546001600160a01b031633145b80610b4a57503330145b610b665760405162461bcd60e51b81526004016108e6906158db565b600042905060026040518060e00160405280896001600160a01b03168152602001886001600160a01b03168152602001876001600160a01b0316815260200186868080601f01602080910402602001604051908101604052809392919081815260200183838082843760009201829052509385525050506020808301869052604080840183905287151560609485015285546001818101885596845292829020855160079094020180546001600160a01b039485166001600160a01b0319918216178255928601519681018054978516978416979097179096558401516002860180549190931691161790558101519091906003820190610c679082615988565b506080820151600482015560a0820151600582015560c0909101516006909101805460ff19169115159190911790556000610cac670de0b6b3a76400006103e8615a48565b9050610cbb8960018084614e02565b505050505050505050565b60008054819060ff1615610cec5760405162461bcd60e51b81526004016108e690615819565b6000805460ff19166001179055610d04338789614e81565b610d3d5760405162461bcd60e51b815260206004820152600a60248201526914995cdd1c9a58dd195960b21b60448201526064016108e6565b600060028881548110610d5257610d5261583e565b600091825260208083206007909202909101548a835260059091526040909120546001600160a01b03909116915060ff1615610db057604080513360208201526001600160a01b0383169163244d59cb916000918b918b910161096e565b604080513360208201526001600160a01b0383169163244d59cb916000918b918b9101610a1f565b60008054819060ff1615610dfe5760405162461bcd60e51b81526004016108e690615819565b6000805460ff191660011781558781526005602052604090205462010000900460ff1615610e3e5760405162461bcd60e51b81526004016108e690615a5f565b610e49338789614e81565b610e825760405162461bcd60e51b815260206004820152600a60248201526914995cdd1c9a58dd195960b21b60448201526064016108e6565b600060028881548110610e9757610e9761583e565b600091825260208083206007909202909101548a835260059091526040909120546001600160a01b03909116915060ff1615610f775760408051336020808301919091528251808303909101815281830192839052632ab3b4dd60e11b9092526001600160a01b0383169163556769ba91610f1b916001918c918c91604401615886565b60408051808303816000875af1158015610f39573d6000803e3d6000fd5b505050506040513d601f19601f82011682018060405250810190610f5d91906158b7565b9093509150610f728833856000806001614b0c565b61100d565b60408051336020808301919091528251808303909101815281830192839052632ab3b4dd60e11b9092526001600160a01b0383169163556769ba91610fc5916001918c918c91604401615886565b60408051808303816000875af1158015610fe3573d6000803e3d6000fd5b505050506040513d601f19601f8201168201806040525081019061100791906158b7565b90935091505b600160009054906101000a90046001600160a01b03166001600160a01b0316639bf7927d338a846001600160a01b03166311e715d66040518163ffffffff1660e01b8152600401602060405180830381865afa158015611071573d6000803e3d6000fd5b505050506040513d601f19601f820116820180604052508101906110959190615a82565b6001886040518663ffffffff1660e01b81526004016110b8959493929190615a9b565b600060405180830381600087803b1580156110d257600080fd5b505af11580156110e6573d6000803e3d6000fd5b50506000805460ff191690555092989197509095505050505050565b60005461010090046001600160a01b031633148061112a57506003546001600160a01b031633145b8061113457503330145b6111505760405162461bcd60e51b81526004016108e6906158db565b60008181526005602052604090205460ff1661119c5760405162461bcd60e51b815260206004820152600b60248201526a08585cdcd95cdcdb595b9d60aa1b60448201526064016108e6565b600081815260056020526040808220805463ffff00001916620100001781559051909183917f38274fdcd6150638fa33375a76a55bc5b507aa04639aef21fcf7a1bf0b9c095d9190a25050565b60005461010090046001600160a01b031633148061121157506003546001600160a01b031633145b8061121b57503330145b6112375760405162461bcd60e51b81526004016108e6906158db565b600160009054906101000a90046001600160a01b03166001600160a01b03166357b613606040518163ffffffff1660e01b8152600401600060405180830381865afa15801561128a573d6000803e3d6000fd5b505050506040513d6000823e601f3d908101601f191682016040526112b29190810190615ad6565b51835111156113035760405162461bcd60e51b815260206004820152601860248201527f6e6f7420656e6f7567682072617465642074726164657273000000000000000060448201526064016108e6565b60008181526006602081815260409283902086518155908601516001820155918501516002830155606085015160038301556080850151600483015560a0850151600583015560c08501519082015560e084015160079091015561137d61137283670de0b6b3a7640000615b88565b60c085015190614ec0565b6006600083815260200190815260200160002060060181905550807fc6be93ca0e8d44d5b418bde056f5e013750978c7573c74a4db7dd18754660c14846040516113c79190615742565b60405180910390a2505050565b60008054819060ff16156113fa5760405162461bcd60e51b81526004016108e690615819565b6000805460ff191660011781558781526005602052604090205462010000900460ff161561143a5760405162461bcd60e51b81526004016108e690615a5f565b611445338789614edc565b60006002888154811061145a5761145a61583e565b60009182526020918290206040805160e081018252600790930290910180546001600160a01b03908116845260018201548116948401949094526002810154909316908201526003820180549192916060840191906114b890615900565b80601f01602080910402602001604051908101604052809291908181526020018280546114e490615900565b80156115315780601f1061150657610100808354040283529160200191611531565b820191906000526020600020905b81548152906001019060200180831161151457829003601f168201915b5050509183525050600482015460208083019190915260058084015460408085019190915260069094015460ff9081161515606090940193909352845160008e8152919092529290922054929350909116156119bf576040805133602080830191909152825180830390910181528183019283905263244d59cb60e01b9092526001600160a01b0383169163244d59cb916115d5916001918d918d91604401615886565b60408051808303816000875af11580156115f3573d6000803e3d6000fd5b505050506040513d601f19601f8201168201806040525081019061161791906158b7565b8094508195505050806001600160a01b031663b09ad8a06040518163ffffffff1660e01b8152600401602060405180830381865afa15801561165d573d6000803e3d6000fd5b505050506040513d601f19601f820116820180604052508101906116819190615a82565b158015906117505750806001600160a01b03166311e715d66040518163ffffffff1660e01b8152600401602060405180830381865afa1580156116c8573d6000803e3d6000fd5b505050506040513d601f19601f820116820180604052508101906116ec9190615a82565b816001600160a01b031663b09ad8a06040518163ffffffff1660e01b8152600401602060405180830381865afa15801561172a573d6000803e3d6000fd5b505050506040513d601f19601f8201168201806040525081019061174e9190615a82565b105b156117855760405162461bcd60e51b8152602060048201526005602482015264189bdd5b9960da1b60448201526064016108e6565b6117958933866000600180614b0c565b6001546001600160a01b0316632e1a65d3338b86886117b48385613d7a565b60c08901516040516001600160e01b031960e089901b1681526001600160a01b0390961660048701526024860194909452604485019290925260648401526084830152151560a482015260c401600060405180830381600087803b15801561181b57600080fd5b505af115801561182f573d6000803e3d6000fd5b50505060008a815260056020526040902054610100900460ff161590506119ba576000898152600a60205260408082205491549051632500ed8d60e21b8152600481018c90526119609161010090046001600160a01b031690639403b63490602401602060405180830381865afa1580156118ae573d6000803e3d6000fd5b505050506040513d601f19601f820116820180604052508101906118d29190615b9b565b6001600160a01b0316639ec4d40e8c6040518263ffffffff1660e01b81526004016118ff91815260200190565b600060405180830381865afa15801561191c573d6000803e3d6000fd5b505050506040513d6000823e601f3d908101601f191682016040526119449190810190615cba565b60c0015160008c81526006602052604090206003015490614ec0565b81106119b85760008a81526005602052604090819020805461ff001916815590518b917f638289bd0053d37020d3cfacc73bb398f0d6702821a30abdcaed824bb4a8ebb9916119af9190615de0565b60405180910390a25b505b611a55565b6040805133602080830191909152825180830390910181528183019283905263244d59cb60e01b9092526001600160a01b0383169163244d59cb91611a0d916001918d918d91604401615886565b60408051808303816000875af1158015611a2b573d6000803e3d6000fd5b505050506040513d601f19601f82011682018060405250810190611a4f91906158b7565b90945092505b6000881315611a9a57838814611a955760405162461bcd60e51b815260206004820152600560248201526420216c697160d81b60448201526064016108e6565b611ada565b82611aa48961586a565b14611ada5760405162461bcd60e51b81526004016108e690602080825260049082015263216c697160e01b604082015260600190565b604080518581526020810185905233918b917fd6ee91448c6836b63f1abdfff873fbd5c83e4b0e10260d5646be82e2148cd49b910160405180910390a350506000805460ff1916905590969095509350505050565b60005461010090046001600160a01b0316331480611b5757506003546001600160a01b031633145b80611b6157503330145b611b7d5760405162461bcd60e51b81526004016108e6906158db565b600180546001600160a01b0319166001600160a01b0392909216919091179055565b60005461010090046001600160a01b0316331480611bc757506003546001600160a01b031633145b80611bd157503330145b611bed5760405162461bcd60e51b81526004016108e6906158db565b6000848152600560209081526040808320805464ff00ff000019166201000087151590810264ff000000001916919091176401000000008915159081029190911763ff0000001916909255600484529382902085905581519081529182019290925290810182905284907fd06c6eb2c866c530dc5ab4b6479bdfd8db2d514363444eb65154e19c864563df9060600160405180910390a250505050565b60005460ff1615611cad5760405162461bcd60e51b81526004016108e690615819565b6000805460ff19166001178155828152600560205260409020546301000000900460ff1615611d1e5760405162461bcd60e51b815260206004820152601e60248201527f4d61726b6574205374696c6c20447572696e67204173736573736d656e74000060448201526064016108e6565b60008281526005602052604090205460ff16611d7c5760405162461bcd60e51b815260206004820152601860248201527f4d61726b657420686173206265656e20617070726f766564000000000000000060448201526064016108e6565b600060028381548110611d9157611d9161583e565b600091825260208220600790910201546001600160a01b031691508083611f105760028581548110611dc557611dc561583e565b60009182526020909120600790910201600201546040516370a0823160e01b81523360048201526001600160a01b03909116906370a0823190602401602060405180830381865afa158015611e1e573d6000803e3d6000fd5b505050506040513d601f19601f82011682018060405250810190611e429190615a82565b905060008581526009602090815260408083203380855290835281842080549085905582518a815293840191909152908201929092529092507f06c254f742aaf3565852bdb3bb0ac74a536ece577c01929d15a74bc398702d7c9060600160405180910390a160405163c93ac3ed60e01b81526001600160a01b0384169063c93ac3ed90611ed99033908590600090600401615e3b565b600060405180830381600087803b158015611ef357600080fd5b505af1158015611f07573d6000803e3d6000fd5b5050505061221f565b60028581548110611f2357611f2361583e565b60009182526020909120600790910201600101546040516370a0823160e01b81523360048201526001600160a01b03909116906370a0823190602401602060405180830381865afa158015611f7c573d6000803e3d6000fd5b505050506040513d601f19601f82011682018060405250810190611fa09190615a82565b90506000546040516323f2a73f60e01b8152600481018790523360248201526101009091046001600160a01b0316906323f2a73f90604401602060405180830381865afa158015611ff5573d6000803e3d6000fd5b505050506040513d601f19601f820116820180604052508101906120199190615e5e565b8015612097575060005460405163046b1ab560e31b8152600481018790523360248201526101009091046001600160a01b031690632358d5a890604401602060405180830381865afa158015612073573d6000803e3d6000fd5b505050506040513d601f19601f820116820180604052508101906120979190615e5e565b1561211c57600054604051634187150160e11b8152600481018790523360248201526101009091046001600160a01b03169063830e2a02906044016020604051808303816000875af11580156120f1573d6000803e3d6000fd5b505050506040513d601f19601f820116820180604052508101906121159190615a82565b915061217c565b60008581526008602090815260408083203380855290835281842080549490558151898152928301526001908201529092507f06c254f742aaf3565852bdb3bb0ac74a536ece577c01929d15a74bc398702d7c9060600160405180910390a15b60405163c93ac3ed60e01b81526001600160a01b0384169063c93ac3ed906121ad9033908590600190600401615e3b565b600060405180830381600087803b1580156121c757600080fd5b505af11580156121db573d6000803e3d6000fd5b5050336000908152600b602052604090205460ff1615915061221f905057336000908152600b60205260409020805460ff19811660ff918216600019019091161790555b600054604051631e1fa3a760e31b81526101009091046001600160a01b03169063f0fd1d389061225790859033908a90600401615e7b565b600060405180830381600087803b15801561227157600080fd5b505af1158015612285573d6000803e3d6000fd5b50506000805460ff1916905550505050505050565b60005461010090046001600160a01b03163314806122c257506003546001600160a01b031633145b806122cc57503330145b6122e85760405162461bcd60e51b81526004016108e6906158db565b6000848152600a602052604081208054859290612306908490615e9a565b909155506000905061231785610aab565b9050806001600160a01b03166390f817026040518163ffffffff1660e01b8152600401602060405180830381865afa158015612357573d6000803e3d6000fd5b505050506040513d601f19601f8201168201806040525081019061237b9190615b9b565b6001600160a01b03166323b872dd8383876040518463ffffffff1660e01b81526004016123aa93929190615ead565b6020604051808303816000875af11580156123c9573d6000803e3d6000fd5b505050506040513d601f19601f820116820180604052508101906123ed9190615e5e565b5060405163681504cd60e01b81526001600160a01b0383811660048301526024820185905282169063681504cd906044015b600060405180830381600087803b15801561243957600080fd5b505af1158015610cbb573d6000803e3d6000fd5b60008054819060ff16156124735760405162461bcd60e51b81526004016108e690615819565b60008054600160ff1990911617808255604051632500ed8d60e21b8152600481018790526101009091046001600160a01b031690639403b63490602401602060405180830381865afa1580156124cd573d6000803e3d6000fd5b505050506040513d601f19601f820116820180604052508101906124f19190615b9b565b90506000600286815481106125085761250861583e565b60009182526020918290206040805160e081018252600790930290910180546001600160a01b039081168452600182015481169484019490945260028101549093169082015260038201805491929160608401919061256690615900565b80601f016020809104026020016040519081016040528092919081815260200182805461259290615900565b80156125df5780601f106125b4576101008083540402835291602001916125df565b820191906000526020600020905b8154815290600101906020018083116125c257829003601f168201915b5050509183525050600482015460208201526005820154604082015260069091015460ff16151560609091015260c08101519091506126485760405162461bcd60e51b8152602060048201526005602482015264085c1bdbdb60da1b60448201526064016108e6565b6000806000846001600160a01b031663ca13e4508a6040518263ffffffff1660e01b815260040161267b91815260200190565b606060405180830381865afa158015612698573d6000803e3d6000fd5b505050506040513d601f19601f820116820180604052508101906126bc9190615ed1565b919450925090506126cd8289614ec0565b96506126e3836126dd8a84614ec0565b90614ec0565b6040516372661f3b60e11b8152600481018b905260248101899052336044820152606481018290529096506001600160a01b0386169063e4cc3e7690608401600060405180830381600087803b15801561273c57600080fd5b505af1158015612750573d6000803e3d6000fd5b5050600154604051639bf7927d60e01b81526001600160a01b039091169250639bf7927d915061278d9033908d9087906000908f90600401615a9b565b600060405180830381600087803b1580156127a757600080fd5b505af11580156127bb573d6000803e3d6000fd5b5050336000908152600b602052604090205460ff161591506127ff905057336000908152600b60205260409020805460ff19811660ff918216600019019091161790555b835160405163c93ac3ed60e01b81526001600160a01b039091169063c93ac3ed906128339033908c90600190600401615e3b565b600060405180830381600087803b15801561284d57600080fd5b505af1158015612861573d6000803e3d6000fd5b50506000805460ff19169055509699959850949650505050505050565b6000805460ff16156128a25760405162461bcd60e51b81526004016108e690615819565b6000805460ff19166001178155828152600560205260409020546301000000900460ff16156128fc5760405162461bcd60e51b815260206004820152600660248201526541637469766560d01b60448201526064016108e6565b60008281526005602052604090205462010000900460ff166129305760405162461bcd60e51b81526004016108e690615a5f565b600082815260076020908152604080832033845290915290205460ff161561296a5760405162461bcd60e51b81526004016108e690615eff565b60008281526007602090815260408083203384529091528120805460ff1916600117905560028054849081106129a2576129a261583e565b60009182526020822060079091020154600280546001600160a01b03909216935090859081106129d4576129d461583e565b60009182526020909120600790910201600201546040516370a0823160e01b81523360048201526001600160a01b03909116906370a0823190602401602060405180830381865afa158015612a2d573d6000803e3d6000fd5b505050506040513d601f19601f82011682018060405250810190612a519190615a82565b600085815260046020526040812054919250670de0b6b3a7640000821015612a8a57612a8582670de0b6b3a7640000615b88565b612a8d565b60005b9050612a998184614ec0565b60405163c93ac3ed60e01b81529095506001600160a01b0385169063c93ac3ed90612acd9033908790600090600401615e3b565b600060405180830381600087803b158015612ae757600080fd5b505af1158015612afb573d6000803e3d6000fd5b5050600054604051631e1fa3a760e31b81526101009091046001600160a01b0316925063f0fd1d389150612b3790889033908b90600401615e7b565b600060405180830381600087803b158015612b5157600080fd5b505af1158015612b65573d6000803e3d6000fd5b50506000805460ff1916905550949695505050505050565b6000805460ff1615612ba15760405162461bcd60e51b81526004016108e690615819565b6000805460ff191660011781558381526005602052604090205460ff1615612bfa5760405162461bcd60e51b815260206004820152600c60248201526b141c9948105c1c1c9bdd985b60a21b60448201526064016108e6565b612c05338385615020565b60008054604051632500ed8d60e21b8152600481018690526101009091046001600160a01b031690639403b63490602401602060405180830381865afa158015612c53573d6000803e3d6000fd5b505050506040513d601f19601f82011682018060405250810190612c779190615b9b565b9050600060028581548110612c8e57612c8e61583e565b6000918252602091829020600790910201546040805163487c0b8160e11b815290516001600160a01b03909216926390f81702926004808401938290030181865afa158015612ce1573d6000803e3d6000fd5b505050506040513d601f19601f82011682018060405250810190612d059190615b9b565b6040516350c6e6cf60e01b8152600481018790529091506000906001600160a01b038416906350c6e6cf90602401602060405180830381865afa158015612d50573d6000803e3d6000fd5b505050506040513d601f19601f82011682018060405250810190612d749190615b9b565b90506000806000856001600160a01b031663ca13e4508a6040518263ffffffff1660e01b8152600401612da991815260200190565b606060405180830381865afa158015612dc6573d6000803e3d6000fd5b505050506040513d601f19601f82011682018060405250810190612dea9190615ed1565b925092509250846001600160a01b03166323b872dd33308b6040518463ffffffff1660e01b8152600401612e2093929190615ead565b6020604051808303816000875af1158015612e3f573d6000803e3d6000fd5b505050506040513d601f19601f82011682018060405250810190612e639190615e5e565b5060405163095ea7b360e01b81526001600160a01b038581166004830152602482018a905286169063095ea7b3906044016020604051808303816000875af1158015612eb3573d6000803e3d6000fd5b505050506040513d601f19601f82011682018060405250810190612ed79190615e5e565b50604051636e553f6560e01b8152600481018990526001600160a01b038781166024830152851690636e553f65906044016020604051808303816000875af1158015612f27573d6000803e3d6000fd5b505050506040513d601f19601f82011682018060405250810190612f4b9190615a82565b50612f568883615112565b965060028981548110612f6b57612f6b61583e565b600091825260209091206007909102015460405163681504cd60e01b8152336004820152602481018990526001600160a01b039091169063681504cd90604401600060405180830381600087803b158015612fc557600080fd5b505af1158015612fd9573d6000803e3d6000fd5b50505050856001600160a01b03166334928ace8a61300f866126dd86670de0b6b3a76400006130089190615e9a565b8d90614ec0565b6040516001600160e01b031960e085901b1681526004810192909252602482015260016044820152606401600060405180830381600087803b15801561305457600080fd5b505af1158015613068573d6000803e3d6000fd5b50506001546001600160a01b03169150632e1a65d39050338b8a8c61308d8385613d7a565b6040516001600160e01b031960e088901b1681526001600160a01b0390951660048601526024850193909352604484019190915260648301526084820152600160a482015260c401600060405180830381600087803b1580156130ef57600080fd5b505af1158015613103573d6000803e3d6000fd5b50506000805460ff1916905550969998505050505050505050565b6000818152600560205260409020546301000000900460ff16156131545760405162461bcd60e51b81526004016108e690615f21565b60008181526005602052604090205462010000900460ff166131885760405162461bcd60e51b81526004016108e690615a5f565b600081815260076020908152604080832033845290915290205460ff16156131c25760405162461bcd60e51b81526004016108e690615eff565b6000818152600760209081526040808320338085529252808320805460ff19166001179055915491516323f2a73f60e01b81526101009092046001600160a01b0316916323f2a73f9161322c918591906004019182526001600160a01b0316602082015260400190565b602060405180830381865afa158015613249573d6000803e3d6000fd5b505050506040513d601f19601f8201168201806040525081019061326d9190615e5e565b156132db57600054604051638f5709a560e01b8152600481018390523360248201526101009091046001600160a01b031690638f5709a590604401600060405180830381600087803b1580156132c257600080fd5b505af11580156132d6573d6000803e3d6000fd5b505050505b6000818152600c602090815260408083203384528252918290208251808401909352546001600160801b038082168452600160801b9091041690820181905261334c5760405162461bcd60e51b815260206004820152600360248201526222a92960e91b60448201526064016108e6565b6000828152600460209081526040822054908301519091906133789083906001600160801b0316614ec0565b9050600083600001516001600160801b03168210156133985760006133ad565b83516133ad906001600160801b031683615b88565b6000546040516323f2a73f60e01b81526004810188905233602482015291925061010090046001600160a01b0316906323f2a73f90604401602060405180830381865afa158015613402573d6000803e3d6000fd5b505050506040513d601f19601f820116820180604052508101906134269190615e5e565b50336000908152600b602052604090205460ff161561346557336000908152600b60205260409020805460ff19811660ff918216600019019091161790555b6000858152600c60209081526040808320338452909152902080546001600160801b03169055600280548690811061349f5761349f61583e565b600091825260209182902060079190910201549085015160405163c93ac3ed60e01b81523060048201526001600160801b039091166024820152600160448201526001600160a01b039091169063c93ac3ed90606401600060405180830381600087803b15801561350f57600080fd5b505af1158015613523573d6000803e3d6000fd5b5050600054604051631e1fa3a760e31b81526101009091046001600160a01b0316925063f0fd1d38915061241f90849033908a90600401615e7b565b600080546040516308ad90a560e01b81526001600160a01b0384811660048301526135f192670de0b6b3a764000092610100909104909116906308ad90a590602401602060405180830381865afa1580156135be573d6000803e3d6000fd5b505050506040513d601f19601f820116820180604052508101906135e29190615a82565b6135ec9190615a48565b615127565b92915050565b6040805160e0810182526000808252602082018190529181018290526060808201526080810182905260a0810182905260c08101919091526040518060e0016040528060006001600160a01b0316815260200160006001600160a01b0316815260200160006001600160a01b03168152602001604051806020016040528060008152508152602001600081526020016000815260200160001515815250905090565b6000600282815481106136ae576136ae61583e565b60009182526020909120600260079092020101546001600160a01b031692915050565b600081815260056020526040812054610100900460ff16156136f557506001919050565b60008281526005602052604090205460ff1680156137275750600082815260056020526040902054610100900460ff16155b156137b25760005460405163b743939b60e01b8152600481018490526101009091046001600160a01b03169063b743939b90602401602060405180830381865afa158015613779573d6000803e3d6000fd5b505050506040513d601f19601f8201168201806040525081019061379d9190615e5e565b156137aa57506003919050565b506002919050565b6137bb826137cd565b156137c857506004919050565b919050565b60008181526005602052604081205460ff161580156135f15750506000908152600560205260409020546301000000900460ff1690565b6000806002858154811061381a5761381a61583e565b50600052509392505050565b6002818154811061383657600080fd5b600091825260209091206007909102018054600182015460028301546003840180546001600160a01b0394851696509284169493909116929161387890615900565b80601f01602080910402602001604051908101604052809291908181526020018280546138a490615900565b80156138f15780601f106138c6576101008083540402835291602001916138f1565b820191906000526020600020905b8154815290600101906020018083116138d457829003601f168201915b50505050600483015460058401546006909401549293909290915060ff1687565b6000818152600c6020908152604080832033845282528083208151808301909252546001600160801b038082168352600160801b90910416918101829052906139835760405162461bcd60e51b815260206004820152600360248201526222a92960e91b60448201526064016108e6565b6000838152600c6020908152604080832033808552925280832080546001600160801b03169055915491516323f2a73f60e01b81526101009092046001600160a01b0316916323f2a73f916139ef918791906004019182526001600160a01b0316602082015260400190565b602060405180830381865afa158015613a0c573d6000803e3d6000fd5b505050506040513d601f19601f82011682018060405250810190613a309190615e5e565b15613ab557600054604051634187150160e11b8152600481018590523360248201526101009091046001600160a01b03169063830e2a02906044016020604051808303816000875af1158015613a8a573d6000803e3d6000fd5b505050506040513d601f19601f82011682018060405250810190613aae9190615a82565b9150613ad6565b60008381526008602090815260408083203384529091528120805491905591505b60028381548110613ae957613ae961583e565b600091825260209182902060079190910201549082015160405163c93ac3ed60e01b81523060048201526001600160801b039091166024820152600160448201526001600160a01b039091169063c93ac3ed90606401600060405180830381600087803b158015613b5957600080fd5b505af1158015613b6d573d6000803e3d6000fd5b5050336000908152600b602052604090205460ff16159150613bb1905057336000908152600b60205260409020805460ff19811660ff918216600019019091161790555b60005481516101009091046001600160a01b03169063f0fd1d3890613bdf906001600160801b031685615b88565b33866040518463ffffffff1660e01b8152600401613bff93929190615e7b565b600060405180830381600087803b158015613c1957600080fd5b505af1158015613c2d573d6000803e3d6000fd5b5050505050919050565b613c7f60405180610100016040528060008152602001600081526020016000815260200160008152602001600081526020016000815260200160008152602001600081525090565b50600090815260066020818152604092839020835161010081018552815481526001820154928101929092526002810154938201939093526003830154606082015260048301546080820152600583015460a08201529082015460c082015260079091015460e082015290565b60005461010090046001600160a01b0316331480613d1457506003546001600160a01b031633145b80613d1e57503330145b613d3a5760405162461bcd60e51b81526004016108e6906158db565b600081815260056020526040808220805460ff191690555182917fd92bb9e130abbedd10c99eb70af2c4bf2d534f985df768e29fd28e1593e9d20291a250565b6001546040516344c7439360e01b81526001600160a01b03838116600483015260009283929116906344c7439390602401602060405180830381865afa158015613dc8573d6000803e3d6000fd5b505050506040513d601f19601f82011682018060405250810190613dec9190615a82565b905080600003613e005760009150506135f1565b613e156135ec670de0b6b3a764000083615a48565b600085815260056020526040902060010154613e319190615e9a565b949350505050565b336001600160a01b03166390f817026040518163ffffffff1660e01b8152600401602060405180830381865afa158015613e77573d6000803e3d6000fd5b505050506040513d601f19601f82011682018060405250810190613e9b9190615b9b565b6001600160a01b03166323b872dd613eb5838501856154fc565b33866040518463ffffffff1660e01b8152600401613ed593929190615ead565b6020604051808303816000875af1158015613ef4573d6000803e3d6000fd5b505050506040513d601f19601f82011682018060405250810190613f189190615e5e565b50505050565b6000805460ff1615613f425760405162461bcd60e51b81526004016108e690615819565b6000805460ff19166001178155828152600560205260409020546301000000900460ff1615613f835760405162461bcd60e51b81526004016108e690615f21565b60008281526005602052604090205462010000900460ff16613fb75760405162461bcd60e51b81526004016108e690615a5f565b600082815260076020908152604080832033845290915290205460ff1615613ff15760405162461bcd60e51b81526004016108e690615eff565b60008281526007602090815260408083203384529091528120805460ff1916600117905560028054849081106140295761402961583e565b600091825260208220600791909102015490546040516323f2a73f60e01b8152600481018690523360248201526001600160a01b039283169350610100909104909116906323f2a73f90604401602060405180830381865afa158015614093573d6000803e3d6000fd5b505050506040513d601f19601f820116820180604052508101906140b79190615e5e565b1561412557600054604051638f5709a560e01b8152600481018590523360248201526101009091046001600160a01b031690638f5709a590604401600060405180830381600087803b15801561410c57600080fd5b505af1158015614120573d6000803e3d6000fd5b505050505b60006002848154811061413a5761413a61583e565b60009182526020909120600790910201600101546040516370a0823160e01b81523360048201526001600160a01b03909116906370a0823190602401602060405180830381865afa158015614193573d6000803e3d6000fd5b505050506040513d601f19601f820116820180604052508101906141b79190615a82565b6000858152600460205260409020549091506141d38183614ec0565b6000546040516323f2a73f60e01b81526004810188905233602482015291955061010090046001600160a01b0316906323f2a73f90604401602060405180830381865afa158015614228573d6000803e3d6000fd5b505050506040513d601f19601f8201168201806040525081019061424c9190615e5e565b6142bc57600154604051639bf7927d60e01b81526001600160a01b0390911690639bf7927d90614289903390899086906000908990600401615a9b565b600060405180830381600087803b1580156142a357600080fd5b505af11580156142b7573d6000803e3d6000fd5b505050505b336000908152600b602052604090205460ff16156142fa57336000908152600b60205260409020805460ff19811660ff918216600019019091161790555b60405163c93ac3ed60e01b81526001600160a01b0384169063c93ac3ed9061432b9033908690600190600401615e3b565b600060405180830381600087803b15801561434557600080fd5b505af1158015614359573d6000803e3d6000fd5b5050600054604051631e1fa3a760e31b81526101009091046001600160a01b0316925063f0fd1d38915061439590879033908a90600401615e7b565b600060405180830381600087803b1580156143af57600080fd5b505af11580156143c3573d6000803e3d6000fd5b50506000805460ff19169055509395945050505050565b6040805160e0810182526000808252602082018190529181018290526060808201526080810182905260a0810182905260c08101919091526002548210614423576135f16135f7565b600282815481106144365761443661583e565b60009182526020918290206040805160e081018252600790930290910180546001600160a01b039081168452600182015481169484019490945260028101549093169082015260038201805491929160608401919061449490615900565b80601f01602080910402602001604051908101604052809291908181526020018280546144c090615900565b801561450d5780601f106144e25761010080835404028352916020019161450d565b820191906000526020600020905b8154815290600101906020018083116144f057829003601f168201915b5050509183525050600482015460208201526005820154604082015260069091015460ff16151560609091015292915050565b60008054819060ff16156145665760405162461bcd60e51b81526004016108e690615819565b6000805460ff191660011781558681526005602052604090205460ff166145ba5760405162461bcd60e51b8152602060048201526008602482015267283430b9b2a2a92960c11b60448201526064016108e6565b60008681526005602052604090205462010000900460ff16156145ef5760405162461bcd60e51b81526004016108e690615a5f565b6145f83361355f565b831115801561460f5750670de0b6b3a76400008310155b6146475760405162461bcd60e51b8152602060048201526009602482015268216c6576657261676560b81b60448201526064016108e6565b614652338688614edc565b6000600287815481106146675761466761583e565b600091825260208220600790910201546001600160a01b0316915061468c87866151cb565b9050816001600160a01b03166390f817026040518163ffffffff1660e01b8152600401602060405180830381865afa1580156146cc573d6000803e3d6000fd5b505050506040513d601f19601f820116820180604052508101906146f09190615b9b565b6001600160a01b03166323b872dd3330846040518463ffffffff1660e01b815260040161471f93929190615ead565b6020604051808303816000875af115801561473e573d6000803e3d6000fd5b505050506040513d601f19601f820116820180604052508101906147629190615e5e565b5060005461010090046001600160a01b031663da0a697f89614784848b615b88565b6040516001600160e01b031960e085901b16815260048101929092526024820152604401600060405180830381600087803b1580156147c257600080fd5b505af11580156147d6573d6000803e3d6000fd5b50505050816001600160a01b03166390f817026040518163ffffffff1660e01b8152600401602060405180830381865afa158015614818573d6000803e3d6000fd5b505050506040513d601f19601f8201168201806040525081019061483c9190615b9b565b60405163095ea7b360e01b8152306004820152602481018990526001600160a01b03919091169063095ea7b3906044016020604051808303816000875af115801561488b573d6000803e3d6000fd5b505050506040513d601f19601f820116820180604052508101906148af9190615e5e565b506040805130602080830191909152825180830390910181528183019283905263244d59cb60e01b9092526001600160a01b0384169163244d59cb916148fe916001918c918c91604401615886565b60408051808303816000875af115801561491c573d6000803e3d6000fd5b505050506040513d601f19601f8201168201806040525081019061494091906158b7565b90945092506149558833896000600180614b0c565b600088815260056020526040902054610100900460ff1615614aa1576000888152600a60205260408082205491549051632500ed8d60e21b8152600481018b9052614a819161010090046001600160a01b031690639403b63490602401602060405180830381865afa1580156149cf573d6000803e3d6000fd5b505050506040513d601f19601f820116820180604052508101906149f39190615b9b565b6001600160a01b0316639ec4d40e8b6040518263ffffffff1660e01b8152600401614a2091815260200190565b600060405180830381865afa158015614a3d573d6000803e3d6000fd5b505050506040513d6000823e601f3d908101601f19168201604052614a659190810190615cba565b60c0015160008b81526006602052604090206003015490614ec0565b8110614a9f576000898152600560205260409020805461ff00191690555b505b60405180604001604052808289614ab89190615b88565b6001600160801b03908116825285811660209283015260009a8b52600c82526040808c20338d5283528b20835193909201518116600160801b0292169190911790555050855460ff19169095559492505050565b8015614c87578115614bbb5760008681526008602090815260408083206001600160a01b038916845290915281208054869290614b4a908490615e9a565b90915550506000868152600a602052604081208054869290614b6d908490615e9a565b90915550506001600160a01b0385166000908152600b60205260408120805460019290614b9e90849060ff16615f42565b92506101000a81548160ff021916908360ff160217905550614c16565b60008681526008602090815260408083206001600160a01b038916845290915281208054869290614bed908490615b88565b90915550506000868152600a602052604081208054869290614c10908490615b88565b90915550505b60008681526008602090815260408083206001600160a01b038916808552908352928190205481518a815292830193909352810191909152600160608201527f32076afaca7402bc10b9630807a4dfae8705ce717003379b3a9b9fded61cfcd99060800160405180910390a1614db3565b8115614ced5760008681526009602090815260408083206001600160a01b038916845290915281208054859290614cbf908490615e9a565b90915550506000868152600a602052604081208054869290614ce2908490615b88565b90915550614d489050565b60008681526009602090815260408083206001600160a01b038916845290915281208054859290614d1f908490615b88565b90915550506000868152600a602052604081208054869290614d42908490615e9a565b90915550505b60008681526009602090815260408083206001600160a01b0389168085529083528184205482518b8152938401919091529082015260608101919091527f32076afaca7402bc10b9630807a4dfae8705ce717003379b3a9b9fded61cfcd99060800160405180910390a15b6000868152600a6020908152604091829020548251898152918201527fd73e4190e6ad8eb7c343adb20a0c47ea50245809803b3ed7ad4104fdb07c23a8910160405180910390a1505050505050565b60008481526005602052604090819020805460018201849055630100000061ffff199091166101008615150260ff1916178615151763ff0000001916178155905185907f638289bd0053d37020d3cfacc73bb398f0d6702821a30abdcaed824bb4a8ebb990614e72908490615de0565b60405180910390a25050505050565b6000818152600560205260408120546301000000900460ff16614eb65760405162461bcd60e51b81526004016108e690615f21565b5060019392505050565b6000614ed58383670de0b6b3a76400006151dc565b9392505050565b6000818152600560205260409020546301000000900460ff16614f115760405162461bcd60e51b81526004016108e690615f21565b60008181526005602052604081205460ff808216926101009092041690841315614f46578115614f4657614f46858585615020565b801561501957600080548482526006602052604091829020600501549151637453c01360e11b81526001600160a01b03888116600483015260248201939093526101009091049091169063e8a7802690604401602060405180830381865afa158015614fb6573d6000803e3d6000fd5b505050506040513d601f19601f82011682018060405250810190614fda9190615e5e565b6150195760405162461bcd60e51b815260206004820152601060248201526f0696e73756666696369656e74207265760841b60448201526064016108e6565b5050505050565b8161502b8285613d7a565b116150615760405162461bcd60e51b8152602060048201526006602482015265189d5919d95d60d21b60448201526064016108e6565b6000546040516308ad90a560e01b81526001600160a01b038581166004830152610100909204909116906308ad90a590602401602060405180830381865afa1580156150b1573d6000803e3d6000fd5b505050506040513d601f19601f820116820180604052508101906150d59190615a82565b60000361510d5760405162461bcd60e51b81526004016108e6906020808252600490820152630217265760e41b604082015260600190565b505050565b6000614ed583670de0b6b3a7640000846151fa565b60b581600160881b81106151405760409190911b9060801c5b6901000000000000000000811061515c5760209190911b9060401c5b6501000000000081106151745760109190911b9060201c5b6301000000811061518a5760089190911b9060101c5b62010000010260121c80820401600190811c80830401811c80830401811c80830401811c80830401811c80830401811c80830401901c908190048111900390565b6000614ed583670de0b6b3a7640000845b60008260001904841183021582026151f357600080fd5b5091020490565b600082600019048411830215820261521157600080fd5b50910281810615159190040190565b60008083601f84011261523257600080fd5b50813567ffffffffffffffff81111561524a57600080fd5b60208301915083602082850101111561526257600080fd5b9250929050565b60008060008060006080868803121561528157600080fd5b853594506020860135935060408601359250606086013567ffffffffffffffff8111156152ad57600080fd5b6152b988828901615220565b969995985093965092949392505050565b6000602082840312156152dc57600080fd5b5035919050565b6001600160a01b03811681146152f857600080fd5b50565b80151581146152f857600080fd5b600080600080600080600060c0888a03121561532457600080fd5b873596506020880135615336816152e3565b95506040880135615346816152e3565b94506060880135615356816152e3565b9350608088013567ffffffffffffffff81111561537257600080fd5b61537e8a828b01615220565b90945092505060a0880135615392816152fb565b8091505092959891949750929550565b600080604083850312156153b557600080fd5b8235915060208301356153c7816152e3565b809150509250929050565b634e487b7160e01b600052604160045260246000fd5b604051610100810167ffffffffffffffff8111828210171561540c5761540c6153d2565b60405290565b6040516101c0810167ffffffffffffffff8111828210171561540c5761540c6153d2565b604051601f8201601f1916810167ffffffffffffffff8111828210171561545f5761545f6153d2565b604052919050565b600080600083850361014081121561547e57600080fd5b6101008082121561548e57600080fd5b6154966153e8565b9150853582526020860135602083015260408601356040830152606086013560608301526080860135608083015260a086013560a083015260c086013560c083015260e086013560e0830152819450808601359350505061012084013590509250925092565b60006020828403121561550e57600080fd5b8135614ed5816152e3565b6000806000806080858703121561552f57600080fd5b843593506020850135615541816152fb565b92506040850135615551816152fb565b9396929550929360600135925050565b6000806040838503121561557457600080fd5b8235915060208301356153c7816152fb565b6000806000806080858703121561559c57600080fd5b84359350602085013592506040850135915060608501356155bc816152e3565b939692955090935050565b600080604083850312156155da57600080fd5b50508035926020909101359150565b60005b838110156156045781810151838201526020016155ec565b50506000910152565b600081518084526156258160208601602086016155e9565b601f01601f19169290920160200192915050565b60208152600060018060a01b0380845116602084015280602085015116604084015280604085015116606084015250606083015160e0608084015261568261010084018261560d565b9050608084015160a084015260a084015160c084015260c0840151151560e08401528091505092915050565b6000806000606084860312156156c357600080fd5b83359250602084013561ffff811681146156dc57600080fd5b929592945050506040919091013590565b6001600160a01b03888116825287811660208301528616604082015260e0606082018190526000906157219083018761560d565b60808301959095525060a0810192909252151560c090910152949350505050565b600061010082019050825182526020830151602083015260408301516040830152606083015160608301526080830151608083015260a083015160a083015260c083015160c083015260e083015160e083015292915050565b6000806000604084860312156157b057600080fd5b83359250602084013567ffffffffffffffff8111156157ce57600080fd5b6157da86828701615220565b9497909650939450505050565b600080600080608085870312156157fd57600080fd5b5050823594602084013594506040840135936060013592509050565b6020808252600b908201526a4552525f5245454e54525960a81b604082015260600190565b634e487b7160e01b600052603260045260246000fd5b634e487b7160e01b600052601160045260246000fd5b6000600160ff1b820161587f5761587f615854565b5060000390565b84151581528360208201528260408201526080606082015260006158ad608083018461560d565b9695505050505050565b600080604083850312156158ca57600080fd5b505080516020909101519092909150565b6020808252600b908201526a10b1b7b73a3937b63632b960a91b604082015260600190565b600181811c9082168061591457607f821691505b60208210810361593457634e487b7160e01b600052602260045260246000fd5b50919050565b601f82111561510d57600081815260208120601f850160051c810160208610156159615750805b601f850160051c820191505b818110156159805782815560010161596d565b505050505050565b815167ffffffffffffffff8111156159a2576159a26153d2565b6159b6816159b08454615900565b8461593a565b602080601f8311600181146159eb57600084156159d35750858301515b600019600386901b1c1916600185901b178555615980565b600085815260208120601f198616915b82811015615a1a578886015182559484019460019091019084016159fb565b5085821015615a385787850151600019600388901b60f8161c191681555b5050505050600190811b01905550565b80820281158282048414176135f1576135f1615854565b602080825260099082015268085c995cdbdb1d995960ba1b604082015260600190565b600060208284031215615a9457600080fd5b5051919050565b6001600160a01b039590951685526020850193909352604084019190915215156060830152608082015260a00190565b80516137c8816152e3565b60006020808385031215615ae957600080fd5b825167ffffffffffffffff80821115615b0157600080fd5b818501915085601f830112615b1557600080fd5b815181811115615b2757615b276153d2565b8060051b9150615b38848301615436565b8181529183018401918481019088841115615b5257600080fd5b938501935b83851015615b7c5784519250615b6c836152e3565b8282529385019390850190615b57565b98975050505050505050565b818103818111156135f1576135f1615854565b600060208284031215615bad57600080fd5b8151614ed5816152e3565b80516137c8816152fb565b600082601f830112615bd457600080fd5b815167ffffffffffffffff811115615bee57615bee6153d2565b615c01601f8201601f1916602001615436565b818152846020838601011115615c1657600080fd5b613e318260208301602087016155e9565b8051600681106137c857600080fd5b600060e08284031215615c4857600080fd5b60405160e0810181811067ffffffffffffffff82111715615c6b57615c6b6153d2565b8060405250809150825181526020830151602082015260408301516040820152606083015160608201526080830151608082015260a083015160a082015260c083015160c08201525092915050565b600060208284031215615ccc57600080fd5b815167ffffffffffffffff80821115615ce457600080fd5b908301906102808286031215615cf957600080fd5b615d01615412565b82518152615d1160208401615bb8565b6020820152615d2260408401615bb8565b6040820152606083015160608201526080830151608082015260a083015160a082015260c083015160c082015260e083015160e08201526101008084015181830152506101208084015183811115615d7957600080fd5b615d8588828701615bc3565b8284015250506101409150615d9b828401615acb565b828201526101609150615daf828401615c27565b82820152610180915081830151828201526101a09150615dd186838501615c36565b91810191909152949350505050565b600060c082019050825460ff81161515835260ff8160081c161515602084015260ff8160101c161515604084015260ff8160181c161515606084015260ff8160201c161515608084015250600183015460a083015292915050565b6001600160a01b0393909316835260208301919091521515604082015260600190565b600060208284031215615e7057600080fd5b8151614ed5816152fb565b9283526001600160a01b03919091166020830152604082015260600190565b808201808211156135f1576135f1615854565b6001600160a01b039384168152919092166020820152604081019190915260600190565b600080600060608486031215615ee657600080fd5b8351925060208401519150604084015190509250925092565b60208082526008908201526714995919595b595960c21b604082015260600190565b6020808252600790820152662141637469766560c81b604082015260600190565b60ff81811683821601908111156135f1576135f161585456fea2646970667358221220a4bdc731f312889c0ca9124f7bc6b7ed1cf9200e5047e1a2209eb548aecc321964736f6c63430008110033",
    "linkReferences": {}
  },
  "methodIdentifiers": {
    "approveMarket(uint256)": "cabe2ae1",
    "buyBond(uint256,int256,uint256,bytes)": "51ba6522",
    "buyBondLevered(uint256,uint256,uint256,uint256)": "f7cf78d7",
    "claimFunnel(uint256,uint16,uint256)": "a72be9a1",
    "coverBondShort(uint256,uint256,uint256,bytes)": "03cc40eb",
    "deactivateMarket(uint256,bool,bool,uint256)": "61fa5af5",
    "denyMarket(uint256)": "4cb44087",
    "getCurrentMarketPhase(uint256)": "97dcec16",
    "getMarket(uint256)": "eb44fdd3",
    "getMaxLeverage(address)": "808d856b",
    "getParameters(uint256)": "c6ceb96b",
    "getPhaseData(uint256)": "4cba8cde",
    "getPool(uint256)": "068bcd8d",
    "getShortZCB(uint256)": "920f4e55",
    "getTraderBudget(uint256,address)": "d5725953",
    "getZCB(uint256)": "153542cc",
    "isMarketApproved(uint256)": "9ec33416",
    "issuePoolBond(uint256,uint256)": "73124349",
    "leveragePosition(uint256,address)": "d36287f4",
    "loggedCollaterals(uint256)": "661f1cf5",
    "longTrades(uint256,address)": "214b3987",
    "makeEmptyMarketData()": "839ee8f6",
    "marketCount()": "ec979082",
    "markets(uint256)": "b1283e77",
    "newMarket(uint256,address,address,address,string,bool)": "203b2434",
    "owner()": "8da5cb5b",
    "parameters(uint256)": "2a4a9dd1",
    "queuedRepThreshold()": "41741c06",
    "queuedRepUpdates(address)": "b900a0ed",
    "redeem(uint256)": "db006a75",
    "redeemDeniedLeveredBond(uint256)": "bdce3867",
    "redeemDeniedMarket(uint256,bool)": "63f960d8",
    "redeemLeveredBond(uint256)": "765cd23a",
    "redeemPoolLongZCB(uint256,uint256)": "71bd6a09",
    "redeemShortZCB(uint256)": "727b887f",
    "redemption_prices(uint256)": "7c9bc5ce",
    "restriction_data(uint256)": "8a6cac3d",
    "sellBond(uint256,uint256,uint256,bytes)": "46b6a387",
    "setParameters((uint256,uint256,uint256,uint256,uint256,uint256,uint256,uint256),uint256,uint256)": "4e042a59",
    "setReputationManager(address)": "56a837f4",
    "shortBond(uint256,uint256,uint256,bytes)": "3db969f4",
    "shortTrades(uint256,address)": "897ca174",
    "tradeCallBack(uint256,bytes)": "da520d3e",
    "validatorApprove(uint256,uint256,uint256,address)": "669623a6"
  },
  "id": 15
}