{
  "abi": [
    {
      "inputs": [
        {
          "internalType": "address",
          "name": "_creator_address",
          "type": "address"
        },
        {
          "internalType": "address",
          "name": "_controllerAddress",
          "type": "address"
        },
        {
          "internalType": "address",
          "name": "_vrfCoordinator",
          "type": "address"
        },
        {
          "internalType": "bytes32",
          "name": "_keyHash",
          "type": "bytes32"
        },
        {
          "internalType": "uint64",
          "name": "_subscriptionId",
          "type": "uint64"
        }
      ],
      "stateMutability": "nonpayable",
      "type": "constructor"
    },
    {
      "anonymous": false,
      "inputs": [
        {
          "indexed": true,
          "internalType": "uint256",
          "name": "marketId",
          "type": "uint256"
        },
        {
          "indexed": true,
          "internalType": "address",
          "name": "trader",
          "type": "address"
        },
        {
          "indexed": false,
          "internalType": "uint256",
          "name": "amountIn",
          "type": "uint256"
        },
        {
          "indexed": false,
          "internalType": "uint256",
          "name": "amountOut",
          "type": "uint256"
        }
      ],
      "name": "BondBuy",
      "type": "event"
    },
    {
      "anonymous": false,
      "inputs": [
        {
          "indexed": true,
          "internalType": "uint256",
          "name": "marketId",
          "type": "uint256"
        },
        {
          "indexed": false,
          "internalType": "bool",
          "name": "atLoss",
          "type": "bool"
        },
        {
          "indexed": false,
          "internalType": "bool",
          "name": "resolve",
          "type": "bool"
        },
        {
          "indexed": false,
          "internalType": "uint256",
          "name": "rp",
          "type": "uint256"
        }
      ],
      "name": "DeactivatedMarket",
      "type": "event"
    },
    {
      "anonymous": false,
      "inputs": [
        {
          "indexed": true,
          "internalType": "uint256",
          "name": "marketId",
          "type": "uint256"
        }
      ],
      "name": "MarketApproved",
      "type": "event"
    },
    {
      "anonymous": false,
      "inputs": [
        {
          "indexed": false,
          "internalType": "uint256",
          "name": "marketId",
          "type": "uint256"
        },
        {
          "indexed": false,
          "internalType": "uint256",
          "name": "totalCollateral",
          "type": "uint256"
        }
      ],
      "name": "MarketCollateralUpdate",
      "type": "event"
    },
    {
      "anonymous": false,
      "inputs": [
        {
          "indexed": true,
          "internalType": "uint256",
          "name": "marketId",
          "type": "uint256"
        }
      ],
      "name": "MarketDenied",
      "type": "event"
    },
    {
      "anonymous": false,
      "inputs": [
        {
          "indexed": true,
          "internalType": "uint256",
          "name": "marketId",
          "type": "uint256"
        },
        {
          "components": [
            {
              "internalType": "uint256",
              "name": "N",
              "type": "uint256"
            },
            {
              "internalType": "uint256",
              "name": "sigma",
              "type": "uint256"
            },
            {
              "internalType": "uint256",
              "name": "alpha",
              "type": "uint256"
            },
            {
              "internalType": "uint256",
              "name": "omega",
              "type": "uint256"
            },
            {
              "internalType": "uint256",
              "name": "delta",
              "type": "uint256"
            },
            {
              "internalType": "uint256",
              "name": "r",
              "type": "uint256"
            },
            {
              "internalType": "uint256",
              "name": "s",
              "type": "uint256"
            },
            {
              "internalType": "uint256",
              "name": "steak",
              "type": "uint256"
            }
          ],
          "indexed": false,
          "internalType": "struct MarketManager.MarketParameters",
          "name": "params",
          "type": "tuple"
        }
      ],
      "name": "MarketParametersSet",
      "type": "event"
    },
    {
      "anonymous": false,
      "inputs": [
        {
          "indexed": true,
          "internalType": "uint256",
          "name": "marketId",
          "type": "uint256"
        },
        {
          "components": [
            {
              "internalType": "bool",
              "name": "duringAssessment",
              "type": "bool"
            },
            {
              "internalType": "bool",
              "name": "onlyReputable",
              "type": "bool"
            },
            {
              "internalType": "bool",
              "name": "resolved",
              "type": "bool"
            },
            {
              "internalType": "bool",
              "name": "alive",
              "type": "bool"
            },
            {
              "internalType": "bool",
              "name": "atLoss",
              "type": "bool"
            },
            {
              "internalType": "uint256",
              "name": "base_budget",
              "type": "uint256"
            }
          ],
          "indexed": false,
          "internalType": "struct MarketManager.MarketPhaseData",
          "name": "data",
          "type": "tuple"
        }
      ],
      "name": "MarketPhaseSet",
      "type": "event"
    },
    {
      "anonymous": false,
      "inputs": [
        {
          "indexed": true,
          "internalType": "uint256",
          "name": "marketId",
          "type": "uint256"
        },
        {
          "indexed": false,
          "internalType": "bool",
          "name": "onlyReputable",
          "type": "bool"
        }
      ],
      "name": "MarketReputationSet",
      "type": "event"
    },
    {
      "anonymous": false,
      "inputs": [
        {
          "indexed": false,
          "internalType": "uint256",
          "name": "marketId",
          "type": "uint256"
        },
        {
          "indexed": false,
          "internalType": "address",
          "name": "trader",
          "type": "address"
        },
        {
          "indexed": false,
          "internalType": "bool",
          "name": "isLong",
          "type": "bool"
        }
      ],
      "name": "RedeemDenied",
      "type": "event"
    },
    {
      "anonymous": false,
      "inputs": [
        {
          "indexed": false,
          "internalType": "uint256",
          "name": "marketId",
          "type": "uint256"
        },
        {
          "indexed": false,
          "internalType": "address",
          "name": "manager",
          "type": "address"
        },
        {
          "indexed": false,
          "internalType": "uint256",
          "name": "totalCollateral",
          "type": "uint256"
        },
        {
          "indexed": false,
          "internalType": "bool",
          "name": "isLong",
          "type": "bool"
        }
      ],
      "name": "TraderCollateralUpdate",
      "type": "event"
    },
    {
      "inputs": [
        {
          "internalType": "uint256",
          "name": "marketId",
          "type": "uint256"
        }
      ],
      "name": "approveMarket",
      "outputs": [],
      "stateMutability": "nonpayable",
      "type": "function"
    },
    {
      "inputs": [
        {
          "internalType": "uint256",
          "name": "_marketId",
          "type": "uint256"
        },
        {
          "internalType": "int256",
          "name": "_amountIn",
          "type": "int256"
        },
        {
          "internalType": "uint256",
          "name": "_priceLimit",
          "type": "uint256"
        },
        {
          "internalType": "bytes",
          "name": "_tradeRequestData",
          "type": "bytes"
        }
      ],
      "name": "buyBond",
      "outputs": [
        {
          "internalType": "uint256",
          "name": "amountIn",
          "type": "uint256"
        },
        {
          "internalType": "uint256",
          "name": "amountOut",
          "type": "uint256"
        }
      ],
      "stateMutability": "nonpayable",
      "type": "function"
    },
    {
      "inputs": [
        {
          "internalType": "uint256",
          "name": "_marketId",
          "type": "uint256"
        },
        {
          "internalType": "uint256",
          "name": "_amountIn",
          "type": "uint256"
        },
        {
          "internalType": "uint256",
          "name": "_priceLimit",
          "type": "uint256"
        },
        {
          "internalType": "uint256",
          "name": "_leverage",
          "type": "uint256"
        }
      ],
      "name": "buyBondLevered",
      "outputs": [
        {
          "internalType": "uint256",
          "name": "amountIn",
          "type": "uint256"
        },
        {
          "internalType": "uint256",
          "name": "amountOut",
          "type": "uint256"
        }
      ],
      "stateMutability": "nonpayable",
      "type": "function"
    },
    {
      "inputs": [
        {
          "internalType": "uint256",
          "name": "marketId",
          "type": "uint256"
        },
        {
          "internalType": "uint16",
          "name": "point",
          "type": "uint16"
        },
        {
          "internalType": "uint256",
          "name": "funnel",
          "type": "uint256"
        }
      ],
      "name": "claimFunnel",
      "outputs": [
        {
          "internalType": "uint256",
          "name": "claimedAmount",
          "type": "uint256"
        }
      ],
      "stateMutability": "nonpayable",
      "type": "function"
    },
    {
      "inputs": [
        {
          "internalType": "uint256",
          "name": "_marketId",
          "type": "uint256"
        },
        {
          "internalType": "uint256",
          "name": "_amountIn",
          "type": "uint256"
        },
        {
          "internalType": "uint256",
          "name": "_priceLimit",
          "type": "uint256"
        },
        {
          "internalType": "bytes",
          "name": "_tradeRequestData",
          "type": "bytes"
        }
      ],
      "name": "coverBondShort",
      "outputs": [
        {
          "internalType": "uint256",
          "name": "amountIn",
          "type": "uint256"
        },
        {
          "internalType": "uint256",
          "name": "amountOut",
          "type": "uint256"
        }
      ],
      "stateMutability": "nonpayable",
      "type": "function"
    },
    {
      "inputs": [
        {
          "internalType": "uint256",
          "name": "marketId",
          "type": "uint256"
        },
        {
          "internalType": "bool",
          "name": "atLoss",
          "type": "bool"
        },
        {
          "internalType": "bool",
          "name": "resolve",
          "type": "bool"
        },
        {
          "internalType": "uint256",
          "name": "rp",
          "type": "uint256"
        }
      ],
      "name": "deactivateMarket",
      "outputs": [],
      "stateMutability": "nonpayable",
      "type": "function"
    },
    {
      "inputs": [
        {
          "internalType": "uint256",
          "name": "marketId",
          "type": "uint256"
        }
      ],
      "name": "denyMarket",
      "outputs": [],
      "stateMutability": "nonpayable",
      "type": "function"
    },
    {
      "inputs": [
        {
          "internalType": "uint256",
          "name": "marketId",
          "type": "uint256"
        }
      ],
      "name": "getCurrentMarketPhase",
      "outputs": [
        {
          "internalType": "uint256",
          "name": "",
          "type": "uint256"
        }
      ],
      "stateMutability": "view",
      "type": "function"
    },
    {
      "inputs": [
        {
          "internalType": "uint256",
          "name": "_id",
          "type": "uint256"
        }
      ],
      "name": "getMarket",
      "outputs": [
        {
          "components": [
            {
              "internalType": "contract SyntheticZCBPool",
              "name": "bondPool",
              "type": "address"
            },
            {
              "internalType": "contract ERC20",
              "name": "longZCB",
              "type": "address"
            },
            {
              "internalType": "contract ERC20",
              "name": "shortZCB",
              "type": "address"
            },
            {
              "internalType": "string",
              "name": "description",
              "type": "string"
            },
            {
              "internalType": "uint256",
              "name": "creationTimestamp",
              "type": "uint256"
            },
            {
              "internalType": "uint256",
              "name": "resolutionTimestamp",
              "type": "uint256"
            },
            {
              "internalType": "bool",
              "name": "isPool",
              "type": "bool"
            }
          ],
          "internalType": "struct MarketManager.CoreMarketData",
          "name": "",
          "type": "tuple"
        }
      ],
      "stateMutability": "view",
      "type": "function"
    },
    {
      "inputs": [
        {
          "internalType": "address",
          "name": "manager",
          "type": "address"
        }
      ],
      "name": "getMaxLeverage",
      "outputs": [
        {
          "internalType": "uint256",
          "name": "",
          "type": "uint256"
        }
      ],
      "stateMutability": "view",
      "type": "function"
    },
    {
      "inputs": [
        {
          "internalType": "uint256",
          "name": "marketId",
          "type": "uint256"
        }
      ],
      "name": "getParameters",
      "outputs": [
        {
          "components": [
            {
              "internalType": "uint256",
              "name": "N",
              "type": "uint256"
            },
            {
              "internalType": "uint256",
              "name": "sigma",
              "type": "uint256"
            },
            {
              "internalType": "uint256",
              "name": "alpha",
              "type": "uint256"
            },
            {
              "internalType": "uint256",
              "name": "omega",
              "type": "uint256"
            },
            {
              "internalType": "uint256",
              "name": "delta",
              "type": "uint256"
            },
            {
              "internalType": "uint256",
              "name": "r",
              "type": "uint256"
            },
            {
              "internalType": "uint256",
              "name": "s",
              "type": "uint256"
            },
            {
              "internalType": "uint256",
              "name": "steak",
              "type": "uint256"
            }
          ],
          "internalType": "struct MarketManager.MarketParameters",
          "name": "",
          "type": "tuple"
        }
      ],
      "stateMutability": "view",
      "type": "function"
    },
    {
      "inputs": [
        {
          "internalType": "uint256",
          "name": "marketId",
          "type": "uint256"
        }
      ],
      "name": "getPhaseData",
      "outputs": [
        {
          "components": [
            {
              "internalType": "bool",
              "name": "duringAssessment",
              "type": "bool"
            },
            {
              "internalType": "bool",
              "name": "onlyReputable",
              "type": "bool"
            },
            {
              "internalType": "bool",
              "name": "resolved",
              "type": "bool"
            },
            {
              "internalType": "bool",
              "name": "alive",
              "type": "bool"
            },
            {
              "internalType": "bool",
              "name": "atLoss",
              "type": "bool"
            },
            {
              "internalType": "uint256",
              "name": "base_budget",
              "type": "uint256"
            }
          ],
          "internalType": "struct MarketManager.MarketPhaseData",
          "name": "",
          "type": "tuple"
        }
      ],
      "stateMutability": "view",
      "type": "function"
    },
    {
      "inputs": [
        {
          "internalType": "uint256",
          "name": "marketId",
          "type": "uint256"
        }
      ],
      "name": "getPool",
      "outputs": [
        {
          "internalType": "contract SyntheticZCBPool",
          "name": "",
          "type": "address"
        }
      ],
      "stateMutability": "view",
      "type": "function"
    },
    {
      "inputs": [
        {
          "internalType": "uint256",
          "name": "marketId",
          "type": "uint256"
        }
      ],
      "name": "getShortZCB",
      "outputs": [
        {
          "internalType": "contract ERC20",
          "name": "",
          "type": "address"
        }
      ],
      "stateMutability": "view",
      "type": "function"
    },
    {
      "inputs": [
        {
          "internalType": "uint256",
          "name": "marketId",
          "type": "uint256"
        },
        {
          "internalType": "address",
          "name": "trader",
          "type": "address"
        }
      ],
      "name": "getTraderBudget",
      "outputs": [
        {
          "internalType": "uint256",
          "name": "",
          "type": "uint256"
        }
      ],
      "stateMutability": "view",
      "type": "function"
    },
    {
      "inputs": [
        {
          "internalType": "uint256",
          "name": "marketId",
          "type": "uint256"
        }
      ],
      "name": "getZCB",
      "outputs": [
        {
          "internalType": "contract ERC20",
          "name": "",
          "type": "address"
        }
      ],
      "stateMutability": "view",
      "type": "function"
    },
    {
      "inputs": [
        {
          "internalType": "uint256",
          "name": "marketId",
          "type": "uint256"
        }
      ],
      "name": "isMarketApproved",
      "outputs": [
        {
          "internalType": "bool",
          "name": "",
          "type": "bool"
        }
      ],
      "stateMutability": "view",
      "type": "function"
    },
    {
      "inputs": [
        {
          "internalType": "uint256",
          "name": "_marketId",
          "type": "uint256"
        },
        {
          "internalType": "uint256",
          "name": "_amountIn",
          "type": "uint256"
        }
      ],
      "name": "issuePoolBond",
      "outputs": [
        {
          "internalType": "uint256",
          "name": "issueQTY",
          "type": "uint256"
        }
      ],
      "stateMutability": "nonpayable",
      "type": "function"
    },
    {
      "inputs": [
        {
          "internalType": "uint256",
          "name": "",
          "type": "uint256"
        },
        {
          "internalType": "address",
          "name": "",
          "type": "address"
        }
      ],
      "name": "leveragePosition",
      "outputs": [
        {
          "internalType": "uint128",
          "name": "debt",
          "type": "uint128"
        },
        {
          "internalType": "uint128",
          "name": "amount",
          "type": "uint128"
        }
      ],
      "stateMutability": "view",
      "type": "function"
    },
    {
      "inputs": [
        {
          "internalType": "uint256",
          "name": "",
          "type": "uint256"
        }
      ],
      "name": "loggedCollaterals",
      "outputs": [
        {
          "internalType": "uint256",
          "name": "",
          "type": "uint256"
        }
      ],
      "stateMutability": "view",
      "type": "function"
    },
    {
      "inputs": [
        {
          "internalType": "uint256",
          "name": "",
          "type": "uint256"
        },
        {
          "internalType": "address",
          "name": "",
          "type": "address"
        }
      ],
      "name": "longTrades",
      "outputs": [
        {
          "internalType": "uint256",
          "name": "",
          "type": "uint256"
        }
      ],
      "stateMutability": "view",
      "type": "function"
    },
    {
      "inputs": [],
      "name": "makeEmptyMarketData",
      "outputs": [
        {
          "components": [
            {
              "internalType": "contract SyntheticZCBPool",
              "name": "bondPool",
              "type": "address"
            },
            {
              "internalType": "contract ERC20",
              "name": "longZCB",
              "type": "address"
            },
            {
              "internalType": "contract ERC20",
              "name": "shortZCB",
              "type": "address"
            },
            {
              "internalType": "string",
              "name": "description",
              "type": "string"
            },
            {
              "internalType": "uint256",
              "name": "creationTimestamp",
              "type": "uint256"
            },
            {
              "internalType": "uint256",
              "name": "resolutionTimestamp",
              "type": "uint256"
            },
            {
              "internalType": "bool",
              "name": "isPool",
              "type": "bool"
            }
          ],
          "internalType": "struct MarketManager.CoreMarketData",
          "name": "",
          "type": "tuple"
        }
      ],
      "stateMutability": "pure",
      "type": "function"
    },
    {
      "inputs": [],
      "name": "marketCount",
      "outputs": [
        {
          "internalType": "uint256",
          "name": "",
          "type": "uint256"
        }
      ],
      "stateMutability": "view",
      "type": "function"
    },
    {
      "inputs": [
        {
          "internalType": "uint256",
          "name": "",
          "type": "uint256"
        }
      ],
      "name": "markets",
      "outputs": [
        {
          "internalType": "contract SyntheticZCBPool",
          "name": "bondPool",
          "type": "address"
        },
        {
          "internalType": "contract ERC20",
          "name": "longZCB",
          "type": "address"
        },
        {
          "internalType": "contract ERC20",
          "name": "shortZCB",
          "type": "address"
        },
        {
          "internalType": "string",
          "name": "description",
          "type": "string"
        },
        {
          "internalType": "uint256",
          "name": "creationTimestamp",
          "type": "uint256"
        },
        {
          "internalType": "uint256",
          "name": "resolutionTimestamp",
          "type": "uint256"
        },
        {
          "internalType": "bool",
          "name": "isPool",
          "type": "bool"
        }
      ],
      "stateMutability": "view",
      "type": "function"
    },
    {
      "inputs": [
        {
          "internalType": "uint256",
          "name": "marketId",
          "type": "uint256"
        },
        {
          "internalType": "contract SyntheticZCBPool",
          "name": "bondPool",
          "type": "address"
        },
        {
          "internalType": "address",
          "name": "_longZCB",
          "type": "address"
        },
        {
          "internalType": "address",
          "name": "_shortZCB",
          "type": "address"
        },
        {
          "internalType": "string",
          "name": "_description",
          "type": "string"
        },
        {
          "internalType": "bool",
          "name": "isPool",
          "type": "bool"
        }
      ],
      "name": "newMarket",
      "outputs": [],
      "stateMutability": "nonpayable",
      "type": "function"
    },
    {
      "inputs": [],
      "name": "owner",
      "outputs": [
        {
          "internalType": "address",
          "name": "",
          "type": "address"
        }
      ],
      "stateMutability": "view",
      "type": "function"
    },
    {
      "inputs": [
        {
          "internalType": "uint256",
          "name": "",
          "type": "uint256"
        }
      ],
      "name": "parameters",
      "outputs": [
        {
          "internalType": "uint256",
          "name": "N",
          "type": "uint256"
        },
        {
          "internalType": "uint256",
          "name": "sigma",
          "type": "uint256"
        },
        {
          "internalType": "uint256",
          "name": "alpha",
          "type": "uint256"
        },
        {
          "internalType": "uint256",
          "name": "omega",
          "type": "uint256"
        },
        {
          "internalType": "uint256",
          "name": "delta",
          "type": "uint256"
        },
        {
          "internalType": "uint256",
          "name": "r",
          "type": "uint256"
        },
        {
          "internalType": "uint256",
          "name": "s",
          "type": "uint256"
        },
        {
          "internalType": "uint256",
          "name": "steak",
          "type": "uint256"
        }
      ],
      "stateMutability": "view",
      "type": "function"
    },
    {
      "inputs": [],
      "name": "queuedRepThreshold",
      "outputs": [
        {
          "internalType": "uint8",
          "name": "",
          "type": "uint8"
        }
      ],
      "stateMutability": "view",
      "type": "function"
    },
    {
      "inputs": [
        {
          "internalType": "address",
          "name": "",
          "type": "address"
        }
      ],
      "name": "queuedRepUpdates",
      "outputs": [
        {
          "internalType": "uint8",
          "name": "",
          "type": "uint8"
        }
      ],
      "stateMutability": "view",
      "type": "function"
    },
    {
      "inputs": [
        {
          "internalType": "uint256",
          "name": "marketId",
          "type": "uint256"
        }
      ],
      "name": "redeem",
      "outputs": [
        {
          "internalType": "uint256",
          "name": "collateral_redeem_amount",
          "type": "uint256"
        }
      ],
      "stateMutability": "nonpayable",
      "type": "function"
    },
    {
      "inputs": [
        {
          "internalType": "uint256",
          "name": "marketId",
          "type": "uint256"
        }
      ],
      "name": "redeemDeniedLeveredBond",
      "outputs": [
        {
          "internalType": "uint256",
          "name": "collateral_amount",
          "type": "uint256"
        }
      ],
      "stateMutability": "nonpayable",
      "type": "function"
    },
    {
      "inputs": [
        {
          "internalType": "uint256",
          "name": "marketId",
          "type": "uint256"
        },
        {
          "internalType": "bool",
          "name": "isLong",
          "type": "bool"
        }
      ],
      "name": "redeemDeniedMarket",
      "outputs": [],
      "stateMutability": "nonpayable",
      "type": "function"
    },
    {
      "inputs": [
        {
          "internalType": "uint256",
          "name": "marketId",
          "type": "uint256"
        }
      ],
      "name": "redeemLeveredBond",
      "outputs": [],
      "stateMutability": "nonpayable",
      "type": "function"
    },
    {
      "inputs": [
        {
          "internalType": "uint256",
          "name": "marketId",
          "type": "uint256"
        },
        {
          "internalType": "uint256",
          "name": "redeemAmount",
          "type": "uint256"
        }
      ],
      "name": "redeemPoolLongZCB",
      "outputs": [
        {
          "internalType": "uint256",
          "name": "collateral_redeem_amount",
          "type": "uint256"
        },
        {
          "internalType": "uint256",
          "name": "seniorAmount",
          "type": "uint256"
        }
      ],
      "stateMutability": "nonpayable",
      "type": "function"
    },
    {
      "inputs": [
        {
          "internalType": "uint256",
          "name": "marketId",
          "type": "uint256"
        }
      ],
      "name": "redeemShortZCB",
      "outputs": [
        {
          "internalType": "uint256",
          "name": "collateral_redeem_amount",
          "type": "uint256"
        }
      ],
      "stateMutability": "nonpayable",
      "type": "function"
    },
    {
      "inputs": [
        {
          "internalType": "uint256",
          "name": "",
          "type": "uint256"
        }
      ],
      "name": "redemption_prices",
      "outputs": [
        {
          "internalType": "uint256",
          "name": "",
          "type": "uint256"
        }
      ],
      "stateMutability": "view",
      "type": "function"
    },
    {
      "inputs": [
        {
          "internalType": "uint256",
          "name": "",
          "type": "uint256"
        }
      ],
      "name": "restriction_data",
      "outputs": [
        {
          "internalType": "bool",
          "name": "duringAssessment",
          "type": "bool"
        },
        {
          "internalType": "bool",
          "name": "onlyReputable",
          "type": "bool"
        },
        {
          "internalType": "bool",
          "name": "resolved",
          "type": "bool"
        },
        {
          "internalType": "bool",
          "name": "alive",
          "type": "bool"
        },
        {
          "internalType": "bool",
          "name": "atLoss",
          "type": "bool"
        },
        {
          "internalType": "uint256",
          "name": "base_budget",
          "type": "uint256"
        }
      ],
      "stateMutability": "view",
      "type": "function"
    },
    {
      "inputs": [
        {
          "internalType": "uint256",
          "name": "_marketId",
          "type": "uint256"
        },
        {
          "internalType": "uint256",
          "name": "_amountIn",
          "type": "uint256"
        },
        {
          "internalType": "uint256",
          "name": "_priceLimit",
          "type": "uint256"
        },
        {
          "internalType": "bytes",
          "name": "_tradeRequestData",
          "type": "bytes"
        }
      ],
      "name": "sellBond",
      "outputs": [
        {
          "internalType": "uint256",
          "name": "amountIn",
          "type": "uint256"
        },
        {
          "internalType": "uint256",
          "name": "amountOut",
          "type": "uint256"
        }
      ],
      "stateMutability": "nonpayable",
      "type": "function"
    },
    {
      "inputs": [
        {
          "components": [
            {
              "internalType": "uint256",
              "name": "N",
              "type": "uint256"
            },
            {
              "internalType": "uint256",
              "name": "sigma",
              "type": "uint256"
            },
            {
              "internalType": "uint256",
              "name": "alpha",
              "type": "uint256"
            },
            {
              "internalType": "uint256",
              "name": "omega",
              "type": "uint256"
            },
            {
              "internalType": "uint256",
              "name": "delta",
              "type": "uint256"
            },
            {
              "internalType": "uint256",
              "name": "r",
              "type": "uint256"
            },
            {
              "internalType": "uint256",
              "name": "s",
              "type": "uint256"
            },
            {
              "internalType": "uint256",
              "name": "steak",
              "type": "uint256"
            }
          ],
          "internalType": "struct MarketManager.MarketParameters",
          "name": "param",
          "type": "tuple"
        },
        {
          "internalType": "uint256",
          "name": "utilizationRate",
          "type": "uint256"
        },
        {
          "internalType": "uint256",
          "name": "marketId",
          "type": "uint256"
        }
      ],
      "name": "setParameters",
      "outputs": [],
      "stateMutability": "nonpayable",
      "type": "function"
    },
    {
      "inputs": [
        {
          "internalType": "address",
          "name": "_reputationManager",
          "type": "address"
        }
      ],
      "name": "setReputationManager",
      "outputs": [],
      "stateMutability": "nonpayable",
      "type": "function"
    },
    {
      "inputs": [
        {
          "internalType": "uint256",
          "name": "_marketId",
          "type": "uint256"
        },
        {
          "internalType": "uint256",
          "name": "_amountIn",
          "type": "uint256"
        },
        {
          "internalType": "uint256",
          "name": "_priceLimit",
          "type": "uint256"
        },
        {
          "internalType": "bytes",
          "name": "_tradeRequestData",
          "type": "bytes"
        }
      ],
      "name": "shortBond",
      "outputs": [
        {
          "internalType": "uint256",
          "name": "amountIn",
          "type": "uint256"
        },
        {
          "internalType": "uint256",
          "name": "amountOut",
          "type": "uint256"
        }
      ],
      "stateMutability": "nonpayable",
      "type": "function"
    },
    {
      "inputs": [
        {
          "internalType": "uint256",
          "name": "",
          "type": "uint256"
        },
        {
          "internalType": "address",
          "name": "",
          "type": "address"
        }
      ],
      "name": "shortTrades",
      "outputs": [
        {
          "internalType": "uint256",
          "name": "",
          "type": "uint256"
        }
      ],
      "stateMutability": "view",
      "type": "function"
    },
    {
      "inputs": [
        {
          "internalType": "uint256",
          "name": "amount",
          "type": "uint256"
        },
        {
          "internalType": "bytes",
          "name": "data",
          "type": "bytes"
        }
      ],
      "name": "tradeCallBack",
      "outputs": [],
      "stateMutability": "nonpayable",
      "type": "function"
    },
    {
      "inputs": [
        {
          "internalType": "uint256",
          "name": "marketId",
          "type": "uint256"
        },
        {
          "internalType": "uint256",
          "name": "collateral_required",
          "type": "uint256"
        },
        {
          "internalType": "uint256",
          "name": "zcb_for_sale",
          "type": "uint256"
        },
        {
          "internalType": "address",
          "name": "validator",
          "type": "address"
        }
      ],
      "name": "validatorApprove",
      "outputs": [],
      "stateMutability": "nonpayable",
      "type": "function"
    }
  ],
  "bytecode": {
    "object": "0x60806040523480156200001157600080fd5b5060405162006377380380620063778339810160408190526200003491620001e5565b60008054610100600160a81b0319166101006001600160a01b038716021790556002620000fc6040805160e0810182526000808252602082018190529181018290526060808201526080810182905260a0810182905260c08101919091526040518060e0016040528060006001600160a01b0316815260200160006001600160a01b0316815260200160006001600160a01b03168152602001604051806020016040528060008152508152602001600081526020016000815260200160001515815250905090565b8154600180820184556000938452602093849020835160079093020180546001600160a01b03199081166001600160a01b0394851617825594840151918101805486169284169290921790915560408301516002820180549095169216919091179092556060810151909190600382019062000179908262000301565b506080820151600482015560a0820151600582015560c0909101516006909101805491151560ff199092169190911790555050600380546001600160a01b0319163317905550620003cd915050565b80516001600160a01b0381168114620001e057600080fd5b919050565b600080600080600060a08688031215620001fe57600080fd5b6200020986620001c8565b94506200021960208701620001c8565b93506200022960408701620001c8565b6060870151608088015191945092506001600160401b03811681146200024e57600080fd5b809150509295509295909350565b634e487b7160e01b600052604160045260246000fd5b600181811c908216806200028757607f821691505b602082108103620002a857634e487b7160e01b600052602260045260246000fd5b50919050565b601f821115620002fc57600081815260208120601f850160051c81016020861015620002d75750805b601f850160051c820191505b81811015620002f857828155600101620002e3565b5050505b505050565b81516001600160401b038111156200031d576200031d6200025c565b62000335816200032e845462000272565b84620002ae565b602080601f8311600181146200036d5760008415620003545750858301515b600019600386901b1c1916600185901b178555620002f8565b600085815260208120601f198616915b828110156200039e578886015182559484019460019091019084016200037d565b5085821015620003bd5787850151600019600388901b60f8161c191681555b5050505050600190811b01905550565b615f9a80620003dd6000396000f3fe608060405234801561001057600080fd5b50600436106102745760003560e01c80637c9bc5ce11610151578063b900a0ed116100c3578063d572595311610087578063d572595314610859578063da520d3e1461086c578063db006a751461087f578063eb44fdd314610892578063ec979082146108a5578063f7cf78d7146108ad57600080fd5b8063b900a0ed14610791578063bdce3867146107b4578063c6ceb96b146107c7578063cabe2ae1146107e7578063d36287f4146107fa57600080fd5b80638da5cb5b116101155780638da5cb5b146106fc578063920f4e551461070f57806397dcec16146107225780639ec3341614610735578063a72be9a114610758578063b1283e771461076b57600080fd5b80637c9bc5ce14610600578063808d856b14610620578063839ee8f614610633578063897ca174146106485780638a6cac3d1461067357600080fd5b80634e042a59116101ea578063661f1cf5116101ae578063661f1cf514610581578063669623a6146105a157806371bd6a09146105b4578063727b887f146105c757806373124349146105da578063765cd23a146105ed57600080fd5b80634e042a591461052257806351ba65221461053557806356a837f41461054857806361fa5af51461055b57806363f960d81461056e57600080fd5b80632a4a9dd11161023c5780632a4a9dd1146103325780633db969f4146103c357806341741c06146103d657806346b6a387146103f05780634cb44087146104035780634cba8cde1461041657600080fd5b806303cc40eb14610279578063068bcd8d146102a6578063153542cc146102d1578063203b2434146102e4578063214b3987146102f9575b600080fd5b61028c6102873660046151b2565b6108c0565b604080519283526020830191909152015b60405180910390f35b6102b96102b4366004615213565b610b48565b6040516001600160a01b03909116815260200161029d565b6102b96102df366004615213565b610b7d565b6102f76102f2366004615252565b610bb5565b005b6103246103073660046152eb565b600860209081526000928352604080842090915290825290205481565b60405190815260200161029d565b610388610340366004615213565b60066020528060005260406000206000915090508060000154908060010154908060020154908060030154908060040154908060050154908060060154908060070154905088565b604080519889526020890197909752958701949094526060860192909252608085015260a084015260c083015260e08201526101000161029d565b61028c6103d13660046151b2565b610d63565b6103de600381565b60405160ff909116815260200161029d565b61028c6103fe3660046151b2565b610ec4565b6102f7610411366004615213565b6112fd565b6104cc610424366004615213565b6040805160c081018252600080825260208201819052918101829052606081018290526080810182905260a081019190915250600090815260056020908152604091829020825160c081018452815460ff8082161515835261010082048116151594830194909452620100008104841615159482019490945263010000008404831615156060820152640100000000909304909116151560808301526001015460a082015290565b60405161029d9190600060c08201905082511515825260208301511515602083015260408301511515604083015260608301511515606083015260808301511515608083015260a083015160a083015292915050565b6102f76105303660046153b0565b6113e4565b61028c6105433660046151b2565b6115cf565b6102f7610556366004615445565b611b3c565b6102f7610569366004615462565b611bac565b6102f761057c3660046154aa565b611c97565b61032461058f366004615213565b600a6020526000908152604090205481565b6102f76105af3660046154cf565b6122a7565b61028c6105c2366004615510565b61245a565b6103246105d5366004615213565b612887565b6103246105e8366004615510565b612b86565b6102f76105fb366004615213565b612ffd565b61032461060e366004615213565b60046020526000908152604090205481565b61032461062e366004615445565b61343e565b61063b6134d6565b60405161029d9190615582565b6103246106563660046152eb565b600960209081526000928352604080842090915290825290205481565b6106c5610681366004615213565b6005602052600090815260409020805460019091015460ff808316926101008104821692620100008204831692630100000083048116926401000000009004169086565b60408051961515875294151560208701529215159385019390935215156060840152901515608083015260a082015260c00161029d565b6003546102b9906001600160a01b031681565b6102b961071d366004615213565b613578565b610324610730366004615213565b6135b0565b610748610743366004615213565b6136ac565b604051901515815260200161029d565b610324610766366004615609565b6136e3565b61077e610779366004615213565b613705565b60405161029d979695949392919061563e565b6103de61079f366004615445565b600b6020526000908152604090205460ff1681565b6103246107c2366004615213565b6137f1565b6107da6107d5366004615213565b613b16565b60405161029d9190615693565b6102f76107f5366004615213565b613bcb565b6108396108083660046152eb565b600c6020908152600092835260408084209091529082529020546001600160801b0380821691600160801b90041682565b604080516001600160801b0393841681529290911660208301520161029d565b6103246108673660046152eb565b613c59565b6102f761087a3660046156ec565b613d18565b61032461088d366004615213565b613dfd565b61063b6108a0366004615213565b6142b9565b600254610324565b61028c6108bb366004615738565b61441f565b60008054819060ff16156108ef5760405162461bcd60e51b81526004016108e69061576a565b60405180910390fd5b6000805460ff1916600117815560028054899081106109105761091061578f565b600091825260208083206007909202909101548a835260059091526040909120546001600160a01b03909116915060ff16156109f7576001600160a01b03811663556769ba60006109608a6157bb565b604080513360208201528b91015b6040516020818303038152906040526040518563ffffffff1660e01b815260040161099c94939291906157d7565b60408051808303816000875af11580156109ba573d6000803e3d6000fd5b505050506040513d601f19601f820116820180604052508101906109de9190615808565b935091506109f288338486600160006149eb565b610b31565b600080610a068688018861582c565b915091508015610ab1576001600160a01b03831663556769ba6000610a2a8c6157bb565b604080513360208201528d91015b6040516020818303038152906040526040518563ffffffff1660e01b8152600401610a6694939291906157d7565b60408051808303816000875af1158015610a84573d6000803e3d6000fd5b505050506040513d601f19601f82011682018060405250810190610aa89190615808565b95509350610b2e565b600080846001600160a01b031663e7ca189a858d6000336040518563ffffffff1660e01b8152600401610ae79493929190615858565b60408051808303816000875af1158015610b05573d6000803e3d6000fd5b505050506040513d601f19601f82011682018060405250810190610b299190615884565b505050505b50505b506000805460ff1916905590969095509350505050565b600060028281548110610b5d57610b5d61578f565b60009182526020909120600790910201546001600160a01b031692915050565b600060028281548110610b9257610b9261578f565b60009182526020909120600160079092020101546001600160a01b031692915050565b60005461010090046001600160a01b0316331480610bdd57506003546001600160a01b031633145b80610be757503330145b610c035760405162461bcd60e51b81526004016108e6906158b5565b600042905060026040518060e00160405280896001600160a01b03168152602001886001600160a01b03168152602001876001600160a01b0316815260200186868080601f01602080910402602001604051908101604052809392919081815260200183838082843760009201829052509385525050506020808301869052604080840183905287151560609485015285546001818101885596845292829020855160079094020180546001600160a01b039485166001600160a01b0319918216178255928601519681018054978516978416979097179096558401516002860180549190931691161790558101519091906003820190610d049082615962565b506080820151600482015560a0820151600582015560c0909101516006909101805460ff19169115159190911790556000610d49670de0b6b3a76400006103e8615a22565b9050610d588960018084614ce1565b505050505050505050565b60008054819060ff1615610d895760405162461bcd60e51b81526004016108e69061576a565b6000805460ff19166001179055610da1338789614d60565b610dda5760405162461bcd60e51b815260206004820152600a60248201526914995cdd1c9a58dd195960b21b60448201526064016108e6565b600060028881548110610def57610def61578f565b600091825260208083206007909202909101548a835260059091526040909120546001600160a01b03909116915060ff1615610e4d57604080513360208201526001600160a01b0383169163244d59cb916000918b918b910161096e565b600080610e5c8688018861582c565b915091508015610e8e57604080513360208201526001600160a01b0385169163244d59cb916000918d918d9101610a38565b600080846001600160a01b03166368087cc3858d6000336040518563ffffffff1660e01b8152600401610ae79493929190615858565b60008054819060ff1615610eea5760405162461bcd60e51b81526004016108e69061576a565b6000805460ff191660011781558781526005602052604090205462010000900460ff1615610f2a5760405162461bcd60e51b81526004016108e690615a39565b610f35338789614d60565b610f6e5760405162461bcd60e51b815260206004820152600a60248201526914995cdd1c9a58dd195960b21b60448201526064016108e6565b600060028881548110610f8357610f8361578f565b600091825260208083206007909202909101548a835260059091526040909120546001600160a01b03909116915060ff16156110635760408051336020808301919091528251808303909101815281830192839052632ab3b4dd60e11b9092526001600160a01b0383169163556769ba91611007916001918c918c916044016157d7565b60408051808303816000875af1158015611025573d6000803e3d6000fd5b505050506040513d601f19601f820116820180604052508101906110499190615808565b909350915061105e88338560008060016149eb565b611208565b6000546040516308a8333f60e01b8152600481018a90526101009091046001600160a01b0316906308a8333f90602401602060405180830381865afa1580156110b0573d6000803e3d6000fd5b505050506040513d601f19601f820116820180604052508101906110d49190615a5c565b506000806110e48688018861582c565b9150915080156111885760408051336020808301919091528251808303909101815281830192839052632ab3b4dd60e11b9092526001600160a01b0385169163556769ba9161113c916001918e918e916044016157d7565b60408051808303816000875af115801561115a573d6000803e3d6000fd5b505050506040513d601f19601f8201168201806040525081019061117e9190615808565b9095509350611205565b600080846001600160a01b031663e7ca189a858d6001336040518563ffffffff1660e01b81526004016111be9493929190615858565b60408051808303816000875af11580156111dc573d6000803e3d6000fd5b505050506040513d601f19601f820116820180604052508101906112009190615884565b505050505b50505b600160009054906101000a90046001600160a01b03166001600160a01b0316639bf7927d338a846001600160a01b03166311e715d66040518163ffffffff1660e01b8152600401602060405180830381865afa15801561126c573d6000803e3d6000fd5b505050506040513d601f19601f820116820180604052508101906112909190615a5c565b6001886040518663ffffffff1660e01b81526004016112b3959493929190615a75565b600060405180830381600087803b1580156112cd57600080fd5b505af11580156112e1573d6000803e3d6000fd5b50506000805460ff191690555092989197509095505050505050565b60005461010090046001600160a01b031633148061132557506003546001600160a01b031633145b8061132f57503330145b61134b5760405162461bcd60e51b81526004016108e6906158b5565b60008181526005602052604090205460ff166113975760405162461bcd60e51b815260206004820152600b60248201526a08585cdcd95cdcdb595b9d60aa1b60448201526064016108e6565b600081815260056020526040808220805463ffff00001916620100001781559051909183917f38274fdcd6150638fa33375a76a55bc5b507aa04639aef21fcf7a1bf0b9c095d9190a25050565b60005461010090046001600160a01b031633148061140c57506003546001600160a01b031633145b8061141657503330145b6114325760405162461bcd60e51b81526004016108e6906158b5565b600160009054906101000a90046001600160a01b03166001600160a01b03166357b613606040518163ffffffff1660e01b8152600401600060405180830381865afa158015611485573d6000803e3d6000fd5b505050506040513d6000823e601f3d908101601f191682016040526114ad9190810190615ab0565b51835111156114fe5760405162461bcd60e51b815260206004820152601860248201527f6e6f7420656e6f7567682072617465642074726164657273000000000000000060448201526064016108e6565b60008181526006602081815260409283902086518155908601516001820155918501516002830155606085015160038301556080850151600483015560a0850151600583015560c08501519082015560e084015160079091015561157861156d83670de0b6b3a7640000615b62565b60c085015190614d9f565b6006600083815260200190815260200160002060060181905550807fc6be93ca0e8d44d5b418bde056f5e013750978c7573c74a4db7dd18754660c14846040516115c29190615693565b60405180910390a2505050565b60008054819060ff16156115f55760405162461bcd60e51b81526004016108e69061576a565b6000805460ff191660011781558781526005602052604090205462010000900460ff16156116355760405162461bcd60e51b81526004016108e690615a39565b611640338789614dbb565b6000600288815481106116555761165561578f565b60009182526020918290206040805160e081018252600790930290910180546001600160a01b03908116845260018201548116948401949094526002810154909316908201526003820180549192916060840191906116b3906158da565b80601f01602080910402602001604051908101604052809291908181526020018280546116df906158da565b801561172c5780601f106117015761010080835404028352916020019161172c565b820191906000526020600020905b81548152906001019060200180831161170f57829003601f168201915b5050509183525050600482015460208083019190915260058084015460408085019190915260069094015460ff9081161515606090940193909352845160008e815291909252929092205492935090911615611a51576040805133602080830191909152825180830390910181528183019283905263244d59cb60e01b9092526001600160a01b0383169163244d59cb916117d0916001918d918d916044016157d7565b60408051808303816000875af11580156117ee573d6000803e3d6000fd5b505050506040513d601f19601f820116820180604052508101906118129190615808565b909450925061182789338660006001806149eb565b6001546001600160a01b0316632e1a65d3338b86886118468385613c59565b60c08901516040516001600160e01b031960e089901b1681526001600160a01b0390961660048701526024860194909452604485019290925260648401526084830152151560a482015260c401600060405180830381600087803b1580156118ad57600080fd5b505af11580156118c1573d6000803e3d6000fd5b50505060008a815260056020526040902054610100900460ff16159050611a4c576000898152600a60205260408082205491549051632500ed8d60e21b8152600481018c90526119f29161010090046001600160a01b031690639403b63490602401602060405180830381865afa158015611940573d6000803e3d6000fd5b505050506040513d601f19601f820116820180604052508101906119649190615b75565b6001600160a01b0316639ec4d40e8c6040518263ffffffff1660e01b815260040161199191815260200190565b600060405180830381865afa1580156119ae573d6000803e3d6000fd5b505050506040513d6000823e601f3d908101601f191682016040526119d69190810190615c94565b60c0015160008c81526006602052604090206003015490614d9f565b8110611a4a5760008a81526005602052604090819020805461ff001916815590518b917f638289bd0053d37020d3cfacc73bb398f0d6702821a30abdcaed824bb4a8ebb991611a419190615dba565b60405180910390a25b505b611ae7565b6040805133602080830191909152825180830390910181528183019283905263244d59cb60e01b9092526001600160a01b0383169163244d59cb91611a9f916001918d918d916044016157d7565b60408051808303816000875af1158015611abd573d6000803e3d6000fd5b505050506040513d601f19601f82011682018060405250810190611ae19190615808565b90945092505b604080518581526020810185905233918b917fd6ee91448c6836b63f1abdfff873fbd5c83e4b0e10260d5646be82e2148cd49b910160405180910390a350506000805460ff1916905590969095509350505050565b60005461010090046001600160a01b0316331480611b6457506003546001600160a01b031633145b80611b6e57503330145b611b8a5760405162461bcd60e51b81526004016108e6906158b5565b600180546001600160a01b0319166001600160a01b0392909216919091179055565b60005461010090046001600160a01b0316331480611bd457506003546001600160a01b031633145b80611bde57503330145b611bfa5760405162461bcd60e51b81526004016108e6906158b5565b6000848152600560209081526040808320805464ff00ff000019166201000087151590810264ff000000001916919091176401000000008915159081029190911763ff0000001916909255600484529382902085905581519081529182019290925290810182905284907fd06c6eb2c866c530dc5ab4b6479bdfd8db2d514363444eb65154e19c864563df9060600160405180910390a250505050565b60005460ff1615611cba5760405162461bcd60e51b81526004016108e69061576a565b6000805460ff19166001178155828152600560205260409020546301000000900460ff1615611d2b5760405162461bcd60e51b815260206004820152601e60248201527f4d61726b6574205374696c6c20447572696e67204173736573736d656e74000060448201526064016108e6565b60008281526005602052604090205460ff16611d895760405162461bcd60e51b815260206004820152601860248201527f4d61726b657420686173206265656e20617070726f766564000000000000000060448201526064016108e6565b600060028381548110611d9e57611d9e61578f565b600091825260208220600790910201546001600160a01b031691508083611f1d5760028581548110611dd257611dd261578f565b60009182526020909120600790910201600201546040516370a0823160e01b81523360048201526001600160a01b03909116906370a0823190602401602060405180830381865afa158015611e2b573d6000803e3d6000fd5b505050506040513d601f19601f82011682018060405250810190611e4f9190615a5c565b905060008581526009602090815260408083203380855290835281842080549085905582518a815293840191909152908201929092529092507f06c254f742aaf3565852bdb3bb0ac74a536ece577c01929d15a74bc398702d7c9060600160405180910390a160405163c93ac3ed60e01b81526001600160a01b0384169063c93ac3ed90611ee69033908590600090600401615e15565b600060405180830381600087803b158015611f0057600080fd5b505af1158015611f14573d6000803e3d6000fd5b5050505061222c565b60028581548110611f3057611f3061578f565b60009182526020909120600790910201600101546040516370a0823160e01b81523360048201526001600160a01b03909116906370a0823190602401602060405180830381865afa158015611f89573d6000803e3d6000fd5b505050506040513d601f19601f82011682018060405250810190611fad9190615a5c565b90506000546040516323f2a73f60e01b8152600481018790523360248201526101009091046001600160a01b0316906323f2a73f90604401602060405180830381865afa158015612002573d6000803e3d6000fd5b505050506040513d601f19601f820116820180604052508101906120269190615e38565b80156120a4575060005460405163046b1ab560e31b8152600481018790523360248201526101009091046001600160a01b031690632358d5a890604401602060405180830381865afa158015612080573d6000803e3d6000fd5b505050506040513d601f19601f820116820180604052508101906120a49190615e38565b1561212957600054604051634187150160e11b8152600481018790523360248201526101009091046001600160a01b03169063830e2a02906044016020604051808303816000875af11580156120fe573d6000803e3d6000fd5b505050506040513d601f19601f820116820180604052508101906121229190615a5c565b9150612189565b60008581526008602090815260408083203380855290835281842080549490558151898152928301526001908201529092507f06c254f742aaf3565852bdb3bb0ac74a536ece577c01929d15a74bc398702d7c9060600160405180910390a15b60405163c93ac3ed60e01b81526001600160a01b0384169063c93ac3ed906121ba9033908590600190600401615e15565b600060405180830381600087803b1580156121d457600080fd5b505af11580156121e8573d6000803e3d6000fd5b5050336000908152600b602052604090205460ff1615915061222c905057336000908152600b60205260409020805460ff19811660ff918216600019019091161790555b600054604051631e1fa3a760e31b81526101009091046001600160a01b03169063f0fd1d389061226490859033908a90600401615e55565b600060405180830381600087803b15801561227e57600080fd5b505af1158015612292573d6000803e3d6000fd5b50506000805460ff1916905550505050505050565b60005461010090046001600160a01b03163314806122cf57506003546001600160a01b031633145b806122d957503330145b6122f55760405162461bcd60e51b81526004016108e6906158b5565b6000848152600a602052604081208054859290612313908490615e74565b909155506000905061232485610b48565b9050806001600160a01b03166390f817026040518163ffffffff1660e01b8152600401602060405180830381865afa158015612364573d6000803e3d6000fd5b505050506040513d601f19601f820116820180604052508101906123889190615b75565b6001600160a01b03166323b872dd8383876040518463ffffffff1660e01b81526004016123b793929190615e87565b6020604051808303816000875af11580156123d6573d6000803e3d6000fd5b505050506040513d601f19601f820116820180604052508101906123fa9190615e38565b5060405163681504cd60e01b81526001600160a01b0383811660048301526024820185905282169063681504cd906044015b600060405180830381600087803b15801561244657600080fd5b505af1158015610d58573d6000803e3d6000fd5b60008054819060ff16156124805760405162461bcd60e51b81526004016108e69061576a565b60008054600160ff1990911617808255604051632500ed8d60e21b8152600481018790526101009091046001600160a01b031690639403b63490602401602060405180830381865afa1580156124da573d6000803e3d6000fd5b505050506040513d601f19601f820116820180604052508101906124fe9190615b75565b9050600285815481106125135761251361578f565b600091825260209091206006600790920201015460ff1661255e5760405162461bcd60e51b8152602060048201526005602482015264085c1bdbdb60da1b60448201526064016108e6565b83600286815481106125725761257261578f565b60009182526020909120600790910201600101546040516370a0823160e01b81523360048201526001600160a01b03909116906370a0823190602401602060405180830381865afa1580156125cb573d6000803e3d6000fd5b505050506040513d601f19601f820116820180604052508101906125ef9190615a5c565b10156126305760405162461bcd60e51b815260206004820152601060248201526f1a5b9cdd59999a58da595b9d0818985b60821b60448201526064016108e6565b6000806000836001600160a01b031663ca13e450896040518263ffffffff1660e01b815260040161266391815260200190565b606060405180830381865afa158015612680573d6000803e3d6000fd5b505050506040513d601f19601f820116820180604052508101906126a49190615eab565b919450925090506126b58288614d9f565b95506126cb836126c58984614d9f565b90614d9f565b6040516372661f3b60e11b8152600481018a905260248101889052336044820152606481018290529095506001600160a01b0385169063e4cc3e7690608401600060405180830381600087803b15801561272457600080fd5b505af1158015612738573d6000803e3d6000fd5b5050600154604051639bf7927d60e01b81526001600160a01b039091169250639bf7927d91506127759033908c9087906000908e90600401615a75565b600060405180830381600087803b15801561278f57600080fd5b505af11580156127a3573d6000803e3d6000fd5b5050336000908152600b602052604090205460ff161591506127e7905057336000908152600b60205260409020805460ff19811660ff918216600019019091161790555b600288815481106127fa576127fa61578f565b600091825260209091206007909102015460405163c93ac3ed60e01b81526001600160a01b039091169063c93ac3ed9061283d9033908b90600190600401615e15565b600060405180830381600087803b15801561285757600080fd5b505af115801561286b573d6000803e3d6000fd5b50506000805460ff191690555095989497509395505050505050565b6000805460ff16156128ab5760405162461bcd60e51b81526004016108e69061576a565b6000805460ff19166001178155828152600560205260409020546301000000900460ff16156129055760405162461bcd60e51b815260206004820152600660248201526541637469766560d01b60448201526064016108e6565b60008281526005602052604090205462010000900460ff166129395760405162461bcd60e51b81526004016108e690615a39565b600082815260076020908152604080832033845290915290205460ff16156129735760405162461bcd60e51b81526004016108e690615ed9565b60008281526007602090815260408083203384529091528120805460ff1916600117905560028054849081106129ab576129ab61578f565b60009182526020822060079091020154600280546001600160a01b03909216935090859081106129dd576129dd61578f565b60009182526020909120600790910201600201546040516370a0823160e01b81523360048201526001600160a01b03909116906370a0823190602401602060405180830381865afa158015612a36573d6000803e3d6000fd5b505050506040513d601f19601f82011682018060405250810190612a5a9190615a5c565b600085815260046020526040812054919250670de0b6b3a7640000821015612a9357612a8e82670de0b6b3a7640000615b62565b612a96565b60005b9050612aa28184614d9f565b60405163c93ac3ed60e01b81529095506001600160a01b0385169063c93ac3ed90612ad69033908790600090600401615e15565b600060405180830381600087803b158015612af057600080fd5b505af1158015612b04573d6000803e3d6000fd5b5050600054604051631e1fa3a760e31b81526101009091046001600160a01b0316925063f0fd1d389150612b4090889033908b90600401615e55565b600060405180830381600087803b158015612b5a57600080fd5b505af1158015612b6e573d6000803e3d6000fd5b50506000805460ff1916905550949695505050505050565b6000805460ff1615612baa5760405162461bcd60e51b81526004016108e69061576a565b6000805460ff191660011781558381526005602052604090205460ff1615612c035760405162461bcd60e51b815260206004820152600c60248201526b141c9948105c1c1c9bdd985b60a21b60448201526064016108e6565b612c0e338385614eff565b60008054604051632500ed8d60e21b8152600481018690526101009091046001600160a01b031690639403b63490602401602060405180830381865afa158015612c5c573d6000803e3d6000fd5b505050506040513d601f19601f82011682018060405250810190612c809190615b75565b9050600060028581548110612c9757612c9761578f565b6000918252602091829020600790910201546040805163487c0b8160e11b815290516001600160a01b03909216926390f81702926004808401938290030181865afa158015612cea573d6000803e3d6000fd5b505050506040513d601f19601f82011682018060405250810190612d0e9190615b75565b90506000806000846001600160a01b031663ca13e450896040518263ffffffff1660e01b8152600401612d4391815260200190565b606060405180830381865afa158015612d60573d6000803e3d6000fd5b505050506040513d601f19601f82011682018060405250810190612d849190615eab565b925092509250836001600160a01b03166323b872dd33308a6040518463ffffffff1660e01b8152600401612dba93929190615e87565b6020604051808303816000875af1158015612dd9573d6000803e3d6000fd5b505050506040513d601f19601f82011682018060405250810190612dfd9190615e38565b50612e088783614ff1565b955060028881548110612e1d57612e1d61578f565b600091825260209091206007909102015460405163681504cd60e01b8152336004820152602481018890526001600160a01b039091169063681504cd90604401600060405180830381600087803b158015612e7757600080fd5b505af1158015612e8b573d6000803e3d6000fd5b50505050846001600160a01b03166334928ace89612ec1866126c586670de0b6b3a7640000612eba9190615e74565b8c90614d9f565b6040516001600160e01b031960e085901b1681526004810192909252602482015260016044820152606401600060405180830381600087803b158015612f0657600080fd5b505af1158015612f1a573d6000803e3d6000fd5b50505050612f4e6040518060400160405280600c81526020016b77686174206368616e67657360a01b815250838989615006565b6001546001600160a01b0316632e1a65d3338a898b612f6d8385613c59565b6040516001600160e01b031960e088901b1681526001600160a01b0390951660048601526024850193909352604484019190915260648301526084820152600160a482015260c401600060405180830381600087803b158015612fcf57600080fd5b505af1158015612fe3573d6000803e3d6000fd5b50506000805460ff19169055509598975050505050505050565b6000818152600560205260409020546301000000900460ff16156130335760405162461bcd60e51b81526004016108e690615efb565b60008181526005602052604090205462010000900460ff166130675760405162461bcd60e51b81526004016108e690615a39565b600081815260076020908152604080832033845290915290205460ff16156130a15760405162461bcd60e51b81526004016108e690615ed9565b6000818152600760209081526040808320338085529252808320805460ff19166001179055915491516323f2a73f60e01b81526101009092046001600160a01b0316916323f2a73f9161310b918591906004019182526001600160a01b0316602082015260400190565b602060405180830381865afa158015613128573d6000803e3d6000fd5b505050506040513d601f19601f8201168201806040525081019061314c9190615e38565b156131ba57600054604051638f5709a560e01b8152600481018390523360248201526101009091046001600160a01b031690638f5709a590604401600060405180830381600087803b1580156131a157600080fd5b505af11580156131b5573d6000803e3d6000fd5b505050505b6000818152600c602090815260408083203384528252918290208251808401909352546001600160801b038082168452600160801b9091041690820181905261322b5760405162461bcd60e51b815260206004820152600360248201526222a92960e91b60448201526064016108e6565b6000828152600460209081526040822054908301519091906132579083906001600160801b0316614d9f565b9050600083600001516001600160801b031682101561327757600061328c565b835161328c906001600160801b031683615b62565b6000546040516323f2a73f60e01b81526004810188905233602482015291925061010090046001600160a01b0316906323f2a73f90604401602060405180830381865afa1580156132e1573d6000803e3d6000fd5b505050506040513d601f19601f820116820180604052508101906133059190615e38565b50336000908152600b602052604090205460ff161561334457336000908152600b60205260409020805460ff19811660ff918216600019019091161790555b6000858152600c60209081526040808320338452909152902080546001600160801b03169055600280548690811061337e5761337e61578f565b600091825260209182902060079190910201549085015160405163c93ac3ed60e01b81523060048201526001600160801b039091166024820152600160448201526001600160a01b039091169063c93ac3ed90606401600060405180830381600087803b1580156133ee57600080fd5b505af1158015613402573d6000803e3d6000fd5b5050600054604051631e1fa3a760e31b81526101009091046001600160a01b0316925063f0fd1d38915061242c90849033908a90600401615e55565b600080546040516308ad90a560e01b81526001600160a01b0384811660048301526134d092670de0b6b3a764000092610100909104909116906308ad90a590602401602060405180830381865afa15801561349d573d6000803e3d6000fd5b505050506040513d601f19601f820116820180604052508101906134c19190615a5c565b6134cb9190615a22565b61504f565b92915050565b6040805160e0810182526000808252602082018190529181018290526060808201526080810182905260a0810182905260c08101919091526040518060e0016040528060006001600160a01b0316815260200160006001600160a01b0316815260200160006001600160a01b03168152602001604051806020016040528060008152508152602001600081526020016000815260200160001515815250905090565b60006002828154811061358d5761358d61578f565b60009182526020909120600260079092020101546001600160a01b031692915050565b600081815260056020526040812054610100900460ff16156135d457506001919050565b60008281526005602052604090205460ff1680156136065750600082815260056020526040902054610100900460ff16155b156136915760005460405163b743939b60e01b8152600481018490526101009091046001600160a01b03169063b743939b90602401602060405180830381865afa158015613658573d6000803e3d6000fd5b505050506040513d601f19601f8201168201806040525081019061367c9190615e38565b1561368957506003919050565b506002919050565b61369a826136ac565b156136a757506004919050565b919050565b60008181526005602052604081205460ff161580156134d05750506000908152600560205260409020546301000000900460ff1690565b600080600285815481106136f9576136f961578f565b50600052509392505050565b6002818154811061371557600080fd5b600091825260209091206007909102018054600182015460028301546003840180546001600160a01b03948516965092841694939091169291613757906158da565b80601f0160208091040260200160405190810160405280929190818152602001828054613783906158da565b80156137d05780601f106137a5576101008083540402835291602001916137d0565b820191906000526020600020905b8154815290600101906020018083116137b357829003601f168201915b50505050600483015460058401546006909401549293909290915060ff1687565b6000818152600c6020908152604080832033845282528083208151808301909252546001600160801b038082168352600160801b90910416918101829052906138625760405162461bcd60e51b815260206004820152600360248201526222a92960e91b60448201526064016108e6565b6000838152600c6020908152604080832033808552925280832080546001600160801b03169055915491516323f2a73f60e01b81526101009092046001600160a01b0316916323f2a73f916138ce918791906004019182526001600160a01b0316602082015260400190565b602060405180830381865afa1580156138eb573d6000803e3d6000fd5b505050506040513d601f19601f8201168201806040525081019061390f9190615e38565b1561399457600054604051634187150160e11b8152600481018590523360248201526101009091046001600160a01b03169063830e2a02906044016020604051808303816000875af1158015613969573d6000803e3d6000fd5b505050506040513d601f19601f8201168201806040525081019061398d9190615a5c565b91506139b5565b60008381526008602090815260408083203384529091528120805491905591505b600283815481106139c8576139c861578f565b600091825260209182902060079190910201549082015160405163c93ac3ed60e01b81523060048201526001600160801b039091166024820152600160448201526001600160a01b039091169063c93ac3ed90606401600060405180830381600087803b158015613a3857600080fd5b505af1158015613a4c573d6000803e3d6000fd5b5050336000908152600b602052604090205460ff16159150613a90905057336000908152600b60205260409020805460ff19811660ff918216600019019091161790555b60005481516101009091046001600160a01b03169063f0fd1d3890613abe906001600160801b031685615b62565b33866040518463ffffffff1660e01b8152600401613ade93929190615e55565b600060405180830381600087803b158015613af857600080fd5b505af1158015613b0c573d6000803e3d6000fd5b5050505050919050565b613b5e60405180610100016040528060008152602001600081526020016000815260200160008152602001600081526020016000815260200160008152602001600081525090565b50600090815260066020818152604092839020835161010081018552815481526001820154928101929092526002810154938201939093526003830154606082015260048301546080820152600583015460a08201529082015460c082015260079091015460e082015290565b60005461010090046001600160a01b0316331480613bf357506003546001600160a01b031633145b80613bfd57503330145b613c195760405162461bcd60e51b81526004016108e6906158b5565b600081815260056020526040808220805460ff191690555182917fd92bb9e130abbedd10c99eb70af2c4bf2d534f985df768e29fd28e1593e9d20291a250565b6001546040516344c7439360e01b81526001600160a01b03838116600483015260009283929116906344c7439390602401602060405180830381865afa158015613ca7573d6000803e3d6000fd5b505050506040513d601f19601f82011682018060405250810190613ccb9190615a5c565b905080600003613cdf5760009150506134d0565b613cf46134cb670de0b6b3a764000083615a22565b600085815260056020526040902060010154613d109190615e74565b949350505050565b336001600160a01b03166390f817026040518163ffffffff1660e01b8152600401602060405180830381865afa158015613d56573d6000803e3d6000fd5b505050506040513d601f19601f82011682018060405250810190613d7a9190615b75565b6001600160a01b03166323b872dd613d9483850185615445565b33866040518463ffffffff1660e01b8152600401613db493929190615e87565b6020604051808303816000875af1158015613dd3573d6000803e3d6000fd5b505050506040513d601f19601f82011682018060405250810190613df79190615e38565b50505050565b6000805460ff1615613e215760405162461bcd60e51b81526004016108e69061576a565b6000805460ff19166001178155828152600560205260409020546301000000900460ff1615613e625760405162461bcd60e51b81526004016108e690615efb565b60008281526005602052604090205462010000900460ff16613e965760405162461bcd60e51b81526004016108e690615a39565b600082815260076020908152604080832033845290915290205460ff1615613ed05760405162461bcd60e51b81526004016108e690615ed9565b60008281526007602090815260408083203384529091528120805460ff191660011790556002805484908110613f0857613f0861578f565b600091825260208220600791909102015490546040516323f2a73f60e01b8152600481018690523360248201526001600160a01b039283169350610100909104909116906323f2a73f90604401602060405180830381865afa158015613f72573d6000803e3d6000fd5b505050506040513d601f19601f82011682018060405250810190613f969190615e38565b1561400457600054604051638f5709a560e01b8152600481018590523360248201526101009091046001600160a01b031690638f5709a590604401600060405180830381600087803b158015613feb57600080fd5b505af1158015613fff573d6000803e3d6000fd5b505050505b6000600284815481106140195761401961578f565b60009182526020909120600790910201600101546040516370a0823160e01b81523360048201526001600160a01b03909116906370a0823190602401602060405180830381865afa158015614072573d6000803e3d6000fd5b505050506040513d601f19601f820116820180604052508101906140969190615a5c565b6000858152600460205260409020549091506140b28183614d9f565b6000546040516323f2a73f60e01b81526004810188905233602482015291955061010090046001600160a01b0316906323f2a73f90604401602060405180830381865afa158015614107573d6000803e3d6000fd5b505050506040513d601f19601f8201168201806040525081019061412b9190615e38565b61419b57600154604051639bf7927d60e01b81526001600160a01b0390911690639bf7927d90614168903390899086906000908990600401615a75565b600060405180830381600087803b15801561418257600080fd5b505af1158015614196573d6000803e3d6000fd5b505050505b336000908152600b602052604090205460ff16156141d957336000908152600b60205260409020805460ff19811660ff918216600019019091161790555b60405163c93ac3ed60e01b81526001600160a01b0384169063c93ac3ed9061420a9033908690600190600401615e15565b600060405180830381600087803b15801561422457600080fd5b505af1158015614238573d6000803e3d6000fd5b5050600054604051631e1fa3a760e31b81526101009091046001600160a01b0316925063f0fd1d38915061427490879033908a90600401615e55565b600060405180830381600087803b15801561428e57600080fd5b505af11580156142a2573d6000803e3d6000fd5b50506000805460ff19169055509395945050505050565b6040805160e0810182526000808252602082018190529181018290526060808201526080810182905260a0810182905260c08101919091526002548210614302576134d06134d6565b600282815481106143155761431561578f565b60009182526020918290206040805160e081018252600790930290910180546001600160a01b0390811684526001820154811694840194909452600281015490931690820152600382018054919291606084019190614373906158da565b80601f016020809104026020016040519081016040528092919081815260200182805461439f906158da565b80156143ec5780601f106143c1576101008083540402835291602001916143ec565b820191906000526020600020905b8154815290600101906020018083116143cf57829003601f168201915b5050509183525050600482015460208201526005820154604082015260069091015460ff16151560609091015292915050565b60008054819060ff16156144455760405162461bcd60e51b81526004016108e69061576a565b6000805460ff191660011781558681526005602052604090205460ff166144995760405162461bcd60e51b8152602060048201526008602482015267283430b9b2a2a92960c11b60448201526064016108e6565b60008681526005602052604090205462010000900460ff16156144ce5760405162461bcd60e51b81526004016108e690615a39565b6144d73361343e565b83111580156144ee5750670de0b6b3a76400008310155b6145265760405162461bcd60e51b8152602060048201526009602482015268216c6576657261676560b81b60448201526064016108e6565b614531338688614dbb565b6000600287815481106145465761454661578f565b600091825260208220600790910201546001600160a01b0316915061456b87866150f3565b9050816001600160a01b03166390f817026040518163ffffffff1660e01b8152600401602060405180830381865afa1580156145ab573d6000803e3d6000fd5b505050506040513d601f19601f820116820180604052508101906145cf9190615b75565b6001600160a01b03166323b872dd3330846040518463ffffffff1660e01b81526004016145fe93929190615e87565b6020604051808303816000875af115801561461d573d6000803e3d6000fd5b505050506040513d601f19601f820116820180604052508101906146419190615e38565b5060005461010090046001600160a01b031663da0a697f89614663848b615b62565b6040516001600160e01b031960e085901b16815260048101929092526024820152604401600060405180830381600087803b1580156146a157600080fd5b505af11580156146b5573d6000803e3d6000fd5b50505050816001600160a01b03166390f817026040518163ffffffff1660e01b8152600401602060405180830381865afa1580156146f7573d6000803e3d6000fd5b505050506040513d601f19601f8201168201806040525081019061471b9190615b75565b60405163095ea7b360e01b8152306004820152602481018990526001600160a01b03919091169063095ea7b3906044016020604051808303816000875af115801561476a573d6000803e3d6000fd5b505050506040513d601f19601f8201168201806040525081019061478e9190615e38565b506040805130602080830191909152825180830390910181528183019283905263244d59cb60e01b9092526001600160a01b0384169163244d59cb916147dd916001918c918c916044016157d7565b60408051808303816000875af11580156147fb573d6000803e3d6000fd5b505050506040513d601f19601f8201168201806040525081019061481f9190615808565b909450925061483488338960006001806149eb565b600088815260056020526040902054610100900460ff1615614980576000888152600a60205260408082205491549051632500ed8d60e21b8152600481018b90526149609161010090046001600160a01b031690639403b63490602401602060405180830381865afa1580156148ae573d6000803e3d6000fd5b505050506040513d601f19601f820116820180604052508101906148d29190615b75565b6001600160a01b0316639ec4d40e8b6040518263ffffffff1660e01b81526004016148ff91815260200190565b600060405180830381865afa15801561491c573d6000803e3d6000fd5b505050506040513d6000823e601f3d908101601f191682016040526149449190810190615c94565b60c0015160008b81526006602052604090206003015490614d9f565b811061497e576000898152600560205260409020805461ff00191690555b505b604051806040016040528082896149979190615b62565b6001600160801b03908116825285811660209283015260009a8b52600c82526040808c20338d5283528b20835193909201518116600160801b0292169190911790555050855460ff19169095559492505050565b8015614b66578115614a9a5760008681526008602090815260408083206001600160a01b038916845290915281208054869290614a29908490615e74565b90915550506000868152600a602052604081208054869290614a4c908490615e74565b90915550506001600160a01b0385166000908152600b60205260408120805460019290614a7d90849060ff16615f1c565b92506101000a81548160ff021916908360ff160217905550614af5565b60008681526008602090815260408083206001600160a01b038916845290915281208054869290614acc908490615b62565b90915550506000868152600a602052604081208054869290614aef908490615b62565b90915550505b60008681526008602090815260408083206001600160a01b038916808552908352928190205481518a815292830193909352810191909152600160608201527f32076afaca7402bc10b9630807a4dfae8705ce717003379b3a9b9fded61cfcd99060800160405180910390a1614c92565b8115614bcc5760008681526009602090815260408083206001600160a01b038916845290915281208054859290614b9e908490615e74565b90915550506000868152600a602052604081208054869290614bc1908490615b62565b90915550614c279050565b60008681526009602090815260408083206001600160a01b038916845290915281208054859290614bfe908490615b62565b90915550506000868152600a602052604081208054869290614c21908490615e74565b90915550505b60008681526009602090815260408083206001600160a01b0389168085529083528184205482518b8152938401919091529082015260608101919091527f32076afaca7402bc10b9630807a4dfae8705ce717003379b3a9b9fded61cfcd99060800160405180910390a15b6000868152600a6020908152604091829020548251898152918201527fd73e4190e6ad8eb7c343adb20a0c47ea50245809803b3ed7ad4104fdb07c23a8910160405180910390a1505050505050565b60008481526005602052604090819020805460018201849055630100000061ffff199091166101008615150260ff1916178615151763ff0000001916178155905185907f638289bd0053d37020d3cfacc73bb398f0d6702821a30abdcaed824bb4a8ebb990614d51908490615dba565b60405180910390a25050505050565b6000818152600560205260408120546301000000900460ff16614d955760405162461bcd60e51b81526004016108e690615efb565b5060019392505050565b6000614db48383670de0b6b3a7640000615104565b9392505050565b6000818152600560205260409020546301000000900460ff16614df05760405162461bcd60e51b81526004016108e690615efb565b60008181526005602052604081205460ff808216926101009092041690841315614e25578115614e2557614e25858585614eff565b8015614ef857600080548482526006602052604091829020600501549151637453c01360e11b81526001600160a01b03888116600483015260248201939093526101009091049091169063e8a7802690604401602060405180830381865afa158015614e95573d6000803e3d6000fd5b505050506040513d601f19601f82011682018060405250810190614eb99190615e38565b614ef85760405162461bcd60e51b815260206004820152601060248201526f0696e73756666696369656e74207265760841b60448201526064016108e6565b5050505050565b81614f0a8285613c59565b11614f405760405162461bcd60e51b8152602060048201526006602482015265189d5919d95d60d21b60448201526064016108e6565b6000546040516308ad90a560e01b81526001600160a01b038581166004830152610100909204909116906308ad90a590602401602060405180830381865afa158015614f90573d6000803e3d6000fd5b505050506040513d601f19601f82011682018060405250810190614fb49190615a5c565b600003614fec5760405162461bcd60e51b81526004016108e6906020808252600490820152630217265760e41b604082015260600190565b505050565b6000614db483670de0b6b3a764000084615122565b613df7848484846040516024016150209493929190615f35565b60408051601f198184030181529190526020810180516001600160e01b03166304772b3360e11b179052615148565b60b581600160881b81106150685760409190911b9060801c5b690100000000000000000081106150845760209190911b9060401c5b65010000000000811061509c5760109190911b9060201c5b630100000081106150b25760089190911b9060101c5b62010000010260121c80820401600190811c80830401811c80830401811c80830401811c80830401811c80830401811c80830401901c908190048111900390565b6000614db483670de0b6b3a7640000845b600082600019048411830215820261511b57600080fd5b5091020490565b600082600019048411830215820261513957600080fd5b50910281810615159190040190565b80516a636f6e736f6c652e6c6f67602083016000808483855afa5050505050565b60008083601f84011261517b57600080fd5b50813567ffffffffffffffff81111561519357600080fd5b6020830191508360208285010111156151ab57600080fd5b9250929050565b6000806000806000608086880312156151ca57600080fd5b853594506020860135935060408601359250606086013567ffffffffffffffff8111156151f657600080fd5b61520288828901615169565b969995985093965092949392505050565b60006020828403121561522557600080fd5b5035919050565b6001600160a01b038116811461524157600080fd5b50565b801515811461524157600080fd5b600080600080600080600060c0888a03121561526d57600080fd5b87359650602088013561527f8161522c565b9550604088013561528f8161522c565b9450606088013561529f8161522c565b9350608088013567ffffffffffffffff8111156152bb57600080fd5b6152c78a828b01615169565b90945092505060a08801356152db81615244565b8091505092959891949750929550565b600080604083850312156152fe57600080fd5b8235915060208301356153108161522c565b809150509250929050565b634e487b7160e01b600052604160045260246000fd5b604051610100810167ffffffffffffffff811182821017156153555761535561531b565b60405290565b6040516101c0810167ffffffffffffffff811182821017156153555761535561531b565b604051601f8201601f1916810167ffffffffffffffff811182821017156153a8576153a861531b565b604052919050565b60008060008385036101408112156153c757600080fd5b610100808212156153d757600080fd5b6153df615331565b9150853582526020860135602083015260408601356040830152606086013560608301526080860135608083015260a086013560a083015260c086013560c083015260e086013560e0830152819450808601359350505061012084013590509250925092565b60006020828403121561545757600080fd5b8135614db48161522c565b6000806000806080858703121561547857600080fd5b84359350602085013561548a81615244565b9250604085013561549a81615244565b9396929550929360600135925050565b600080604083850312156154bd57600080fd5b82359150602083013561531081615244565b600080600080608085870312156154e557600080fd5b84359350602085013592506040850135915060608501356155058161522c565b939692955090935050565b6000806040838503121561552357600080fd5b50508035926020909101359150565b60005b8381101561554d578181015183820152602001615535565b50506000910152565b6000815180845261556e816020860160208601615532565b601f01601f19169290920160200192915050565b60208152600060018060a01b0380845116602084015280602085015116604084015280604085015116606084015250606083015160e060808401526155cb610100840182615556565b9050608084015160a084015260a084015160c084015260c0840151151560e08401528091505092915050565b803561ffff811681146136a757600080fd5b60008060006060848603121561561e57600080fd5b8335925061562e602085016155f7565b9150604084013590509250925092565b6001600160a01b03888116825287811660208301528616604082015260e06060820181905260009061567290830187615556565b60808301959095525060a0810192909252151560c090910152949350505050565b600061010082019050825182526020830151602083015260408301516040830152606083015160608301526080830151608083015260a083015160a083015260c083015160c083015260e083015160e083015292915050565b60008060006040848603121561570157600080fd5b83359250602084013567ffffffffffffffff81111561571f57600080fd5b61572b86828701615169565b9497909650939450505050565b6000806000806080858703121561574e57600080fd5b5050823594602084013594506040840135936060013592509050565b6020808252600b908201526a4552525f5245454e54525960a81b604082015260600190565b634e487b7160e01b600052603260045260246000fd5b634e487b7160e01b600052601160045260246000fd5b6000600160ff1b82016157d0576157d06157a5565b5060000390565b84151581528360208201528260408201526080606082015260006157fe6080830184615556565b9695505050505050565b6000806040838503121561581b57600080fd5b505080516020909101519092909150565b6000806040838503121561583f57600080fd5b615848836155f7565b9150602083013561531081615244565b61ffff9490941684526020840192909252151560408301526001600160a01b0316606082015260800190565b6000806040838503121561589757600080fd5b8251915060208301516001600160801b038116811461531057600080fd5b6020808252600b908201526a10b1b7b73a3937b63632b960a91b604082015260600190565b600181811c908216806158ee57607f821691505b60208210810361590e57634e487b7160e01b600052602260045260246000fd5b50919050565b601f821115614fec57600081815260208120601f850160051c8101602086101561593b5750805b601f850160051c820191505b8181101561595a57828155600101615947565b505050505050565b815167ffffffffffffffff81111561597c5761597c61531b565b6159908161598a84546158da565b84615914565b602080601f8311600181146159c557600084156159ad5750858301515b600019600386901b1c1916600185901b17855561595a565b600085815260208120601f198616915b828110156159f4578886015182559484019460019091019084016159d5565b5085821015615a125787850151600019600388901b60f8161c191681555b5050505050600190811b01905550565b80820281158282048414176134d0576134d06157a5565b602080825260099082015268085c995cdbdb1d995960ba1b604082015260600190565b600060208284031215615a6e57600080fd5b5051919050565b6001600160a01b039590951685526020850193909352604084019190915215156060830152608082015260a00190565b80516136a78161522c565b60006020808385031215615ac357600080fd5b825167ffffffffffffffff80821115615adb57600080fd5b818501915085601f830112615aef57600080fd5b815181811115615b0157615b0161531b565b8060051b9150615b1284830161537f565b8181529183018401918481019088841115615b2c57600080fd5b938501935b83851015615b565784519250615b468361522c565b8282529385019390850190615b31565b98975050505050505050565b818103818111156134d0576134d06157a5565b600060208284031215615b8757600080fd5b8151614db48161522c565b80516136a781615244565b600082601f830112615bae57600080fd5b815167ffffffffffffffff811115615bc857615bc861531b565b615bdb601f8201601f191660200161537f565b818152846020838601011115615bf057600080fd5b613d10826020830160208701615532565b8051600681106136a757600080fd5b600060e08284031215615c2257600080fd5b60405160e0810181811067ffffffffffffffff82111715615c4557615c4561531b565b8060405250809150825181526020830151602082015260408301516040820152606083015160608201526080830151608082015260a083015160a082015260c083015160c08201525092915050565b600060208284031215615ca657600080fd5b815167ffffffffffffffff80821115615cbe57600080fd5b908301906102808286031215615cd357600080fd5b615cdb61535b565b82518152615ceb60208401615b92565b6020820152615cfc60408401615b92565b6040820152606083015160608201526080830151608082015260a083015160a082015260c083015160c082015260e083015160e08201526101008084015181830152506101208084015183811115615d5357600080fd5b615d5f88828701615b9d565b8284015250506101409150615d75828401615aa5565b828201526101609150615d89828401615c01565b82820152610180915081830151828201526101a09150615dab86838501615c10565b91810191909152949350505050565b600060c082019050825460ff81161515835260ff8160081c161515602084015260ff8160101c161515604084015260ff8160181c161515606084015260ff8160201c161515608084015250600183015460a083015292915050565b6001600160a01b0393909316835260208301919091521515604082015260600190565b600060208284031215615e4a57600080fd5b8151614db481615244565b9283526001600160a01b03919091166020830152604082015260600190565b808201808211156134d0576134d06157a5565b6001600160a01b039384168152919092166020820152604081019190915260600190565b600080600060608486031215615ec057600080fd5b8351925060208401519150604084015190509250925092565b60208082526008908201526714995919595b595960c21b604082015260600190565b6020808252600790820152662141637469766560c81b604082015260600190565b60ff81811683821601908111156134d0576134d06157a5565b608081526000615f486080830187615556565b602083019590955250604081019290925260609091015291905056fea2646970667358221220aaf2063fa14e3bf741c605b3b67d92917e9b51a047d0470185fff8dfabd7799a64736f6c63430008110033",
    "linkReferences": {}
  },
  "methodIdentifiers": {
    "approveMarket(uint256)": "cabe2ae1",
    "buyBond(uint256,int256,uint256,bytes)": "51ba6522",
    "buyBondLevered(uint256,uint256,uint256,uint256)": "f7cf78d7",
    "claimFunnel(uint256,uint16,uint256)": "a72be9a1",
    "coverBondShort(uint256,uint256,uint256,bytes)": "03cc40eb",
    "deactivateMarket(uint256,bool,bool,uint256)": "61fa5af5",
    "denyMarket(uint256)": "4cb44087",
    "getCurrentMarketPhase(uint256)": "97dcec16",
    "getMarket(uint256)": "eb44fdd3",
    "getMaxLeverage(address)": "808d856b",
    "getParameters(uint256)": "c6ceb96b",
    "getPhaseData(uint256)": "4cba8cde",
    "getPool(uint256)": "068bcd8d",
    "getShortZCB(uint256)": "920f4e55",
    "getTraderBudget(uint256,address)": "d5725953",
    "getZCB(uint256)": "153542cc",
    "isMarketApproved(uint256)": "9ec33416",
    "issuePoolBond(uint256,uint256)": "73124349",
    "leveragePosition(uint256,address)": "d36287f4",
    "loggedCollaterals(uint256)": "661f1cf5",
    "longTrades(uint256,address)": "214b3987",
    "makeEmptyMarketData()": "839ee8f6",
    "marketCount()": "ec979082",
    "markets(uint256)": "b1283e77",
    "newMarket(uint256,address,address,address,string,bool)": "203b2434",
    "owner()": "8da5cb5b",
    "parameters(uint256)": "2a4a9dd1",
    "queuedRepThreshold()": "41741c06",
    "queuedRepUpdates(address)": "b900a0ed",
    "redeem(uint256)": "db006a75",
    "redeemDeniedLeveredBond(uint256)": "bdce3867",
    "redeemDeniedMarket(uint256,bool)": "63f960d8",
    "redeemLeveredBond(uint256)": "765cd23a",
    "redeemPoolLongZCB(uint256,uint256)": "71bd6a09",
    "redeemShortZCB(uint256)": "727b887f",
    "redemption_prices(uint256)": "7c9bc5ce",
    "restriction_data(uint256)": "8a6cac3d",
    "sellBond(uint256,uint256,uint256,bytes)": "46b6a387",
    "setParameters((uint256,uint256,uint256,uint256,uint256,uint256,uint256,uint256),uint256,uint256)": "4e042a59",
    "setReputationManager(address)": "56a837f4",
    "shortBond(uint256,uint256,uint256,bytes)": "3db969f4",
    "shortTrades(uint256,address)": "897ca174",
    "tradeCallBack(uint256,bytes)": "da520d3e",
    "validatorApprove(uint256,uint256,uint256,address)": "669623a6"
  },
  "id": 15
}