{
  "abi": [
    {
      "inputs": [
        {
          "internalType": "address",
          "name": "_vault",
          "type": "address"
        },
        {
          "internalType": "address",
          "name": "_controller",
          "type": "address"
        },
        {
          "internalType": "address",
          "name": "_utilizer",
          "type": "address"
        },
        {
          "internalType": "address",
          "name": "_asset",
          "type": "address"
        },
        {
          "internalType": "string",
          "name": "_name",
          "type": "string"
        },
        {
          "internalType": "string",
          "name": "_symbol",
          "type": "string"
        },
        {
          "internalType": "address",
          "name": "_rateCalculator",
          "type": "address"
        },
        {
          "internalType": "bytes",
          "name": "_rateInitCallData",
          "type": "bytes"
        },
        {
          "components": [
            {
              "internalType": "address",
              "name": "tokenAddress",
              "type": "address"
            },
            {
              "internalType": "uint256",
              "name": "tokenId",
              "type": "uint256"
            }
          ],
          "internalType": "struct PoolInstrument.CollateralLabel[]",
          "name": "_collaterals",
          "type": "tuple[]"
        },
        {
          "components": [
            {
              "internalType": "uint256",
              "name": "totalCollateral",
              "type": "uint256"
            },
            {
              "internalType": "uint256",
              "name": "maxAmount",
              "type": "uint256"
            },
            {
              "internalType": "uint256",
              "name": "maxBorrowAmount",
              "type": "uint256"
            },
            {
              "internalType": "bool",
              "name": "isERC20",
              "type": "bool"
            }
          ],
          "internalType": "struct PoolInstrument.Collateral[]",
          "name": "_collateralDatas",
          "type": "tuple[]"
        }
      ],
      "stateMutability": "nonpayable",
      "type": "constructor"
    },
    {
      "anonymous": false,
      "inputs": [
        {
          "indexed": true,
          "internalType": "address",
          "name": "borrower",
          "type": "address"
        },
        {
          "indexed": false,
          "internalType": "address",
          "name": "collateral",
          "type": "address"
        },
        {
          "indexed": false,
          "internalType": "uint256",
          "name": "tokenId",
          "type": "uint256"
        },
        {
          "indexed": false,
          "internalType": "uint256",
          "name": "amount",
          "type": "uint256"
        }
      ],
      "name": "AddCollateral",
      "type": "event"
    },
    {
      "anonymous": false,
      "inputs": [
        {
          "indexed": true,
          "internalType": "address",
          "name": "owner",
          "type": "address"
        },
        {
          "indexed": true,
          "internalType": "address",
          "name": "spender",
          "type": "address"
        },
        {
          "indexed": false,
          "internalType": "uint256",
          "name": "amount",
          "type": "uint256"
        }
      ],
      "name": "Approval",
      "type": "event"
    },
    {
      "anonymous": false,
      "inputs": [
        {
          "indexed": true,
          "internalType": "uint256",
          "name": "id",
          "type": "uint256"
        },
        {
          "indexed": true,
          "internalType": "address",
          "name": "borrower",
          "type": "address"
        },
        {
          "indexed": true,
          "internalType": "address",
          "name": "collateral",
          "type": "address"
        },
        {
          "indexed": false,
          "internalType": "uint256",
          "name": "tokenId",
          "type": "uint256"
        }
      ],
      "name": "AuctionClosed",
      "type": "event"
    },
    {
      "anonymous": false,
      "inputs": [
        {
          "indexed": true,
          "internalType": "uint256",
          "name": "id",
          "type": "uint256"
        },
        {
          "indexed": true,
          "internalType": "address",
          "name": "borrower",
          "type": "address"
        },
        {
          "indexed": true,
          "internalType": "address",
          "name": "collateral",
          "type": "address"
        },
        {
          "indexed": false,
          "internalType": "uint256",
          "name": "tokenId",
          "type": "uint256"
        }
      ],
      "name": "AuctionCreated",
      "type": "event"
    },
    {
      "anonymous": false,
      "inputs": [
        {
          "indexed": true,
          "internalType": "address",
          "name": "_borrower",
          "type": "address"
        },
        {
          "indexed": false,
          "internalType": "uint256",
          "name": "_amount",
          "type": "uint256"
        },
        {
          "indexed": false,
          "internalType": "uint256",
          "name": "_shares",
          "type": "uint256"
        }
      ],
      "name": "Borrow",
      "type": "event"
    },
    {
      "anonymous": false,
      "inputs": [
        {
          "indexed": true,
          "internalType": "uint256",
          "name": "id",
          "type": "uint256"
        },
        {
          "indexed": true,
          "internalType": "address",
          "name": "buyer",
          "type": "address"
        },
        {
          "indexed": true,
          "internalType": "address",
          "name": "collateral",
          "type": "address"
        },
        {
          "indexed": false,
          "internalType": "uint256",
          "name": "tokenId",
          "type": "uint256"
        },
        {
          "indexed": false,
          "internalType": "uint256",
          "name": "amount",
          "type": "uint256"
        }
      ],
      "name": "CollateralPurchased",
      "type": "event"
    },
    {
      "anonymous": false,
      "inputs": [
        {
          "indexed": true,
          "internalType": "address",
          "name": "caller",
          "type": "address"
        },
        {
          "indexed": true,
          "internalType": "address",
          "name": "owner",
          "type": "address"
        },
        {
          "indexed": false,
          "internalType": "uint256",
          "name": "assets",
          "type": "uint256"
        },
        {
          "indexed": false,
          "internalType": "uint256",
          "name": "shares",
          "type": "uint256"
        }
      ],
      "name": "Deposit",
      "type": "event"
    },
    {
      "anonymous": false,
      "inputs": [
        {
          "indexed": true,
          "internalType": "uint256",
          "name": "timestamp",
          "type": "uint256"
        },
        {
          "indexed": false,
          "internalType": "uint256",
          "name": "interestEarned",
          "type": "uint256"
        },
        {
          "indexed": false,
          "internalType": "uint256",
          "name": "feesAmount",
          "type": "uint256"
        },
        {
          "indexed": false,
          "internalType": "uint256",
          "name": "feesShare",
          "type": "uint256"
        },
        {
          "indexed": false,
          "internalType": "uint64",
          "name": "newRate",
          "type": "uint64"
        }
      ],
      "name": "InterestAdded",
      "type": "event"
    },
    {
      "anonymous": false,
      "inputs": [
        {
          "indexed": true,
          "internalType": "address",
          "name": "to",
          "type": "address"
        },
        {
          "indexed": false,
          "internalType": "uint256",
          "name": "amount",
          "type": "uint256"
        }
      ],
      "name": "LiquidityTransfer",
      "type": "event"
    },
    {
      "anonymous": false,
      "inputs": [
        {
          "indexed": true,
          "internalType": "address",
          "name": "to",
          "type": "address"
        },
        {
          "indexed": false,
          "internalType": "uint256",
          "name": "amount",
          "type": "uint256"
        }
      ],
      "name": "LiquidityTransferFrom",
      "type": "event"
    },
    {
      "anonymous": false,
      "inputs": [
        {
          "indexed": false,
          "internalType": "address",
          "name": "collateral",
          "type": "address"
        },
        {
          "indexed": false,
          "internalType": "uint256",
          "name": "tokenId",
          "type": "uint256"
        },
        {
          "indexed": false,
          "internalType": "uint256",
          "name": "maxAmount",
          "type": "uint256"
        },
        {
          "indexed": false,
          "internalType": "uint256",
          "name": "maxBorrowAmount",
          "type": "uint256"
        },
        {
          "indexed": false,
          "internalType": "bool",
          "name": "isERC20",
          "type": "bool"
        }
      ],
      "name": "NewCollateralAdded",
      "type": "event"
    },
    {
      "anonymous": false,
      "inputs": [
        {
          "indexed": false,
          "internalType": "address",
          "name": "account",
          "type": "address"
        }
      ],
      "name": "Paused",
      "type": "event"
    },
    {
      "anonymous": false,
      "inputs": [
        {
          "indexed": true,
          "internalType": "address",
          "name": "borrower",
          "type": "address"
        },
        {
          "indexed": false,
          "internalType": "address",
          "name": "collateral",
          "type": "address"
        },
        {
          "indexed": false,
          "internalType": "uint256",
          "name": "tokenId",
          "type": "uint256"
        },
        {
          "indexed": false,
          "internalType": "uint256",
          "name": "amount",
          "type": "uint256"
        }
      ],
      "name": "RemoveCollateral",
      "type": "event"
    },
    {
      "anonymous": false,
      "inputs": [
        {
          "indexed": true,
          "internalType": "address",
          "name": "borrower",
          "type": "address"
        },
        {
          "indexed": false,
          "internalType": "uint256",
          "name": "amount",
          "type": "uint256"
        },
        {
          "indexed": false,
          "internalType": "uint256",
          "name": "shares",
          "type": "uint256"
        }
      ],
      "name": "Repay",
      "type": "event"
    },
    {
      "anonymous": false,
      "inputs": [
        {
          "indexed": true,
          "internalType": "address",
          "name": "from",
          "type": "address"
        },
        {
          "indexed": true,
          "internalType": "address",
          "name": "to",
          "type": "address"
        },
        {
          "indexed": false,
          "internalType": "uint256",
          "name": "amount",
          "type": "uint256"
        }
      ],
      "name": "Transfer",
      "type": "event"
    },
    {
      "anonymous": false,
      "inputs": [
        {
          "indexed": false,
          "internalType": "address",
          "name": "account",
          "type": "address"
        }
      ],
      "name": "Unpaused",
      "type": "event"
    },
    {
      "anonymous": false,
      "inputs": [
        {
          "indexed": true,
          "internalType": "address",
          "name": "caller",
          "type": "address"
        },
        {
          "indexed": true,
          "internalType": "address",
          "name": "receiver",
          "type": "address"
        },
        {
          "indexed": true,
          "internalType": "address",
          "name": "owner",
          "type": "address"
        },
        {
          "indexed": false,
          "internalType": "uint256",
          "name": "assets",
          "type": "uint256"
        },
        {
          "indexed": false,
          "internalType": "uint256",
          "name": "shares",
          "type": "uint256"
        }
      ],
      "name": "Withdraw",
      "type": "event"
    },
    {
      "inputs": [],
      "name": "DOMAIN_SEPARATOR",
      "outputs": [
        {
          "internalType": "bytes32",
          "name": "",
          "type": "bytes32"
        }
      ],
      "stateMutability": "view",
      "type": "function"
    },
    {
      "inputs": [],
      "name": "Utilizer",
      "outputs": [
        {
          "internalType": "address",
          "name": "",
          "type": "address"
        }
      ],
      "stateMutability": "view",
      "type": "function"
    },
    {
      "inputs": [
        {
          "internalType": "address",
          "name": "_borrower",
          "type": "address"
        }
      ],
      "name": "_canBorrow",
      "outputs": [
        {
          "internalType": "bool",
          "name": "",
          "type": "bool"
        }
      ],
      "stateMutability": "view",
      "type": "function"
    },
    {
      "inputs": [
        {
          "internalType": "address",
          "name": "_borrower",
          "type": "address"
        }
      ],
      "name": "_isLiquidatable",
      "outputs": [
        {
          "internalType": "bool",
          "name": "",
          "type": "bool"
        },
        {
          "internalType": "int256",
          "name": "accountLiq",
          "type": "int256"
        }
      ],
      "stateMutability": "view",
      "type": "function"
    },
    {
      "inputs": [
        {
          "internalType": "address",
          "name": "_collateral",
          "type": "address"
        },
        {
          "internalType": "uint256",
          "name": "_tokenId",
          "type": "uint256"
        },
        {
          "internalType": "uint256",
          "name": "_maxAmount",
          "type": "uint256"
        },
        {
          "internalType": "uint256",
          "name": "_maxBorrowAmount",
          "type": "uint256"
        },
        {
          "internalType": "bool",
          "name": "_isERC20",
          "type": "bool"
        }
      ],
      "name": "addAcceptedCollateral",
      "outputs": [],
      "stateMutability": "nonpayable",
      "type": "function"
    },
    {
      "inputs": [
        {
          "internalType": "address",
          "name": "_collateral",
          "type": "address"
        },
        {
          "internalType": "uint256",
          "name": "_tokenId",
          "type": "uint256"
        },
        {
          "internalType": "uint256",
          "name": "_collateralAmount",
          "type": "uint256"
        },
        {
          "internalType": "address",
          "name": "_borrower",
          "type": "address"
        }
      ],
      "name": "addCollateral",
      "outputs": [],
      "stateMutability": "nonpayable",
      "type": "function"
    },
    {
      "inputs": [],
      "name": "addInterest",
      "outputs": [
        {
          "internalType": "uint256",
          "name": "_interestEarned",
          "type": "uint256"
        },
        {
          "internalType": "uint256",
          "name": "_feesAmount",
          "type": "uint256"
        },
        {
          "internalType": "uint256",
          "name": "_feesShare",
          "type": "uint256"
        },
        {
          "internalType": "uint64",
          "name": "_newRate",
          "type": "uint64"
        }
      ],
      "stateMutability": "nonpayable",
      "type": "function"
    },
    {
      "inputs": [
        {
          "internalType": "address",
          "name": "",
          "type": "address"
        },
        {
          "internalType": "address",
          "name": "",
          "type": "address"
        }
      ],
      "name": "allowance",
      "outputs": [
        {
          "internalType": "uint256",
          "name": "",
          "type": "uint256"
        }
      ],
      "stateMutability": "view",
      "type": "function"
    },
    {
      "inputs": [
        {
          "internalType": "address",
          "name": "spender",
          "type": "address"
        },
        {
          "internalType": "uint256",
          "name": "amount",
          "type": "uint256"
        }
      ],
      "name": "approve",
      "outputs": [
        {
          "internalType": "bool",
          "name": "",
          "type": "bool"
        }
      ],
      "stateMutability": "nonpayable",
      "type": "function"
    },
    {
      "inputs": [
        {
          "internalType": "address",
          "name": "",
          "type": "address"
        },
        {
          "internalType": "uint256",
          "name": "",
          "type": "uint256"
        }
      ],
      "name": "approvedCollateral",
      "outputs": [
        {
          "internalType": "bool",
          "name": "",
          "type": "bool"
        }
      ],
      "stateMutability": "view",
      "type": "function"
    },
    {
      "inputs": [],
      "name": "asset",
      "outputs": [
        {
          "internalType": "contract ERC20",
          "name": "",
          "type": "address"
        }
      ],
      "stateMutability": "view",
      "type": "function"
    },
    {
      "inputs": [
        {
          "internalType": "address",
          "name": "",
          "type": "address"
        }
      ],
      "name": "balanceOf",
      "outputs": [
        {
          "internalType": "uint256",
          "name": "",
          "type": "uint256"
        }
      ],
      "stateMutability": "view",
      "type": "function"
    },
    {
      "inputs": [
        {
          "internalType": "address",
          "name": "user",
          "type": "address"
        }
      ],
      "name": "balanceOfUnderlying",
      "outputs": [
        {
          "internalType": "uint256",
          "name": "",
          "type": "uint256"
        }
      ],
      "stateMutability": "view",
      "type": "function"
    },
    {
      "inputs": [
        {
          "internalType": "uint256",
          "name": "_borrowAmount",
          "type": "uint256"
        },
        {
          "internalType": "address",
          "name": "_collateral",
          "type": "address"
        },
        {
          "internalType": "uint256",
          "name": "_tokenId",
          "type": "uint256"
        },
        {
          "internalType": "uint256",
          "name": "_collateralAmount",
          "type": "uint256"
        },
        {
          "internalType": "address",
          "name": "_reciever",
          "type": "address"
        }
      ],
      "name": "borrow",
      "outputs": [
        {
          "internalType": "uint256",
          "name": "_shares",
          "type": "uint256"
        }
      ],
      "stateMutability": "nonpayable",
      "type": "function"
    },
    {
      "inputs": [
        {
          "internalType": "uint256",
          "name": "_borrowAmount",
          "type": "uint256"
        }
      ],
      "name": "borrowLiquidityAvailable",
      "outputs": [
        {
          "internalType": "bool",
          "name": "",
          "type": "bool"
        }
      ],
      "stateMutability": "view",
      "type": "function"
    },
    {
      "inputs": [
        {
          "internalType": "address",
          "name": "",
          "type": "address"
        },
        {
          "internalType": "uint256",
          "name": "",
          "type": "uint256"
        }
      ],
      "name": "collateralData",
      "outputs": [
        {
          "internalType": "uint256",
          "name": "totalCollateral",
          "type": "uint256"
        },
        {
          "internalType": "uint256",
          "name": "maxAmount",
          "type": "uint256"
        },
        {
          "internalType": "uint256",
          "name": "maxBorrowAmount",
          "type": "uint256"
        },
        {
          "internalType": "bool",
          "name": "isERC20",
          "type": "bool"
        }
      ],
      "stateMutability": "view",
      "type": "function"
    },
    {
      "inputs": [
        {
          "internalType": "uint256",
          "name": "shares",
          "type": "uint256"
        }
      ],
      "name": "convertToAssets",
      "outputs": [
        {
          "internalType": "uint256",
          "name": "",
          "type": "uint256"
        }
      ],
      "stateMutability": "view",
      "type": "function"
    },
    {
      "inputs": [
        {
          "internalType": "uint256",
          "name": "assets",
          "type": "uint256"
        }
      ],
      "name": "convertToShares",
      "outputs": [
        {
          "internalType": "uint256",
          "name": "",
          "type": "uint256"
        }
      ],
      "stateMutability": "view",
      "type": "function"
    },
    {
      "inputs": [],
      "name": "currentRateInfo",
      "outputs": [
        {
          "internalType": "uint64",
          "name": "lastBlock",
          "type": "uint64"
        },
        {
          "internalType": "uint64",
          "name": "lastTimestamp",
          "type": "uint64"
        },
        {
          "internalType": "uint64",
          "name": "ratePerSec",
          "type": "uint64"
        }
      ],
      "stateMutability": "view",
      "type": "function"
    },
    {
      "inputs": [],
      "name": "decimals",
      "outputs": [
        {
          "internalType": "uint8",
          "name": "",
          "type": "uint8"
        }
      ],
      "stateMutability": "view",
      "type": "function"
    },
    {
      "inputs": [
        {
          "internalType": "uint256",
          "name": "assets",
          "type": "uint256"
        },
        {
          "internalType": "address",
          "name": "receiver",
          "type": "address"
        }
      ],
      "name": "deposit",
      "outputs": [
        {
          "internalType": "uint256",
          "name": "shares",
          "type": "uint256"
        }
      ],
      "stateMutability": "nonpayable",
      "type": "function"
    },
    {
      "inputs": [],
      "name": "estimatedTotalAssets",
      "outputs": [
        {
          "internalType": "uint256",
          "name": "",
          "type": "uint256"
        }
      ],
      "stateMutability": "view",
      "type": "function"
    },
    {
      "inputs": [],
      "name": "getAcceptedCollaterals",
      "outputs": [
        {
          "components": [
            {
              "internalType": "address",
              "name": "tokenAddress",
              "type": "address"
            },
            {
              "internalType": "uint256",
              "name": "tokenId",
              "type": "uint256"
            }
          ],
          "internalType": "struct PoolInstrument.CollateralLabel[]",
          "name": "",
          "type": "tuple[]"
        }
      ],
      "stateMutability": "view",
      "type": "function"
    },
    {
      "inputs": [],
      "name": "getMaturityBalance",
      "outputs": [
        {
          "internalType": "uint256",
          "name": "",
          "type": "uint256"
        }
      ],
      "stateMutability": "view",
      "type": "function"
    },
    {
      "inputs": [
        {
          "internalType": "address",
          "name": "_borrower",
          "type": "address"
        }
      ],
      "name": "getMaxBorrow",
      "outputs": [
        {
          "internalType": "uint256",
          "name": "_maxBorrowableAmount",
          "type": "uint256"
        }
      ],
      "stateMutability": "view",
      "type": "function"
    },
    {
      "inputs": [
        {
          "internalType": "address",
          "name": "_address",
          "type": "address"
        }
      ],
      "name": "getUserSnapshot",
      "outputs": [
        {
          "internalType": "uint256",
          "name": "_userAssetShares",
          "type": "uint256"
        },
        {
          "internalType": "uint256",
          "name": "_userAssetAmount",
          "type": "uint256"
        },
        {
          "internalType": "uint256",
          "name": "_userBorrowShares",
          "type": "uint256"
        },
        {
          "internalType": "uint256",
          "name": "_userBorrowAmount",
          "type": "uint256"
        },
        {
          "internalType": "int256",
          "name": "_userAccountLiquidity",
          "type": "int256"
        }
      ],
      "stateMutability": "view",
      "type": "function"
    },
    {
      "inputs": [],
      "name": "initialize",
      "outputs": [],
      "stateMutability": "nonpayable",
      "type": "function"
    },
    {
      "inputs": [],
      "name": "instrumentApprovalCondition",
      "outputs": [
        {
          "internalType": "bool",
          "name": "",
          "type": "bool"
        }
      ],
      "stateMutability": "view",
      "type": "function"
    },
    {
      "inputs": [
        {
          "internalType": "uint256",
          "name": "amount",
          "type": "uint256"
        }
      ],
      "name": "isLiquid",
      "outputs": [
        {
          "internalType": "bool",
          "name": "",
          "type": "bool"
        }
      ],
      "stateMutability": "view",
      "type": "function"
    },
    {
      "inputs": [],
      "name": "isLocked",
      "outputs": [
        {
          "internalType": "bool",
          "name": "",
          "type": "bool"
        }
      ],
      "stateMutability": "view",
      "type": "function"
    },
    {
      "inputs": [
        {
          "internalType": "address",
          "name": "holder",
          "type": "address"
        },
        {
          "internalType": "uint256",
          "name": "amount",
          "type": "uint256"
        }
      ],
      "name": "isWithdrawAble",
      "outputs": [
        {
          "internalType": "bool",
          "name": "",
          "type": "bool"
        }
      ],
      "stateMutability": "view",
      "type": "function"
    },
    {
      "inputs": [
        {
          "internalType": "address",
          "name": "_borrower",
          "type": "address"
        }
      ],
      "name": "liquidate",
      "outputs": [
        {
          "components": [
            {
              "internalType": "address",
              "name": "tokenAddress",
              "type": "address"
            },
            {
              "internalType": "uint256",
              "name": "tokenId",
              "type": "uint256"
            }
          ],
          "internalType": "struct PoolInstrument.CollateralLabel",
          "name": "_collateral",
          "type": "tuple"
        },
        {
          "internalType": "uint256",
          "name": "_auctionId",
          "type": "uint256"
        }
      ],
      "stateMutability": "nonpayable",
      "type": "function"
    },
    {
      "inputs": [],
      "name": "liquidateAllPositions",
      "outputs": [
        {
          "internalType": "uint256",
          "name": "_amountFreed",
          "type": "uint256"
        }
      ],
      "stateMutability": "nonpayable",
      "type": "function"
    },
    {
      "inputs": [
        {
          "internalType": "uint256",
          "name": "_amountNeeded",
          "type": "uint256"
        }
      ],
      "name": "liquidatePosition",
      "outputs": [
        {
          "internalType": "uint256",
          "name": "_liquidatedAmount",
          "type": "uint256"
        },
        {
          "internalType": "uint256",
          "name": "_loss",
          "type": "uint256"
        }
      ],
      "stateMutability": "nonpayable",
      "type": "function"
    },
    {
      "inputs": [
        {
          "internalType": "address",
          "name": "",
          "type": "address"
        }
      ],
      "name": "maxDeposit",
      "outputs": [
        {
          "internalType": "uint256",
          "name": "",
          "type": "uint256"
        }
      ],
      "stateMutability": "view",
      "type": "function"
    },
    {
      "inputs": [
        {
          "internalType": "address",
          "name": "",
          "type": "address"
        }
      ],
      "name": "maxMint",
      "outputs": [
        {
          "internalType": "uint256",
          "name": "",
          "type": "uint256"
        }
      ],
      "stateMutability": "view",
      "type": "function"
    },
    {
      "inputs": [
        {
          "internalType": "address",
          "name": "owner",
          "type": "address"
        }
      ],
      "name": "maxRedeem",
      "outputs": [
        {
          "internalType": "uint256",
          "name": "",
          "type": "uint256"
        }
      ],
      "stateMutability": "view",
      "type": "function"
    },
    {
      "inputs": [
        {
          "internalType": "address",
          "name": "owner",
          "type": "address"
        }
      ],
      "name": "maxWithdraw",
      "outputs": [
        {
          "internalType": "uint256",
          "name": "",
          "type": "uint256"
        }
      ],
      "stateMutability": "view",
      "type": "function"
    },
    {
      "inputs": [
        {
          "internalType": "uint256",
          "name": "shares",
          "type": "uint256"
        },
        {
          "internalType": "address",
          "name": "receiver",
          "type": "address"
        }
      ],
      "name": "mint",
      "outputs": [
        {
          "internalType": "uint256",
          "name": "assets",
          "type": "uint256"
        }
      ],
      "stateMutability": "nonpayable",
      "type": "function"
    },
    {
      "inputs": [],
      "name": "name",
      "outputs": [
        {
          "internalType": "string",
          "name": "",
          "type": "string"
        }
      ],
      "stateMutability": "view",
      "type": "function"
    },
    {
      "inputs": [
        {
          "internalType": "address",
          "name": "",
          "type": "address"
        }
      ],
      "name": "nonces",
      "outputs": [
        {
          "internalType": "uint256",
          "name": "",
          "type": "uint256"
        }
      ],
      "stateMutability": "view",
      "type": "function"
    },
    {
      "inputs": [],
      "name": "numAuctions",
      "outputs": [
        {
          "internalType": "uint256",
          "name": "",
          "type": "uint256"
        }
      ],
      "stateMutability": "view",
      "type": "function"
    },
    {
      "inputs": [
        {
          "internalType": "address",
          "name": "",
          "type": "address"
        },
        {
          "internalType": "address",
          "name": "",
          "type": "address"
        },
        {
          "internalType": "uint256",
          "name": "",
          "type": "uint256"
        },
        {
          "internalType": "bytes",
          "name": "",
          "type": "bytes"
        }
      ],
      "name": "onERC721Received",
      "outputs": [
        {
          "internalType": "bytes4",
          "name": "",
          "type": "bytes4"
        }
      ],
      "stateMutability": "nonpayable",
      "type": "function"
    },
    {
      "inputs": [
        {
          "internalType": "uint256",
          "name": "principal",
          "type": "uint256"
        },
        {
          "internalType": "uint256",
          "name": "yield",
          "type": "uint256"
        }
      ],
      "name": "onMarketApproval",
      "outputs": [],
      "stateMutability": "nonpayable",
      "type": "function"
    },
    {
      "inputs": [],
      "name": "paused",
      "outputs": [
        {
          "internalType": "bool",
          "name": "",
          "type": "bool"
        }
      ],
      "stateMutability": "view",
      "type": "function"
    },
    {
      "inputs": [
        {
          "internalType": "address",
          "name": "owner",
          "type": "address"
        },
        {
          "internalType": "address",
          "name": "spender",
          "type": "address"
        },
        {
          "internalType": "uint256",
          "name": "value",
          "type": "uint256"
        },
        {
          "internalType": "uint256",
          "name": "deadline",
          "type": "uint256"
        },
        {
          "internalType": "uint8",
          "name": "v",
          "type": "uint8"
        },
        {
          "internalType": "bytes32",
          "name": "r",
          "type": "bytes32"
        },
        {
          "internalType": "bytes32",
          "name": "s",
          "type": "bytes32"
        }
      ],
      "name": "permit",
      "outputs": [],
      "stateMutability": "nonpayable",
      "type": "function"
    },
    {
      "inputs": [],
      "name": "prepareWithdraw",
      "outputs": [
        {
          "internalType": "uint256",
          "name": "_profit",
          "type": "uint256"
        },
        {
          "internalType": "uint256",
          "name": "_loss",
          "type": "uint256"
        },
        {
          "internalType": "uint256",
          "name": "_debtPayment",
          "type": "uint256"
        }
      ],
      "stateMutability": "nonpayable",
      "type": "function"
    },
    {
      "inputs": [
        {
          "internalType": "uint256",
          "name": "assets",
          "type": "uint256"
        }
      ],
      "name": "previewDeposit",
      "outputs": [
        {
          "internalType": "uint256",
          "name": "",
          "type": "uint256"
        }
      ],
      "stateMutability": "view",
      "type": "function"
    },
    {
      "inputs": [
        {
          "internalType": "uint256",
          "name": "shares",
          "type": "uint256"
        }
      ],
      "name": "previewMint",
      "outputs": [
        {
          "internalType": "uint256",
          "name": "",
          "type": "uint256"
        }
      ],
      "stateMutability": "view",
      "type": "function"
    },
    {
      "inputs": [
        {
          "internalType": "uint256",
          "name": "shares",
          "type": "uint256"
        }
      ],
      "name": "previewRedeem",
      "outputs": [
        {
          "internalType": "uint256",
          "name": "",
          "type": "uint256"
        }
      ],
      "stateMutability": "view",
      "type": "function"
    },
    {
      "inputs": [
        {
          "internalType": "uint256",
          "name": "assets",
          "type": "uint256"
        }
      ],
      "name": "previewWithdraw",
      "outputs": [
        {
          "internalType": "uint256",
          "name": "",
          "type": "uint256"
        }
      ],
      "stateMutability": "view",
      "type": "function"
    },
    {
      "inputs": [
        {
          "internalType": "uint256",
          "name": "amount",
          "type": "uint256"
        }
      ],
      "name": "pullRawFunds",
      "outputs": [],
      "stateMutability": "nonpayable",
      "type": "function"
    },
    {
      "inputs": [],
      "name": "rateContract",
      "outputs": [
        {
          "internalType": "contract IRateCalculator",
          "name": "",
          "type": "address"
        }
      ],
      "stateMutability": "view",
      "type": "function"
    },
    {
      "inputs": [],
      "name": "rateInitCallData",
      "outputs": [
        {
          "internalType": "bytes",
          "name": "",
          "type": "bytes"
        }
      ],
      "stateMutability": "view",
      "type": "function"
    },
    {
      "inputs": [],
      "name": "readyForWithdrawal",
      "outputs": [
        {
          "internalType": "bool",
          "name": "",
          "type": "bool"
        }
      ],
      "stateMutability": "view",
      "type": "function"
    },
    {
      "inputs": [
        {
          "internalType": "uint256",
          "name": "shares",
          "type": "uint256"
        },
        {
          "internalType": "address",
          "name": "receiver",
          "type": "address"
        },
        {
          "internalType": "address",
          "name": "owner",
          "type": "address"
        }
      ],
      "name": "redeem",
      "outputs": [
        {
          "internalType": "uint256",
          "name": "assets",
          "type": "uint256"
        }
      ],
      "stateMutability": "nonpayable",
      "type": "function"
    },
    {
      "inputs": [
        {
          "internalType": "uint256",
          "name": "amount",
          "type": "uint256"
        }
      ],
      "name": "redeemUnderlying",
      "outputs": [
        {
          "internalType": "bool",
          "name": "",
          "type": "bool"
        }
      ],
      "stateMutability": "nonpayable",
      "type": "function"
    },
    {
      "inputs": [
        {
          "internalType": "address",
          "name": "_collateral",
          "type": "address"
        },
        {
          "internalType": "uint256",
          "name": "_tokenId",
          "type": "uint256"
        },
        {
          "internalType": "address",
          "name": "_receiver",
          "type": "address"
        }
      ],
      "name": "removeAvailableCollateral",
      "outputs": [
        {
          "internalType": "uint256",
          "name": "removeable",
          "type": "uint256"
        }
      ],
      "stateMutability": "nonpayable",
      "type": "function"
    },
    {
      "inputs": [
        {
          "internalType": "address",
          "name": "_collateral",
          "type": "address"
        },
        {
          "internalType": "uint256",
          "name": "_tokenId",
          "type": "uint256"
        },
        {
          "internalType": "uint256",
          "name": "_collateralAmount",
          "type": "uint256"
        },
        {
          "internalType": "address",
          "name": "_receiver",
          "type": "address"
        }
      ],
      "name": "removeCollateral",
      "outputs": [],
      "stateMutability": "nonpayable",
      "type": "function"
    },
    {
      "inputs": [
        {
          "internalType": "address",
          "name": "_borrower",
          "type": "address"
        },
        {
          "internalType": "uint256",
          "name": "tokenId",
          "type": "uint256"
        },
        {
          "internalType": "address",
          "name": "collateral",
          "type": "address"
        }
      ],
      "name": "removeableCollateral",
      "outputs": [
        {
          "internalType": "uint256",
          "name": "",
          "type": "uint256"
        }
      ],
      "stateMutability": "view",
      "type": "function"
    },
    {
      "inputs": [
        {
          "internalType": "uint256",
          "name": "_shares",
          "type": "uint256"
        },
        {
          "internalType": "address",
          "name": "_borrower",
          "type": "address"
        }
      ],
      "name": "repay",
      "outputs": [
        {
          "internalType": "uint256",
          "name": "_amountToRepay",
          "type": "uint256"
        }
      ],
      "stateMutability": "nonpayable",
      "type": "function"
    },
    {
      "inputs": [
        {
          "internalType": "uint256",
          "name": "_amount",
          "type": "uint256"
        },
        {
          "internalType": "address",
          "name": "_borrower",
          "type": "address"
        }
      ],
      "name": "repayWithAmount",
      "outputs": [
        {
          "internalType": "uint256",
          "name": "_sharesToRepay",
          "type": "uint256"
        }
      ],
      "stateMutability": "nonpayable",
      "type": "function"
    },
    {
      "inputs": [
        {
          "internalType": "address",
          "name": "_Utilizer",
          "type": "address"
        }
      ],
      "name": "setUtilizer",
      "outputs": [],
      "stateMutability": "nonpayable",
      "type": "function"
    },
    {
      "inputs": [
        {
          "internalType": "address",
          "name": "newVault",
          "type": "address"
        }
      ],
      "name": "setVault",
      "outputs": [],
      "stateMutability": "nonpayable",
      "type": "function"
    },
    {
      "inputs": [],
      "name": "store_internal_balance",
      "outputs": [],
      "stateMutability": "nonpayable",
      "type": "function"
    },
    {
      "inputs": [],
      "name": "symbol",
      "outputs": [
        {
          "internalType": "string",
          "name": "",
          "type": "string"
        }
      ],
      "stateMutability": "view",
      "type": "function"
    },
    {
      "inputs": [
        {
          "internalType": "uint256",
          "name": "_shares",
          "type": "uint256"
        },
        {
          "internalType": "bool",
          "name": "_roundUp",
          "type": "bool"
        }
      ],
      "name": "toAssetAmount",
      "outputs": [
        {
          "internalType": "uint256",
          "name": "",
          "type": "uint256"
        }
      ],
      "stateMutability": "view",
      "type": "function"
    },
    {
      "inputs": [
        {
          "internalType": "uint256",
          "name": "_amount",
          "type": "uint256"
        },
        {
          "internalType": "bool",
          "name": "_roundUp",
          "type": "bool"
        }
      ],
      "name": "toAssetShares",
      "outputs": [
        {
          "internalType": "uint256",
          "name": "",
          "type": "uint256"
        }
      ],
      "stateMutability": "view",
      "type": "function"
    },
    {
      "inputs": [
        {
          "internalType": "uint256",
          "name": "_shares",
          "type": "uint256"
        },
        {
          "internalType": "bool",
          "name": "_roundUp",
          "type": "bool"
        }
      ],
      "name": "toBorrowAmount",
      "outputs": [
        {
          "internalType": "uint256",
          "name": "",
          "type": "uint256"
        }
      ],
      "stateMutability": "view",
      "type": "function"
    },
    {
      "inputs": [
        {
          "internalType": "uint256",
          "name": "_amount",
          "type": "uint256"
        },
        {
          "internalType": "bool",
          "name": "_roundUp",
          "type": "bool"
        }
      ],
      "name": "toBorrowShares",
      "outputs": [
        {
          "internalType": "uint256",
          "name": "",
          "type": "uint256"
        }
      ],
      "stateMutability": "view",
      "type": "function"
    },
    {
      "inputs": [],
      "name": "totalAsset",
      "outputs": [
        {
          "internalType": "uint128",
          "name": "amount",
          "type": "uint128"
        },
        {
          "internalType": "uint128",
          "name": "shares",
          "type": "uint128"
        }
      ],
      "stateMutability": "view",
      "type": "function"
    },
    {
      "inputs": [],
      "name": "totalAssetAvailable",
      "outputs": [
        {
          "internalType": "uint256",
          "name": "",
          "type": "uint256"
        }
      ],
      "stateMutability": "view",
      "type": "function"
    },
    {
      "inputs": [],
      "name": "totalAssets",
      "outputs": [
        {
          "internalType": "uint256",
          "name": "",
          "type": "uint256"
        }
      ],
      "stateMutability": "view",
      "type": "function"
    },
    {
      "inputs": [],
      "name": "totalBorrow",
      "outputs": [
        {
          "internalType": "uint128",
          "name": "amount",
          "type": "uint128"
        },
        {
          "internalType": "uint128",
          "name": "shares",
          "type": "uint128"
        }
      ],
      "stateMutability": "view",
      "type": "function"
    },
    {
      "inputs": [],
      "name": "totalSupply",
      "outputs": [
        {
          "internalType": "uint256",
          "name": "",
          "type": "uint256"
        }
      ],
      "stateMutability": "view",
      "type": "function"
    },
    {
      "inputs": [
        {
          "internalType": "address",
          "name": "to",
          "type": "address"
        },
        {
          "internalType": "uint256",
          "name": "amount",
          "type": "uint256"
        }
      ],
      "name": "transfer",
      "outputs": [
        {
          "internalType": "bool",
          "name": "",
          "type": "bool"
        }
      ],
      "stateMutability": "nonpayable",
      "type": "function"
    },
    {
      "inputs": [
        {
          "internalType": "address",
          "name": "from",
          "type": "address"
        },
        {
          "internalType": "address",
          "name": "to",
          "type": "address"
        },
        {
          "internalType": "uint256",
          "name": "amount",
          "type": "uint256"
        }
      ],
      "name": "transferFrom",
      "outputs": [
        {
          "internalType": "bool",
          "name": "",
          "type": "bool"
        }
      ],
      "stateMutability": "nonpayable",
      "type": "function"
    },
    {
      "inputs": [],
      "name": "underlying",
      "outputs": [
        {
          "internalType": "contract ERC20",
          "name": "",
          "type": "address"
        }
      ],
      "stateMutability": "view",
      "type": "function"
    },
    {
      "inputs": [
        {
          "internalType": "address",
          "name": "",
          "type": "address"
        }
      ],
      "name": "userAuctionId",
      "outputs": [
        {
          "internalType": "uint256",
          "name": "",
          "type": "uint256"
        }
      ],
      "stateMutability": "view",
      "type": "function"
    },
    {
      "inputs": [
        {
          "internalType": "address",
          "name": "",
          "type": "address"
        }
      ],
      "name": "userBorrowShares",
      "outputs": [
        {
          "internalType": "uint256",
          "name": "",
          "type": "uint256"
        }
      ],
      "stateMutability": "view",
      "type": "function"
    },
    {
      "inputs": [
        {
          "internalType": "address",
          "name": "",
          "type": "address"
        },
        {
          "internalType": "address",
          "name": "",
          "type": "address"
        }
      ],
      "name": "userCollateralERC20",
      "outputs": [
        {
          "internalType": "uint256",
          "name": "",
          "type": "uint256"
        }
      ],
      "stateMutability": "view",
      "type": "function"
    },
    {
      "inputs": [
        {
          "internalType": "address",
          "name": "",
          "type": "address"
        },
        {
          "internalType": "uint256",
          "name": "",
          "type": "uint256"
        }
      ],
      "name": "userCollateralNFTs",
      "outputs": [
        {
          "internalType": "address",
          "name": "",
          "type": "address"
        }
      ],
      "stateMutability": "view",
      "type": "function"
    },
    {
      "inputs": [
        {
          "internalType": "uint256",
          "name": "",
          "type": "uint256"
        }
      ],
      "name": "validators",
      "outputs": [
        {
          "internalType": "address",
          "name": "",
          "type": "address"
        }
      ],
      "stateMutability": "view",
      "type": "function"
    },
    {
      "inputs": [],
      "name": "vault",
      "outputs": [
        {
          "internalType": "contract Vault",
          "name": "",
          "type": "address"
        }
      ],
      "stateMutability": "view",
      "type": "function"
    },
    {
      "inputs": [
        {
          "internalType": "uint256",
          "name": "assets",
          "type": "uint256"
        },
        {
          "internalType": "address",
          "name": "receiver",
          "type": "address"
        },
        {
          "internalType": "address",
          "name": "owner",
          "type": "address"
        }
      ],
      "name": "withdraw",
      "outputs": [
        {
          "internalType": "uint256",
          "name": "shares",
          "type": "uint256"
        }
      ],
      "stateMutability": "nonpayable",
      "type": "function"
    }
  ],
  "bytecode": {
    "object": "0x6101006040526001600d553480156200001757600080fd5b50604051620057fd380380620057fd8339810160408190526200003a9162000796565b89888888888181846001600160a01b031663313ce5676040518163ffffffff1660e01b8152600401602060405180830381865afa15801562000080573d6000803e3d6000fd5b505050506040513d601f19601f82011682018060405250810190620000a69190620008d7565b6000620000b4848262000992565b506001620000c3838262000992565b5060ff81166080524660a052620000d96200041a565b60c052505050506001600160a01b0391821660e05250600780546001600160a01b0319169184169182179055604080516362eb326360e11b8152905163c5d664c6916004808201926020929091908290030181865afa15801562000141573d6000803e3d6000fd5b505050506040513d601f19601f8201168201806040525081019062000167919062000a5e565b600680546001600160a01b0319166001600160a01b0392831690811790915560405163095ea7b360e01b8152918416600483015260001960248301529063095ea7b3906044016020604051808303816000875af1158015620001cd573d6000803e3d6000fd5b505050506040513d601f19601f82011682018060405250810190620001f3919062000a7e565b50600a80546001600160a01b03199081166001600160a01b0393841617909155600e805460ff19169055601c805482168d84161790556018805490911691871691909117905550601962000248848262000992565b5060185460405163453f31d560e01b81526001600160a01b039091169063453f31d5906200027b90869060040162000a9c565b60006040518083038186803b1580156200029457600080fd5b505afa158015620002a9573d6000803e3d6000fd5b5050505060005b82518110156200040957601b838281518110620002d157620002d162000ad1565b6020908102919091018101518254600180820185556000948552838520835160029093020180546001600160a01b0319166001600160a01b039093169290921782559190920151910155825183908390811062000332576200033262000ad1565b602002602001015190506000816000018181525050806011600086858151811062000361576200036162000ad1565b6020026020010151600001516001600160a01b03166001600160a01b031681526020019081526020016000206000868581518110620003a457620003a462000ad1565b60209081029190910181015181015182528181019290925260409081016000208351815591830151600183015582015160028201556060909101516003909101805460ff19169115159190911790555080620004008162000ae7565b915050620002b0565b505050505050505050505062000b8d565b60007f8b73c3c69bb8fe3d512ecc4cf759cc79239f7b179b0ffacaa9a75d522b39400f60006040516200044e919062000b0f565b6040805191829003822060208301939093528101919091527fc89efdaa54c0f20c7adf612882df0950f5a951637e0307cdcb4c672f298b8bc660608201524660808201523060a082015260c00160405160208183030381529060405280519060200120905090565b6001600160a01b0381168114620004cc57600080fd5b50565b8051620004dc81620004b6565b919050565b634e487b7160e01b600052604160045260246000fd5b604080519081016001600160401b03811182821017156200051c576200051c620004e1565b60405290565b604051608081016001600160401b03811182821017156200051c576200051c620004e1565b604051601f8201601f191681016001600160401b0381118282101715620005725762000572620004e1565b604052919050565b60005b83811015620005975781810151838201526020016200057d565b50506000910152565b600082601f830112620005b257600080fd5b81516001600160401b03811115620005ce57620005ce620004e1565b620005e3601f8201601f191660200162000547565b818152846020838601011115620005f957600080fd5b6200060c8260208301602087016200057a565b949350505050565b60006001600160401b03821115620006305762000630620004e1565b5060051b60200190565b600082601f8301126200064c57600080fd5b81516020620006656200065f8362000614565b62000547565b82815260069290921b840181019181810190868411156200068557600080fd5b8286015b84811015620006d45760408189031215620006a45760008081fd5b620006ae620004f7565b8151620006bb81620004b6565b8152818501518582015283529183019160400162000689565b509695505050505050565b80518015158114620004dc57600080fd5b600082601f8301126200070257600080fd5b81516020620007156200065f8362000614565b82815260079290921b840181019181810190868411156200073557600080fd5b8286015b84811015620006d45760808189031215620007545760008081fd5b6200075e62000522565b81518152848201518582015260408083015190820152606062000783818401620006df565b9082015283529183019160800162000739565b6000806000806000806000806000806101408b8d031215620007b757600080fd5b620007c28b620004cf565b9950620007d260208c01620004cf565b9850620007e260408c01620004cf565b9750620007f260608c01620004cf565b60808c01519097506001600160401b03808211156200081057600080fd5b6200081e8e838f01620005a0565b975060a08d01519150808211156200083557600080fd5b620008438e838f01620005a0565b96506200085360c08e01620004cf565b955060e08d01519150808211156200086a57600080fd5b620008788e838f01620005a0565b94506101008d01519150808211156200089057600080fd5b6200089e8e838f016200063a565b93506101208d0151915080821115620008b657600080fd5b50620008c58d828e01620006f0565b9150509295989b9194979a5092959850565b600060208284031215620008ea57600080fd5b815160ff81168114620008fc57600080fd5b9392505050565b600181811c908216806200091857607f821691505b6020821081036200093957634e487b7160e01b600052602260045260246000fd5b50919050565b601f8211156200098d57600081815260208120601f850160051c81016020861015620009685750805b601f850160051c820191505b81811015620009895782815560010162000974565b5050505b505050565b81516001600160401b03811115620009ae57620009ae620004e1565b620009c681620009bf845462000903565b846200093f565b602080601f831160018114620009fe5760008415620009e55750858301515b600019600386901b1c1916600185901b17855562000989565b600085815260208120601f198616915b8281101562000a2f5788860151825594840194600190910190840162000a0e565b508582101562000a4e5787850151600019600388901b60f8161c191681555b5050505050600190811b01905550565b60006020828403121562000a7157600080fd5b8151620008fc81620004b6565b60006020828403121562000a9157600080fd5b620008fc82620006df565b602081526000825180602084015262000abd8160408501602087016200057a565b601f01601f19169190910160400192915050565b634e487b7160e01b600052603260045260246000fd5b60006001820162000b0857634e487b7160e01b600052601160045260246000fd5b5060010190565b600080835462000b1f8162000903565b6001828116801562000b3a576001811462000b505762000b81565b60ff198416875282151583028701945062000b81565b8760005260208060002060005b8581101562000b785781548a82015290840190820162000b5d565b50505082870194505b50929695505050505050565b60805160a05160c05160e051614c0c62000bf16000396000818161071801528181611e510152818161205d015281816123c3015281816125d60152818161367f01526139040152600061131f015260006112ea0152600061066f0152614c0c6000f3fe608060405234801561001057600080fd5b50600436106104b75760003560e01c806370a0823111610278578063ba0876521161015c578063d832f791116100ce578063ef8b30f711610092578063ef8b30f714610527578063efbb5cb014610805578063f3aa68d314610c9d578063f9557ccb14610ca5578063fbfa77cf14610cc3578063fd1c317a14610cd657600080fd5b8063d832f79114610c10578063d905777e14610c23578063dd38677a14610c4c578063dd62ed3e14610c5f578063eee2421914610c8a57600080fd5b8063c7be978611610120578063c7be978614610b84578063cd8886ee14610b8c578063cdddd4e514610b9f578063ce96cb7714610bca578063d505accf14610bdd578063d7da630214610bf057600080fd5b8063ba08765214610b4b578063bdf0f253146109b2578063c270a54414610b5e578063c63d75b61461074d578063c6e6f59214610b7157600080fd5b806394bf804d116101f5578063a4e2d634116101b9578063a4e2d63414610ac5578063a9059cbb14610ad7578063acb7081514610aea578063b3d7f6b9146107d2578063b460af9414610afd578063b68d0a0914610b1057600080fd5b806394bf804d14610a3157806394e301e014610a4457806395d14ca814610a5757806395d89b4114610aaa57806395ee69ac14610ab257600080fd5b80638354cc591161023c5780638354cc5914610969578063838e9ae31461097e57806383e754a0146109b2578063852a12e3146109b95780639189ed1c146109cc57600080fd5b806370a08231146108e35780637426e7a4146109035780637ecebe001461090b5780638129fc1c146107875780638285ef401461092b57600080fd5b80633af9e6691161039f578063537d94091161031c578063601b4aed116102e0578063601b4aed146108595780636578dcfe14610884578063670c6222146108975780636817031b146108aa5780636e553f65146108bd5780636f307dc3146108d057600080fd5b8063537d94091461080c57806356968f971461081f57806357b25996146108325780635c113acc146108455780635c975abb1461084e57600080fd5b806349dcf4ed1161036357806349dcf4ed1461079c5780634be085d9146107bf5780634cdad506146107d25780634fd422df146107e557806350bb4beb1461080557600080fd5b80633af9e6691461073a578063402d267d1461074d578063404ffa7a14610762578063416288dd1461077557806346c114171461078957600080fd5b80631c5ef1ab11610438578063313ce567116103fc578063313ce5671461066a578063350896fe146106a357806335aa2e44146106ce5780633644e515146106e157806338094ae7146106e957806338d52e0f1461071357600080fd5b80631c5ef1ab146105e25780631f17b2c4146105f55780631fd095671461060857806323b872dd1461061b5780632f8655681461062e57600080fd5b80630d09365c1161047f5780630d09365c1461053a57806310b181b41461056b5780631104aafd14610599578063150b7a02146105a157806318160ddd146105d957600080fd5b806301e1d114146104bc57806306fdde03146104dc57806307a2d13a146104f1578063095ea7b3146105045780630a28a47714610527575b600080fd5b6010546001600160801b03165b6040519081526020015b60405180910390f35b6104e4610ce9565b6040516104d3919061425c565b6104c96104ff36600461426f565b610d77565b61051761051236600461429d565b610db3565b60405190151581526020016104d3565b6104c961053536600461426f565b610e1f565b610542610e2a565b604080519485526020850193909352918301526001600160401b031660608201526080016104d3565b61051761057936600461429d565b601260209081526000928352604080842090915290825290205460ff1681565b6008546104c9565b6105c06105af3660046142c9565b630a85bd0160e11b95945050505050565b6040516001600160e01b031990911681526020016104d3565b6104c960025481565b6104c96105f0366004614367565b610e7b565b6105176106033660046143bd565b610fa0565b6104c96106163660046143da565b61103f565b61051761062936600461440a565b6110c7565b61064161063c3660046143bd565b6111a9565b6040805183516001600160a01b03168152602093840151938101939093528201526060016104d3565b6106917f000000000000000000000000000000000000000000000000000000000000000081565b60405160ff90911681526020016104d3565b600a546106b6906001600160a01b031681565b6040516001600160a01b0390911681526020016104d3565b6106b66106dc36600461426f565b6112bc565b6104c96112e6565b6106fc6106f73660046143bd565b611341565b6040805192151583526020830191909152016104d3565b6106b67f000000000000000000000000000000000000000000000000000000000000000081565b6104c96107483660046143bd565b6115fb565b6104c961075b3660046143bd565b5060001990565b6104c9610770366004614459565b6116f6565b61078761078336600461447e565b5050565b005b6107876107973660046144a0565b61172c565b6107a46117e8565b604080519384526020840192909252908201526060016104d3565b6107876107cd3660046144ea565b611836565b6104c96107e036600461426f565b611a91565b6104c96107f33660046143bd565b60156020526000908152604090205481565b60006104c9565b61051761081a36600461426f565b611a9c565b6104c961082d366004614459565b611ae3565b6107876108403660046143bd565b611b19565b6104c960175481565b600e5460ff16610517565b6104c9610867366004614532565b601360209081526000928352604080842090915290825290205481565b61051761089236600461426f565b611c0f565b6107876108a53660046144a0565b611c82565b6107876108b83660046143bd565b611d16565b6104c96108cb3660046143da565b611df9565b6006546106b6906001600160a01b031681565b6104c96108f13660046143bd565b60036020526000908152604090205481565b6104c9611ed3565b6104c96109193660046143bd565b60056020526000908152604090205481565b600f54610949906001600160801b0380821691600160801b90041682565b604080516001600160801b039384168152929091166020830152016104d3565b610971611f28565b6040516104d39190614560565b6106b661098c36600461429d565b60146020908152600092835260408084209091529082529020546001600160a01b031681565b6001610517565b6105176109c736600461426f565b611f9d565b610a0f6109da36600461429d565b601160209081526000928352604080842090915290825290208054600182015460028301546003909301549192909160ff1684565b60408051948552602085019390935291830152151560608201526080016104d3565b6104c9610a3f3660046143da565b612043565b6104c9610a52366004614459565b6120df565b601a54610a80906001600160401b0380821691600160401b8104821691600160801b9091041683565b604080516001600160401b03948516815292841660208401529216918101919091526060016104d3565b6104e4612115565b6104c9610ac03660046145c0565b612122565b600754600160a01b900460ff16610517565b610517610ae536600461429d565b6121ce565b6104c9610af83660046143da565b612234565b6104c9610b0b366004614602565b6122dc565b610b23610b1e3660046143bd565b6123ea565b604080519586526020860194909452928401919091526060830152608082015260a0016104d3565b6104c9610b59366004614602565b6124b1565b6104c9610b6c366004614459565b6125fd565b6104c9610b7f36600461426f565b612633565b6104e4612669565b610517610b9a36600461429d565b612676565b610bb5610bad36600461426f565b600080915091565b604080519283526020830191909152016104d3565b6104c9610bd83660046143bd565b6126b5565b610787610beb366004614648565b6126d7565b6104c9610bfe3660046143bd565b60166020526000908152604090205481565b610787610c1e36600461426f565b61291b565b6104c9610c313660046143bd565b6001600160a01b031660009081526003602052604090205490565b6104c9610c5a3660046145c0565b6129b1565b6104c9610c6d366004614532565b600460209081526000928352604080842090915290825290205481565b6018546106b6906001600160a01b031681565b610787612a7d565b601054610949906001600160801b0380821691600160801b90041682565b6007546106b6906001600160a01b031681565b6104c9610ce43660046143bd565b612ba1565b60008054610cf6906146b9565b80601f0160208091040260200160405190810160405280929190818152602001828054610d22906146b9565b8015610d6f5780601f10610d4457610100808354040283529160200191610d6f565b820191906000526020600020905b815481529060010190602001808311610d5257829003601f168201915b505050505081565b604080518082019091526010546001600160801b038082168352600160801b909104166020820152600090610dad908383612da7565b92915050565b3360008181526004602090815260408083206001600160a01b038716808552925280832085905551919290917f8c5be1e5ebec7d5bd14f71427d1e84f3dd0314c0f7b2291e5b200ac8c7c3b92590610e0e9086815260200190565b60405180910390a350600192915050565b6000610dad82612633565b600080600080600d54600114610e5b5760405162461bcd60e51b8152600401610e52906146ed565b60405180910390fd5b6002600d55610e68612e43565b6001600d55929791965094509092509050565b600033600d54600114610ea05760405162461bcd60e51b8152600401610e52906146ed565b6002600d55610ead6132ba565b610eb5612e43565b505050506001600160a01b03861615801590610edb57506000841180610edb5750600085115b15610f58576001600160a01b038616600090815260126020908152604080832088845290915290205460ff16610f4b5760405162461bcd60e51b81526020600482015260156024820152741d5b985c1c1c9bdd99590818dbdb1b185d195c985b605a1b6044820152606401610e52565b610f583387863389613300565b610f6a610f64886134b6565b846134cc565b6001600d559150610f7a81610fa0565b610f965760405162461bcd60e51b8152600401610e5290614711565b5095945050505050565b600080610fac83612ba1565b6001600160a01b03841660009081526015602052604081205491925003610fd65750600192915050565b80600003610fe75750600092915050565b6001600160a01b0383166000908152601560209081526040808320548151808301909252600f546001600160801b038082168452600160801b909104169282019290925261103792909190612da7565b111592915050565b6000600d546001146110635760405162461bcd60e51b8152600401610e52906146ed565b6002600d5560408051808201909152600f546001600160801b038082168352600160801b90910416602082015261109c818560016136b7565b91506110bb816110ab866134b6565b6110b4856134b6565b338761372c565b506001600d5592915050565b6001600160a01b03831660009081526004602090815260408083203384529091528120546000198114611123576110fe8382614756565b6001600160a01b03861660009081526004602090815260408083203384529091529020555b6001600160a01b0385166000908152600360205260408120805485929061114b908490614756565b90915550506001600160a01b0380851660008181526003602052604090819020805487019055519091871690600080516020614bb7833981519152906111949087815260200190565b60405180910390a360019150505b9392505050565b60408051808201909152600080825260208201526000600d546001146111e15760405162461bcd60e51b8152600401610e52906146ed565b6002600d556111ee612e43565b505050506000806111fe85611341565b915091508161124f5760405162461bcd60e51b815260206004820152601c60248201527f626f72726f776572206973206e6f74206c6971756964617461626c65000000006044820152606401610e52565b6001600160a01b038516600090815260166020526040902054156112ae5760405162461bcd60e51b815260206004820152601660248201527561756374696f6e20616c72656164792065786973747360501b6044820152606401610e52565b50506001600d559092909150565b600b81815481106112cc57600080fd5b6000918252602090912001546001600160a01b0316905081565b60007f0000000000000000000000000000000000000000000000000000000000000000461461131c57611317613935565b905090565b507f000000000000000000000000000000000000000000000000000000000000000090565b6000806000805b601b54811015611542576000601b828154811061136757611367614769565b60009182526020808320604080518082018252600294850290920180546001600160a01b03168084526001918201548486019081529087526011855282872090518752845294819020815160808101835281548152958101549386019390935292820154928401929092526003015460ff1615801560608401819052919350611416575081516001600160a01b039081166000908152601360209081526040808320938b168352929052205415155b156114e757600082600001516001600160a01b031663313ce5676040518163ffffffff1660e01b8152600401602060405180830381865afa15801561145f573d6000803e3d6000fd5b505050506040513d601f19601f82011682018060405250810190611483919061477f565b60ff16905061149381600a614880565b60208084015185516001600160a01b039081166000908152601384526040808220928e16825291909352909120546114cb919061488c565b6114d591906148a3565b6114df90866148c5565b94505061152d565b81516001600160a01b03908116600090815260146020908152604080832082870151845290915290205481891691160361152d57602081015161152a90856148c5565b93505b5050808061153a906148d8565b915050611348565b506001600160a01b0384166000908152601560209081526040808320548151808301909252600f546001600160801b038082168452600160801b909104169282019290925261159392909190612da7565b6001600160a01b0385166000908152601560209081526040808320548151808301909252600f546001600160801b038082168452600160801b9091041692820192909252928410926115e792909190612da7565b6115f190836148f1565b9250925050915091565b6000306001600160a01b03831603611688576009546006546040516370a0823160e01b81526001600160a01b038581166004830152909116906370a0823190602401602060405180830381865afa15801561165a573d6000803e3d6000fd5b505050506040513d601f19601f8201168201806040525081019061167e9190614918565b610dad9190614756565b6006546040516370a0823160e01b81526001600160a01b038481166004830152909116906370a0823190602401602060405180830381865afa1580156116d2573d6000803e3d6000fd5b505050506040513d601f19601f82011682018060405250810190610dad9190614918565b604080518082019091526010546001600160801b038082168352600160801b9091041660208201526000906111a2908484612da7565b600d5460011461174e5760405162461bcd60e51b8152600401610e52906146ed565b6002600d556001600160a01b038416600090815260126020908152604080832086845290915290205433908590859060ff1661179c5760405162461bcd60e51b8152600401610e5290614931565b6117a4612e43565b505050506117b587868833886139cf565b50506117c081610fa0565b6117dc5760405162461bcd60e51b8152600401610e5290614711565b50506001600d55505050565b600754600090819081906001600160a01b031633146118195760405162461bcd60e51b8152600401610e5290614968565b6118316007805460ff60a01b1916600160a01b179055565b909192565b601c546001600160a01b031633148061185957506007546001600160a01b031633145b6118755760405162461bcd60e51b8152600401610e5290614996565b6001600160a01b038516600090815260126020908152604080832087845290915290205460ff16611a8a578183116119065760405162461bcd60e51b815260206004820152602e60248201527f6d6178416d6f756e74206d7573742062652067726561746572207468616e206d60448201526d185e109bdc9c9bddd05b5bdd5b9d60921b6064820152608401610e52565b6001600160a01b0380861660008181526012602090815260408083208984528252808320805460ff199081166001908117909255825180840184528681528085018c8152601b80548086018255908852915160029283027f3ad8aa4f87544323a9d1e5dd902f40c356527a7955687113db5f9a85ad579dc18101805492909b166001600160a01b031990921691909117909955517f3ad8aa4f87544323a9d1e5dd902f40c356527a7955687113db5f9a85ad579dc29098019790975582516080810184528581528085018b81528185018b81528a151560608401908152988852601187528588208e8952909652958490209051815594519185019190915591519483019490945591516003909101805491151591909216179055517fd1fdb567cb88f0aa0ea77e4ee416e7098c8fe3cf1a23195fddd4a1fb137b1f3090611a8190879087908790879087906001600160a01b039590951685526020850193909352604084019190915260608301521515608082015260a00190565b60405180910390a15b5050505050565b6000610dad82610d77565b6000611ad1604051806040016040528060088152602001671a5cdb1a5c5d5a5960c21b815250611acb306115fb565b84613cf8565b81611adb306115fb565b101592915050565b604080518082019091526010546001600160801b038082168352600160801b9091041660208201526000906111a29084846136b7565b600760009054906101000a90046001600160a01b03166001600160a01b0316638da5cb5b6040518163ffffffff1660e01b8152600401602060405180830381865afa158015611b6c573d6000803e3d6000fd5b505050506040513d601f19601f82011682018060405250810190611b9091906149bb565b6001600160a01b0316336001600160a01b03161480611bbe5750336000908152600c602052604090205460ff165b611bda5760405162461bcd60e51b8152600401610e5290614996565b6001600160a01b038116611bed57600080fd5b600a80546001600160a01b0319166001600160a01b0392909216919091179055565b604080518082018252600f546001600160801b038082168352600160801b918290048116602080850191909152845180860190955260105480831686529290920416908301526000918290611c649083613d44565b905083811015611c78575060009392505050565b5060019392505050565b6001600160a01b03841660009081526012602090815260408083208684529091529020548490849060ff16611cc95760405162461bcd60e51b8152600401610e5290614931565b600d54600114611ceb5760405162461bcd60e51b8152600401610e52906146ed565b6002600d55611cf8612e43565b50505050611d093387868689613300565b50506001600d5550505050565b600760009054906101000a90046001600160a01b03166001600160a01b0316638da5cb5b6040518163ffffffff1660e01b8152600401602060405180830381865afa158015611d69573d6000803e3d6000fd5b505050506040513d601f19601f82011682018060405250810190611d8d91906149bb565b6001600160a01b0316336001600160a01b03161480611dbb5750336000908152600c602052604090205460ff165b611dd75760405162461bcd60e51b8152600401610e5290614996565b600780546001600160a01b0319166001600160a01b0392909216919091179055565b6000611e0483610e1f565b905080600003611e445760405162461bcd60e51b815260206004820152600b60248201526a5a45524f5f53484152455360a81b6044820152606401610e52565b611e796001600160a01b037f000000000000000000000000000000000000000000000000000000000000000016333086613d64565b611e838282613de7565b60408051848152602081018390526001600160a01b0384169133917fdcbc1c05240f31ff3ad067ef1ee35ce4997762752e3a095284754544f4c709d7910160405180910390a3610dad8382613e41565b6040805180820182526010546001600160801b038082168352600160801b9182900481166020808501919091528451808601909552600f5480831686529290920416908301526000916113179190613d44565b565b6060601b805480602002602001604051908101604052809291908181526020016000905b82821015611f94576000848152602090819020604080518082019091526002850290910180546001600160a01b03168252600190810154828401529083529092019101611f4c565b50505050905090565b6007546000906001600160a01b03163314611fca5760405162461bcd60e51b8152600401610e5290614968565b60065460075460405163a9059cbb60e01b81526001600160a01b0391821660048201526024810185905291169063a9059cbb906044016020604051808303816000875af115801561201f573d6000803e3d6000fd5b505050506040513d601f19601f82011682018060405250810190610dad91906149d8565b600061204e83611a91565b90506120856001600160a01b037f000000000000000000000000000000000000000000000000000000000000000016333084613d64565b61208f8284613de7565b60408051828152602081018590526001600160a01b0384169133917fdcbc1c05240f31ff3ad067ef1ee35ce4997762752e3a095284754544f4c709d7910160405180910390a3610dad8184613e41565b60408051808201909152600f546001600160801b038082168352600160801b9091041660208201526000906111a2908484612da7565b60018054610cf6906146b9565b60008061212e85612ba1565b6001600160a01b038085166000908152601160209081526040808320898452825280832060020154938a1683526015825291829020548251808401909352600f546001600160801b038082168552600160801b90910416918301919091529293509091829161219e916001612da7565b6121a89084614756565b6121ba90670de0b6b3a764000061488c565b6121c491906148a3565b9695505050505050565b336000908152600360205260408120805483919083906121ef908490614756565b90915550506001600160a01b03831660008181526003602052604090819020805485019055513390600080516020614bb783398151915290610e0e9086815260200190565b6000600d546001146122585760405162461bcd60e51b8152600401610e52906146ed565b6002600d5560408051808201909152600f546001600160801b038082168352600160801b90910416602082015261229181856001612da7565b91506122c660405180604001604052806011815260200170030b6b7bab73a103a37903932b830bc9d1607d1b81525083613f19565b6110bb816122d3846134b6565b6110b4876134b6565b60006122e784610e1f565b9050336001600160a01b03831614612357576001600160a01b03821660009081526004602090815260408083203384529091529020546000198114612355576123308282614756565b6001600160a01b03841660009081526004602090815260408083203384529091529020555b505b6123618482613f5e565b61236b82826140cf565b60408051858152602081018390526001600160a01b03808516929086169133917ffbde797d201c681b91056529119e0b02407c7bb96a4a2c75c01fc9667232c8db910160405180910390a46111a26001600160a01b037f0000000000000000000000000000000000000000000000000000000000000000168486614131565b6001600160a01b03811660009081526003602090815260408083205481518083019092526010546001600160801b038082168452600160801b9091041692820192909252909190819081908190612442908683612da7565b6001600160a01b0387166000908152601560209081526040808320548151808301909252600f546001600160801b038082168452600160801b9091041692820192909252929650945061249791908590612da7565b91506124a286611341565b90508091505091939590929450565b6000336001600160a01b03831614612521576001600160a01b0382166000908152600460209081526040808320338452909152902054600019811461251f576124fa8582614756565b6001600160a01b03841660009081526004602090815260408083203384529091529020555b505b61252a84611a91565b90508060000361256a5760405162461bcd60e51b815260206004820152600b60248201526a5a45524f5f41535345545360a81b6044820152606401610e52565b6125748185613f5e565b61257e82856140cf565b60408051828152602081018690526001600160a01b03808516929086169133917ffbde797d201c681b91056529119e0b02407c7bb96a4a2c75c01fc9667232c8db910160405180910390a46111a26001600160a01b037f0000000000000000000000000000000000000000000000000000000000000000168483614131565b60408051808201909152600f546001600160801b038082168352600160801b9091041660208201526000906111a29084846136b7565b604080518082019091526010546001600160801b038082168352600160801b909104166020820152600090610dad9083836136b7565b60198054610cf6906146b9565b6001600160a01b038216600090815260036020526040812054829061269a90611a91565b101580156111a25750816126ac611ed3565b10159392505050565b6001600160a01b038116600090815260036020526040812054610dad90610d77565b428410156127275760405162461bcd60e51b815260206004820152601760248201527f5045524d49545f444541444c494e455f455850495245440000000000000000006044820152606401610e52565b600060016127336112e6565b6001600160a01b038a811660008181526005602090815260409182902080546001810190915582517f6e71edae12b1b97f4d1f60370fef10105fa2faae0126114a169c64845d6126c98184015280840194909452938d166060840152608083018c905260a083019390935260c08083018b90528151808403909101815260e08301909152805192019190912061190160f01b6101008301526101028201929092526101228101919091526101420160408051601f198184030181528282528051602091820120600084529083018083525260ff871690820152606081018590526080810184905260a0016020604051602081039080840390855afa15801561283f573d6000803e3d6000fd5b5050604051601f1901519150506001600160a01b038116158015906128755750876001600160a01b0316816001600160a01b0316145b6128b25760405162461bcd60e51b815260206004820152600e60248201526d24a72b20a624a22fa9a4a3a722a960911b6044820152606401610e52565b6001600160a01b0390811660009081526004602090815260408083208a8516808552908352928190208990555188815291928a16917f8c5be1e5ebec7d5bd14f71427d1e84f3dd0314c0f7b2291e5b200ac8c7c3b925910160405180910390a350505050505050565b6006546040516323b872dd60e01b8152336004820152306024820152604481018390526001600160a01b03909116906323b872dd906064016020604051808303816000875af1158015612972573d6000803e3d6000fd5b505050506040513d601f19601f8201168201806040525081019061299691906149d8565b5080600960008282546129a991906148c5565b909155505050565b6000600d546001146129d55760405162461bcd60e51b8152600401610e52906146ed565b6002600d556001600160a01b038416600090815260126020908152604080832086845290915290205433908590859060ff16612a235760405162461bcd60e51b8152600401610e5290614931565b612a2b612e43565b50505050612a3a338789612122565b9350612a4987858833896139cf565b5050612a5481610fa0565b612a705760405162461bcd60e51b8152600401610e5290614711565b506001600d559392505050565b6007546001600160a01b03163314612aa75760405162461bcd60e51b8152600401610e5290614968565b612ab0306115fb565b60085560075460408051637e0b9fe360e11b815290516001600160a01b039092169163fc173fc6916004808201926020929091908290030181865afa158015612afd573d6000803e3d6000fd5b505050506040513d601f19601f82011682018060405250810190612b2191906149d8565b15611f2657600754600854604051634b674ead60e11b81526001600160a01b03909216916396ce9d5a91612b5b9160040190815260200190565b602060405180830381865afa158015612b78573d6000803e3d6000fd5b505050506040513d601f19601f82011682018060405250810190612b9c9190614918565b600855565b6000805b601b54811015612da1576000601b8281548110612bc457612bc4614769565b60009182526020808320604080518082018252600294850290920180546001600160a01b03168084526001918201548486019081529087526011855282872090518752845294819020815160808101835281548152958101549386019390935292820154928401929092526003015460ff1615801560608401819052919350612c73575081516001600160a01b0390811660009081526013602090815260408083209389168352929052205415155b15612d4657600082600001516001600160a01b031663313ce5676040518163ffffffff1660e01b8152600401602060405180830381865afa158015612cbc573d6000803e3d6000fd5b505050506040513d601f19601f82011682018060405250810190612ce0919061477f565b60ff169050612cf081600a614880565b60408084015185516001600160a01b03908116600090815260136020908152848220928c168252919091529190912054612d2a919061488c565b612d3491906148a3565b612d3e90866148c5565b945050612d8c565b81516001600160a01b039081166000908152601460209081526040808320828701518452909152902054818716911603612d8c576040810151612d8990856148c5565b93505b50508080612d99906148d8565b915050612ba5565b50919050565b600083602001516001600160801b0316600003612dc55750816111a2565b602084015184516001600160801b0391821691612de391168561488c565b612ded91906148a3565b9050818015612e2b57508284600001516001600160801b031685602001516001600160801b031683612e1f919061488c565b612e2991906148a3565b105b156111a257612e3b8160016148c5565b949350505050565b60408051606081018252601a546001600160401b038082168352600160401b8204811660208401819052600160801b909204169282019290925260009182918291829190429003612e99576040015190506132b4565b6040805180820182526010546001600160801b038082168352600160801b91829004811660208085019190915284518086018652600f548084168252939093049091168282018190528451808601909552601785527f746f74616c20626f72726f776572207368617265733a200000000000000000009185019190915291929091612f249190613f19565b60208101516001600160801b03161580612f405750600e5460ff165b15612fb857600e5460ff16612f5a5763096ba6c460408401525b6001600160401b0342811660208501819052438216808652601a80546040880151909416600160801b0267ffffffffffffffff60801b19600160401b9094026001600160801b0319909516909217939093179190911617905561322b565b600083602001516001600160401b031642612fd39190614756565b835183519192506000916001600160801b0391821691612ff79116620186a061488c565b61300191906148a3565b905060008560400151838388600001516001600160401b0316436130259190614756565b604080516001600160401b0390951660208601528401929092526060830152608082015260a00160408051601f1981840301815290829052601854631b54c1a360e01b83529092506001600160a01b031690631b54c1a39061308e9084906019906004016149f5565b602060405180830381865afa1580156130ab573d6000803e3d6000fd5b505050506040513d601f19601f820116820180604052508101906130cf9190614a90565b6001600160401b038082166040890181905242821660208a01524390911688528551919850670de0b6b3a764000091613111906001600160801b03168661488c565b61311b919061488c565b61312591906148a3565b8451909a506001600160801b039061313f9082168c6148c5565b11158015613162575084516001600160801b039061315f9082168c6148c5565b11155b156131a35789846000018181516131799190614ab9565b6001600160801b031690525084518a908690613196908390614ab9565b6001600160801b03169052505b505082516020808501516001600160801b03928316600160801b9184168202176010558651601a80548985015160408b01516001600160401b039485166001600160801b031990931692909217600160401b918516919091021767ffffffffffffffff60801b1916921683029190911790558451918501519183169190921690910217600f55505b61325e6040518060400160405280601181526020017002fb4b73a32b932b9ba22b0b93732b21d1607d1b81525088613f19565b60408051888152602081018890529081018690526001600160401b038516606082015242907fb3f1ab1acc425f7672dd56d1f8912f1e1b18909cd52aef680190f13adb38a9659060800160405180910390a25050505b90919293565b600e5460ff1615611f265760405162461bcd60e51b815260206004820152601060248201526f14185d5cd8589b194e881c185d5cd95960821b6044820152606401610e52565b6001600160a01b03808516600090815260116020908152604080832085845290915290206003015460ff16908616301461345e5780156133c9576001600160a01b038086166000908152601360209081526040808320938716835292905290812080548692906133719084906148c5565b90915550506001600160a01b0385166000908152601160209081526040808320838052909152812080548692906133a99084906148c5565b909155506133c490506001600160a01b038616873087613d64565b61345e565b6001600160a01b0385811660008181526014602090815260408083208784529091529081902080546001600160a01b03191687851617905551632142170760e11b8152918816600483015230602483015260448201849052906342842e0e90606401600060405180830381600087803b15801561344557600080fd5b505af1158015613459573d6000803e3d6000fd5b505050505b604080516001600160a01b03878116825260208201859052918101869052908416907f33a089d94f9a0b7d0fe21e69b40d7dbe1965be652c7382cc778d46963db8c49b906060015b60405180910390a2505050505050565b6000600160801b82106134c857600080fd5b5090565b604080518082018252600f546001600160801b038082168352600160801b9182900481166020808501919091528451808601909552601054808316865292909204169083015260009182906135219083613d44565b9050846001600160801b03168110156135885760405162461bcd60e51b815260206004820152602360248201527f696e73756666696369656e7420636f6e74726163742061737365742062616c616044820152626e636560e81b6064820152608401610e52565b61359d826001600160801b03871660016136b7565b925084826000018181516135b19190614ab9565b6001600160801b03169052506020820180518491906135d1908390614ab9565b6001600160801b0390811690915283516020808601518316600160801b029190921617600f5533600090815260159091526040812080548693509091906136199084906148c5565b9091555050604080516001600160801b03871681526020810185905233917fe1979fe4c35e0cef342fef5668e2c8e7a7e9f5d5d1ca8fee0ac6c427fa4153af910160405180910390a26001600160a01b03841630146136af576136af6001600160a01b037f000000000000000000000000000000000000000000000000000000000000000016856001600160801b038816614131565b505092915050565b82516000906001600160801b031681036136d25750816111a2565b835160208501516001600160801b03918216916136f091168561488c565b6136fa91906148a3565b9050818015612e2b57508284602001516001600160801b031685600001516001600160801b031683612e1f919061488c565b6137606040518060400160405280600981526020016802fb9b430b932b99d160bd1b815250846001600160801b0316613f19565b61379b6040518060400160405280601081526020016f02fb0b6b7bab73a2a37a932b830bc9d160851b815250856001600160801b0316613f19565b6137ff6040518060400160405280601d81526020017f75736572426f72726f775368617265735b5f626f72726f7765725d3a2000000081525060156000846001600160a01b03166001600160a01b0316815260200190815260200160002054613f19565b83856000018181516138119190614ad9565b6001600160801b0316905250602085018051849190613831908390614ad9565b6001600160801b039081169091526001600160a01b0383166000908152601560205260408120805492871693509161386a908490614756565b9091555050845160208601516001600160801b03908116600160801b02911617600f556040516001600160a01b038216907f77c6871227e5d2dec8dadd5354f78453203e22e669cd0ec4c19d9a8c5edb31d0906138df90879087906001600160801b0392831681529116602082015260400190565b60405180910390a26001600160a01b0382163014611a8a57611a8a6001600160a01b037f00000000000000000000000000000000000000000000000000000000000000001683306001600160801b038816613d64565b60007f8b73c3c69bb8fe3d512ecc4cf759cc79239f7b179b0ffacaa9a75d522b39400f60006040516139679190614af9565b6040805191829003822060208301939093528101919091527fc89efdaa54c0f20c7adf612882df0950f5a951637e0307cdcb4c672f298b8bc660608201524660808201523060a082015260c00160405160208183030381529060405280519060200120905090565b6001600160a01b03808616600090815260116020908152604080832087845290915290206003015460ff169082163014613cac578015613bb157613a476040518060400160405280601981526020017f72656d6f76696e6720657263323020636f6c6c61746572616c000000000000008152506141af565b604080518082018252601581527403ab9b2b921b7b63630ba32b930b632b93199181d1605d1b6020808301919091526001600160a01b03808a16600090815260138352848120918816815291529190912054613aa39190613f19565b613ad760405180604001604052806012815260200171031b7b63630ba32b930b620b6b7bab73a1d160751b81525086613f19565b604080518082018252600781526603a37ba30b61d160cd1b6020808301919091526001600160a01b0389166000908152601182528381208180529091529190912054613b239190613f19565b6001600160a01b03808716600090815260136020908152604080832093871683529290529081208054879290613b5a908490614756565b90915550506001600160a01b038616600090815260116020908152604080832083805290915281208054879290613b92908490614756565b90915550613bac90506001600160a01b0387168387614131565b613cac565b6001600160a01b038681166000908152601460209081526040808320888452909152902054811690841614613c1b5760405162461bcd60e51b815260206004820152601060248201526f1b9bdd081bdddb995c881bd9881b999d60821b6044820152606401610e52565b6001600160a01b0386811660008181526014602090815260408083208984529091529081902080546001600160a01b031916905551632142170760e11b8152306004820152918416602483015260448201869052906342842e0e90606401600060405180830381600087803b158015613c9357600080fd5b505af1158015613ca7573d6000803e3d6000fd5b505050505b604080516001600160a01b03888116825260208201879052918101879052908416907f37c4d2e6036e28a1f1ed3eed26620e1e370df577673d4eb2decef5d3ea44a949906060016134a6565b613d3f838383604051602401613d1093929190614b6f565b60408051601f198184030181529190526020810180516001600160e01b031663969cdd0360e01b1790526141f5565b505050565b80518251600091613d5491614ad9565b6001600160801b03169392505050565b60006040516323b872dd60e01b81528460048201528360248201528260448201526020600060648360008a5af13d15601f3d1160016000511416171691505080611a8a5760405162461bcd60e51b81526020600482015260146024820152731514905394d1915497d19493d357d1905253115160621b6044820152606401610e52565b8060026000828254613df991906148c5565b90915550506001600160a01b038216600081815260036020908152604080832080548601905551848152600080516020614bb783398151915291015b60405180910390a35050565b6007546001600160a01b03163314613e875760405162461bcd60e51b8152602060048201526009602482015268139bdd0815985d5b1d60ba1b6044820152606401610e52565b604080518082019091526010546001600160801b038082168352600160801b909104166020820152613eb8836134b6565b81518290613ec7908390614ab9565b6001600160801b0316905250613edc826134b6565b81602001818151613eed9190614ab9565b6001600160801b0390811690915282516020909301518116600160801b02921691909117601055505050565b6107838282604051602401613f2f929190614b94565b60408051601f198184030181529190526020810180516001600160e01b03166309710a9d60e41b1790526141f5565b6007546001600160a01b03163314613fa45760405162461bcd60e51b8152602060048201526009602482015268139bdd0815985d5b1d60ba1b6044820152606401610e52565b6040805180820182526010546001600160801b038082168352600160801b9182900481166020808501919091528451808601909552600f548083168652929092041690830152600091613ff79190613d44565b90508281101561403c5760405162461bcd60e51b815260206004820152601060248201526f1b9bdd08195b9bdd59da08185cdcd95d60821b6044820152606401610e52565b604080518082019091526010546001600160801b038082168352600160801b90910416602082015261406d846134b6565b8151829061407c908390614ad9565b6001600160801b0316905250614091836134b6565b816020018181516140a29190614ad9565b6001600160801b0390811690915282516020909301518116600160801b0292169190911760105550505050565b6001600160a01b038216600090815260036020526040812080548392906140f7908490614756565b90915550506002805482900390556040518181526000906001600160a01b03841690600080516020614bb783398151915290602001613e35565b600060405163a9059cbb60e01b8152836004820152826024820152602060006044836000895af13d15601f3d11600160005114161716915050806141a95760405162461bcd60e51b815260206004820152600f60248201526e1514905394d1915497d19052531151608a1b6044820152606401610e52565b50505050565b6141f2816040516024016141c3919061425c565b60408051601f198184030181529190526020810180516001600160e01b031663104c13eb60e21b1790526141f5565b50565b80516a636f6e736f6c652e6c6f67602083016000808483855afa5050505050565b6000815180845260005b8181101561423c57602081850181015186830182015201614220565b506000602082860101526020601f19601f83011685010191505092915050565b6020815260006111a26020830184614216565b60006020828403121561428157600080fd5b5035919050565b6001600160a01b03811681146141f257600080fd5b600080604083850312156142b057600080fd5b82356142bb81614288565b946020939093013593505050565b6000806000806000608086880312156142e157600080fd5b85356142ec81614288565b945060208601356142fc81614288565b93506040860135925060608601356001600160401b038082111561431f57600080fd5b818801915088601f83011261433357600080fd5b81358181111561434257600080fd5b89602082850101111561435457600080fd5b9699959850939650602001949392505050565b600080600080600060a0868803121561437f57600080fd5b85359450602086013561439181614288565b9350604086013592506060860135915060808601356143af81614288565b809150509295509295909350565b6000602082840312156143cf57600080fd5b81356111a281614288565b600080604083850312156143ed57600080fd5b8235915060208301356143ff81614288565b809150509250929050565b60008060006060848603121561441f57600080fd5b833561442a81614288565b9250602084013561443a81614288565b929592945050506040919091013590565b80151581146141f257600080fd5b6000806040838503121561446c57600080fd5b8235915060208301356143ff8161444b565b6000806040838503121561449157600080fd5b50508035926020909101359150565b600080600080608085870312156144b657600080fd5b84356144c181614288565b9350602085013592506040850135915060608501356144df81614288565b939692955090935050565b600080600080600060a0868803121561450257600080fd5b853561450d81614288565b945060208601359350604086013592506060860135915060808601356143af8161444b565b6000806040838503121561454557600080fd5b823561455081614288565b915060208301356143ff81614288565b602080825282518282018190526000919060409081850190868401855b828110156145b3576145a384835180516001600160a01b03168252602090810151910152565b928401929085019060010161457d565b5091979650505050505050565b6000806000606084860312156145d557600080fd5b83356145e081614288565b92506020840135915060408401356145f781614288565b809150509250925092565b60008060006060848603121561461757600080fd5b83359250602084013561462981614288565b915060408401356145f781614288565b60ff811681146141f257600080fd5b600080600080600080600060e0888a03121561466357600080fd5b873561466e81614288565b9650602088013561467e81614288565b95506040880135945060608801359350608088013561469c81614639565b9699959850939692959460a0840135945060c09093013592915050565b600181811c908216806146cd57607f821691505b602082108103612da157634e487b7160e01b600052602260045260246000fd5b6020808252600a90820152695245454e5452414e435960b01b604082015260600190565b602080825260159082015274189bdc9c9bddd95c881a5cc81a5b9cdbdb1d995b9d605a1b604082015260600190565b634e487b7160e01b600052601160045260246000fd5b81810381811115610dad57610dad614740565b634e487b7160e01b600052603260045260246000fd5b60006020828403121561479157600080fd5b81516111a281614639565b600181815b808511156147d75781600019048211156147bd576147bd614740565b808516156147ca57918102915b93841c93908002906147a1565b509250929050565b6000826147ee57506001610dad565b816147fb57506000610dad565b8160018114614811576002811461481b57614837565b6001915050610dad565b60ff84111561482c5761482c614740565b50506001821b610dad565b5060208310610133831016604e8410600b841016171561485a575081810a610dad565b614864838361479c565b806000190482111561487857614878614740565b029392505050565b60006111a283836147df565b8082028115828204841417610dad57610dad614740565b6000826148c057634e487b7160e01b600052601260045260246000fd5b500490565b80820180821115610dad57610dad614740565b6000600182016148ea576148ea614740565b5060010190565b818103600083128015838313168383128216171561491157614911614740565b5092915050565b60006020828403121561492a57600080fd5b5051919050565b60208082526017908201527f636f6c6c61746572616c206e6f7420617070726f766564000000000000000000604082015260600190565b60208082526014908201527318d85b1b195c881b5d5cdd081899481d985d5b1d60621b604082015260600190565b6020808252600b908201526a08585d5d1a1bdc9a5e995960aa1b604082015260600190565b6000602082840312156149cd57600080fd5b81516111a281614288565b6000602082840312156149ea57600080fd5b81516111a28161444b565b604081526000614a086040830185614216565b60208382038185015260008554614a1e816146b9565b80855260018281168015614a395760018114614a5357614a81565b60ff1984168787015282151560051b870186019450614a81565b896000528560002060005b84811015614a79578154898201890152908301908701614a5e565b880187019550505b50929998505050505050505050565b600060208284031215614aa257600080fd5b81516001600160401b03811681146111a257600080fd5b6001600160801b0381811683821601908082111561491157614911614740565b6001600160801b0382811682821603908082111561491157614911614740565b6000808354614b07816146b9565b60018281168015614b1f5760018114614b3457614b63565b60ff1984168752821515830287019450614b63565b8760005260208060002060005b85811015614b5a5781548a820152908401908201614b41565b50505082870194505b50929695505050505050565b606081526000614b826060830186614216565b60208301949094525060400152919050565b604081526000614ba76040830185614216565b9050826020830152939250505056feddf252ad1be2c89b69c2b068fc378daa952ba7f163c4a11628f55a4df523b3efa2646970667358221220d22b89387e0b8b4204025265651f9f97774573fd6fd82538fcd47b7fe5e5448b64736f6c63430008110033",
    "linkReferences": {}
  },
  "methodIdentifiers": {
    "DOMAIN_SEPARATOR()": "3644e515",
    "Utilizer()": "350896fe",
    "_canBorrow(address)": "1f17b2c4",
    "_isLiquidatable(address)": "38094ae7",
    "addAcceptedCollateral(address,uint256,uint256,uint256,bool)": "4be085d9",
    "addCollateral(address,uint256,uint256,address)": "670c6222",
    "addInterest()": "0d09365c",
    "allowance(address,address)": "dd62ed3e",
    "approve(address,uint256)": "095ea7b3",
    "approvedCollateral(address,uint256)": "10b181b4",
    "asset()": "38d52e0f",
    "balanceOf(address)": "70a08231",
    "balanceOfUnderlying(address)": "3af9e669",
    "borrow(uint256,address,uint256,uint256,address)": "1c5ef1ab",
    "borrowLiquidityAvailable(uint256)": "6578dcfe",
    "collateralData(address,uint256)": "9189ed1c",
    "convertToAssets(uint256)": "07a2d13a",
    "convertToShares(uint256)": "c6e6f592",
    "currentRateInfo()": "95d14ca8",
    "decimals()": "313ce567",
    "deposit(uint256,address)": "6e553f65",
    "estimatedTotalAssets()": "efbb5cb0",
    "getAcceptedCollaterals()": "8354cc59",
    "getMaturityBalance()": "1104aafd",
    "getMaxBorrow(address)": "fd1c317a",
    "getUserSnapshot(address)": "b68d0a09",
    "initialize()": "8129fc1c",
    "instrumentApprovalCondition()": "83e754a0",
    "isLiquid(uint256)": "537d9409",
    "isLocked()": "a4e2d634",
    "isWithdrawAble(address,uint256)": "cd8886ee",
    "liquidate(address)": "2f865568",
    "liquidateAllPositions()": "50bb4beb",
    "liquidatePosition(uint256)": "cdddd4e5",
    "maxDeposit(address)": "402d267d",
    "maxMint(address)": "c63d75b6",
    "maxRedeem(address)": "d905777e",
    "maxWithdraw(address)": "ce96cb77",
    "mint(uint256,address)": "94bf804d",
    "name()": "06fdde03",
    "nonces(address)": "7ecebe00",
    "numAuctions()": "5c113acc",
    "onERC721Received(address,address,uint256,bytes)": "150b7a02",
    "onMarketApproval(uint256,uint256)": "416288dd",
    "paused()": "5c975abb",
    "permit(address,address,uint256,uint256,uint8,bytes32,bytes32)": "d505accf",
    "prepareWithdraw()": "49dcf4ed",
    "previewDeposit(uint256)": "ef8b30f7",
    "previewMint(uint256)": "b3d7f6b9",
    "previewRedeem(uint256)": "4cdad506",
    "previewWithdraw(uint256)": "0a28a477",
    "pullRawFunds(uint256)": "d832f791",
    "rateContract()": "eee24219",
    "rateInitCallData()": "c7be9786",
    "readyForWithdrawal()": "bdf0f253",
    "redeem(uint256,address,address)": "ba087652",
    "redeemUnderlying(uint256)": "852a12e3",
    "removeAvailableCollateral(address,uint256,address)": "dd38677a",
    "removeCollateral(address,uint256,uint256,address)": "46c11417",
    "removeableCollateral(address,uint256,address)": "95ee69ac",
    "repay(uint256,address)": "acb70815",
    "repayWithAmount(uint256,address)": "1fd09567",
    "setUtilizer(address)": "57b25996",
    "setVault(address)": "6817031b",
    "store_internal_balance()": "f3aa68d3",
    "symbol()": "95d89b41",
    "toAssetAmount(uint256,bool)": "404ffa7a",
    "toAssetShares(uint256,bool)": "56968f97",
    "toBorrowAmount(uint256,bool)": "94e301e0",
    "toBorrowShares(uint256,bool)": "c270a544",
    "totalAsset()": "f9557ccb",
    "totalAssetAvailable()": "7426e7a4",
    "totalAssets()": "01e1d114",
    "totalBorrow()": "8285ef40",
    "totalSupply()": "18160ddd",
    "transfer(address,uint256)": "a9059cbb",
    "transferFrom(address,address,uint256)": "23b872dd",
    "underlying()": "6f307dc3",
    "userAuctionId(address)": "d7da6302",
    "userBorrowShares(address)": "4fd422df",
    "userCollateralERC20(address,address)": "601b4aed",
    "userCollateralNFTs(address,uint256)": "838e9ae3",
    "validators(uint256)": "35aa2e44",
    "vault()": "fbfa77cf",
    "withdraw(uint256,address,address)": "b460af94"
  },
  "id": 11
}