{
  "abi": [
    {
      "inputs": [
        {
          "internalType": "address",
          "name": "_controller",
          "type": "address"
        },
        {
          "internalType": "address",
          "name": "_marketManager",
          "type": "address"
        }
      ],
      "stateMutability": "nonpayable",
      "type": "constructor"
    },
    {
      "anonymous": false,
      "inputs": [
        {
          "indexed": false,
          "internalType": "address",
          "name": "trader",
          "type": "address"
        },
        {
          "indexed": false,
          "internalType": "uint256",
          "name": "score",
          "type": "uint256"
        }
      ],
      "name": "ScoreUpdated",
      "type": "event"
    },
    {
      "anonymous": false,
      "inputs": [
        {
          "indexed": false,
          "internalType": "uint256",
          "name": "marketId",
          "type": "uint256"
        },
        {
          "indexed": false,
          "internalType": "address",
          "name": "recipient",
          "type": "address"
        }
      ],
      "name": "reputationUpdated",
      "type": "event"
    },
    {
      "inputs": [
        {
          "internalType": "uint256",
          "name": "bondAmount",
          "type": "uint256"
        },
        {
          "internalType": "uint256",
          "name": "collateral_amount",
          "type": "uint256"
        },
        {
          "internalType": "uint256",
          "name": "budget",
          "type": "uint256"
        }
      ],
      "name": "calcImpliedProbability",
      "outputs": [
        {
          "internalType": "uint256",
          "name": "",
          "type": "uint256"
        }
      ],
      "stateMutability": "pure",
      "type": "function"
    },
    {
      "inputs": [
        {
          "internalType": "uint256",
          "name": "percentile",
          "type": "uint256"
        }
      ],
      "name": "calculateMinScore",
      "outputs": [
        {
          "internalType": "uint256",
          "name": "",
          "type": "uint256"
        }
      ],
      "stateMutability": "view",
      "type": "function"
    },
    {
      "inputs": [
        {
          "internalType": "address",
          "name": "trader",
          "type": "address"
        },
        {
          "internalType": "uint256",
          "name": "update",
          "type": "uint256"
        }
      ],
      "name": "decrementScore",
      "outputs": [],
      "stateMutability": "nonpayable",
      "type": "function"
    },
    {
      "inputs": [
        {
          "internalType": "address",
          "name": "manager",
          "type": "address"
        }
      ],
      "name": "expectedIncrement",
      "outputs": [
        {
          "internalType": "uint256",
          "name": "",
          "type": "uint256"
        }
      ],
      "stateMutability": "view",
      "type": "function"
    },
    {
      "inputs": [
        {
          "internalType": "uint256",
          "name": "percentile",
          "type": "uint256"
        },
        {
          "internalType": "address",
          "name": "utilizer",
          "type": "address"
        }
      ],
      "name": "filterTraders",
      "outputs": [
        {
          "internalType": "address[]",
          "name": "",
          "type": "address[]"
        }
      ],
      "stateMutability": "view",
      "type": "function"
    },
    {
      "inputs": [
        {
          "internalType": "address",
          "name": "trader",
          "type": "address"
        }
      ],
      "name": "findTrader",
      "outputs": [
        {
          "internalType": "uint256",
          "name": "",
          "type": "uint256"
        }
      ],
      "stateMutability": "view",
      "type": "function"
    },
    {
      "inputs": [
        {
          "internalType": "address",
          "name": "trader",
          "type": "address"
        },
        {
          "internalType": "uint256",
          "name": "marketId",
          "type": "uint256"
        }
      ],
      "name": "getRepLog",
      "outputs": [
        {
          "components": [
            {
              "internalType": "uint256",
              "name": "collateralAmount",
              "type": "uint256"
            },
            {
              "internalType": "uint256",
              "name": "bondAmount",
              "type": "uint256"
            },
            {
              "internalType": "uint256",
              "name": "budget",
              "type": "uint256"
            },
            {
              "internalType": "bool",
              "name": "perpetual",
              "type": "bool"
            }
          ],
          "internalType": "struct ReputationManager.RepLog",
          "name": "",
          "type": "tuple"
        }
      ],
      "stateMutability": "view",
      "type": "function"
    },
    {
      "inputs": [],
      "name": "getTraders",
      "outputs": [
        {
          "internalType": "address[]",
          "name": "",
          "type": "address[]"
        }
      ],
      "stateMutability": "view",
      "type": "function"
    },
    {
      "inputs": [
        {
          "internalType": "address",
          "name": "trader",
          "type": "address"
        },
        {
          "internalType": "uint256",
          "name": "update",
          "type": "uint256"
        }
      ],
      "name": "incrementScore",
      "outputs": [],
      "stateMutability": "nonpayable",
      "type": "function"
    },
    {
      "inputs": [
        {
          "internalType": "address",
          "name": "",
          "type": "address"
        }
      ],
      "name": "isRated",
      "outputs": [
        {
          "internalType": "bool",
          "name": "",
          "type": "bool"
        }
      ],
      "stateMutability": "view",
      "type": "function"
    },
    {
      "inputs": [
        {
          "internalType": "address",
          "name": "trader",
          "type": "address"
        },
        {
          "internalType": "uint256",
          "name": "percentile",
          "type": "uint256"
        }
      ],
      "name": "isReputable",
      "outputs": [
        {
          "internalType": "bool",
          "name": "",
          "type": "bool"
        }
      ],
      "stateMutability": "view",
      "type": "function"
    },
    {
      "inputs": [
        {
          "internalType": "address",
          "name": "trader",
          "type": "address"
        },
        {
          "internalType": "uint256",
          "name": "marketId",
          "type": "uint256"
        },
        {
          "internalType": "uint256",
          "name": "bondAmount",
          "type": "uint256"
        },
        {
          "internalType": "uint256",
          "name": "collateral_amount",
          "type": "uint256"
        },
        {
          "internalType": "uint256",
          "name": "budget",
          "type": "uint256"
        },
        {
          "internalType": "bool",
          "name": "perpetual",
          "type": "bool"
        }
      ],
      "name": "recordPull",
      "outputs": [],
      "stateMutability": "nonpayable",
      "type": "function"
    },
    {
      "inputs": [
        {
          "internalType": "address",
          "name": "trader",
          "type": "address"
        },
        {
          "internalType": "uint256",
          "name": "marketId",
          "type": "uint256"
        },
        {
          "internalType": "uint256",
          "name": "bondPrice",
          "type": "uint256"
        },
        {
          "internalType": "bool",
          "name": "premature",
          "type": "bool"
        },
        {
          "internalType": "uint256",
          "name": "redeemAmount",
          "type": "uint256"
        }
      ],
      "name": "recordPush",
      "outputs": [],
      "stateMutability": "nonpayable",
      "type": "function"
    },
    {
      "inputs": [
        {
          "internalType": "address",
          "name": "",
          "type": "address"
        },
        {
          "internalType": "uint256",
          "name": "",
          "type": "uint256"
        }
      ],
      "name": "repLogs",
      "outputs": [
        {
          "internalType": "uint256",
          "name": "collateralAmount",
          "type": "uint256"
        },
        {
          "internalType": "uint256",
          "name": "bondAmount",
          "type": "uint256"
        },
        {
          "internalType": "uint256",
          "name": "budget",
          "type": "uint256"
        },
        {
          "internalType": "bool",
          "name": "perpetual",
          "type": "bool"
        }
      ],
      "stateMutability": "view",
      "type": "function"
    },
    {
      "inputs": [
        {
          "internalType": "address",
          "name": "trader",
          "type": "address"
        },
        {
          "internalType": "uint256",
          "name": "score",
          "type": "uint256"
        }
      ],
      "name": "setTraderScore",
      "outputs": [],
      "stateMutability": "nonpayable",
      "type": "function"
    },
    {
      "inputs": [
        {
          "internalType": "uint256",
          "name": "update",
          "type": "uint256"
        }
      ],
      "name": "testIncrementScore",
      "outputs": [],
      "stateMutability": "nonpayable",
      "type": "function"
    },
    {
      "inputs": [
        {
          "internalType": "address",
          "name": "",
          "type": "address"
        }
      ],
      "name": "trader_scores",
      "outputs": [
        {
          "internalType": "uint256",
          "name": "",
          "type": "uint256"
        }
      ],
      "stateMutability": "view",
      "type": "function"
    },
    {
      "inputs": [
        {
          "internalType": "uint256",
          "name": "",
          "type": "uint256"
        }
      ],
      "name": "traders",
      "outputs": [
        {
          "internalType": "address",
          "name": "",
          "type": "address"
        }
      ],
      "stateMutability": "view",
      "type": "function"
    }
  ],
  "bytecode": {
    "object": "0x60806040523480156200001157600080fd5b5060405162001bcf38038062001bcf833981016040819052620000349162000093565b600380546001600160a01b039384166001600160a01b0319918216179091556004805492909316918116919091179091556005805490911633179055620000cb565b80516001600160a01b03811681146200008e57600080fd5b919050565b60008060408385031215620000a757600080fd5b620000b28362000076565b9150620000c26020840162000076565b90509250929050565b611af480620000db6000396000f3fe608060405234801561001057600080fd5b50600436106101165760003560e01c806357b61360116100a2578063a87541f811610071578063a87541f8146102c1578063cf576e55146102d4578063dda10bca1461031c578063e1648cd21461032f578063e8a780261461034257600080fd5b806357b613601461022d578063658e387d146102355780638a2d13061461029a5780639bf7927d146102ae57600080fd5b8063224e1c2d116100e9578063224e1c2d1461019457806323ba6107146101a75780632a6b8082146101da5780632e1a65d3146101fa57806344c743931461020d57600080fd5b80630622fd171461011b5780630d159896146101305780630e2ebf0614610156578063135e563d14610169575b600080fd5b61012e6101293660046117b4565b610355565b005b61014361013e3660046117de565b61039f565b6040519081526020015b60405180910390f35b6101436101643660046117f7565b610451565b61017c6101773660046117de565b6104af565b6040516001600160a01b03909116815260200161014d565b61012e6101a23660046117b4565b6104d9565b6101ca6101b53660046117f7565b60016020526000908152604090205460ff1681565b604051901515815260200161014d565b6101ed6101e8366004611812565b6105b0565b60405161014d919061183e565b61012e61020836600461188f565b6109e1565b61014361021b3660046117f7565b60006020819052908152604090205481565b6101ed610b18565b6102786102433660046117b4565b600660209081526000928352604080842090915290825290208054600182015460028301546003909301549192909160ff1684565b604080519485526020850193909352918301521515606082015260800161014d565b6101436102a83660046117f7565b50600090565b61012e6102bc3660046118e7565b610b7a565b61012e6102cf3660046117de565b610e5a565b6102e76102e23660046117b4565b610ed3565b60405161014d919081518152602080830151908201526040808301519082015260609182015115159181019190915260800190565b61014361032a366004611935565b610f5f565b61012e61033d3660046117b4565b610ffa565b6101ca6103503660046117b4565b6110da565b6001600160a01b03821660009081526020819052604090205480821115610389576103848361033d8385611977565b505050565b8082101561038457610384836101a28484611977565b60025460009081906103ba90670de0b6b3a76400009061198a565b90506103c76064846119a1565b6000036103d75750600092915050565b60006103ee6103e76064866119a1565b839061116d565b9050610402670de0b6b3a7640000826119a1565b90506000806002610414600185611977565b81548110610424576104246119c3565b60009182526020808320909101546001600160a01b03168352820192909252604001902054949350505050565b6000805b6002548110156104a95760028181548110610472576104726119c3565b6000918252602090912001546001600160a01b03908116908416036104975792915050565b806104a1816119d9565b915050610455565b50919050565b600281815481106104bf57600080fd5b6000918252602090912001546001600160a01b0316905081565b6003546001600160a01b03163314806104fc57506004546001600160a01b031633145b8061051157506005546001600160a01b031633145b6105365760405162461bcd60e51b815260040161052d906119f2565b60405180910390fd5b6001600160a01b0382166000908152602081905260409020548110610573576001600160a01b0382166000908152602081905260408120556105a1565b6001600160a01b0382166000908152602081905260408120805483929061059b908490611977565b90915550505b6105ac826000611189565b5050565b6002546060906000906105cc90670de0b6b3a76400009061198a565b90506105d96064856119a1565b600003610785576001600160a01b03831660009081526001602052604090205460ff16156107225760025460009061061390600190611977565b67ffffffffffffffff81111561062b5761062b611a29565b604051908082528060200260200182016040528015610654578160200160208202803683370190505b5090506000805b6002548110156107165760028181548110610678576106786119c3565b6000918252602090912001546001600160a01b03908116908716036106a05760019150610704565b600281815481106106b3576106b36119c3565b6000918252602090912001546001600160a01b0316836106d38484611977565b815181106106e3576106e36119c3565b60200260200101906001600160a01b031690816001600160a01b0316815250505b8061070e816119d9565b91505061065b565b508193505050506109db565b600280548060200260200160405190810160405280929190818152602001828054801561077857602002820191906000526020600020905b81546001600160a01b0316815260019091019060200180831161075a575b50505050509150506109db565b60006107b360648661079f670de0b6b3a76400008361198a565b6107a99190611977565b6103e791906119a1565b90506107c7670de0b6b3a7640000826119a1565b905060606001600160a01b03851615806107fa57506001600160a01b03851660009081526001602052604090205460ff16155b156108c2578167ffffffffffffffff81111561081857610818611a29565b604051908082528060200260200182016040528015610841578160200160208202803683370190505b50905060005b828110156108bc5760028181548110610862576108626119c3565b9060005260206000200160009054906101000a90046001600160a01b0316828281518110610892576108926119c3565b6001600160a01b0390921660209283029190910190910152806108b4816119d9565b915050610847565b506109d6565b6108cd600183611977565b67ffffffffffffffff8111156108e5576108e5611a29565b60405190808252806020026020018201604052801561090e578160200160208202803683370190505b5090506000805b838110156109d357866001600160a01b03166002828154811061093a5761093a6119c3565b6000918252602090912001546001600160a01b03160361095d57600191506109c1565b60028181548110610970576109706119c3565b6000918252602090912001546001600160a01b0316836109908484611977565b815181106109a0576109a06119c3565b60200260200101906001600160a01b031690816001600160a01b0316815250505b806109cb816119d9565b915050610915565b50505b925050505b92915050565b6003546001600160a01b0316331480610a0457506004546001600160a01b031633145b80610a1957506005546001600160a01b031633145b610a355760405162461bcd60e51b815260040161052d906119f2565b6001600160a01b0386166000908152600660209081526040808320888452825291829020825160808101845281548082526001830154938201939093526002820154938101939093526003015460ff161515606083015284908290610a9b908390611a3f565b905250602081018051869190610ab2908390611a3f565b9052509015156060820190815260408083019384526001600160a01b039790971660009081526006602090815288822097825296875296909620815181559401516001850155516002840155505090516003909101805460ff1916911515919091179055565b60606002805480602002602001604051908101604052809291908181526020018280548015610b7057602002820191906000526020600020905b81546001600160a01b03168152600190910190602001808311610b52575b5050505050905090565b6003546001600160a01b0316331480610b9d57506004546001600160a01b031633145b80610bb257506005546001600160a01b031633145b610bce5760405162461bcd60e51b815260040161052d906119f2565b6001600160a01b0385166000908152600660209081526040808320878452825280832081516080810183528154808252600183015494820185905260028301549382019390935260039091015460ff16151560608201529291610c31919061152c565b90508315610c9057610c4f86886000670de0b6b3a764000086611541565b6001600160a01b03871660009081526006602090815260408083208984529091528120818155600181018290556002810191909155600301805460ff191690555b816060015115610dbe57808510610cbd57610cb886886001610cb2858a611977565b86611541565b610cce565b610cce86886000610cb28986611977565b610cd8838261116d565b82511015610d125760405162461bcd60e51b81526020600482015260076024820152666c6f674552523160c81b604482015260640161052d565b8282602001511015610d505760405162461bcd60e51b81526020600482015260076024820152663637b3a2a9291960c91b604482015260640161052d565b610d5a838261116d565b82510382526020808301805185900381526001600160a01b03891660009081526006835260408082208a8352909352829020845181559051600182015590830151600282015560608301516003909101805460ff1916911515919091179055610e51565b670de0b6b3a76400008510610de357610dde86886001610cb2858a611977565b610e10565b808511158015610dfa5750670de0b6b3a764000085105b15610e1057610e1086886000610cb28986611977565b6001600160a01b03871660009081526006602090815260408083208984529091528120818155600181018290556002810191909155600301805460ff191690555b50505050505050565b3360009081526020819052604081208054839290610e79908490611a3f565b90915550610e8a9050336001611189565b3360008181526020818152604091829020548251938452908301527f66ead48cfe0e1d1aa8bad492e906c348dfcfeecbf3b7b2cdf9b1f3cfa42a2945910160405180910390a150565b610f0060405180608001604052806000815260200160008152602001600081526020016000151581525090565b506001600160a01b038216600090815260066020908152604080832084845282529182902082516080810184528154815260018201549281019290925260028101549282019290925260039091015460ff161515606082015292915050565b60008084118015610f705750600083115b610fa55760405162461bcd60e51b815260040161052d90602080825260049082015263183234bb60e11b604082015260600190565b6000610fb1848661152c565b90506000610fca6103e783670de0b6b3a7640000611977565b90506000610fd8878661152c565b905082610fe5828461116d565b610fef9190611a3f565b979650505050505050565b6003546001600160a01b031633148061101d57506004546001600160a01b031633145b8061103257506005546001600160a01b031633145b61104e5760405162461bcd60e51b815260040161052d906119f2565b6001600160a01b03821660009081526020819052604081208054839290611076908490611a3f565b909155506110879050826001611189565b6001600160a01b03821660008181526020818152604091829020548251938452908301527f66ead48cfe0e1d1aa8bad492e906c348dfcfeecbf3b7b2cdf9b1f3cfa42a2945910160405180910390a15050565b6000806110e684610451565b90506000670de0b6b3a76400006110fe836001611a3f565b60025461110b9190611977565b611115919061198a565b60025490915060009061113190670de0b6b3a76400009061198a565b9050600061113f838361152c565b61114a90606461198a565b90508581106111605760019450505050506109db565b60009450505050506109db565b60006111828383670de0b6b3a76400006115fd565b9392505050565b6001600160a01b0382166000908152602081815260408083205460019092529091205460ff166113a8576001600160a01b03831660009081526001602081905260408220805460ff191690911790556002549003611235575050600280546001810182556000919091527f405787fa12a823e0f2b7631cc41b3ba8828b3321ca811111fa75cd3aa3bb5ace0180546001600160a01b0319166001600160a01b0392909216919091179055565b60005b6002548110156113a25760008060028381548110611258576112586119c3565b60009182526020808320909101546001600160a01b0316835282019290925260400190205482111561132557600280546001818101835560008390527f405787fa12a823e0f2b7631cc41b3ba8828b3321ca811111fa75cd3aa3bb5ace90910180546001600160a01b031916905590546112dd9183916112d89190611977565b61161b565b83600282815481106112f1576112f16119c3565b9060005260206000200160006101000a8154816001600160a01b0302191690836001600160a01b0316021790555050505050565b60025461133490600190611977565b8103611390575050600280546001810182556000919091527f405787fa12a823e0f2b7631cc41b3ba8828b3321ca811111fa75cd3aa3bb5ace0180546001600160a01b0319166001600160a01b03939093169290921790915550565b8061139a816119d9565b915050611238565b50505050565b60006113b384610451565b9050801580156113c05750825b806113e157506002546113d590600190611977565b811480156113e1575082155b156113ec5750505050565b82156114aa5760005b818110156114a45760008060028381548110611413576114136119c3565b60009182526020808320909101546001600160a01b0316835282019290925260400190205483111561149257611449818361161b565b846002828154811061145d5761145d6119c3565b9060005260206000200160006101000a8154816001600160a01b0302191690836001600160a01b031602179055505050505050565b8061149c816119d9565b9150506113f5565b506113a2565b6002546000906114bc90600190611977565b90505b8181111561152557600080600283815481106114dd576114dd6119c3565b60009182526020808320909101546001600160a01b031683528201929092526040019020548310156115135761144982826116a9565b8061151d81611a52565b9150506114bf565b5050505050565b600061118283670de0b6b3a7640000846115fd565b6000816060015161156857611563826020015183600001518460400151610f5f565b611578565b604082015182516115789161152c565b90506000611586848361116d565b905084156115c8576115b9604051806040016040528060098152602001681a5b98dc995b595b9d60ba1b81525082611737565b6115c38682610ffa565b610e51565b6115f360405180604001604052806009815260200168191958dc995b595b9d60ba1b81525082611737565b610e5186826104d9565b600082600019048411830215820261161457600080fd5b5091020490565b805b82811115610384576002611632600183611977565b81548110611642576116426119c3565b600091825260209091200154600280546001600160a01b03909216918390811061166e5761166e6119c3565b600091825260209091200180546001600160a01b0319166001600160a01b0392909216919091179055806116a181611a52565b91505061161d565b815b818110156103845760026116c0826001611a3f565b815481106116d0576116d06119c3565b600091825260209091200154600280546001600160a01b0390921691839081106116fc576116fc6119c3565b600091825260209091200180546001600160a01b0319166001600160a01b03929092169190911790558061172f816119d9565b9150506116ab565b6105ac828260405160240161174d929190611a69565b60408051601f198184030181529190526020810180516001600160e01b03166309710a9d60e41b17905280516a636f6e736f6c652e6c6f67602083016000808483855afa5050505050565b80356001600160a01b03811681146117af57600080fd5b919050565b600080604083850312156117c757600080fd5b6117d083611798565b946020939093013593505050565b6000602082840312156117f057600080fd5b5035919050565b60006020828403121561180957600080fd5b61118282611798565b6000806040838503121561182557600080fd5b8235915061183560208401611798565b90509250929050565b6020808252825182820181905260009190848201906040850190845b818110156109d35783516001600160a01b03168352928401929184019160010161185a565b803580151581146117af57600080fd5b60008060008060008060c087890312156118a857600080fd5b6118b187611798565b9550602087013594506040870135935060608701359250608087013591506118db60a0880161187f565b90509295509295509295565b600080600080600060a086880312156118ff57600080fd5b61190886611798565b945060208601359350604086013592506119246060870161187f565b949793965091946080013592915050565b60008060006060848603121561194a57600080fd5b505081359360208301359350604090920135919050565b634e487b7160e01b600052601160045260246000fd5b818103818111156109db576109db611961565b80820281158282048414176109db576109db611961565b6000826119be57634e487b7160e01b600052601260045260246000fd5b500490565b634e487b7160e01b600052603260045260246000fd5b6000600182016119eb576119eb611961565b5060010190565b6020808252601c908201527f52657075746174696f6e4d616e616765723a202170726f746f636f6c00000000604082015260600190565b634e487b7160e01b600052604160045260246000fd5b808201808211156109db576109db611961565b600081611a6157611a61611961565b506000190190565b604081526000835180604084015260005b81811015611a975760208187018101516060868401015201611a7a565b506000606082850101526060601f19601f830116840101915050826020830152939250505056fea264697066735822122080548fad1f8c59bad80eafabc518bb5f6c15cc04ea114dbdda3eb0a05f883c0564736f6c63430008110033",
    "linkReferences": {}
  },
  "methodIdentifiers": {
    "calcImpliedProbability(uint256,uint256,uint256)": "dda10bca",
    "calculateMinScore(uint256)": "0d159896",
    "decrementScore(address,uint256)": "224e1c2d",
    "expectedIncrement(address)": "8a2d1306",
    "filterTraders(uint256,address)": "2a6b8082",
    "findTrader(address)": "0e2ebf06",
    "getRepLog(address,uint256)": "cf576e55",
    "getTraders()": "57b61360",
    "incrementScore(address,uint256)": "e1648cd2",
    "isRated(address)": "23ba6107",
    "isReputable(address,uint256)": "e8a78026",
    "recordPull(address,uint256,uint256,uint256,uint256,bool)": "2e1a65d3",
    "recordPush(address,uint256,uint256,bool,uint256)": "9bf7927d",
    "repLogs(address,uint256)": "658e387d",
    "setTraderScore(address,uint256)": "0622fd17",
    "testIncrementScore(uint256)": "a87541f8",
    "trader_scores(address)": "44c74393",
    "traders(uint256)": "135e563d"
  },
  "id": 16
}