{
  "abi": [
    {
      "inputs": [
        {
          "internalType": "address",
          "name": "base",
          "type": "address"
        },
        {
          "internalType": "address",
          "name": "trade",
          "type": "address"
        },
        {
          "internalType": "address",
          "name": "s_trade",
          "type": "address"
        },
        {
          "internalType": "address",
          "name": "_entry",
          "type": "address"
        },
        {
          "internalType": "address",
          "name": "_controller",
          "type": "address"
        }
      ],
      "stateMutability": "nonpayable",
      "type": "constructor"
    },
    {
      "inputs": [],
      "name": "BaseToken",
      "outputs": [
        {
          "internalType": "contract ERC20",
          "name": "",
          "type": "address"
        }
      ],
      "stateMutability": "view",
      "type": "function"
    },
    {
      "inputs": [],
      "name": "PRECISION",
      "outputs": [
        {
          "internalType": "uint256",
          "name": "",
          "type": "uint256"
        }
      ],
      "stateMutability": "view",
      "type": "function"
    },
    {
      "inputs": [],
      "name": "ROUNDLIMIT",
      "outputs": [
        {
          "internalType": "uint256",
          "name": "",
          "type": "uint256"
        }
      ],
      "stateMutability": "view",
      "type": "function"
    },
    {
      "inputs": [],
      "name": "TradeToken",
      "outputs": [
        {
          "internalType": "contract ERC20",
          "name": "",
          "type": "address"
        }
      ],
      "stateMutability": "view",
      "type": "function"
    },
    {
      "inputs": [],
      "name": "a_initial",
      "outputs": [
        {
          "internalType": "uint256",
          "name": "",
          "type": "uint256"
        }
      ],
      "stateMutability": "view",
      "type": "function"
    },
    {
      "inputs": [
        {
          "internalType": "uint128",
          "name": "x",
          "type": "uint128"
        },
        {
          "internalType": "int128",
          "name": "y",
          "type": "int128"
        }
      ],
      "name": "addDelta",
      "outputs": [
        {
          "internalType": "uint128",
          "name": "z",
          "type": "uint128"
        }
      ],
      "stateMutability": "pure",
      "type": "function"
    },
    {
      "inputs": [
        {
          "internalType": "uint256",
          "name": "amount",
          "type": "uint256"
        }
      ],
      "name": "areaBetweenCurveAndMax",
      "outputs": [
        {
          "internalType": "uint256",
          "name": "",
          "type": "uint256"
        }
      ],
      "stateMutability": "view",
      "type": "function"
    },
    {
      "inputs": [],
      "name": "b",
      "outputs": [
        {
          "internalType": "uint256",
          "name": "",
          "type": "uint256"
        }
      ],
      "stateMutability": "view",
      "type": "function"
    },
    {
      "inputs": [],
      "name": "b_initial",
      "outputs": [
        {
          "internalType": "uint256",
          "name": "",
          "type": "uint256"
        }
      ],
      "stateMutability": "view",
      "type": "function"
    },
    {
      "inputs": [],
      "name": "baseBal",
      "outputs": [
        {
          "internalType": "uint256",
          "name": "",
          "type": "uint256"
        }
      ],
      "stateMutability": "view",
      "type": "function"
    },
    {
      "inputs": [
        {
          "internalType": "uint256",
          "name": "p2",
          "type": "uint256"
        },
        {
          "internalType": "uint256",
          "name": "p1",
          "type": "uint256"
        },
        {
          "internalType": "uint256",
          "name": "L",
          "type": "uint256"
        }
      ],
      "name": "baseGivenLiquidity",
      "outputs": [
        {
          "internalType": "uint256",
          "name": "",
          "type": "uint256"
        }
      ],
      "stateMutability": "pure",
      "type": "function"
    },
    {
      "inputs": [],
      "name": "baseToken",
      "outputs": [
        {
          "internalType": "address",
          "name": "",
          "type": "address"
        }
      ],
      "stateMutability": "view",
      "type": "function"
    },
    {
      "inputs": [],
      "name": "cBal",
      "outputs": [
        {
          "internalType": "uint256",
          "name": "",
          "type": "uint256"
        }
      ],
      "stateMutability": "view",
      "type": "function"
    },
    {
      "inputs": [
        {
          "internalType": "uint256",
          "name": "P",
          "type": "uint256"
        },
        {
          "internalType": "uint256",
          "name": "I",
          "type": "uint256"
        },
        {
          "internalType": "uint256",
          "name": "sigma",
          "type": "uint256"
        }
      ],
      "name": "calculateInitCurveParams",
      "outputs": [],
      "stateMutability": "nonpayable",
      "type": "function"
    },
    {
      "inputs": [
        {
          "internalType": "uint256",
          "name": "saleAmount",
          "type": "uint256"
        },
        {
          "internalType": "uint256",
          "name": "initPrice",
          "type": "uint256"
        },
        {
          "internalType": "uint256",
          "name": "endPrice",
          "type": "uint256"
        },
        {
          "internalType": "uint256",
          "name": "sigma",
          "type": "uint256"
        }
      ],
      "name": "calculateInitCurveParamsPool",
      "outputs": [
        {
          "internalType": "uint256",
          "name": "managementFee",
          "type": "uint256"
        }
      ],
      "stateMutability": "nonpayable",
      "type": "function"
    },
    {
      "inputs": [
        {
          "internalType": "address",
          "name": "recipient",
          "type": "address"
        },
        {
          "internalType": "uint16",
          "name": "point",
          "type": "uint16"
        },
        {
          "internalType": "bool",
          "name": "isAsk",
          "type": "bool"
        }
      ],
      "name": "claimFilledOrder",
      "outputs": [
        {
          "internalType": "uint256",
          "name": "claimedAmount",
          "type": "uint256"
        }
      ],
      "stateMutability": "nonpayable",
      "type": "function"
    },
    {
      "inputs": [
        {
          "internalType": "address",
          "name": "recipient",
          "type": "address"
        },
        {
          "internalType": "uint16",
          "name": "point",
          "type": "uint16"
        },
        {
          "internalType": "bool",
          "name": "isAsk",
          "type": "bool"
        }
      ],
      "name": "claimPartiallyFilledOrder",
      "outputs": [
        {
          "internalType": "uint256",
          "name": "baseAmount",
          "type": "uint256"
        },
        {
          "internalType": "uint256",
          "name": "tradeAmount",
          "type": "uint256"
        }
      ],
      "stateMutability": "nonpayable",
      "type": "function"
    },
    {
      "inputs": [
        {
          "internalType": "address",
          "name": "recipient",
          "type": "address"
        },
        {
          "internalType": "uint16",
          "name": "tickLower",
          "type": "uint16"
        },
        {
          "internalType": "uint16",
          "name": "tickUpper",
          "type": "uint16"
        },
        {
          "internalType": "uint128",
          "name": "amount0Requested",
          "type": "uint128"
        },
        {
          "internalType": "uint128",
          "name": "amount1Requested",
          "type": "uint128"
        }
      ],
      "name": "collect",
      "outputs": [
        {
          "internalType": "uint256",
          "name": "amount0",
          "type": "uint256"
        },
        {
          "internalType": "uint256",
          "name": "amount1",
          "type": "uint256"
        }
      ],
      "stateMutability": "nonpayable",
      "type": "function"
    },
    {
      "inputs": [],
      "name": "controller",
      "outputs": [
        {
          "internalType": "address",
          "name": "",
          "type": "address"
        }
      ],
      "stateMutability": "view",
      "type": "function"
    },
    {
      "inputs": [],
      "name": "discount_cap",
      "outputs": [
        {
          "internalType": "uint256",
          "name": "",
          "type": "uint256"
        }
      ],
      "stateMutability": "view",
      "type": "function"
    },
    {
      "inputs": [],
      "name": "discountedReserves",
      "outputs": [
        {
          "internalType": "uint256",
          "name": "",
          "type": "uint256"
        }
      ],
      "stateMutability": "view",
      "type": "function"
    },
    {
      "inputs": [],
      "name": "entry",
      "outputs": [
        {
          "internalType": "address",
          "name": "",
          "type": "address"
        }
      ],
      "stateMutability": "view",
      "type": "function"
    },
    {
      "inputs": [],
      "name": "factory",
      "outputs": [
        {
          "internalType": "address",
          "name": "",
          "type": "address"
        }
      ],
      "stateMutability": "view",
      "type": "function"
    },
    {
      "inputs": [],
      "name": "fee",
      "outputs": [
        {
          "internalType": "uint24",
          "name": "",
          "type": "uint24"
        }
      ],
      "stateMutability": "view",
      "type": "function"
    },
    {
      "inputs": [],
      "name": "feeGrowthGlobalBase",
      "outputs": [
        {
          "internalType": "uint256",
          "name": "",
          "type": "uint256"
        }
      ],
      "stateMutability": "view",
      "type": "function"
    },
    {
      "inputs": [],
      "name": "feeGrowthGlobalTrade",
      "outputs": [
        {
          "internalType": "uint256",
          "name": "",
          "type": "uint256"
        }
      ],
      "stateMutability": "view",
      "type": "function"
    },
    {
      "inputs": [
        {
          "internalType": "address",
          "name": "flushTo",
          "type": "address"
        },
        {
          "internalType": "uint256",
          "name": "amount",
          "type": "uint256"
        }
      ],
      "name": "flush",
      "outputs": [],
      "stateMutability": "nonpayable",
      "type": "function"
    },
    {
      "inputs": [],
      "name": "getCurPrice",
      "outputs": [
        {
          "internalType": "uint256",
          "name": "",
          "type": "uint256"
        }
      ],
      "stateMutability": "view",
      "type": "function"
    },
    {
      "inputs": [
        {
          "internalType": "address",
          "name": "to",
          "type": "address"
        },
        {
          "internalType": "uint16",
          "name": "point",
          "type": "uint16"
        },
        {
          "internalType": "bool",
          "name": "isAsk",
          "type": "bool"
        }
      ],
      "name": "getLiq",
      "outputs": [
        {
          "internalType": "uint128",
          "name": "",
          "type": "uint128"
        }
      ],
      "stateMutability": "view",
      "type": "function"
    },
    {
      "inputs": [
        {
          "internalType": "uint16",
          "name": "point",
          "type": "uint16"
        },
        {
          "internalType": "uint256",
          "name": "pDelta",
          "type": "uint256"
        },
        {
          "internalType": "bool",
          "name": "moveUp",
          "type": "bool"
        }
      ],
      "name": "getNextPriceLimit",
      "outputs": [
        {
          "internalType": "uint256",
          "name": "",
          "type": "uint256"
        }
      ],
      "stateMutability": "pure",
      "type": "function"
    },
    {
      "inputs": [
        {
          "internalType": "uint16",
          "name": "point",
          "type": "uint16"
        },
        {
          "internalType": "bool",
          "name": "moveUp",
          "type": "bool"
        }
      ],
      "name": "getNumCross",
      "outputs": [
        {
          "internalType": "uint256",
          "name": "",
          "type": "uint256"
        }
      ],
      "stateMutability": "view",
      "type": "function"
    },
    {
      "inputs": [
        {
          "internalType": "uint16",
          "name": "point",
          "type": "uint16"
        },
        {
          "internalType": "bool",
          "name": "moveUp",
          "type": "bool"
        }
      ],
      "name": "getOneTimeLiquidity",
      "outputs": [
        {
          "internalType": "uint256",
          "name": "",
          "type": "uint256"
        }
      ],
      "stateMutability": "view",
      "type": "function"
    },
    {
      "inputs": [],
      "name": "getTraderPosition",
      "outputs": [],
      "stateMutability": "view",
      "type": "function"
    },
    {
      "inputs": [],
      "name": "liquidity",
      "outputs": [
        {
          "internalType": "uint128",
          "name": "",
          "type": "uint128"
        }
      ],
      "stateMutability": "view",
      "type": "function"
    },
    {
      "inputs": [
        {
          "internalType": "uint256",
          "name": "p2",
          "type": "uint256"
        },
        {
          "internalType": "uint256",
          "name": "p1",
          "type": "uint256"
        },
        {
          "internalType": "uint256",
          "name": "B",
          "type": "uint256"
        }
      ],
      "name": "liquidityGivenBase",
      "outputs": [
        {
          "internalType": "uint256",
          "name": "",
          "type": "uint256"
        }
      ],
      "stateMutability": "pure",
      "type": "function"
    },
    {
      "inputs": [
        {
          "internalType": "uint256",
          "name": "p2",
          "type": "uint256"
        },
        {
          "internalType": "uint256",
          "name": "p1",
          "type": "uint256"
        },
        {
          "internalType": "uint256",
          "name": "T",
          "type": "uint256"
        }
      ],
      "name": "liquidityGivenTrade",
      "outputs": [
        {
          "internalType": "uint256",
          "name": "",
          "type": "uint256"
        }
      ],
      "stateMutability": "pure",
      "type": "function"
    },
    {
      "inputs": [],
      "name": "lock",
      "outputs": [],
      "stateMutability": "nonpayable",
      "type": "function"
    },
    {
      "inputs": [
        {
          "internalType": "uint16",
          "name": "point",
          "type": "uint16"
        },
        {
          "internalType": "bool",
          "name": "isLong",
          "type": "bool"
        },
        {
          "internalType": "address",
          "name": "recipient",
          "type": "address"
        }
      ],
      "name": "makerClaimClose",
      "outputs": [
        {
          "internalType": "uint256",
          "name": "claimedAmount",
          "type": "uint256"
        }
      ],
      "stateMutability": "nonpayable",
      "type": "function"
    },
    {
      "inputs": [
        {
          "internalType": "uint16",
          "name": "point",
          "type": "uint16"
        },
        {
          "internalType": "bool",
          "name": "isLong",
          "type": "bool"
        },
        {
          "internalType": "address",
          "name": "recipient",
          "type": "address"
        }
      ],
      "name": "makerClaimOpen",
      "outputs": [
        {
          "internalType": "uint256",
          "name": "claimedAmount",
          "type": "uint256"
        }
      ],
      "stateMutability": "nonpayable",
      "type": "function"
    },
    {
      "inputs": [
        {
          "internalType": "uint16",
          "name": "point",
          "type": "uint16"
        },
        {
          "internalType": "uint256",
          "name": "amount",
          "type": "uint256"
        },
        {
          "internalType": "bool",
          "name": "isLong",
          "type": "bool"
        },
        {
          "internalType": "address",
          "name": "recipient",
          "type": "address"
        }
      ],
      "name": "makerClose",
      "outputs": [
        {
          "internalType": "uint256",
          "name": "toEscrowAmount",
          "type": "uint256"
        },
        {
          "internalType": "uint128",
          "name": "crossId",
          "type": "uint128"
        }
      ],
      "stateMutability": "nonpayable",
      "type": "function"
    },
    {
      "inputs": [
        {
          "internalType": "uint16",
          "name": "point",
          "type": "uint16"
        },
        {
          "internalType": "uint256",
          "name": "amount",
          "type": "uint256"
        },
        {
          "internalType": "bool",
          "name": "isLong",
          "type": "bool"
        },
        {
          "internalType": "address",
          "name": "recipient",
          "type": "address"
        }
      ],
      "name": "makerOpen",
      "outputs": [
        {
          "internalType": "uint256",
          "name": "toEscrowAmount",
          "type": "uint256"
        },
        {
          "internalType": "uint128",
          "name": "crossId",
          "type": "uint128"
        }
      ],
      "stateMutability": "nonpayable",
      "type": "function"
    },
    {
      "inputs": [
        {
          "internalType": "uint16",
          "name": "point",
          "type": "uint16"
        },
        {
          "internalType": "bool",
          "name": "isLong",
          "type": "bool"
        },
        {
          "internalType": "bool",
          "name": "open",
          "type": "bool"
        },
        {
          "internalType": "address",
          "name": "recipient",
          "type": "address"
        }
      ],
      "name": "makerPartiallyClaim",
      "outputs": [
        {
          "internalType": "uint256",
          "name": "baseAmount",
          "type": "uint256"
        },
        {
          "internalType": "uint256",
          "name": "tradeAmount",
          "type": "uint256"
        }
      ],
      "stateMutability": "nonpayable",
      "type": "function"
    },
    {
      "inputs": [
        {
          "internalType": "uint16",
          "name": "point",
          "type": "uint16"
        },
        {
          "internalType": "uint256",
          "name": "amount",
          "type": "uint256"
        },
        {
          "internalType": "bool",
          "name": "isLong",
          "type": "bool"
        },
        {
          "internalType": "address",
          "name": "recipient",
          "type": "address"
        }
      ],
      "name": "makerReduceClose",
      "outputs": [],
      "stateMutability": "nonpayable",
      "type": "function"
    },
    {
      "inputs": [
        {
          "internalType": "uint16",
          "name": "point",
          "type": "uint16"
        },
        {
          "internalType": "uint256",
          "name": "amount",
          "type": "uint256"
        },
        {
          "internalType": "bool",
          "name": "isLong",
          "type": "bool"
        },
        {
          "internalType": "address",
          "name": "recipient",
          "type": "address"
        }
      ],
      "name": "makerReduceOpen",
      "outputs": [],
      "stateMutability": "nonpayable",
      "type": "function"
    },
    {
      "inputs": [],
      "name": "maxPrice",
      "outputs": [
        {
          "internalType": "uint256",
          "name": "",
          "type": "uint256"
        }
      ],
      "stateMutability": "view",
      "type": "function"
    },
    {
      "inputs": [],
      "name": "owner",
      "outputs": [
        {
          "internalType": "address",
          "name": "",
          "type": "address"
        }
      ],
      "stateMutability": "view",
      "type": "function"
    },
    {
      "inputs": [
        {
          "internalType": "address",
          "name": "recipient",
          "type": "address"
        },
        {
          "internalType": "uint16",
          "name": "point",
          "type": "uint16"
        },
        {
          "internalType": "uint128",
          "name": "amount",
          "type": "uint128"
        },
        {
          "internalType": "bool",
          "name": "isAsk",
          "type": "bool"
        }
      ],
      "name": "placeLimitOrder",
      "outputs": [
        {
          "internalType": "uint256",
          "name": "amountToEscrow",
          "type": "uint256"
        },
        {
          "internalType": "uint128",
          "name": "numCross",
          "type": "uint128"
        }
      ],
      "stateMutability": "nonpayable",
      "type": "function"
    },
    {
      "inputs": [
        {
          "internalType": "uint16",
          "name": "point",
          "type": "uint16"
        }
      ],
      "name": "pointToPrice",
      "outputs": [
        {
          "internalType": "uint160",
          "name": "",
          "type": "uint160"
        }
      ],
      "stateMutability": "pure",
      "type": "function"
    },
    {
      "inputs": [
        {
          "internalType": "address",
          "name": "recipient",
          "type": "address"
        },
        {
          "internalType": "uint16",
          "name": "point",
          "type": "uint16"
        },
        {
          "internalType": "bool",
          "name": "isAsk",
          "type": "bool"
        }
      ],
      "name": "positionIsFilled",
      "outputs": [
        {
          "internalType": "bool",
          "name": "",
          "type": "bool"
        }
      ],
      "stateMutability": "view",
      "type": "function"
    },
    {
      "inputs": [
        {
          "internalType": "bytes32",
          "name": "",
          "type": "bytes32"
        }
      ],
      "name": "positions",
      "outputs": [
        {
          "internalType": "uint128",
          "name": "bidCrossId",
          "type": "uint128"
        },
        {
          "internalType": "uint128",
          "name": "askCrossId",
          "type": "uint128"
        },
        {
          "internalType": "uint128",
          "name": "askLiq",
          "type": "uint128"
        },
        {
          "internalType": "uint128",
          "name": "bidLiq",
          "type": "uint128"
        },
        {
          "internalType": "uint128",
          "name": "liquidity",
          "type": "uint128"
        },
        {
          "internalType": "uint256",
          "name": "feeGrowthInside0LastX128",
          "type": "uint256"
        },
        {
          "internalType": "uint256",
          "name": "feeGrowthInside1LastX128",
          "type": "uint256"
        },
        {
          "internalType": "uint256",
          "name": "tokensOwed0",
          "type": "uint256"
        },
        {
          "internalType": "uint256",
          "name": "tokensOwed1",
          "type": "uint256"
        }
      ],
      "stateMutability": "view",
      "type": "function"
    },
    {
      "inputs": [],
      "name": "precision",
      "outputs": [
        {
          "internalType": "uint256",
          "name": "",
          "type": "uint256"
        }
      ],
      "stateMutability": "view",
      "type": "function"
    },
    {
      "inputs": [],
      "name": "priceDelta",
      "outputs": [
        {
          "internalType": "uint256",
          "name": "",
          "type": "uint256"
        }
      ],
      "stateMutability": "view",
      "type": "function"
    },
    {
      "inputs": [
        {
          "internalType": "uint256",
          "name": "price",
          "type": "uint256"
        }
      ],
      "name": "priceToPoint",
      "outputs": [
        {
          "internalType": "uint16",
          "name": "",
          "type": "uint16"
        }
      ],
      "stateMutability": "pure",
      "type": "function"
    },
    {
      "inputs": [
        {
          "internalType": "address",
          "name": "recipient",
          "type": "address"
        },
        {
          "internalType": "uint16",
          "name": "pointLower",
          "type": "uint16"
        },
        {
          "internalType": "uint16",
          "name": "pointUpper",
          "type": "uint16"
        },
        {
          "internalType": "uint128",
          "name": "amount",
          "type": "uint128"
        },
        {
          "internalType": "bytes",
          "name": "data",
          "type": "bytes"
        }
      ],
      "name": "provide",
      "outputs": [
        {
          "internalType": "uint256",
          "name": "amount0",
          "type": "uint256"
        },
        {
          "internalType": "uint256",
          "name": "amount1",
          "type": "uint256"
        }
      ],
      "stateMutability": "nonpayable",
      "type": "function"
    },
    {
      "inputs": [
        {
          "internalType": "uint16",
          "name": "pointLower",
          "type": "uint16"
        },
        {
          "internalType": "uint16",
          "name": "pointUpper",
          "type": "uint16"
        },
        {
          "internalType": "uint128",
          "name": "amount",
          "type": "uint128"
        },
        {
          "internalType": "bytes",
          "name": "data",
          "type": "bytes"
        }
      ],
      "name": "provideLiquidity",
      "outputs": [],
      "stateMutability": "nonpayable",
      "type": "function"
    },
    {
      "inputs": [
        {
          "internalType": "address",
          "name": "recipient",
          "type": "address"
        },
        {
          "internalType": "uint16",
          "name": "point",
          "type": "uint16"
        },
        {
          "internalType": "uint128",
          "name": "amount",
          "type": "uint128"
        },
        {
          "internalType": "bool",
          "name": "isAsk",
          "type": "bool"
        }
      ],
      "name": "reduceLimitOrder",
      "outputs": [
        {
          "internalType": "uint256",
          "name": "amountToReturn",
          "type": "uint256"
        }
      ],
      "stateMutability": "nonpayable",
      "type": "function"
    },
    {
      "inputs": [
        {
          "internalType": "address",
          "name": "recipient",
          "type": "address"
        },
        {
          "internalType": "uint16",
          "name": "pointLower",
          "type": "uint16"
        },
        {
          "internalType": "uint16",
          "name": "pointUpper",
          "type": "uint16"
        },
        {
          "internalType": "uint128",
          "name": "amount",
          "type": "uint128"
        }
      ],
      "name": "remove",
      "outputs": [
        {
          "internalType": "uint256",
          "name": "",
          "type": "uint256"
        },
        {
          "internalType": "uint256",
          "name": "",
          "type": "uint256"
        }
      ],
      "stateMutability": "nonpayable",
      "type": "function"
    },
    {
      "inputs": [],
      "name": "resetLiq",
      "outputs": [],
      "stateMutability": "nonpayable",
      "type": "function"
    },
    {
      "inputs": [],
      "name": "s_tradeToken",
      "outputs": [
        {
          "internalType": "contract ERC20",
          "name": "",
          "type": "address"
        }
      ],
      "stateMutability": "view",
      "type": "function"
    },
    {
      "inputs": [
        {
          "internalType": "address",
          "name": "_entry",
          "type": "address"
        }
      ],
      "name": "setEntry",
      "outputs": [],
      "stateMutability": "nonpayable",
      "type": "function"
    },
    {
      "inputs": [],
      "name": "slot0",
      "outputs": [
        {
          "internalType": "uint160",
          "name": "curPrice",
          "type": "uint160"
        },
        {
          "internalType": "uint16",
          "name": "point",
          "type": "uint16"
        },
        {
          "internalType": "uint8",
          "name": "feeProtocol",
          "type": "uint8"
        },
        {
          "internalType": "bool",
          "name": "unlocked",
          "type": "bool"
        },
        {
          "internalType": "bool",
          "name": "amortized",
          "type": "bool"
        },
        {
          "internalType": "uint16",
          "name": "modifyLiqPoint",
          "type": "uint16"
        }
      ],
      "stateMutability": "view",
      "type": "function"
    },
    {
      "inputs": [
        {
          "internalType": "bool",
          "name": "isLong",
          "type": "bool"
        },
        {
          "internalType": "int256",
          "name": "amountIn",
          "type": "int256"
        },
        {
          "internalType": "uint256",
          "name": "priceLimit",
          "type": "uint256"
        },
        {
          "internalType": "bytes",
          "name": "data",
          "type": "bytes"
        }
      ],
      "name": "takerClose",
      "outputs": [
        {
          "internalType": "uint256",
          "name": "poolamountIn",
          "type": "uint256"
        },
        {
          "internalType": "uint256",
          "name": "poolamountOut",
          "type": "uint256"
        }
      ],
      "stateMutability": "nonpayable",
      "type": "function"
    },
    {
      "inputs": [
        {
          "internalType": "bool",
          "name": "isLong",
          "type": "bool"
        },
        {
          "internalType": "int256",
          "name": "amountIn",
          "type": "int256"
        },
        {
          "internalType": "uint256",
          "name": "priceLimit",
          "type": "uint256"
        },
        {
          "internalType": "bytes",
          "name": "data",
          "type": "bytes"
        }
      ],
      "name": "takerOpen",
      "outputs": [
        {
          "internalType": "uint256",
          "name": "poolamountIn",
          "type": "uint256"
        },
        {
          "internalType": "uint256",
          "name": "poolamountOut",
          "type": "uint256"
        }
      ],
      "stateMutability": "nonpayable",
      "type": "function"
    },
    {
      "inputs": [],
      "name": "tickSpacing",
      "outputs": [
        {
          "internalType": "int24",
          "name": "",
          "type": "int24"
        }
      ],
      "stateMutability": "view",
      "type": "function"
    },
    {
      "inputs": [
        {
          "internalType": "uint16",
          "name": "",
          "type": "uint16"
        }
      ],
      "name": "ticks",
      "outputs": [
        {
          "internalType": "uint128",
          "name": "liquidityGross",
          "type": "uint128"
        },
        {
          "internalType": "int128",
          "name": "liquidityNet",
          "type": "int128"
        },
        {
          "internalType": "uint256",
          "name": "feeGrowthOutsideBase",
          "type": "uint256"
        },
        {
          "internalType": "uint256",
          "name": "feeGrowthOutsideTrade",
          "type": "uint256"
        },
        {
          "internalType": "int56",
          "name": "tickCumulativeOutside",
          "type": "int56"
        },
        {
          "internalType": "uint160",
          "name": "secondsPerLiquidityOutsideX128",
          "type": "uint160"
        },
        {
          "internalType": "uint32",
          "name": "secondsOutside",
          "type": "uint32"
        },
        {
          "internalType": "bool",
          "name": "initialized",
          "type": "bool"
        },
        {
          "internalType": "uint128",
          "name": "askLiquidityGross",
          "type": "uint128"
        },
        {
          "internalType": "uint128",
          "name": "bidLiquidityGross",
          "type": "uint128"
        },
        {
          "internalType": "uint128",
          "name": "askNumCross",
          "type": "uint128"
        },
        {
          "internalType": "uint128",
          "name": "bidNumCross",
          "type": "uint128"
        }
      ],
      "stateMutability": "view",
      "type": "function"
    },
    {
      "inputs": [
        {
          "internalType": "address",
          "name": "recipient",
          "type": "address"
        },
        {
          "internalType": "bool",
          "name": "moveUp",
          "type": "bool"
        },
        {
          "internalType": "int256",
          "name": "amountSpecified",
          "type": "int256"
        },
        {
          "internalType": "uint256",
          "name": "priceLimit",
          "type": "uint256"
        },
        {
          "internalType": "bytes",
          "name": "data",
          "type": "bytes"
        }
      ],
      "name": "trade",
      "outputs": [
        {
          "internalType": "uint256",
          "name": "amountIn",
          "type": "uint256"
        },
        {
          "internalType": "uint256",
          "name": "amountOut",
          "type": "uint256"
        }
      ],
      "stateMutability": "nonpayable",
      "type": "function"
    },
    {
      "inputs": [
        {
          "internalType": "uint256",
          "name": "p2",
          "type": "uint256"
        },
        {
          "internalType": "uint256",
          "name": "p1",
          "type": "uint256"
        },
        {
          "internalType": "uint256",
          "name": "L",
          "type": "uint256"
        }
      ],
      "name": "tradeGivenLiquidity",
      "outputs": [
        {
          "internalType": "uint256",
          "name": "",
          "type": "uint256"
        }
      ],
      "stateMutability": "pure",
      "type": "function"
    },
    {
      "inputs": [],
      "name": "tradeToken",
      "outputs": [
        {
          "internalType": "address",
          "name": "",
          "type": "address"
        }
      ],
      "stateMutability": "view",
      "type": "function"
    },
    {
      "inputs": [
        {
          "internalType": "address",
          "name": "trader",
          "type": "address"
        },
        {
          "internalType": "uint256",
          "name": "amount",
          "type": "uint256"
        },
        {
          "internalType": "bool",
          "name": "long",
          "type": "bool"
        }
      ],
      "name": "trustedBurn",
      "outputs": [],
      "stateMutability": "nonpayable",
      "type": "function"
    },
    {
      "inputs": [
        {
          "internalType": "address",
          "name": "receiver",
          "type": "address"
        },
        {
          "internalType": "uint256",
          "name": "amount",
          "type": "uint256"
        }
      ],
      "name": "trustedDiscountedMint",
      "outputs": [],
      "stateMutability": "nonpayable",
      "type": "function"
    },
    {
      "inputs": [
        {
          "internalType": "uint16",
          "name": "pointLower",
          "type": "uint16"
        },
        {
          "internalType": "uint16",
          "name": "pointUpper",
          "type": "uint16"
        },
        {
          "internalType": "uint128",
          "name": "amount",
          "type": "uint128"
        },
        {
          "internalType": "bytes",
          "name": "data",
          "type": "bytes"
        }
      ],
      "name": "withdrawLiquidity",
      "outputs": [],
      "stateMutability": "nonpayable",
      "type": "function"
    },
    {
      "inputs": [
        {
          "internalType": "uint256",
          "name": "curPrice",
          "type": "uint256"
        },
        {
          "internalType": "uint256",
          "name": "b",
          "type": "uint256"
        },
        {
          "internalType": "uint256",
          "name": "a",
          "type": "uint256"
        }
      ],
      "name": "xMax",
      "outputs": [
        {
          "internalType": "uint256",
          "name": "",
          "type": "uint256"
        }
      ],
      "stateMutability": "pure",
      "type": "function"
    },
    {
      "inputs": [
        {
          "internalType": "uint256",
          "name": "curPrice",
          "type": "uint256"
        },
        {
          "internalType": "uint256",
          "name": "b",
          "type": "uint256"
        },
        {
          "internalType": "uint256",
          "name": "a",
          "type": "uint256"
        }
      ],
      "name": "xMaxRoundUp",
      "outputs": [
        {
          "internalType": "uint256",
          "name": "",
          "type": "uint256"
        }
      ],
      "stateMutability": "pure",
      "type": "function"
    },
    {
      "inputs": [
        {
          "internalType": "uint256",
          "name": "curPrice",
          "type": "uint256"
        },
        {
          "internalType": "bool",
          "name": "moveUp",
          "type": "bool"
        }
      ],
      "name": "yInt",
      "outputs": [
        {
          "internalType": "uint256",
          "name": "",
          "type": "uint256"
        }
      ],
      "stateMutability": "pure",
      "type": "function"
    }
  ],
  "bytecode": {
    "object": "0x6101806040523480156200001257600080fd5b5060405162005b9838038062005b98833981016040819052620000359162000120565b6001600160a01b0380851660e052851661010052600060a081905260c0819052610120819052859085908590838362000078670de0b6b3a7640000606462000190565b600280546001600160801b0319166001600160801b0392909216919091179055505033608052600980546001600160a01b03199081166001600160a01b0396871617909155600a8054821694861694909417909355600b80548416928516929092179091551515610140526005805490911693821693909317909255166101605250620001ca915050565b80516001600160a01b03811681146200011b57600080fd5b919050565b600080600080600060a086880312156200013957600080fd5b620001448662000103565b9450620001546020870162000103565b9350620001646040870162000103565b9250620001746060870162000103565b9150620001846080870162000103565b90509295509295909350565b6001600160801b03818116838216028082169190828114620001c257634e487b7160e01b600052601160045260246000fd5b505092915050565b60805160a05160c05160e051610100516101205161014051610160516159146200028460003960008181610c47015281816122de01528181612e00015281816130f00152613329015260008181611db501528181611f450152818161291e015261299d01526000610b4c015260008181610b120152818161194c0152611c5e015260008181610b86015281816119720152611c8401526000610aeb015260008181610bad015261101a015260006108af01526159146000f3fe608060405234801561001057600080fd5b506004361061043d5760003560e01c806375e2d94611610236578063b501c2841161013b578063ddca3f43116100c3578063e7ca189a11610087578063e7ca189a14610c1c578063f0bb81b314610c2f578063f77c479114610c42578063f83d08ba14610c69578063f9734a2414610c7157600080fd5b8063ddca3f4314610ba8578063df99f8bf14610be3578063e37699c914610bf6578063e38d6b5c14610969578063e7c3614f14610c0957600080fd5b8063c55dae631161010a578063c55dae6314610b0d578063c93ac3ed14610b34578063d0c93a7c14610b47578063d3b5dc3b14610969578063d83678ac14610b8157600080fd5b8063b501c284146109b1578063b9033a39146109c4578063ba52fe61146106ab578063c45a015514610ae657600080fd5b806396fd1c42116101be578063a74d74d41161018d578063a74d74d414610956578063aaf5eb6814610969578063af0d37bc14610978578063b04a69fd1461098b578063b29d9b6e1461099e57600080fd5b806396fd1c421461090a5780639b6080891461091d5780639c9d7d3f14610930578063a1217e7d1461094357600080fd5b80638d01450f116102055780638d01450f146108a25780638da5cb5b146108aa57806390f81702146108d15780639314b03f146108e4578063957343f0146108f757600080fd5b806375e2d946146108565780637f1d9ae61461086957806380c0c3e71461087c5780638ce269991461088f57600080fd5b8063402d44fb11610347578063558bdb29116102cf57806368087cc31161029357806368087cc3146107fb578063681504cd1461080e5780636e2f7ad3146108215780636ed755961461082a5780637063b06c1461084d57600080fd5b8063558bdb29146107b5578063578c8579146107be5780635bfa896a146107d1578063659a544a146107df57806367f239dd146107e857600080fd5b80634970aa88116103165780634970aa88146106ad5780634a3ca717146106c05780634df7e3d0146106d3578063514ea4bf146106dc578063556769ba146107a257600080fd5b8063402d44fb1461067257806342b6c9fb1461068557806342bc52921461069857806348af71321461048257600080fd5b80631816eb13116103ca5780632353b18e116103995780632353b18e14610583578063244d59cb146105a957806332530d7f146105bc57806334327d8b146105cf5780633850c7bd146105e257600080fd5b80631816eb13146105165780631a6865021461051f5780631d2637ab1461054a5780632130ce0d1461055357600080fd5b806310f222211161041157806310f22221146104ab57806311e715d6146104d65780631376ff3e146104e757806314e2b929146104fa578063159054ea1461050d57600080fd5b80624b204514610442578063082167121461046f57806308ef2b4c14610482578063098bcc5614610498575b600080fd5b610455610450366004614ef3565b610c84565b604080519283526020830191909152015b60405180910390f35b61045561047d366004614f81565b61155d565b61048a611695565b604051908152602001610466565b6104556104a6366004614ff2565b611707565b600b546104be906001600160a01b031681565b6040516001600160a01b039091168152602001610466565b6001546001600160a01b031661048a565b61048a6104f5366004615059565b611822565b61048a6105083660046150a6565b611a29565b61048a61271081565b61048a60105481565b600254610532906001600160801b031681565b6040516001600160801b039091168152602001610466565b61048a60075481565b610566610561366004615059565b611aeb565b604080519283526001600160801b03909116602083015201610466565b6105966105913660046150a6565b611d6a565b60405161ffff9091168152602001610466565b6104556105b73660046150bf565b611d96565b6104556105ca366004615129565b6120aa565b61048a6105dd366004615172565b6122d1565b60015461062d906001600160a01b0381169061ffff600160a01b820481169160ff600160b01b8204811692600160b81b8304821692600160c01b810490921691600160c81b90041686565b604080516001600160a01b03909716875261ffff958616602088015260ff909416938601939093529015156060850152151560808401521660a082015260c001610466565b6105326106803660046151a4565b612509565b61048a610693366004615129565b6125c9565b6106ab6106a63660046151e1565b61279c565b005b6106ab6106bb3660046151fe565b6127e8565b61048a6106ce366004615257565b6128e2565b61048a600e5481565b6107476106ea3660046150a6565b600460208190526000918252604090912080546001820154600283015460038401549484015460058501546006909501546001600160801b0380861697600160801b96879004821697828716979096048216959190941693929189565b604080516001600160801b039a8b168152988a1660208a015296891696880196909652938716606087015295909116608085015260a084015260c083019390935260e082019290925261010081019190915261012001610466565b6104556107b03660046150bf565b6128ff565b61048a600d5481565b6106ab6107cc3660046151fe565b6129f4565b61048a662386f26fc1000081565b61048a60065481565b6005546104be906001600160a01b031681565b610566610809366004615283565b612ac5565b6106ab61081c3660046152b9565b612c93565b61048a600c5481565b61083d610838366004615129565b612d3c565b6040519015158152602001610466565b61048a600f5481565b6106ab6108643660046152e5565b612df5565b610455610877366004615311565b612f83565b61048a61088a3660046152e5565b613088565b6104be61089d366004615367565b6130c6565b6106ab6130e5565b6104be7f000000000000000000000000000000000000000000000000000000000000000081565b6009546104be906001600160a01b031681565b61048a6108f23660046152e5565b613157565b6106ab610905366004615283565b61316d565b6106ab6109183660046152b9565b61331e565b61053261092b366004615129565b61341f565b6106ab61093e366004615283565b613474565b61048a610951366004615382565b6135ac565b61048a6109643660046153c0565b613718565b61048a670de0b6b3a764000081565b6104556109863660046153e5565b613770565b61048a6109993660046152e5565b613867565b61048a6109ac3660046152e5565b61389d565b61048a6109bf36600461544f565b6138c4565b610a626109d2366004615367565b60036020819052600091825260409091208054600182015460028301549383015460048401546005909401546001600160801b0380851696600160801b95869004600f0b9694959094600685900b94600160381b81046001600160a01b031694600160d81b820463ffffffff1694600160f81b90920460ff1693828416938190048316928083169291909104168c565b604080516001600160801b039d8e168152600f9c909c0b60208d01528b019990995260608a019790975260069590950b60808901526001600160a01b0390931660a088015263ffffffff90911660c0870152151560e08601528516610100850152841661012084015283166101408301529190911661016082015261018001610466565b6104be7f000000000000000000000000000000000000000000000000000000000000000081565b6104be7f000000000000000000000000000000000000000000000000000000000000000081565b6106ab610b42366004615484565b6138fb565b610b6e7f000000000000000000000000000000000000000000000000000000000000000081565b60405160029190910b8152602001610466565b6104be7f000000000000000000000000000000000000000000000000000000000000000081565b610bcf7f000000000000000000000000000000000000000000000000000000000000000081565b60405162ffffff9091168152602001610466565b600a546104be906001600160a01b031681565b61048a610c04366004615257565b6139c6565b61048a610c173660046152e5565b6139d4565b610566610c2a366004615283565b613a1c565b61048a610c3d366004615382565b613af4565b6104be7f000000000000000000000000000000000000000000000000000000000000000081565b6106ab613c28565b61048a610c7f3660046152e5565b613c73565b60055460009081906001600160a01b03163314610cbc5760405162461bcd60e51b8152600401610cb3906154a4565b60405180910390fd5b60005460ff1615610cdf5760405162461bcd60e51b8152600401610cb3906154c7565b6000805460ff1916600117905560408051808201909152600f81526e2d2d2d4e65772054726164652d2d2d60881b6020820152610d1b90613d39565b6040805160c0810182526001546001600160a01b03808216835261ffff600160a01b83048116602080860182905260ff600160b01b8604811687890152600160b81b860481161515606080890191909152600160c01b87049091161515608080890191909152600160c81b90960490931660a08701528651610100810188528d81526000918101829052865190941696840196909652908201529192662386f26fc1000092909181018b610dd157600754610dd5565b6006545b8152600060208083018290526002546001600160801b03166040808501829052606094850191909152805193840181528284529083018290528281018290528301519293509091908b1390610e2a9085613d7f565b8015610e3457508b155b15610e8457600183604001818151610e4c9190615502565b9052506040830151610e5d90611d6a565b61ffff16606084018190526001805461ffff60a01b1916600160a01b830217905560208601525b825115801590610e98575089836040015114155b1561142257610ef460405180610100016040528060008152602001600061ffff1681526020016000151581526020016000815260200160008152602001600081526020016000815260200160006001600160801b031681525090565b604084015181526060840151610f0b90868f6138c4565b60608201528c610f2b5760018460600151610f269190615515565b610f3b565b6060840151610f3b906001615537565b61ffff1660208201526060840151610f5590600390613d93565b6001600160801b031660e082015281610f9257610f8d8160e001518560c00151610f7f9190615552565b6001600160801b0316613ea2565b610fb7565b610fb78160e001518560c00151610fa99190615552565b6001600160801b0316613ed9565b83526040840151610fc8908e613718565b60408085018290528501518451610fdf929061389d565b60208401908152604085810151606084015187518351631922027560e11b815260048101939093526024830191909152604482015262ffffff7f000000000000000000000000000000000000000000000000000000000000000016606482015285516084820152915160a483015284015160c482015273__$7f722a1af7b4060aab6915c87e2e2208cb$__9063324404ea9060e401608060405180830381865af4158015611091573d6000803e3d6000fd5b505050506040513d601f19601f820116820180604052508101906110b59190615572565b60c085015260a08401526080830152604080860191909152805180820190915260088152675f5f5f5f5f5f5f5f60c01b60208201526110f390613d39565b61112160405180604001604052806008815260200167435552505249434560c01b8152508560400151613f10565b61116d6040518060400160405280601e81526020017f74726164696e673b206c69717569646974792c20616d6f756e746c65667400008152508560c001516001600160801b0316613f10565b83516111819061117c906155a8565b613f55565b6111cd6040518060400160405280601881526020017f6e65787470726963656c696d69742f706f696e746e65787400000000000000008152508260600151836020015161ffff16613f9a565b6111f4604051806040016040528060018152602001606160f81b8152508460000151613f10565b61122d6040518060400160405280600e81526020016d185b5bdd5b9d1a5b985b991bdd5d60921b81525082608001518360a00151613f9a565b61125b6040518060400160405280600381526020016239963160e91b81525084602001518560400151613f9a565b811561127d576080810151845185906112759083906155c4565b905250611295565b6080810151845185906112919083906155e4565b9052505b8060a00151846020018181516112ab9190615502565b90525060c08401516001600160801b0316156112f25760c080850151908201516112dd916001600160801b0316613fe1565b846080018181516112ee9190615502565b9052505b806060015184604001510361141c5760e08101516001600160801b031615611326576060840151611326906003908f613ff6565b6020810151600654600754600092611340926003926140ed565b9050866080015115801561136357508660a0015161ffff16826020015161ffff16145b156113915760208083015161ffff1660009081526008909152604090205461138e90600f0b8261560c565b90505b604080518082018252600a81526964796e616d69634c697160b01b6020808301919091528481015161ffff166000908152600890915291909120546113df9190600f90810b9084900b613f9a565b8d6113f0576113ed81615642565b90505b6113fe8560c0015182612509565b6001600160801b031660c086015250602081015161ffff1660608501525b50610e84565b61142f8360400151614140565b600180546001600160a01b0319166001600160a01b03929092169190911790556020850151606084015161ffff91821691161461148c5760608301516001805461ffff909216600160a01b0261ffff60a01b199092169190911790555b8260c001516001600160801b03168360e001516001600160801b0316146114d25760c0830151600280546001600160801b0319166001600160801b039092169190911790555b8b156114e15760808301516006555b806115125761271083602001516114f89190615502565b83516115038d6155a8565b61150d91906155e4565b61153f565b8b61152d578251611523908c6155c4565b836020015161153f565b8251611539908c6155c4565b83602001515b6000805460ff19169055909e909d509b505050505050505050505050565b600080831561158e57841561158257611578838760006120aa565b90925090506115b2565b611578838760016120aa565b84156115a057611578838760016120aa565b6115ac838760006120aa565b90925090505b60095460405163a9059cbb60e01b81526001600160a01b039091169063a9059cbb906115e49086908690600401615668565b6020604051808303816000875af1158015611603573d6000803e3d6000fd5b505050506040513d601f19601f820116820180604052508101906116279190615681565b50600a546040516340c10f1960e01b81526001600160a01b03909116906340c10f199061165a9086908590600401615668565b600060405180830381600087803b15801561167457600080fd5b505af1158015611688573d6000803e3d6000fd5b5050505094509492505050565b6009546040516370a0823160e01b81523060048201526000916001600160a01b0316906370a0823190602401602060405180830381865afa1580156116de573d6000803e3d6000fd5b505050506040513d601f19601f82011682018060405250810190611702919061569e565b905090565b60055460009081906001600160a01b031633146117365760405162461bcd60e51b8152600401610cb3906154a4565b60005460ff16156117595760405162461bcd60e51b8152600401610cb3906154c7565b6000805460ff19166001178155611773600433898961415b565b90508060050154856001600160801b03161161179857846001600160801b031661179e565b80600501545b92508060060154846001600160801b0316116117c357836001600160801b03166117c9565b80600601545b915082156117eb57828160050160008282546117e591906156b7565b90915550505b811561180b578181600601600082825461180591906156b7565b90915550505b506000805460ff1916905590969095509350505050565b6005546000906001600160a01b0316331461184f5760405162461bcd60e51b8152600401610cb3906154a4565b60005460ff16156118725760405162461bcd60e51b8152600401610cb3906154c7565b6000805460ff191660019081179091555461ffff85169061189b906001600160a01b0316611d6a565b61ffff16036118f85760405162461bcd60e51b815260206004820152602360248201527f43616e277420726564756365206f7264657220666f722063757272656e74207460448201526269636b60e81b6064820152608401610cb3565b6000611914338661190a816001615537565b600492919061415b565b905061192c61192285615642565b82908560006141c6565b6119438561193986615642565b600391908661429b565b600083611970577f0000000000000000000000000000000000000000000000000000000000000000611992565b7f00000000000000000000000000000000000000000000000000000000000000005b9050836119d9576119d46119aa61089d886001615537565b6001600160a01b03166119bc886130c6565b6001600160a01b0316876001600160801b0316613c73565b611a14565b611a146119ea61089d886001615537565b6001600160a01b03166119fc886130c6565b6001600160a01b0316876001600160801b0316613088565b6000805460ff19169055979650505050505050565b600c54600d5460405163018b035160e01b8152600481018490526000602482018190526044820193909352606481019190915260016084820152819073__$7f722a1af7b4060aab6915c87e2e2208cb$__9063018b03519060a4016040805180830381865af4158015611aa0573d6000803e3d6000fd5b505050506040513d601f19601f82011682018060405250810190611ac491906156ca565b50905082611ada82670de0b6b3a764000061436c565b611ae491906156b7565b9392505050565b60055460009081906001600160a01b03163314611b1a5760405162461bcd60e51b8152600401610cb3906154a4565b60005460ff1615611b3d5760405162461bcd60e51b8152600401610cb3906154c7565b6000805460ff19166001179055828015611b7357506001546001600160a01b0316611b67866130c6565b6001600160a01b031611155b15611bb15760405162461bcd60e51b815260206004820152600e60248201526d61736b2062656c6f77207072696560901b6044820152606401610cb3565b82158015611bdb57506001546001600160a01b0316611bcf866130c6565b6001600160a01b031610155b15611c1a5760405162461bcd60e51b815260206004820152600f60248201526e626964732061626f7665207072696560881b6044820152606401610cb3565b6000611c2c878761190a816001615537565b9050611c3a60038786614381565b9150611c48818686856141c6565b611c55600387878761429b565b600084611c82577f0000000000000000000000000000000000000000000000000000000000000000611ca4565b7f00000000000000000000000000000000000000000000000000000000000000005b905084611ceb57611ce6611cbc61089d896001615537565b6001600160a01b0316611cce896130c6565b6001600160a01b0316886001600160801b0316613c73565b611d26565b611d26611cfc61089d896001615537565b6001600160a01b0316611d0e896130c6565b6001600160a01b0316886001600160801b0316613088565b9350611d5360405180604001604052806009815260200168185b5bdd5b9d189a5960ba1b81525085613f10565b50506000805460ff19169055909590945092505050565b6000670de0b6b3a7640000611d8683662386f26fc10000613fe1565b611d909190615704565b92915050565b6000808615611f0f57611dae33600188888888610c84565b90925090507f000000000000000000000000000000000000000000000000000000000000000015611deb57611de633828460016143d9565b6120a0565b6000611df5611695565b604051636d29069f60e11b8152909150339063da520d3e90611e1f90869089908990600401615718565b600060405180830381600087803b158015611e3957600080fd5b505af1158015611e4d573d6000803e3d6000fd5b505050508083611e5d9190615502565b611e65611695565b1015611e9c5760405162461bcd60e51b81526020600482015260066024820152653130b622a92960d11b6044820152606401610cb3565b600a546001600160a01b03166340c10f19611eb9868801886151e1565b846040518363ffffffff1660e01b8152600401611ed7929190615668565b600060405180830381600087803b158015611ef157600080fd5b505af1158015611f05573d6000803e3d6000fd5b50505050506120a0565b611f1e30600088888888610c84565b90925090508080611f3784670de0b6b3a764000061452b565b611f4191906156b7565b91507f000000000000000000000000000000000000000000000000000000000000000015611f7b57611f7633848460006143d9565b61209e565b6000611f85611695565b604051636d29069f60e11b8152909150339063da520d3e90611faf9086908a908a90600401615718565b600060405180830381600087803b158015611fc957600080fd5b505af1158015611fdd573d6000803e3d6000fd5b505050508083611fed9190615502565b611ff5611695565b101561202c5760405162461bcd60e51b81526020600482015260066024820152653130b622a92960d11b6044820152606401610cb3565b600b546001600160a01b03166340c10f19612049878901896151e1565b866040518363ffffffff1660e01b8152600401612067929190615668565b600060405180830381600087803b15801561208157600080fd5b505af1158015612095573d6000803e3d6000fd5b50505050819350505b505b9550959350505050565b60055460009081906001600160a01b031633146120d95760405162461bcd60e51b8152600401610cb3906154a4565b60005460ff16156120fc5760405162461bcd60e51b8152600401610cb3906154c7565b6000805460ff1916600190811782556040805160c08101825282546001600160a01b038116825261ffff600160a01b820481166020840152600160b01b820460ff90811694840194909452600160b81b8204841615156060840152600160c01b820490931615156080830152600160c81b900490911660a0820152919061218c908890889061190a908290615537565b60015490915061ffff8716906121aa906001600160a01b0316611d6a565b61ffff16146121ef5760405162461bcd60e51b81526020600482015260116024820152704e6f742063757272656e7420707269636560781b6044820152606401610cb3565b600085612210576001820154600160801b90046001600160801b031661221f565b60018201546001600160801b03165b905061223761222d82615642565b83908860006141c6565b61224e8761224483615642565b600391908961429b565b61228561225f61089d896001615537565b6001600160a01b031684600001516001600160a01b0316836001600160801b0316613088565b93506122b983600001516001600160a01b03166122a1896130c6565b6001600160a01b0316836001600160801b0316613c73565b6000805460ff19169055989397509295505050505050565b6000336001600160a01b037f0000000000000000000000000000000000000000000000000000000000000000161461233a5760405162461bcd60e51b815260206004820152600c60248201526b1d5b985d5d1a1bdc9a5e995960a21b6044820152606401610cb3565b600061235a6123498587615502565b61235488600261574e565b90614540565b9050600061236c8261235488886156b7565b905073__$7f722a1af7b4060aab6915c87e2e2208cb$__63018b0351612392898761436c565b6040516001600160e01b031960e084901b16815260048101919091526000602482015260448101849052606481018990526001608482015260a4016040805180830381865af41580156123e9573d6000803e3d6000fd5b505050506040513d601f19601f8201168201806040525081019061240d91906156ca565b50600f55600e86905586612421838761436c565b61242b898761436c565b600f54612438908961436c565b61244291906156b7565b61244c9190615502565b61245691906156b7565b925061248f61246d670de0b6b3a764000083614540565b600280546001600160801b0319166001600160801b0392909216919091179055565b61249a600e54614555565b6124d16124a686611d6a565b61ffff16600090815260086020526040902080546001600160801b03191660016001607f1b03179055565b6124ff6124dd86611d6a565b6001805461ffff909216600160c81b0261ffff60c81b19909216919091179055565b5050949350505050565b60008082600f0b1215612576576001600160801b03831661252983615642565b6125339085615765565b9150816001600160801b0316106125715760405162461bcd60e51b81526020600482015260026024820152614c5360f01b6044820152606401610cb3565b611d90565b6001600160801b03831661258a8385615552565b9150816001600160801b03161015611d905760405162461bcd60e51b81526020600482015260026024820152614c4160f01b6044820152606401610cb3565b6005546000906001600160a01b031633146125f65760405162461bcd60e51b8152600401610cb3906154a4565b60005460ff16156126195760405162461bcd60e51b8152600401610cb3906154c7565b6000805460ff19166001908117825561263b908690869061190a908290615537565b9050600061264b60038686614381565b90506000846126645782546001600160801b0316612677565b8254600160801b90046001600160801b03165b9050806001600160801b0316826001600160801b0316116126d05760405162461bcd60e51b8152602060048201526013602482015272141bdcda5d1a5bdb881b9bdd08199a5b1b1959606a1b6044820152606401610cb3565b6000856126f1576001840154600160801b90046001600160801b0316612700565b60018401546001600160801b03165b905085156127325761272b61271961089d896001615537565b6001600160a01b03166122a1896130c6565b9450612770565b61276d61274361089d896001615537565b6001600160a01b0316612755896130c6565b6001600160a01b0316836001600160801b0316613088565b94505b61278661277c82615642565b85908860006141c6565b50506000805460ff191690555090949350505050565b6005546001600160a01b031633146127c65760405162461bcd60e51b8152600401610cb3906154a4565b600580546001600160a01b0319166001600160a01b0392909216919091179055565b6000806127f9338888888888613770565b6009546040516323b872dd60e01b81529294509092506001600160a01b0316906323b872dd9061283190339030908790600401615785565b6020604051808303816000875af1158015612850573d6000803e3d6000fd5b505050506040513d601f19601f820116820180604052508101906128749190615681565b50600a54604051632770a7eb60e21b81526001600160a01b0390911690639dc29fac906128a79033908590600401615668565b600060405180830381600087803b1580156128c157600080fd5b505af11580156128d5573d6000803e3d6000fd5b5050505050505050505050565b60006128ef600384613d93565b6001600160801b03169392505050565b60008086156129675761291733600088888888610c84565b90925090507f00000000000000000000000000000000000000000000000000000000000000001561294f57611de633828460016145ab565b611de661295e848601866151e1565b828460016145ab565b61297633600188888888610c84565b9092509050818061298f83670de0b6b3a764000061452b565b61299991906156b7565b92507f0000000000000000000000000000000000000000000000000000000000000000156129ce57611f7633848460006145ab565b6129e66129dd858701876151e1565b848460006145ab565b809150509550959350505050565b600080612a0333888888612f83565b91509150612a1b3388886001600160801b0380611707565b505060095460405163a9059cbb60e01b81526001600160a01b039091169063a9059cbb90612a4f9033908690600401615668565b6020604051808303816000875af1158015612a6e573d6000803e3d6000fd5b505050506040513d601f19601f82011682018060405250810190612a929190615681565b50600a546040516340c10f1960e01b81526001600160a01b03909116906340c10f19906128a79033908590600401615668565b6000808315612b8d57612b0c8387612b05612ae461089d836001615537565b6001600160a01b0316612af68b6130c6565b6001600160a01b03168a6139d4565b6000611aeb565b6009546040516323b872dd60e01b81529294509092506001600160a01b0316906323b872dd90612b4490869030908790600401615785565b6020604051808303816000875af1158015612b63573d6000803e3d6000fd5b505050506040513d601f19601f82011682018060405250810190612b879190615681565b50612c8a565b612bcb8387612bc4612ba361089d836001615537565b6001600160a01b0316612bb58b6130c6565b6001600160a01b03168a613867565b6001611aeb565b90925090506000612c04612be361089d896001615537565b6001600160a01b0316612bf5896130c6565b6001600160a01b031688613c73565b612c0e90846156b7565b6009546040516323b872dd60e01b81529192506001600160a01b0316906323b872dd90612c4390879030908690600401615785565b6020604051808303816000875af1158015612c62573d6000803e3d6000fd5b505050506040513d601f19601f82011682018060405250810190612c869190615681565b5091505b94509492505050565b6005546001600160a01b03163314612cbd5760405162461bcd60e51b8152600401610cb3906157a9565b600a546040516340c10f1960e01b81526001600160a01b03909116906340c10f1990612cef9085908590600401615668565b600060405180830381600087803b158015612d0957600080fd5b505af1158015612d1d573d6000803e3d6000fd5b505050508060106000828254612d339190615502565b90915550505050565b600080612d4f858561190a816001615537565b90506000612d5f60038686614381565b9050600084612d785782546001600160801b0316612d8b565b8254600160801b90046001600160801b03165b9050600085612dae576001840154600160801b90046001600160801b0316612dbd565b60018401546001600160801b03165b90506000816001600160801b0316118015612de95750816001600160801b0316836001600160801b0316115b98975050505050505050565b336001600160a01b037f00000000000000000000000000000000000000000000000000000000000000001614612e5c5760405162461bcd60e51b815260206004820152600c60248201526b1d5b985d5d1a1bdc9a5e995960a21b6044820152606401610cb3565b670de0b6b3a7640000612e7d612e728486615502565b61235486600261574e565b612e8791906156b7565b600d55612eac612e978385615502565b600d5461235490670de0b6b3a76400006156b7565b600c5573__$7f722a1af7b4060aab6915c87e2e2208cb$__63018b0351612ed3858461436c565b600c54600d546040516001600160e01b031960e086901b168152600481019390935260006024840152604483019190915260648201526001608482015260a4016040805180830381865af4158015612f2f573d6000803e3d6000fd5b505050506040513d601f19601f82011682018060405250810190612f5391906156ca565b600e55600f55600c54612f739061246d90670de0b6b3a764000090614540565b612f7e600e54614555565b505050565b60055460009081906001600160a01b03163314612fb25760405162461bcd60e51b8152600401610cb3906154a4565b60005460ff1615612fd55760405162461bcd60e51b8152600401610cb3906154c7565b6000805460ff19166001178155604080516080810182526001600160a01b038916815261ffff80891660208301528716918101919091528190819061302b906060810161302189615642565b600f0b90526146b1565b92509250925060008211806130405750600081115b15613070578183600501546130559190615502565b8184600601546130659190615502565b600685015560058401555b6000805460ff19169055909890975095505050505050565b6000828410156130aa5760405162461bcd60e51b8152600401610cb3906157cb565b6130be826130b885876156b7565b9061452b565b949350505050565b6000611d906130e0662386f26fc1000061ffff851661574e565b614140565b336001600160a01b037f0000000000000000000000000000000000000000000000000000000000000000161461312d5760405162461bcd60e51b8152600401610cb3906157a9565b600280546001600160801b03191690556131556001805460ff60c01b1916600160c01b179055565b565b60006130be8261316785876156b7565b90614949565b811561321757600061319a828661319361318e612ae461089d846001615537565b61495e565b6000611822565b60095460405163a9059cbb60e01b81529192506001600160a01b03169063a9059cbb906131cd9085908590600401615668565b6020604051808303816000875af11580156131ec573d6000803e3d6000fd5b505050506040513d601f19601f820116820180604052508101906132109190615681565b5050613318565b600061324e61318e61322d61089d886001615537565b6001600160a01b031661323f886130c6565b6001600160a01b031687613867565b905061325d8286836001611822565b506009546001600160a01b031663a9059cbb836132ab61328161089d8a6001615537565b6001600160a01b03166132938a6130c6565b6001600160a01b0316866001600160801b0316613c73565b6132b590886156b7565b6040518363ffffffff1660e01b81526004016132d2929190615668565b6020604051808303816000875af11580156132f1573d6000803e3d6000fd5b505050506040513d601f19601f820116820180604052508101906133159190615681565b50505b50505050565b336001600160a01b037f000000000000000000000000000000000000000000000000000000000000000016146133665760405162461bcd60e51b8152600401610cb3906157a9565b60001981036133e9576009546001600160a01b031663a9059cbb83613389611695565b6040518363ffffffff1660e01b81526004016133a6929190615668565b6020604051808303816000875af11580156133c5573d6000803e3d6000fd5b505050506040513d601f19601f82011682018060405250810190612f7e9190615681565b60095460405163a9059cbb60e01b81526001600160a01b039091169063a9059cbb906133a69085908590600401615668565b5050565b60008161344f57613436848461190a816001615537565b60010154600160801b90046001600160801b03166130be565b61345f848461190a816001615537565b600101546001600160801b0316949350505050565b811561350757600061349c828661349561318e612ba361089d846001615537565b6001611822565b600a546040516340c10f1960e01b81529192506001600160a01b0316906340c10f19906134cf9085908590600401615668565b600060405180830381600087803b1580156134e957600080fd5b505af11580156134fd573d6000803e3d6000fd5b5050505050613318565b613541818561319361318e61352061089d846001615537565b6001600160a01b03166135328a6130c6565b6001600160a01b031689613867565b50600b546040516340c10f1960e01b81526001600160a01b03909116906340c10f19906135749084908790600401615668565b600060405180830381600087803b15801561358e57600080fd5b505af11580156135a2573d6000803e3d6000fd5b5050505050505050565b6000821561363c576135c0828560016125c9565b60095460405163a9059cbb60e01b81529192506001600160a01b03169063a9059cbb906135f39085908590600401615668565b6020604051808303816000875af1158015613612573d6000803e3d6000fd5b505050506040513d601f19601f820116820180604052508101906136369190615681565b50611ae4565b600061364a8386600061341f565b9050613658838660006125c9565b915061367d61366b61089d876001615537565b6001600160a01b03166122a1876130c6565b61368f83670de0b6b3a764000061452b565b61369991906156b7565b60095460405163a9059cbb60e01b81529193506001600160a01b03169063a9059cbb906136cc9086908690600401615668565b6020604051808303816000875af11580156136eb573d6000803e3d6000fd5b505050506040513d601f19601f8201168201806040525081019061370f9190615681565b50509392505050565b60008061372484611d6a565b90508215801561373f575061373d61ffff8216856157ee565b155b6137515761374c816130c6565b61375f565b61375f61089d600183615515565b6001600160a01b0316949350505050565b60055460009081906001600160a01b0316331461379f5760405162461bcd60e51b8152600401610cb3906154a4565b60005460ff16156137c25760405162461bcd60e51b8152600401610cb3906154c7565b6000805460ff191660011790556001600160801b0385166138105760405162461bcd60e51b81526020600482015260086024820152670c08185b5bdd5b9d60c21b6044820152606401610cb3565b61384d60405180608001604052808a6001600160a01b031681526020018961ffff1681526020018861ffff16815260200187600f0b8152506146b1565b6000805460ff19169055909a909950975050505050505050565b6000828410156138895760405162461bcd60e51b8152600401610cb3906157cb565b6130be61389684866156b7565b8390613fe1565b6000816000036138b05750600019611ae4565b6130be826138be85876156b7565b90613fe1565b600081156138ed57826138d8856001615537565b61ffff166138e6919061574e565b9050611ae4565b6138e68361ffff861661574e565b6005546001600160a01b031633146139255760405162461bcd60e51b8152600401610cb3906157a9565b801561399457600a54604051632770a7eb60e21b81526001600160a01b0390911690639dc29fac9061395d9086908690600401615668565b600060405180830381600087803b15801561397757600080fd5b505af115801561398b573d6000803e3d6000fd5b50505050505050565b600b54604051632770a7eb60e21b81526001600160a01b0390911690639dc29fac9061395d9086908690600401615668565b60006128ef60038484614381565b6000828410156139f65760405162461bcd60e51b8152600401610cb3906157cb565b6130be6138966002613a088688615502565b613a129190615704565b6130b886886156b7565b6000808315613aa857613a3b8387612bc4612ba361089d836001615537565b600a54604051632770a7eb60e21b81529294509092506001600160a01b031690639dc29fac90613a719086908690600401615668565b600060405180830381600087803b158015613a8b57600080fd5b505af1158015613a9f573d6000803e3d6000fd5b50505050612c8a565b613abe8387612b05612ba361089d836001615537565b600b54604051632770a7eb60e21b81529294509092506001600160a01b031690639dc29fac9061165a9086908990600401615668565b60008215613b75576000613b0a838660006125c9565b600a546040516340c10f1960e01b81529192506001600160a01b0316906340c10f1990613b3d9086908590600401615668565b600060405180830381600087803b158015613b5757600080fd5b505af1158015613b6b573d6000803e3d6000fd5b5050505050611ae4565b600b546001600160a01b03166340c10f1983613bcd613b9861089d896001615537565b6001600160a01b0316613baa896130c6565b6001600160a01b0316613bbf338b600161341f565b6001600160801b0316613088565b6040518363ffffffff1660e01b8152600401613bea929190615668565b600060405180830381600087803b158015613c0457600080fd5b505af1158015613c18573d6000803e3d6000fd5b505050506130be828560016125c9565b6005546001600160a01b03163314613c525760405162461bcd60e51b8152600401610cb3906154a4565b6001805460ff60b81b198116600160b81b9182900460ff1615909102179055565b600082841015613c955760405162461bcd60e51b8152600401610cb3906157cb565b73__$7f722a1af7b4060aab6915c87e2e2208cb$__636ca35e9e613cba868686613088565b6000613cc586613ed9565b6040516001600160e01b031960e086901b16815260048101939093526024830191909152604482015260648101869052608401602060405180830381865af4158015613d15573d6000803e3d6000fd5b505050506040513d601f19601f820116820180604052508101906130be919061569e565b613d7c81604051602401613d4d9190615848565b60408051601f198184030181529190526020810180516001600160e01b031663104c13eb60e21b179052614974565b50565b6000613d8b82846157ee565b159392505050565b61ffff811660009081526020838152604080832081516101808101835281546001600160801b038082168352600160801b91829004600f0b95830195909552600183015493820193909352600282015460608201526003820154600681900b6080830152600160381b81046001600160a01b031660a0830152600160d81b810463ffffffff1660c0830152600160f81b900460ff16151560e08201526004820154808516610100830181905290849004851661012083015260059092015480851661014083015292909204909216610160820152901580613e8057506101208101516001600160801b0316155b613e8c57613e8c61585b565b8061012001518161010001516130be9190615552565b60008115613ebc57612571670de0b6b3a764000083614949565b611d90613eca836001615502565b670de0b6b3a764000090614949565b60008115613ef357612571670de0b6b3a764000083613fe1565b611d90613f01836001615502565b670de0b6b3a764000090613fe1565b61341b8282604051602401613f26929190615871565b60408051601f198184030181529190526020810180516001600160e01b03166309710a9d60e41b179052614974565b613d7c81604051602401613f6b91815260200190565b60408051601f198184030181529190526020810180516001600160e01b031663f5b1bba960e01b179052614974565b612f7e838383604051602401613fb293929190615893565b60408051601f198184030181529190526020810180516001600160e01b031663969cdd0360e01b179052614974565b6000611ae483670de0b6b3a764000084614995565b61ffff821660009081526020849052604090208115614092576004810180546001600160801b03191690556005810180546001600160801b031690600061403c836158b8565b91906101000a8154816001600160801b0302191690836001600160801b031602179055505061408d604051806040016040528060068152602001657469636b3f3f60d01b8152508461ffff16613f10565b613318565b6004810180546001600160801b03908116909155600582018054600160801b90049091169060106140c2836158b8565b91906101000a8154816001600160801b0302191690836001600160801b031602179055505050505050565b61ffff8316600090815260208590526040902080546001820154600160801b909104600f0b919061411e90856156b7565b6001820155600281015461413290846156b7565b600290910155949350505050565b806001600160a01b038116811461415657600080fd5b919050565b6040805160609490941b6bffffffffffffffffffffffff191660208086019190915260f093841b6001600160f01b031990811660348701529290931b909116603684015280516018818503018152603890930181528251928201929092206000908152929052902090565b81156142305760018401546141e4906001600160801b031684612509565b6001850180546001600160801b0319166001600160801b03929092169190911790556000600f84900b131561408d5783546001600160801b03808316600160801b029116178455613318565b600184015461424f90600160801b90046001600160801b031684612509565b6001850180546001600160801b03928316600160801b0292169190911790556000600f84900b13156133185783546001600160801b0319166001600160801b0391909116179092555050565b80156143045761ffff83166000908152602085905260409020600401546142cb906001600160801b031683612509565b61ffff8416600090815260208690526040902060040180546001600160801b0319166001600160801b0392909216919091179055613318565b61ffff831660009081526020859052604090206004015461433590600160801b90046001600160801b031683612509565b61ffff8416600090815260208690526040902060040180546001600160801b03928316600160801b02921691909117905550505050565b6000611ae48383670de0b6b3a76400006149b4565b6000816143b45761ffff8316600090815260208590526040902060050154600160801b90046001600160801b03166130be565b505061ffff16600090815260209190915260409020600501546001600160801b031690565b801561444857600a546040516340c10f1960e01b81526001600160a01b03909116906340c10f19906144119087908790600401615668565b600060405180830381600087803b15801561442b57600080fd5b505af115801561443f573d6000803e3d6000fd5b505050506144ad565b600b546040516340c10f1960e01b81526001600160a01b03909116906340c10f199061447a9087908790600401615668565b600060405180830381600087803b15801561449457600080fd5b505af11580156144a8573d6000803e3d6000fd5b505050505b6009546040516323b872dd60e01b81526001600160a01b03909116906323b872dd906144e190879030908790600401615785565b6020604051808303816000875af1158015614500573d6000803e3d6000fd5b505050506040513d601f19601f820116820180604052508101906145249190615681565b5050505050565b6000611ae48383670de0b6b3a7640000614995565b6000611ae483670de0b6b3a7640000846149b4565b61455e81611d6a565b6001805461ffff92909216600160a01b0261ffff60a01b1990921691909117905561458881614140565b600180546001600160a01b0319166001600160a01b039290921691909117905550565b801561461a57600a54604051632770a7eb60e21b81526001600160a01b0390911690639dc29fac906145e39087908690600401615668565b600060405180830381600087803b1580156145fd57600080fd5b505af1158015614611573d6000803e3d6000fd5b5050505061467f565b600b54604051632770a7eb60e21b81526001600160a01b0390911690639dc29fac9061464c9087908690600401615668565b600060405180830381600087803b15801561466657600080fd5b505af115801561467a573d6000803e3d6000fd5b505050505b60095460405163a9059cbb60e01b81526001600160a01b039091169063a9059cbb906144e19087908790600401615668565b6040805160c0810182526001546001600160a01b038116825261ffff600160a01b82048116602080850182905260ff600160b01b8504811686880152600160b81b850481161515606080880191909152600160c01b860490911615156080870152600160c81b90940490921660a08501528551918601519486015192860151600095869586959094614745949093906149d2565b93508460600151600f0b60001461494157846020015161ffff16816020015161ffff1610156147d7576147d061477e86604001516130c6565b6001600160a01b031661479487602001516130c6565b6001600160a01b031660008860600151600f0b12156147c35787606001516147bb90615642565b600f0b613088565b8760600151600f0b613088565b9150614941565b846040015161ffff16816020015161ffff1610156148e45760025460408601516001600160801b039091169061485290614810906130c6565b6001600160a01b031683600001516001600160a01b031660008960600151600f0b12156148455788606001516147bb90615642565b8860600151600f0b613088565b92506148ae82600001516001600160a01b031661487288602001516130c6565b6001600160a01b031660008960600151600f0b12156148a157886060015161489990615642565b600f0b613c73565b8860600151600f0b613c73565b93506148be818760600151612509565b600280546001600160801b0319166001600160801b039290921691909117905550614941565b61493e6148f486604001516130c6565b6001600160a01b031661490a87602001516130c6565b6001600160a01b031660008860600151600f0b121561493157876060015161489990615642565b8760600151600f0b613c73565b92505b509193909250565b6000611ae483670de0b6b3a764000084614a5e565b806001600160801b038116811461415657600080fd5b80516a636f6e736f6c652e6c6f67602083016000808483855afa5050505050565b8282028115158415858304851417166149ad57600080fd5b0492915050565b60008260001904841183021582026149cb57600080fd5b5091020490565b60006149e1600487878761415b565b60065460075491925090600f85900b15614a2e57600654600754614a10916003918a9188918a91906000614a8c565b50600654600754614a2c91600391899188918a91906001614a8c565b505b600080614a4060038a8a898888614b98565b9092509050614a5185888484614c84565b5050505095945050505050565b828202811515841585830485141716614a7657600080fd5b6001826001830304018115150290509392505050565b61ffff8616600090815260208890526040812080546001600160801b031682614ab58289612509565b6001600160801b0380821615908416801591909114159550909150600003614b0d578861ffff168a61ffff1611614af55760018301879055600283018690555b6003830180546001600160f81b0316600160f81b1790555b82546001600160801b0319166001600160801b03821617835584614b53578254614b4e90614b4990600f8b810b91600160801b9004900b6155e4565b614e76565b614b71565b8254614b7190614b4990600f8b810b91600160801b9004900b6155c4565b83546001600160801b03918216600160801b02911617909255509098975050505050505050565b61ffff80861660008181526020899052604080822088851683529082209193849391929184918291908a1610614bd957505060018201546002830154614bfd565b6001840154614be890896156b7565b9150836002015487614bfa91906156b7565b90505b6000808b61ffff168b61ffff161015614c2157505060018301546002840154614c45565b6001850154614c30908b6156b7565b9150846002015489614c4291906156b7565b90505b81614c50858c6156b7565b614c5a91906156b7565b975080614c67848b6156b7565b614c7191906156b7565b9650505050505050965096945050505050565b604080516101208101825285546001600160801b038082168352600160801b918290048116602084015260018801548082169484019490945292048216606082015260028601549091166080820152600385015460a0820152600485015460c0820152600585015460e082015260068501546101008201526000600f85900b8103614d5657600082608001516001600160801b031611614d4b5760405162461bcd60e51b815260206004820152600260248201526104e560f41b6044820152606401610cb3565b506080810151614d67565b614d64826080015186612509565b90505b6000614d9a83608001516001600160801b0316670de0b6b3a76400008560a0015188614d9391906156b7565b9190614995565b90506000614dc884608001516001600160801b0316670de0b6b3a76400008660c0015188614d9391906156b7565b905086600f0b600014614df3576002880180546001600160801b0319166001600160801b0385161790555b60038801869055600488018590556001600160801b038216151580614e2157506000816001600160801b0316115b156135a257816001600160801b0316886005016000828254614e439190615502565b92505081905550806001600160801b0316886006016000828254614e679190615502565b90915550505050505050505050565b80600f81900b811461415657600080fd5b6001600160a01b0381168114613d7c57600080fd5b8015158114613d7c57600080fd5b60008083601f840112614ebc57600080fd5b50813567ffffffffffffffff811115614ed457600080fd5b602083019150836020828501011115614eec57600080fd5b9250929050565b60008060008060008060a08789031215614f0c57600080fd5b8635614f1781614e87565b95506020870135614f2781614e9c565b94506040870135935060608701359250608087013567ffffffffffffffff811115614f5157600080fd5b614f5d89828a01614eaa565b979a9699509497509295939492505050565b803561ffff8116811461415657600080fd5b60008060008060808587031215614f9757600080fd5b614fa085614f6f565b93506020850135614fb081614e9c565b92506040850135614fc081614e9c565b91506060850135614fd081614e87565b939692955090935050565b80356001600160801b038116811461415657600080fd5b600080600080600060a0868803121561500a57600080fd5b853561501581614e87565b945061502360208701614f6f565b935061503160408701614f6f565b925061503f60608701614fdb565b915061504d60808701614fdb565b90509295509295909350565b6000806000806080858703121561506f57600080fd5b843561507a81614e87565b935061508860208601614f6f565b925061509660408601614fdb565b91506060850135614fd081614e9c565b6000602082840312156150b857600080fd5b5035919050565b6000806000806000608086880312156150d757600080fd5b85356150e281614e9c565b94506020860135935060408601359250606086013567ffffffffffffffff81111561510c57600080fd5b61511888828901614eaa565b969995985093965092949392505050565b60008060006060848603121561513e57600080fd5b833561514981614e87565b925061515760208501614f6f565b9150604084013561516781614e9c565b809150509250925092565b6000806000806080858703121561518857600080fd5b5050823594602084013594506040840135936060013592509050565b600080604083850312156151b757600080fd5b6151c083614fdb565b9150602083013580600f0b81146151d657600080fd5b809150509250929050565b6000602082840312156151f357600080fd5b8135611ae481614e87565b60008060008060006080868803121561521657600080fd5b61521f86614f6f565b945061522d60208701614f6f565b935061523b60408701614fdb565b9250606086013567ffffffffffffffff81111561510c57600080fd5b6000806040838503121561526a57600080fd5b61527383614f6f565b915060208301356151d681614e9c565b6000806000806080858703121561529957600080fd5b6152a285614f6f565b9350602085013592506040850135614fc081614e9c565b600080604083850312156152cc57600080fd5b82356152d781614e87565b946020939093013593505050565b6000806000606084860312156152fa57600080fd5b505081359360208301359350604090920135919050565b6000806000806080858703121561532757600080fd5b843561533281614e87565b935061534060208601614f6f565b925061534e60408601614f6f565b915061535c60608601614fdb565b905092959194509250565b60006020828403121561537957600080fd5b611ae482614f6f565b60008060006060848603121561539757600080fd5b6153a084614f6f565b925060208401356153b081614e9c565b9150604084013561516781614e87565b600080604083850312156153d357600080fd5b8235915060208301356151d681614e9c565b60008060008060008060a087890312156153fe57600080fd5b863561540981614e87565b955061541760208801614f6f565b945061542560408801614f6f565b935061543360608801614fdb565b9250608087013567ffffffffffffffff811115614f5157600080fd5b60008060006060848603121561546457600080fd5b61546d84614f6f565b925060208401359150604084013561516781614e9c565b60008060006060848603121561549957600080fd5b833561546d81614e87565b6020808252600990820152684e6f7420456e74727960b81b604082015260600190565b6020808252600b908201526a4552525f5245454e54525960a81b604082015260600190565b634e487b7160e01b600052601160045260246000fd5b80820180821115611d9057611d906154ec565b61ffff828116828216039080821115615530576155306154ec565b5092915050565b61ffff818116838216019080821115615530576155306154ec565b6001600160801b03818116838216019080821115615530576155306154ec565b6000806000806080858703121561558857600080fd5b505082516020840151604085015160609095015191969095509092509050565b6000600160ff1b82016155bd576155bd6154ec565b5060000390565b8181036000831280158383131683831282161715615530576155306154ec565b8082018281126000831280158216821582161715615604576156046154ec565b505092915050565b600f81810b9083900b0160016001607f1b0381136f7fffffffffffffffffffffffffffffff1982121715611d9057611d906154ec565b600081600f0b60016001607f1b0319810361565f5761565f6154ec565b60000392915050565b6001600160a01b03929092168252602082015260400190565b60006020828403121561569357600080fd5b8151611ae481614e9c565b6000602082840312156156b057600080fd5b5051919050565b81810381811115611d9057611d906154ec565b600080604083850312156156dd57600080fd5b505080516020909101519092909150565b634e487b7160e01b600052601260045260246000fd5b600082615713576157136156ee565b500490565b83815260406020820152816040820152818360608301376000818301606090810191909152601f909201601f1916010192915050565b8082028115828204841417611d9057611d906154ec565b6001600160801b03828116828216039080821115615530576155306154ec565b6001600160a01b039384168152919092166020820152604081019190915260600190565b60208082526008908201526732b73a393ca2a92960c11b604082015260600190565b602080825260099082015268383934b1b29022a92960b91b604082015260600190565b6000826157fd576157fd6156ee565b500690565b6000815180845260005b818110156158285760208185018101518683018201520161580c565b506000602082860101526020601f19601f83011685010191505092915050565b602081526000611ae46020830184615802565b634e487b7160e01b600052600160045260246000fd5b6040815260006158846040830185615802565b90508260208301529392505050565b6060815260006158a66060830186615802565b60208301949094525060400152919050565b60006001600160801b038083168181036158d4576158d46154ec565b600101939250505056fea26469706673582212205a67c1bcf3c2a952071ed171d4c8b3931a5aee475241f455cb604c99e13cf1ee64736f6c63430008110033",
    "linkReferences": {
      "contracts/bonds/GBC.sol": {
        "LinearCurve": [
          {
            "start": 4827,
            "length": 20
          },
          {
            "start": 7403,
            "length": 20
          },
          {
            "start": 9716,
            "length": 20
          },
          {
            "start": 12597,
            "length": 20
          },
          {
            "start": 16155,
            "length": 20
          }
        ]
      }
    }
  },
  "methodIdentifiers": {
    "BaseToken()": "90f81702",
    "PRECISION()": "aaf5eb68",
    "ROUNDLIMIT()": "159054ea",
    "TradeToken()": "df99f8bf",
    "a_initial()": "6e2f7ad3",
    "addDelta(uint128,int128)": "402d44fb",
    "areaBetweenCurveAndMax(uint256)": "14e2b929",
    "b()": "4df7e3d0",
    "b_initial()": "558bdb29",
    "baseBal()": "08ef2b4c",
    "baseGivenLiquidity(uint256,uint256,uint256)": "f9734a24",
    "baseToken()": "c55dae63",
    "cBal()": "48af7132",
    "calculateInitCurveParams(uint256,uint256,uint256)": "75e2d946",
    "calculateInitCurveParamsPool(uint256,uint256,uint256,uint256)": "34327d8b",
    "claimFilledOrder(address,uint16,bool)": "42b6c9fb",
    "claimPartiallyFilledOrder(address,uint16,bool)": "32530d7f",
    "collect(address,uint16,uint16,uint128,uint128)": "098bcc56",
    "controller()": "f77c4791",
    "discount_cap()": "7063b06c",
    "discountedReserves()": "1816eb13",
    "entry()": "67f239dd",
    "factory()": "c45a0155",
    "fee()": "ddca3f43",
    "feeGrowthGlobalBase()": "659a544a",
    "feeGrowthGlobalTrade()": "1d2637ab",
    "flush(address,uint256)": "96fd1c42",
    "getCurPrice()": "11e715d6",
    "getLiq(address,uint16,bool)": "9b608089",
    "getNextPriceLimit(uint16,uint256,bool)": "b501c284",
    "getNumCross(uint16,bool)": "e37699c9",
    "getOneTimeLiquidity(uint16,bool)": "4a3ca717",
    "getTraderPosition()": "ba52fe61",
    "liquidity()": "1a686502",
    "liquidityGivenBase(uint256,uint256,uint256)": "e7c3614f",
    "liquidityGivenTrade(uint256,uint256,uint256)": "b04a69fd",
    "lock()": "f83d08ba",
    "makerClaimClose(uint16,bool,address)": "a1217e7d",
    "makerClaimOpen(uint16,bool,address)": "f0bb81b3",
    "makerClose(uint16,uint256,bool,address)": "e7ca189a",
    "makerOpen(uint16,uint256,bool,address)": "68087cc3",
    "makerPartiallyClaim(uint16,bool,bool,address)": "08216712",
    "makerReduceClose(uint16,uint256,bool,address)": "9c9d7d3f",
    "makerReduceOpen(uint16,uint256,bool,address)": "957343f0",
    "maxPrice()": "e38d6b5c",
    "owner()": "8da5cb5b",
    "placeLimitOrder(address,uint16,uint128,bool)": "2130ce0d",
    "pointToPrice(uint16)": "8ce26999",
    "positionIsFilled(address,uint16,bool)": "6ed75596",
    "positions(bytes32)": "514ea4bf",
    "precision()": "d3b5dc3b",
    "priceDelta()": "5bfa896a",
    "priceToPoint(uint256)": "2353b18e",
    "provide(address,uint16,uint16,uint128,bytes)": "af0d37bc",
    "provideLiquidity(uint16,uint16,uint128,bytes)": "4970aa88",
    "reduceLimitOrder(address,uint16,uint128,bool)": "1376ff3e",
    "remove(address,uint16,uint16,uint128)": "7f1d9ae6",
    "resetLiq()": "8d01450f",
    "s_tradeToken()": "10f22221",
    "setEntry(address)": "42bc5292",
    "slot0()": "3850c7bd",
    "takerClose(bool,int256,uint256,bytes)": "556769ba",
    "takerOpen(bool,int256,uint256,bytes)": "244d59cb",
    "tickSpacing()": "d0c93a7c",
    "ticks(uint16)": "b9033a39",
    "trade(address,bool,int256,uint256,bytes)": "004b2045",
    "tradeGivenLiquidity(uint256,uint256,uint256)": "80c0c3e7",
    "tradeToken()": "d83678ac",
    "trustedBurn(address,uint256,bool)": "c93ac3ed",
    "trustedDiscountedMint(address,uint256)": "681504cd",
    "withdrawLiquidity(uint16,uint16,uint128,bytes)": "578c8579",
    "xMax(uint256,uint256,uint256)": "b29d9b6e",
    "xMaxRoundUp(uint256,uint256,uint256)": "9314b03f",
    "yInt(uint256,bool)": "a74d74d4"
  },
  "id": 3
}