{
  "abi": [
    {
      "inputs": [
        {
          "internalType": "address",
          "name": "_controller",
          "type": "address"
        }
      ],
      "stateMutability": "nonpayable",
      "type": "constructor"
    },
    {
      "inputs": [
        {
          "internalType": "address",
          "name": "v",
          "type": "address"
        }
      ],
      "name": "isVault",
      "outputs": [
        {
          "internalType": "bool",
          "name": "",
          "type": "bool"
        }
      ],
      "stateMutability": "view",
      "type": "function"
    },
    {
      "inputs": [
        {
          "internalType": "address",
          "name": "underlying",
          "type": "address"
        },
        {
          "internalType": "address",
          "name": "_controller",
          "type": "address"
        },
        {
          "internalType": "bool",
          "name": "_onlyVerified",
          "type": "bool"
        },
        {
          "internalType": "uint256",
          "name": "_r",
          "type": "uint256"
        },
        {
          "internalType": "uint256",
          "name": "_asset_limit",
          "type": "uint256"
        },
        {
          "internalType": "uint256",
          "name": "_total_asset_limit",
          "type": "uint256"
        },
        {
          "components": [
            {
              "internalType": "uint256",
              "name": "N",
              "type": "uint256"
            },
            {
              "internalType": "uint256",
              "name": "sigma",
              "type": "uint256"
            },
            {
              "internalType": "uint256",
              "name": "alpha",
              "type": "uint256"
            },
            {
              "internalType": "uint256",
              "name": "omega",
              "type": "uint256"
            },
            {
              "internalType": "uint256",
              "name": "delta",
              "type": "uint256"
            },
            {
              "internalType": "uint256",
              "name": "r",
              "type": "uint256"
            },
            {
              "internalType": "uint256",
              "name": "s",
              "type": "uint256"
            },
            {
              "internalType": "uint256",
              "name": "steak",
              "type": "uint256"
            }
          ],
          "internalType": "struct MarketManager.MarketParameters",
          "name": "default_params",
          "type": "tuple"
        }
      ],
      "name": "newVault",
      "outputs": [
        {
          "internalType": "contract Vault",
          "name": "",
          "type": "address"
        },
        {
          "internalType": "uint256",
          "name": "",
          "type": "uint256"
        }
      ],
      "stateMutability": "nonpayable",
      "type": "function"
    },
    {
      "inputs": [],
      "name": "numVaults",
      "outputs": [
        {
          "internalType": "uint256",
          "name": "",
          "type": "uint256"
        }
      ],
      "stateMutability": "view",
      "type": "function"
    }
  ],
  "bytecode": {
    "object": "0x608060405234801561001057600080fd5b50604051615cfe380380615cfe83398101604081905261002f91610062565b60008054336001600160a01b031991821617909155600380549091166001600160a01b0392909216919091179055610092565b60006020828403121561007457600080fd5b81516001600160a01b038116811461008b57600080fd5b9392505050565b615c5d806100a16000396000f3fe60806040523480156200001157600080fd5b5060043610620000465760003560e01c8063264a6208146200004b578063652b9b411462000068578063da33133314620000a8575b600080fd5b6200005560025481565b6040519081526020015b60405180910390f35b62000097620000793660046200030a565b6001600160a01b031660009081526001602052604090205460ff1690565b60405190151581526020016200005f565b620000bf620000b93660046200032f565b620000df565b604080516001600160a01b0390931683526020830191909152016200005f565b60035460009081906001600160a01b03163314806200010857506000546001600160a01b031633145b806200011357503330145b620001595760405162461bcd60e51b815260206004820152601160248201527034b9903737ba1031b7b73a3937b63632b960791b60448201526064015b60405180910390fd5b662386f26fc1000083604001511015620001a85760405162461bcd60e51b815260206004820152600f60248201526e105b1c1a18481d1bdbc81cdb585b1b608a1b604482015260640162000150565b6000898960008054906101000a90046001600160a01b03168a8a8a8a8a604051620001d390620002df565b6001600160a01b0398891681529688166020808901919091529590971660408088019190915293151560608088019190915260808088019490945260a08088019390935260c080880192909252875160e0808901919091529588015161010088015284880151610120880152870151610140870152918601516101608601528501516101808501528401516101a08401529201516101c08201529051908190036101e001906000f0801580156200028e573d6000803e3d6000fd5b506001600160a01b03811660009081526001602081905260408220805460ff191690911790556002805492935090620002c78362000444565b9091555050600254909a909950975050505050505050565b6157bb806200046d83390190565b80356001600160a01b03811681146200030557600080fd5b919050565b6000602082840312156200031d57600080fd5b6200032882620002ed565b9392505050565b60008060008060008060008789036101c08112156200034d57600080fd5b6200035889620002ed565b97506200036860208a01620002ed565b9650604089013580151581146200037e57600080fd5b9550606089013594506080890135935060a0890135925061010060bf198201811315620003aa57600080fd5b604051915080820182811067ffffffffffffffff82111715620003dd57634e487b7160e01b600052604160045260246000fd5b806040525060c08a0135825260e08a01356020830152808a01356040830152506101208901356060820152610140890135608082015261016089013560a082015261018089013560c08201526101a089013560e08201528091505092959891949750929550565b6000600182016200046557634e487b7160e01b600052601160045260246000fd5b506001019056fe6101406040523480156200001257600080fd5b50604051620057bb380380620057bb833981016040819052620000359162000563565b87886001600160a01b03166306fdde036040518163ffffffff1660e01b8152600401600060405180830381865afa15801562000075573d6000803e3d6000fd5b505050506040513d6000823e601f3d908101601f191682016040526200009f919081019062000687565b604051602001620000b191906200073f565b604051602081830303815290604052896001600160a01b03166395d89b416040518163ffffffff1660e01b8152600401600060405180830381865afa158015620000ff573d6000803e3d6000fd5b505050506040513d6000823e601f3d908101601f1916820160405262000129919081019062000687565b6040516020016200013b91906200077e565b60408051601f198184030181529190528181601260006200015d84826200083b565b5060016200016c83826200083b565b5060ff81166080524660a0526200018262000468565b60c0525050506001600160a01b03831660e08190526040805163313ce56760e01b8152905163313ce567916004808201926020929091908290030181865afa158015620001d3573d6000803e3d6000fd5b505050506040513d601f19601f82011682018060405250810190620001f9919062000907565b60ff166101008181525050601260ff16836001600160a01b031663313ce5676040518163ffffffff1660e01b8152600401602060405180830381865afa15801562000248573d6000803e3d6000fd5b505050506040513d601f19601f820116820180604052508101906200026e919062000907565b6006805460ff191660ff9283169390931415928317905516156200030957601260ff16836001600160a01b031663313ce5676040518163ffffffff1660e01b8152600401602060405180830381865afa158015620002d0573d6000803e3d6000fd5b505050506040513d601f19601f82011682018060405250810190620002f6919062000907565b60ff161062000309576200030962000933565b5050601a80546001600160a01b0319166001600160a01b038981169190911790915589166101208190526040805163313ce56760e01b8152905191925063313ce5679160048083019260209291908290030181865afa15801562000371573d6000803e3d6000fd5b505050506040513d601f19601f8201168201806040525081019062000397919062000907565b60ff16601214620003d95760405162461bcd60e51b8152602060048201526008602482015267646563696d616c7360c01b604482015260640160405180910390fd5b670de0b6b3a7640000600755600980546001600160a01b0319166001600160a01b0398909816979097179096556012805460ff191694151594909417909355601391909155601455601555508051600a556020810151600b556040810151600c556060810151600d556080810151600e5560a0810151600f5560c081015160105560e0015160115550620009c7565b60007f8b73c3c69bb8fe3d512ecc4cf759cc79239f7b179b0ffacaa9a75d522b39400f60006040516200049c919062000949565b6040805191829003822060208301939093528101919091527fc89efdaa54c0f20c7adf612882df0950f5a951637e0307cdcb4c672f298b8bc660608201524660808201523060a082015260c00160405160208183030381529060405280519060200120905090565b80516001600160a01b03811681146200051c57600080fd5b919050565b634e487b7160e01b600052604160045260246000fd5b60405161010081016001600160401b03811182821017156200055d576200055d62000521565b60405290565b600080600080600080600080888a036101e08112156200058257600080fd5b6200058d8a62000504565b98506200059d60208b0162000504565b9750620005ad60408b0162000504565b965060608a01518015158114620005c357600080fd5b8096505060808a0151945060a08a0151935060c08a015192506101008060df1983011215620005f157600080fd5b620005fb62000537565b915060e08b01518252808b01516020830152506101208a015160408201526101408a015160608201526101608a015160808201526101808a015160a08201526101a08a015160c08201526101c08a015160e0820152809150509295985092959890939650565b60005b838110156200067e57818101518382015260200162000664565b50506000910152565b6000602082840312156200069a57600080fd5b81516001600160401b0380821115620006b257600080fd5b818401915084601f830112620006c757600080fd5b815181811115620006dc57620006dc62000521565b604051601f8201601f19908116603f0116810190838211818310171562000707576200070762000521565b816040528281528760208487010111156200072157600080fd5b6200073483602083016020880162000661565b979650505050505050565b6402930b6b6960dd1b8152600082516200076181600585016020870162000661565b650815985d5b1d60d21b6005939091019283015250600b01919050565b6352414d4d60e01b8152600082516200079f81600485016020870162000661565b9190910160040192915050565b600181811c90821680620007c157607f821691505b602082108103620007e257634e487b7160e01b600052602260045260246000fd5b50919050565b601f8211156200083657600081815260208120601f850160051c81016020861015620008115750805b601f850160051c820191505b8181101562000832578281556001016200081d565b5050505b505050565b81516001600160401b0381111562000857576200085762000521565b6200086f81620008688454620007ac565b84620007e8565b602080601f831160018114620008a757600084156200088e5750858301515b600019600386901b1c1916600185901b17855562000832565b600085815260208120601f198616915b82811015620008d857888601518255948401946001909101908401620008b7565b5085821015620008f75787850151600019600388901b60f8161c191681555b5050505050600190811b01905550565b6000602082840312156200091a57600080fd5b815160ff811681146200092c57600080fd5b9392505050565b634e487b7160e01b600052600160045260246000fd5b60008083546200095981620007ac565b600182811680156200097457600181146200098a57620009bb565b60ff1984168752821515830287019450620009bb565b8760005260208060002060005b85811015620009b25781548a82015290840190820162000997565b50505082870194505b50929695505050505050565b60805160a05160c05160e0516101005161012051614d3b62000a806000396000818161094d0152818161114d015281816116410152818161181a015281816118ef01528181611bb30152818161235a015281816123e0015281816136b7015281816137ab01526137f20152600081816110f001526124f601526000818161060b015281816122180152818161246d01528181612ae70152612c3301526000611a9201526000611a62015260006105b70152614d3b6000f3fe608060405234801561001057600080fd5b50600436106104285760003560e01c80637572cb1f1161022b578063c6e6f59211610130578063e134cc82116100b8578063ef8b30f711610087578063ef8b30f714610aca578063f05bcfb414610add578063f7d070de14610af0578063fa07b19f14610afd578063fc173fc614610b1057600080fd5b8063e134cc8214610a59578063e4cc3e7614610a90578063e9a23d3a14610aa3578063edb53d3e14610ab757600080fd5b8063d505accf116100ff578063d505accf146109cc578063d746d3ef146109df578063d905777e146109f2578063dc361a1314610a1b578063dd62ed3e14610a2e57600080fd5b8063c6e6f5921461096f578063c83baf4e14610982578063ca13e4501461098b578063ce96cb77146109b957600080fd5b806398d796e7116101b3578063b3d7f6b911610182578063b3d7f6b91461090f578063b460af9414610922578063ba08765214610935578063c5d664c614610948578063c63d75b61461064557600080fd5b806398d796e7146108c35780639ec4d40e146108d6578063a9059cbb146108e9578063b19b1f91146108fc57600080fd5b80638da5cb5b116101fa5780638da5cb5b1461086f57806394bf804d1461088257806395d89b411461089557806396ce9d5a1461089d57806396d64879146108b057600080fd5b80637572cb1f146107cb57806379e20bdc146108345780637ecebe0014610847578063841219e51461086757600080fd5b80633644e515116103315780634e1afd00116102b957806360d4efa41161028857806360d4efa4146107315780636c321c8a146107875780636c8ae38c1461078f5780636e553f651461079857806370a08231146107ab57600080fd5b80634e1afd00146106d957806350c6e6cf146106ec57806359dc5c6f146107155780635f260bb81461072857600080fd5b8063471e1cea11610300578063471e1cea1461066d578063492023f8146106805780634bd3c9a8146106935780634cdad506146106a65780634dc54a38146106b957600080fd5b80633644e515146105fe57806338d52e0f14610606578063402d267d1461064557806342966c681461065a57600080fd5b80631316dbde116103b457806322f0e0691161038357806322f0e0691461055f57806323b872dd1461058c5780632b8587341461059f578063313ce567146105b257806334928ace146105eb57600080fd5b80631316dbde1461051d578063139f4b6f1461053057806318160ddd14610543578063213a7d521461054c57600080fd5b806307a2d13a116103fb57806307a2d13a146104ad578063095ea7b3146104c05780630a28a477146104e35780630e5c011e146104f65780630f65cbc41461050957600080fd5b806301e1d1141461042d578063063b31d41461044857806306fdde031461045d578063076125a914610472575b600080fd5b610435610b1d565b6040519081526020015b60405180910390f35b61045b610456366004614149565b610b39565b005b610465610d83565b60405161043f91906141a8565b610485610480366004614149565b610e11565b604080519586526020860194909452928401919091526060830152608082015260a00161043f565b6104356104bb366004614149565b610e59565b6104d36104ce3660046141e0565b610e9d565b604051901515815260200161043f565b6104356104f1366004614149565b610f0a565b61045b61050436600461420c565b610f43565b610435610517366004614149565b50600090565b61043561052b366004614149565b6110e9565b6104d361053e366004614149565b61112b565b61043560025481565b61045b61055a366004614242565b6111c0565b61057261056d36600461420c565b611229565b60405161043f9e9d9c9b9a999897969594939291906142f7565b6104d361059a366004614390565b611372565b61045b6105ad366004614149565b611452565b6105d97f000000000000000000000000000000000000000000000000000000000000000081565b60405160ff909116815260200161043f565b61045b6105f93660046143d1565b611601565b610435611a5e565b61062d7f000000000000000000000000000000000000000000000000000000000000000081565b6040516001600160a01b03909116815260200161043f565b61043561065336600461420c565b5060001990565b61045b610668366004614149565b611ab4565b6104d361067b366004614149565b611ac1565b61045b61068e36600461420c565b611b37565b6104356106a136600461440a565b611c26565b6104356106b4366004614149565b611cc0565b6106cc6106c736600461420c565b611ccb565b60405161043f9190614436565b61045b6106e736600461455a565b611ea5565b61062d6106fa366004614149565b6017602052600090815260409020546001600160a01b031681565b61045b610723366004614149565b612121565b61043560145481565b61077261073f366004614149565b6000908152601760209081526040808320546001600160a01b031683526016909152902060058101546006909101549091565b6040805192835260208301919091520161043f565b61043561219a565b61043560135481565b6104356107a63660046145d8565b6121c0565b6104356107b936600461420c565b60036020526000908152604090205481565b6107d3612296565b60405161043f9190600061010082019050825182526020830151602083015260408301516040830152606083015160608301526080830151608083015260a083015160a083015260c083015160c083015260e083015160e083015292915050565b61045b6108423660046141e0565b61232c565b61043561085536600461420c565b60056020526000908152604090205481565b6104356123c8565b601a5461062d906001600160a01b031681565b6104356108903660046145d8565b612453565b6104656124e2565b6104356108ab366004614149565b6124ef565b6104d36108be36600461420c565b612531565b61045b6108d136600461471d565b612557565b6106cc6108e4366004614149565b61289a565b6104d36108f73660046141e0565b61294e565b61045b61090a36600461420c565b6129b4565b61043561091d366004614149565b6129e1565b610435610930366004614843565b612a00565b610435610943366004614843565b612b0e565b61062d7f000000000000000000000000000000000000000000000000000000000000000081565b61043561097d366004614149565b612c5a565b61043560155481565b61099e610999366004614149565b612c7a565b6040805193845260208401929092529082015260600161043f565b6104356109c736600461420c565b612f22565b61045b6109da36600461487a565b612f44565b61045b6109ed366004614149565b613188565b610435610a0036600461420c565b6001600160a01b031660009081526003602052604090205490565b610435610a2936600461420c565b61329e565b610435610a3c3660046148f1565b600460209081526000928352604080842090915290825290205481565b610a6c610a67366004614149565b6132c0565b6040805194151585526020850193909352918301521515606082015260800161043f565b61045b610a9e36600461491f565b61354e565b6104d3610ab136600461420c565b50600190565b61062d610ac5366004614149565b613740565b610435610ad8366004614149565b61375b565b61045b610aeb3660046145d8565b613766565b6012546104d39060ff1681565b61045b610b0b366004614149565b6137da565b6006546104d39060ff1681565b6000610b276123c8565b600854610b349190614974565b905090565b6000610b456000613740565b6040516370a0823160e01b81523060048201529091506000906001600160a01b038316906370a0823190602401602060405180830381865afa158015610b8f573d6000803e3d6000fd5b505050506040513d601f19601f82011682018060405250810190610bb39190614987565b60405163b3d7f6b960e01b8152600481018290529091506001600160a01b0383169063b3d7f6b990602401602060405180830381865afa158015610bfb573d6000803e3d6000fd5b505050506040513d601f19601f82011682018060405250810190610c1f9190614987565b831115610c5c5760405162461bcd60e51b815260206004820152600660248201526521216c69713160d01b60448201526064015b60405180910390fd5b60405163537d940960e01b8152600481018490526001600160a01b0383169063537d940990602401602060405180830381865afa158015610ca1573d6000803e3d6000fd5b505050506040513d601f19601f82011682018060405250810190610cc591906149a0565b610cf95760405162461bcd60e51b815260206004820152600560248201526410b634b89960d91b6044820152606401610c53565b604051632d182be560e21b815260048101849052306024820181905260448201526001600160a01b0383169063b460af94906064016020604051808303816000875af1158015610d4d573d6000803e3d6000fd5b505050506040513d601f19601f82011682018060405250810190610d719190614987565b50610d7e828460006138c9565b505050565b60008054610d90906149bd565b80601f0160208091040260200160405190810160405280929190818152602001828054610dbc906149bd565b8015610e095780601f10610dde57610100808354040283529160200191610e09565b820191906000526020600020905b815481529060010190602001808311610dec57829003601f168201915b505050505081565b6000908152601760209081526040808320546001600160a01b0316835260169091529020600d810154600e820154600f83015460108401546011909401549294919390929091565b6002546000908015610e7d57610e78610e70610b1d565b849083613a1f565b610e96565b60065460ff16610e8d5782610e96565b610e96836110e9565b9392505050565b3360008181526004602090815260408083206001600160a01b038716808552925280832085905551919290917f8c5be1e5ebec7d5bd14f71427d1e84f3dd0314c0f7b2291e5b200ac8c7c3b92590610ef89086815260200190565b60405180910390a35060015b92915050565b6002546000908015610f2a57610e7881610f22610b1d565b859190613a3e565b60065460ff16610f3a5782610e96565b610e96836124ef565b6001600160a01b038116600090815260166020526040902060010154610100900460ff16610faa5760405162461bcd60e51b8152602060048201526014602482015273155395149554d5115117d25b9cdd1c9d5b595b9d60621b6044820152606401610c53565b6001600160a01b03811660008181526016602052604080822060085460028201549251633af9e66960e01b8152600481018690529194909391633af9e66990602401602060405180830381865afa158015611009573d6000803e3d6000fd5b505050506040513d601f19601f8201168201806040525081019061102d9190614987565b905080820361103d575050505050565b600284018190556000828210158061105e5761105983856149f7565b611068565b61106884846149f7565b91508061107e5761107982866149f7565b611088565b6110888286614974565b60088190556040805191825260208201859052810183905281151560608201526001600160a01b038816907f6421c76ff84322b255b480a074dc3b65357a55f650d5fc4eedfeea5437c96b719060800160405180910390a250505050505050565b60006111167f000000000000000000000000000000000000000000000000000000000000000060126149f7565b61112190600a614aee565b610f049083614afa565b6040516370a0823160e01b815230600482015260009082906001600160a01b037f000000000000000000000000000000000000000000000000000000000000000016906370a0823190602401602060405180830381865afa158015611194573d6000803e3d6000fd5b505050506040513d601f19601f820116820180604052508101906111b89190614987565b101592915050565b336001600160a01b03831614806111db57506111db82612531565b6111e457600080fd5b6001600160a01b03821660009081526016602052604090206004015461120981611452565b6000908152601860205260409020805460ff191691151591909117905550565b601660205260009081526040902080546001820154600283015460038401546004850154600586015460068701546007880154600889018054989960ff808a169a610100909a04169890919061127e906149bd565b80601f01602080910402602001604051908101604052809291908181526020018280546112aa906149bd565b80156112f75780601f106112cc576101008083540402835291602001916112f7565b820191906000526020600020905b8154815290600101906020018083116112da57829003601f168201915b505050506009830154600a8401546040805160e081018252600b8701548152600c8701546020820152600d87015491810191909152600e8601546060820152600f8601546080820152601086015460a082015260119095015460c086015292936001600160a01b03821693600160a01b90920460ff1692508e565b6001600160a01b038316600090815260046020908152604080832033845290915281205460001981146113ce576113a983826149f7565b6001600160a01b03861660009081526004602090815260408083203384529091529020555b6001600160a01b038516600090815260036020526040812080548592906113f69084906149f7565b90915550506001600160a01b0380851660008181526003602052604090819020805487019055519091871690600080516020614ce68339815191529061143f9087815260200190565b60405180910390a3506001949350505050565b6000818152601760205260409020546001600160a01b03163381148061148257506009546001600160a01b031633145b6114bc5760405162461bcd60e51b815260206004820152600b60248201526a139bdd08185b1b1bddd95960aa1b6044820152606401610c53565b6114c581612531565b6114ff5760405162461bcd60e51b815260206004820152600b60248201526a139bdd081d1c9d5cdd195960aa1b6044820152606401610c53565b806001600160a01b03166349dcf4ed6040518163ffffffff1660e01b81526004016060604051808303816000875af115801561153f573d6000803e3d6000fd5b505050506040513d601f19601f820116820180604052508101906115639190614b1c565b50505061156f81610f43565b806001600160a01b031663f3aa68d36040518163ffffffff1660e01b8152600401600060405180830381600087803b1580156115aa57600080fd5b505af11580156115be573d6000803e3d6000fd5b50506040805180820182524381526001602080830182815260009889526019909152929096209051815590519401805460ff191694151594909417909355505050565b61160a83613740565b61161381613a6c565b600061161e85613740565b6040516370a0823160e01b81523060048201529091506000906001600160a01b037f000000000000000000000000000000000000000000000000000000000000000016906370a0823190602401602060405180830381865afa158015611688573d6000803e3d6000fd5b505050506040513d601f19601f820116820180604052508101906116ac9190614987565b9050808511156117a75760006116c282876149f7565b6000805260176020527fd840e16649f6b9a295d95876f4633d3a6b10b55e8162971cf78afd886d5ec89b546040516366c4437760e11b8152306004820152602481018390529192506001600160a01b03169063cd8886ee90604401602060405180830381865afa15801561173a573d6000803e3d6000fd5b505050506040513d601f19601f8201168201806040525081019061175e91906149a0565b156117715761176c81610b39565b6117a5565b60405162461bcd60e51b8152602060048201526009602482015268085d985d5b1d18985b60ba1b6044820152606401610c53565b505b84600860008282546117b99190614974565b90915550506001600160a01b038216600090815260166020526040812060020180548792906117e9908490614974565b909155508490506118c95760405163a9059cbb60e01b81526001600160a01b038381166004830152602482018790527f0000000000000000000000000000000000000000000000000000000000000000169063a9059cbb906044016020604051808303816000875af1158015611863573d6000803e3d6000fd5b505050506040513d601f19601f8201168201806040525081019061188791906149a0565b6118c45760405162461bcd60e51b815260206004820152600e60248201526d11115413d4d25517d1905253115160921b6044820152606401610c53565b611a0f565b60405163095ea7b360e01b81526001600160a01b038381166004830152602482018790527f0000000000000000000000000000000000000000000000000000000000000000169063095ea7b3906044016020604051808303816000875af1158015611938573d6000803e3d6000fd5b505050506040513d601f19601f8201168201806040525081019061195c91906149a0565b50604051636e553f6560e01b8152600481018690523060248201526000906001600160a01b03841690636e553f65906044016020604051808303816000875af11580156119ad573d6000803e3d6000fd5b505050506040513d601f19601f820116820180604052508101906119d19190614987565b11611a0f5760405162461bcd60e51b815260206004820152600e60248201526d11115413d4d25517d1905253115160921b6044820152606401610c53565b6040805186815285151560208201526001600160a01b0384169188917f96ba8877ce47ffd9d7af35a44207700582bc048cfc0be644d3f7d43cf3275258910160405180910390a3505050505050565b60007f00000000000000000000000000000000000000000000000000000000000000004614611a8f57610b34613ad3565b507f000000000000000000000000000000000000000000000000000000000000000090565b611abe3382613b6d565b50565b600081815260176020908152604080832054815163041f3aa560e51b815291516001600160a01b03909116926383e754a092600480820193918290030181865afa158015611b13573d6000803e3d6000fd5b505050506040513d601f19601f82011682018060405250810190610f0491906149a0565b7fd840e16649f6b9a295d95876f4633d3a6b10b55e8162971cf78afd886d5ec89b80546001600160a01b038381166001600160a01b0319909216821790925560008181526016602052604090819020600101805461ff0019166101001790555163095ea7b360e01b8152600481019190915260001960248201527f00000000000000000000000000000000000000000000000000000000000000009091169063095ea7b3906044016020604051808303816000875af1158015611bfe573d6000803e3d6000fd5b505050506040513d601f19601f82011682018060405250810190611c2291906149a0565b5050565b60008381526017602052604080822054600754915163b3d7f6b960e01b815260048101929092526001600160a01b031690611cb790829063b3d7f6b990602401602060405180830381865afa158015611c83573d6000803e3d6000fd5b505050506040513d601f19601f82011682018060405250810190611ca79190614987565b611cb18587614974565b90613bd7565b95945050505050565b6000610f0482610e59565b611cd361404c565b6001600160a01b03821660009081526016602090815260409182902082516101c08101845281548152600182015460ff808216151594830194909452610100908190049093161515938101939093526002810154606084015260038101546080840152600481015460a0840152600581015460c0840152600681015460e084015260078101549183019190915260088101805461012084019190611d76906149bd565b80601f0160208091040260200160405190810160405280929190818152602001828054611da2906149bd565b8015611def5780601f10611dc457610100808354040283529160200191611def565b820191906000526020600020905b815481529060010190602001808311611dd257829003601f168201915b505050918352505060098201546001600160a01b0381166020830152604090910190600160a01b900460ff166005811115611e2c57611e2c61427b565b6005811115611e3d57611e3d61427b565b8152600a8201546020808301919091526040805160e081018252600b8501548152600c85015492810192909252600d84015482820152600e8401546060830152600f8401546080830152601084015460a083015260119093015460c082015291015292915050565b611ead613bec565b600160166000611ebc86613740565b6001600160a01b03168152602081019190915260400160002060010180549115156101000261ff001990921691909117905580612042576000838152601760209081526040808320546001600160a01b031683526016825291829020908401516005820181905591840151600682018190559091611f3a9190614974565b600382015582516020840151611f5d918691611f5691906149f7565b6000611601565b4260166000611f6b87613740565b6001600160a01b03166001600160a01b0316815260200190815260200160002060070154611f999190614974565b60166000611fa687613740565b6001600160a01b031681526020810191909152604001600020600a0155611fcc84613740565b6001600160a01b031663416288dd846020015185604001516040518363ffffffff1660e01b815260040161200a929190918252602082015260400190565b600060405180830381600087803b15801561202457600080fd5b505af1158015612038573d6000803e3d6000fd5b505050505061208a565b6000838152601760209081526040808320546001600160a01b031683526016825290912042600e9091015582519083015161208a91859161208391906149f7565b6001611601565b60008381526017602090815260408083205491850151908501516001600160a01b039092169286927f5f22436ca8b356fcfdd826ffa74d4bbbf0f4a1066169f36d2d8fcfebc9e285fa92916016906120e186613740565b6001600160a01b031681526020808201929092526040908101600020600a01548151948552918401929092529082015260600160405180910390a3505050565b612129613bec565b600061213482613740565b9050806001600160a01b03166350bb4beb6040518163ffffffff1660e01b81526004016020604051808303816000875af1158015612176573d6000803e3d6000fd5b505050506040513d601f19601f82011682018060405250810190610d7e9190614987565b60006008546000036121ac5750600090565b610b346121b7610b1d565b60085490613c5b565b60006121cb8361375b565b90508060000361220b5760405162461bcd60e51b815260206004820152600b60248201526a5a45524f5f53484152455360a81b6044820152606401610c53565b6122406001600160a01b037f000000000000000000000000000000000000000000000000000000000000000016333086613c70565b61224a8282613cf3565b60408051848152602081018390526001600160a01b0384169133917fdcbc1c05240f31ff3ad067ef1ee35ce4997762752e3a095284754544f4c709d791015b60405180910390a3610f04565b6122de60405180610100016040528060008152602001600081526020016000815260200160008152602001600081526020016000815260200160008152602001600081525090565b506040805161010081018252600a548152600b546020820152600c5491810191909152600d546060820152600e546080820152600f5460a082015260105460c082015260115460e082015290565b612334613bec565b60405163a9059cbb60e01b81526001600160a01b038381166004830152602482018390527f0000000000000000000000000000000000000000000000000000000000000000169063a9059cbb906044015b6020604051808303816000875af11580156123a4573d6000803e3d6000fd5b505050506040513d601f19601f82011682018060405250810190610d7e91906149a0565b6040516370a0823160e01b81523060048201526000907f00000000000000000000000000000000000000000000000000000000000000006001600160a01b0316906370a0823190602401602060405180830381865afa15801561242f573d6000803e3d6000fd5b505050506040513d601f19601f82011682018060405250810190610b349190614987565b600061245e836129e1565b90506124956001600160a01b037f000000000000000000000000000000000000000000000000000000000000000016333084613c70565b61249f8284613cf3565b60408051828152602081018590526001600160a01b0384169133917fdcbc1c05240f31ff3ad067ef1ee35ce4997762752e3a095284754544f4c709d79101612289565b60018054610d90906149bd565b600061251c7f000000000000000000000000000000000000000000000000000000000000000060126149f7565b61252790600a614aee565b610f049083614b4a565b6001600160a01b0316600090815260166020526040902060010154610100900460ff1690565b61255f613bec565b806020015161270f5760008160c00151116125bc5760405162461bcd60e51b815260206004820181905260248201527f7072696e636970616c206d7573742062652067726561746572207468616e20306044820152606401610c53565b6000816101000151116126115760405162461bcd60e51b815260206004820152601f60248201527f6475726174696f6e206d7573742062652067726561746572207468616e2030006044820152606401610c53565b60008160800151116126655760405162461bcd60e51b815260206004820181905260248201527f6661636556616c7565206d7573742062652067726561746572207468616e20306044820152606401610c53565b6007548160c0015110156126bb5760405162461bcd60e51b815260206004820152601d60248201527f4e6565647320746f20626520696e20646563696d616c20666f726d61740000006044820152606401610c53565b60008160a001511161270f5760405162461bcd60e51b815260206004820152601860248201527f6d7573742062652076616c696420696e737472756d656e7400000000000000006044820152606401610c53565b6101408101516001600160a01b031660009081526016602090815260409182902083518155908301516001820180549385015161ffff1990941691151561ff001916919091176101009315158402179055606083015160028201556080830151600382015560a0830151600482015560c0830151600582015560e0830151600682015590820151600782015561012082015182919060088201906127b39082614baf565b506101408201516009820180546001600160a01b039092166001600160a01b0319831681178255610160850151926001600160a81b03191617600160a01b8360058111156128035761280361427b565b0217905550610180820151600a8201556101a0909101518051600b830155602080820151600c840155604080830151600d8501556060830151600e8501556080830151600f85015560a080840151601086015560c0909301516011909401939093556101408401519390910151600090815260179091522080546001600160a01b0319166001600160a01b03909216919091179055565b6128a261404c565b6000828152601760209081526040808320546001600160a01b03168352601682529182902082516101c08101845281548152600182015460ff808216151594830194909452610100908190049093161515938101939093526002810154606084015260038101546080840152600481015460a0840152600581015460c0840152600681015460e084015260078101549183019190915260088101805461012084019190611d76906149bd565b3360009081526003602052604081208054839190839061296f9084906149f7565b90915550506001600160a01b03831660008181526003602052604090819020805485019055513390600080516020614ce683398151915290610ef89086815260200190565b6129bc613bec565b6001600160a01b03166000908152601660205260409020600101805461ff0019169055565b6002546000908015610e7d57610e786129f8610b1d565b849083613a3e565b6000612a0b84610f0a565b9050336001600160a01b03831614612a7b576001600160a01b03821660009081526004602090815260408083203384529091529020546000198114612a7957612a5482826149f7565b6001600160a01b03841660009081526004602090815260408083203384529091529020555b505b612a858482613d45565b612a8f8282613b6d565b60408051858152602081018390526001600160a01b03808516929086169133917ffbde797d201c681b91056529119e0b02407c7bb96a4a2c75c01fc9667232c8db910160405180910390a4610e966001600160a01b037f0000000000000000000000000000000000000000000000000000000000000000168486613d9a565b6000336001600160a01b03831614612b7e576001600160a01b03821660009081526004602090815260408083203384529091529020546000198114612b7c57612b5785826149f7565b6001600160a01b03841660009081526004602090815260408083203384529091529020555b505b612b8784611cc0565b905080600003612bc75760405162461bcd60e51b815260206004820152600b60248201526a5a45524f5f41535345545360a81b6044820152606401610c53565b612bd18185613d45565b612bdb8285613b6d565b60408051828152602081018690526001600160a01b03808516929086169133917ffbde797d201c681b91056529119e0b02407c7bb96a4a2c75c01fc9667232c8db910160405180910390a4610e966001600160a01b037f0000000000000000000000000000000000000000000000000000000000000000168483613d9a565b6002546000908015610f2a57610e7881612c72610b1d565b859190613a1f565b6000806000612cd76040518061014001604052806000815260200160008152602001600081526020016000815260200160008152602001600081526020016000815260200160008152602001600081526020016000151581525090565b612ce085610e11565b6080860152606085018190526040850182905260208501929092529183529250612d305760405162461bcd60e51b81526020600482015260016024820152600360fc1b6044820152606401610c53565b612d67612d5c826020015142612d4691906149f7565b6007548451612d559082614974565b9190613e18565b604083015190613bd7565b60a0820152600954604051634955b91f60e11b8152600481018790526001600160a01b03909116906392ab723e90602401602060405180830381865afa158015612db5573d6000803e3d6000fd5b505050506040513d601f19601f82011682018060405250810190612dd99190614987565b60e082018190526060820151612def9190613bd7565b6101008201819052604082015160e0830151612e1092611cb1918991611c26565b60c0820152610100810151600003612e305760a001519250829150612f1b565b61010081015160a0820151612e4491613bd7565b8160c0015110612e5a578060a001519350612e79565b61010081015160c0820151612e6e91613c5b565b600161012083015293505b806101200151612ebf57612ebc8160e00151612ea78361010001518460a00151613bd790919063ffffffff16565b8360c00151612eb691906149f7565b90613c5b565b92505b6000612edc82606001518360a00151613bd790919063ffffffff16565b612f0d612efb61091d8560400151600754613bd790919063ffffffff16565b8460600151600754611cb19190614974565b612f1791906149f7565b5050505b9193909250565b6001600160a01b038116600090815260036020526040812054610f0490610e59565b42841015612f945760405162461bcd60e51b815260206004820152601760248201527f5045524d49545f444541444c494e455f455850495245440000000000000000006044820152606401610c53565b60006001612fa0611a5e565b6001600160a01b038a811660008181526005602090815260409182902080546001810190915582517f6e71edae12b1b97f4d1f60370fef10105fa2faae0126114a169c64845d6126c98184015280840194909452938d166060840152608083018c905260a083019390935260c08083018b90528151808403909101815260e08301909152805192019190912061190160f01b6101008301526101028201929092526101228101919091526101420160408051601f198184030181528282528051602091820120600084529083018083525260ff871690820152606081018590526080810184905260a0016020604051602081039080840390855afa1580156130ac573d6000803e3d6000fd5b5050604051601f1901519150506001600160a01b038116158015906130e25750876001600160a01b0316816001600160a01b0316145b61311f5760405162461bcd60e51b815260206004820152600e60248201526d24a72b20a624a22fa9a4a3a722a960911b6044820152606401610c53565b6001600160a01b0390811660009081526004602090815260408083208a8516808552908352928190208990555188815291928a16917f8c5be1e5ebec7d5bd14f71427d1e84f3dd0314c0f7b2291e5b200ac8c7c3b925910160405180910390a350505050505050565b613190613bec565b6000818152601760209081526040808320546001600160a01b031683526016909152902081158015906131cf575060098101546001600160a01b031615155b6132105760405162461bcd60e51b81526020600482015260126024820152711a5b9d985b1a59081a5b9cdd1c9d5b595b9d60721b6044820152606401610c53565b6001810154610100900460ff161561326a5760405162461bcd60e51b815260206004820152601e60248201527f63616e27742064656e7920617070726f76656420696e737472756d656e7400006044820152606401610c53565b60405182907f2d0c55bb11caafe3aed6eebf9c466c6c50dc9b2706d918bc83357ee394da0ef590600090a2611c2282613ed6565b6001600160a01b038116600090815260036020526040812054610f0490611cc0565b6000806000806132ce613bec565b6000858152601760209081526040808320546019835292819020815180830183528154815260019091015460ff161515818401528151632938b58d60e21b815291516001600160a01b03909416939092849263a4e2d63492600480830193928290030181865afa158015613346573d6000803e3d6000fd5b505050506040513d601f19601f8201168201806040525081019061336a91906149a0565b6133a35760405162461bcd60e51b815260206004820152600a602482015269139bdd08131bd8dad95960b21b6044820152606401610c53565b6000826001600160a01b0316631104aafd6040518163ffffffff1660e01b8152600401602060405180830381865afa1580156133e3573d6000803e3d6000fd5b505050506040513d601f19601f820116820180604052508101906134079190614987565b60008981526018602052604081205491925060ff909116908080836134b5576001600160a01b0387166000908152601660205260409020600301548510925082613452576000613479565b6001600160a01b0387166000908152601660205260409020600301546134799086906149f7565b915082156134885760006134ae565b6001600160a01b0387166000908152601660205260409020600301546134ae90866149f7565b905061350b565b6001600160a01b03871660009081526016602052604090206005015485109250826134e1576000613508565b6001600160a01b0387166000908152601660205260409020600501546135089086906149f7565b91505b613517878660016138c9565b6001600160a01b03871660009081526016602052604090206004015461353c90613ed6565b919b919a509850909650945050505050565b600061355985613740565b90506001600160a01b03811663537d94096135748685614974565b6040518263ffffffff1660e01b815260040161359291815260200190565b602060405180830381865afa1580156135af573d6000803e3d6000fd5b505050506040513d601f19601f820116820180604052508101906135d391906149a0565b6136085760405162461bcd60e51b8152600401610c5390602080825260049082015263216c697160e01b604082015260600190565b6001600160a01b03811663b460af946136218685614974565b6040516001600160e01b031960e084901b1681526004810191909152306024820181905260448201526064016020604051808303816000875af115801561366c573d6000803e3d6000fd5b505050506040513d601f19601f820116820180604052508101906136909190614987565b5060405163a9059cbb60e01b81526001600160a01b038481166004830152602482018690527f0000000000000000000000000000000000000000000000000000000000000000169063a9059cbb906044016020604051808303816000875af1158015613700573d6000803e3d6000fd5b505050506040513d601f19601f8201168201806040525081019061372491906149a0565b5061373961373186613740565b8360006138c9565b5050505050565b6000908152601760205260409020546001600160a01b031690565b6000610f0482612c5a565b61376e613bec565b60065460ff161561378557613782826110e9565b91505b60405163a9059cbb60e01b81526001600160a01b038281166004830152602482018490527f0000000000000000000000000000000000000000000000000000000000000000169063a9059cbb90604401612385565b6040516370a0823160e01b81523060048201526000907f00000000000000000000000000000000000000000000000000000000000000006001600160a01b0316906370a0823190602401602060405180830381865afa158015613841573d6000803e3d6000fd5b505050506040513d601f19601f820116820180604052508101906138659190614987565b9050808211156138aa5760405162461bcd60e51b815260206004820152601060248201526f707573682065786365656473206c697160801b6044820152606401610c53565b600082156138b857826138ba565b815b9050610d7e6000826001611601565b826138d381613a6c565b6001600160a01b038416600090815260166020526040812060020180548592906138fe9084906149f7565b92505081905550826008600082825461391791906149f7565b909155505081156139c95760405163852a12e360e01b8152600481018490526001600160a01b0385169063852a12e3906024016020604051808303816000875af1158015613969573d6000803e3d6000fd5b505050506040513d601f19601f8201168201806040525081019061398d91906149a0565b6139c95760405162461bcd60e51b815260206004820152600d60248201526c14915111515357d19052531151609a1b6044820152606401610c53565b6001600160a01b0384166000818152601660209081526040918290206004015491518681527f881b4464dbc964dda309ca47f63a3fbbfb685abbe05c3c6687dd03f08bfeea12910160405180910390a350505050565b828202811515841585830485141716613a3757600080fd5b0492915050565b828202811515841585830485141716613a5657600080fd5b6001826001830304018115150290509392505050565b6001600160a01b038116600090815260166020526040902060010154610100900460ff16611abe5760405162461bcd60e51b8152602060048201526014602482015273155395149554d5115108125b9cdd1c9d5b595b9d60621b6044820152606401610c53565b60007f8b73c3c69bb8fe3d512ecc4cf759cc79239f7b179b0ffacaa9a75d522b39400f6000604051613b059190614c6f565b6040805191829003822060208301939093528101919091527fc89efdaa54c0f20c7adf612882df0950f5a951637e0307cdcb4c672f298b8bc660608201524660808201523060a082015260c00160405160208183030381529060405280519060200120905090565b6001600160a01b03821660009081526003602052604081208054839290613b959084906149f7565b90915550506002805482900390556040518181526000906001600160a01b03841690600080516020614ce6833981519152906020015b60405180910390a35050565b6000610e968383670de0b6b3a7640000613a1f565b6009546001600160a01b0316331480613c0f5750601a546001600160a01b031633145b80613c1957503033145b613c595760405162461bcd60e51b815260206004820152601160248201527034b9903737ba1031b7b73a3937b63632b960791b6044820152606401610c53565b565b6000610e9683670de0b6b3a764000084613a1f565b60006040516323b872dd60e01b81528460048201528360248201528260448201526020600060648360008a5af13d15601f3d11600160005114161716915050806137395760405162461bcd60e51b81526020600482015260146024820152731514905394d1915497d19493d357d1905253115160621b6044820152606401610c53565b8060026000828254613d059190614974565b90915550506001600160a01b038216600081815260036020908152604080832080548601905551848152600080516020614ce68339815191529101613bcb565b613d4e8261112b565b611c225760405162461bcd60e51b815260206004820152601c60248201527f4e6f7420656e6f756768206c6971756469747920696e207661756c74000000006044820152606401610c53565b600060405163a9059cbb60e01b8152836004820152826024820152602060006044836000895af13d15601f3d1160016000511416171691505080613e125760405162461bcd60e51b815260206004820152600f60248201526e1514905394d1915497d19052531151608a1b6044820152606401610c53565b50505050565b6000838015613eb857600184168015613e3357859250613e37565b8392505b508260011c8460011c94505b8415613eb2578560801c15613e5757600080fd5b85860281810181811015613e6a57600080fd5b8590049650506001851615613ea7578583028387820414613e90578615613e9057600080fd5b81810181811015613ea057600080fd5b8590049350505b8460011c9450613e43565b50613ece565b838015613ec85760009250613ecc565b8392505b505b509392505050565b6000818152601760209081526040808320546001600160a01b03168352601690915290206004810154613f4b5760405162461bcd60e51b815260206004820152601860248201527f696e737472756d656e7420646f65736e277420657869737400000000000000006044820152606401610c53565b6000828152601760209081526040808320546001600160a01b031683526016909152812081815560018101805461ffff1916905560028101829055600381018290556004810182905560058101829055600681018290556007810182905590613fb760088301826140fb565b506009810180546001600160a81b03191690556000600a8201819055600b8201819055600c8201819055600d8201819055600e8201819055600f82018190556010820181905560119091018190558281526017602052604080822080546001600160a01b03191690555183907ff2c79fb37cf068a1203864bc62bac9000eb31d5a2425782708e645934a942bbe908390a35050565b604080516101c08101825260008082526020820181905291810182905260608082018390526080820183905260a0820183905260c0820183905260e0820183905261010082018390526101208201526101408101829052906101608201908152602001600081526020016140f66040518060e00160405280600081526020016000815260200160008152602001600081526020016000815260200160008152602001600081525090565b905290565b508054614107906149bd565b6000825580601f10614117575050565b601f016020900490600052602060002090810190611abe91905b808211156141455760008155600101614131565b5090565b60006020828403121561415b57600080fd5b5035919050565b6000815180845260005b818110156141885760208185018101518683018201520161416c565b506000602082860101526020601f19601f83011685010191505092915050565b602081526000610e966020830184614162565b6001600160a01b0381168114611abe57600080fd5b80356141db816141bb565b919050565b600080604083850312156141f357600080fd5b82356141fe816141bb565b946020939093013593505050565b60006020828403121561421e57600080fd5b8135610e96816141bb565b8015158114611abe57600080fd5b80356141db81614229565b6000806040838503121561425557600080fd5b8235614260816141bb565b9150602083013561427081614229565b809150509250929050565b634e487b7160e01b600052602160045260246000fd5b600681106142af57634e487b7160e01b600052602160045260246000fd5b9052565b805182526020810151602083015260408101516040830152606081015160608301526080810151608083015260a081015160a083015260c081015160c08301525050565b8e81528d151560208201528c151560408201528b60608201528a60808201528960a08201528860c08201528760e0820152866101008201526102806101208201526000614348610280830188614162565b6001600160a01b0387166101408401529050614368610160830186614291565b8361018083015261437d6101a08301846142b3565b9f9e505050505050505050505050505050565b6000806000606084860312156143a557600080fd5b83356143b0816141bb565b925060208401356143c0816141bb565b929592945050506040919091013590565b6000806000606084860312156143e657600080fd5b833592506020840135915060408401356143ff81614229565b809150509250925092565b60008060006060848603121561441f57600080fd5b505081359360208301359350604090920135919050565b602081528151602082015260006020830151614456604084018215159052565b50604083015180151560608401525060608301516080830152608083015160a083015260a083015160c083015260c083015160e083015260e0830151610100818185015280850151915050610120818185015280850151915050610140610280818501526144c86102a0850183614162565b908501519091506101606144e6858201836001600160a01b03169052565b85015190506101806144fa85820183614291565b8501516101a0858101919091528501519050613ece6101c08501826142b3565b634e487b7160e01b600052604160045260246000fd5b6040516101c0810167ffffffffffffffff811182821017156145545761455461451a565b60405290565b600080600083850360a081121561457057600080fd5b843593506060601f198201121561458657600080fd5b506040516060810181811067ffffffffffffffff821117156145aa576145aa61451a565b604090815260208681013583528682013590830152606086013590820152915060808401356143ff81614229565b600080604083850312156145eb57600080fd5b823591506020830135614270816141bb565b600082601f83011261460e57600080fd5b813567ffffffffffffffff808211156146295761462961451a565b604051601f8301601f19908116603f011681019082821181831017156146515761465161451a565b8160405283815286602085880101111561466a57600080fd5b836020870160208301376000602085830101528094505050505092915050565b8035600681106141db57600080fd5b600060e082840312156146ab57600080fd5b60405160e0810181811067ffffffffffffffff821117156146ce576146ce61451a565b8060405250809150823581526020830135602082015260408301356040820152606083013560608201526080830135608082015260a083013560a082015260c083013560c08201525092915050565b60006020828403121561472f57600080fd5b813567ffffffffffffffff8082111561474757600080fd5b90830190610280828603121561475c57600080fd5b614764614530565b8235815261477460208401614237565b602082015261478560408401614237565b6040820152606083013560608201526080830135608082015260a083013560a082015260c083013560c082015260e083013560e082015261010080840135818301525061012080840135838111156147dc57600080fd5b6147e8888287016145fd565b82840152505061014091506147fe8284016141d0565b82820152610160915061481282840161468a565b82820152610180915081830135828201526101a0915061483486838501614699565b91810191909152949350505050565b60008060006060848603121561485857600080fd5b83359250602084013561486a816141bb565b915060408401356143ff816141bb565b600080600080600080600060e0888a03121561489557600080fd5b87356148a0816141bb565b965060208801356148b0816141bb565b95506040880135945060608801359350608088013560ff811681146148d457600080fd5b9699959850939692959460a0840135945060c09093013592915050565b6000806040838503121561490457600080fd5b823561490f816141bb565b91506020830135614270816141bb565b6000806000806080858703121561493557600080fd5b8435935060208501359250604085013561494e816141bb565b9396929550929360600135925050565b634e487b7160e01b600052601160045260246000fd5b80820180821115610f0457610f0461495e565b60006020828403121561499957600080fd5b5051919050565b6000602082840312156149b257600080fd5b8151610e9681614229565b600181811c908216806149d157607f821691505b6020821081036149f157634e487b7160e01b600052602260045260246000fd5b50919050565b81810381811115610f0457610f0461495e565b600181815b80851115614a45578160001904821115614a2b57614a2b61495e565b80851615614a3857918102915b93841c9390800290614a0f565b509250929050565b600082614a5c57506001610f04565b81614a6957506000610f04565b8160018114614a7f5760028114614a8957614aa5565b6001915050610f04565b60ff841115614a9a57614a9a61495e565b50506001821b610f04565b5060208310610133831016604e8410600b8410161715614ac8575081810a610f04565b614ad28383614a0a565b8060001904821115614ae657614ae661495e565b029392505050565b6000610e968383614a4d565b600082614b1757634e487b7160e01b600052601260045260246000fd5b500490565b600080600060608486031215614b3157600080fd5b8351925060208401519150604084015190509250925092565b8082028115828204841417610f0457610f0461495e565b601f821115610d7e57600081815260208120601f850160051c81016020861015614b885750805b601f850160051c820191505b81811015614ba757828155600101614b94565b505050505050565b815167ffffffffffffffff811115614bc957614bc961451a565b614bdd81614bd784546149bd565b84614b61565b602080601f831160018114614c125760008415614bfa5750858301515b600019600386901b1c1916600185901b178555614ba7565b600085815260208120601f198616915b82811015614c4157888601518255948401946001909101908401614c22565b5085821015614c5f5787850151600019600388901b60f8161c191681555b5050505050600190811b01905550565b6000808354614c7d816149bd565b60018281168015614c955760018114614caa57614cd9565b60ff1984168752821515830287019450614cd9565b8760005260208060002060005b85811015614cd05781548a820152908401908201614cb7565b50505082870194505b5092969550505050505056feddf252ad1be2c89b69c2b068fc378daa952ba7f163c4a11628f55a4df523b3efa2646970667358221220e851895f5b95c4efdea89757c7c6edfde1255294986a96250bd06254769fb9ce64736f6c63430008110033a2646970667358221220c8661c4e27872304a9ae115b0f0f06507897512dd536cab1e3537379d0ab494164736f6c63430008110033",
    "linkReferences": {}
  },
  "methodIdentifiers": {
    "isVault(address)": "652b9b41",
    "newVault(address,address,bool,uint256,uint256,uint256,(uint256,uint256,uint256,uint256,uint256,uint256,uint256,uint256))": "da331333",
    "numVaults()": "264a6208"
  },
  "id": 14
}