{
  "abi": [
    {
      "inputs": [
        {
          "internalType": "address",
          "name": "_UNDERLYING",
          "type": "address"
        },
        {
          "internalType": "address",
          "name": "_controller",
          "type": "address"
        },
        {
          "internalType": "address",
          "name": "_owner",
          "type": "address"
        },
        {
          "internalType": "bytes",
          "name": "_configData",
          "type": "bytes"
        },
        {
          "components": [
            {
              "internalType": "uint256",
              "name": "N",
              "type": "uint256"
            },
            {
              "internalType": "uint256",
              "name": "sigma",
              "type": "uint256"
            },
            {
              "internalType": "uint256",
              "name": "alpha",
              "type": "uint256"
            },
            {
              "internalType": "uint256",
              "name": "omega",
              "type": "uint256"
            },
            {
              "internalType": "uint256",
              "name": "delta",
              "type": "uint256"
            },
            {
              "internalType": "uint256",
              "name": "r",
              "type": "uint256"
            },
            {
              "internalType": "uint256",
              "name": "s",
              "type": "uint256"
            },
            {
              "internalType": "uint256",
              "name": "steak",
              "type": "uint256"
            }
          ],
          "internalType": "struct MarketManager.MarketParameters",
          "name": "_default_params",
          "type": "tuple"
        }
      ],
      "stateMutability": "nonpayable",
      "type": "constructor"
    },
    {
      "anonymous": false,
      "inputs": [
        {
          "indexed": true,
          "internalType": "address",
          "name": "owner",
          "type": "address"
        },
        {
          "indexed": true,
          "internalType": "address",
          "name": "spender",
          "type": "address"
        },
        {
          "indexed": false,
          "internalType": "uint256",
          "name": "amount",
          "type": "uint256"
        }
      ],
      "name": "Approval",
      "type": "event"
    },
    {
      "anonymous": false,
      "inputs": [
        {
          "indexed": true,
          "internalType": "address",
          "name": "caller",
          "type": "address"
        },
        {
          "indexed": true,
          "internalType": "address",
          "name": "owner",
          "type": "address"
        },
        {
          "indexed": false,
          "internalType": "uint256",
          "name": "assets",
          "type": "uint256"
        },
        {
          "indexed": false,
          "internalType": "uint256",
          "name": "shares",
          "type": "uint256"
        }
      ],
      "name": "Deposit",
      "type": "event"
    },
    {
      "anonymous": false,
      "inputs": [
        {
          "indexed": true,
          "internalType": "uint256",
          "name": "marketId",
          "type": "uint256"
        }
      ],
      "name": "InstrumentDeny",
      "type": "event"
    },
    {
      "anonymous": false,
      "inputs": [
        {
          "indexed": true,
          "internalType": "uint256",
          "name": "marketId",
          "type": "uint256"
        },
        {
          "indexed": true,
          "internalType": "address",
          "name": "instrument",
          "type": "address"
        },
        {
          "indexed": false,
          "internalType": "uint256",
          "name": "amount",
          "type": "uint256"
        },
        {
          "indexed": false,
          "internalType": "bool",
          "name": "isPool",
          "type": "bool"
        }
      ],
      "name": "InstrumentDeposit",
      "type": "event"
    },
    {
      "anonymous": false,
      "inputs": [
        {
          "indexed": true,
          "internalType": "address",
          "name": "instrument",
          "type": "address"
        },
        {
          "indexed": false,
          "internalType": "uint256",
          "name": "totalInstrumentHoldings",
          "type": "uint256"
        },
        {
          "indexed": false,
          "internalType": "uint256",
          "name": "instrument_balance",
          "type": "uint256"
        },
        {
          "indexed": false,
          "internalType": "uint256",
          "name": "mag",
          "type": "uint256"
        },
        {
          "indexed": false,
          "internalType": "bool",
          "name": "sign",
          "type": "bool"
        }
      ],
      "name": "InstrumentHarvest",
      "type": "event"
    },
    {
      "anonymous": false,
      "inputs": [
        {
          "indexed": true,
          "internalType": "uint256",
          "name": "marketId",
          "type": "uint256"
        },
        {
          "indexed": true,
          "internalType": "address",
          "name": "instrumentAddress",
          "type": "address"
        }
      ],
      "name": "InstrumentRemoved",
      "type": "event"
    },
    {
      "anonymous": false,
      "inputs": [
        {
          "indexed": true,
          "internalType": "uint256",
          "name": "marketId",
          "type": "uint256"
        },
        {
          "indexed": true,
          "internalType": "address",
          "name": "instrument",
          "type": "address"
        },
        {
          "indexed": false,
          "internalType": "uint256",
          "name": "principal",
          "type": "uint256"
        },
        {
          "indexed": false,
          "internalType": "uint256",
          "name": "expectedYield",
          "type": "uint256"
        },
        {
          "indexed": false,
          "internalType": "uint256",
          "name": "maturityDate",
          "type": "uint256"
        }
      ],
      "name": "InstrumentTrusted",
      "type": "event"
    },
    {
      "anonymous": false,
      "inputs": [
        {
          "indexed": true,
          "internalType": "uint256",
          "name": "marketId",
          "type": "uint256"
        },
        {
          "indexed": true,
          "internalType": "address",
          "name": "instrument",
          "type": "address"
        },
        {
          "indexed": false,
          "internalType": "uint256",
          "name": "amount",
          "type": "uint256"
        }
      ],
      "name": "InstrumentWithdrawal",
      "type": "event"
    },
    {
      "anonymous": false,
      "inputs": [
        {
          "indexed": true,
          "internalType": "address",
          "name": "from",
          "type": "address"
        },
        {
          "indexed": true,
          "internalType": "address",
          "name": "to",
          "type": "address"
        },
        {
          "indexed": false,
          "internalType": "uint256",
          "name": "amount",
          "type": "uint256"
        }
      ],
      "name": "Transfer",
      "type": "event"
    },
    {
      "anonymous": false,
      "inputs": [
        {
          "indexed": true,
          "internalType": "address",
          "name": "caller",
          "type": "address"
        },
        {
          "indexed": true,
          "internalType": "address",
          "name": "receiver",
          "type": "address"
        },
        {
          "indexed": true,
          "internalType": "address",
          "name": "owner",
          "type": "address"
        },
        {
          "indexed": false,
          "internalType": "uint256",
          "name": "assets",
          "type": "uint256"
        },
        {
          "indexed": false,
          "internalType": "uint256",
          "name": "shares",
          "type": "uint256"
        }
      ],
      "name": "Withdraw",
      "type": "event"
    },
    {
      "inputs": [],
      "name": "DOMAIN_SEPARATOR",
      "outputs": [
        {
          "internalType": "bytes32",
          "name": "",
          "type": "bytes32"
        }
      ],
      "stateMutability": "view",
      "type": "function"
    },
    {
      "inputs": [
        {
          "internalType": "uint256",
          "name": "",
          "type": "uint256"
        }
      ],
      "name": "Instruments",
      "outputs": [
        {
          "internalType": "contract Instrument",
          "name": "",
          "type": "address"
        }
      ],
      "stateMutability": "view",
      "type": "function"
    },
    {
      "inputs": [],
      "name": "UNDERLYING",
      "outputs": [
        {
          "internalType": "contract ERC20",
          "name": "",
          "type": "address"
        }
      ],
      "stateMutability": "view",
      "type": "function"
    },
    {
      "inputs": [
        {
          "internalType": "address",
          "name": "lv",
          "type": "address"
        }
      ],
      "name": "addLendingModule",
      "outputs": [],
      "stateMutability": "nonpayable",
      "type": "function"
    },
    {
      "inputs": [
        {
          "components": [
            {
              "internalType": "bytes32",
              "name": "name",
              "type": "bytes32"
            },
            {
              "internalType": "bool",
              "name": "isPool",
              "type": "bool"
            },
            {
              "internalType": "bool",
              "name": "trusted",
              "type": "bool"
            },
            {
              "internalType": "uint256",
              "name": "balance",
              "type": "uint256"
            },
            {
              "internalType": "uint256",
              "name": "faceValue",
              "type": "uint256"
            },
            {
              "internalType": "uint256",
              "name": "marketId",
              "type": "uint256"
            },
            {
              "internalType": "uint256",
              "name": "principal",
              "type": "uint256"
            },
            {
              "internalType": "uint256",
              "name": "expectedYield",
              "type": "uint256"
            },
            {
              "internalType": "uint256",
              "name": "duration",
              "type": "uint256"
            },
            {
              "internalType": "string",
              "name": "description",
              "type": "string"
            },
            {
              "internalType": "address",
              "name": "instrument_address",
              "type": "address"
            },
            {
              "internalType": "enum Vault.InstrumentType",
              "name": "instrument_type",
              "type": "uint8"
            },
            {
              "internalType": "uint256",
              "name": "maturityDate",
              "type": "uint256"
            },
            {
              "components": [
                {
                  "internalType": "uint256",
                  "name": "saleAmount",
                  "type": "uint256"
                },
                {
                  "internalType": "uint256",
                  "name": "initPrice",
                  "type": "uint256"
                },
                {
                  "internalType": "uint256",
                  "name": "promisedReturn",
                  "type": "uint256"
                },
                {
                  "internalType": "uint256",
                  "name": "inceptionTime",
                  "type": "uint256"
                },
                {
                  "internalType": "uint256",
                  "name": "inceptionPrice",
                  "type": "uint256"
                },
                {
                  "internalType": "uint256",
                  "name": "leverageFactor",
                  "type": "uint256"
                },
                {
                  "internalType": "uint256",
                  "name": "managementFee",
                  "type": "uint256"
                }
              ],
              "internalType": "struct Vault.PoolData",
              "name": "poolData",
              "type": "tuple"
            }
          ],
          "internalType": "struct Vault.InstrumentData",
          "name": "data",
          "type": "tuple"
        }
      ],
      "name": "addProposal",
      "outputs": [],
      "stateMutability": "nonpayable",
      "type": "function"
    },
    {
      "inputs": [
        {
          "internalType": "address",
          "name": "",
          "type": "address"
        },
        {
          "internalType": "address",
          "name": "",
          "type": "address"
        }
      ],
      "name": "allowance",
      "outputs": [
        {
          "internalType": "uint256",
          "name": "",
          "type": "uint256"
        }
      ],
      "stateMutability": "view",
      "type": "function"
    },
    {
      "inputs": [
        {
          "internalType": "address",
          "name": "spender",
          "type": "address"
        },
        {
          "internalType": "uint256",
          "name": "amount",
          "type": "uint256"
        }
      ],
      "name": "approve",
      "outputs": [
        {
          "internalType": "bool",
          "name": "",
          "type": "bool"
        }
      ],
      "stateMutability": "nonpayable",
      "type": "function"
    },
    {
      "inputs": [],
      "name": "asset",
      "outputs": [
        {
          "internalType": "contract ERC20",
          "name": "",
          "type": "address"
        }
      ],
      "stateMutability": "view",
      "type": "function"
    },
    {
      "inputs": [],
      "name": "asset_limit",
      "outputs": [
        {
          "internalType": "uint256",
          "name": "",
          "type": "uint256"
        }
      ],
      "stateMutability": "view",
      "type": "function"
    },
    {
      "inputs": [
        {
          "internalType": "address",
          "name": "ad",
          "type": "address"
        }
      ],
      "name": "balanceInUnderlying",
      "outputs": [
        {
          "internalType": "uint256",
          "name": "",
          "type": "uint256"
        }
      ],
      "stateMutability": "view",
      "type": "function"
    },
    {
      "inputs": [
        {
          "internalType": "address",
          "name": "",
          "type": "address"
        }
      ],
      "name": "balanceOf",
      "outputs": [
        {
          "internalType": "uint256",
          "name": "",
          "type": "uint256"
        }
      ],
      "stateMutability": "view",
      "type": "function"
    },
    {
      "inputs": [
        {
          "internalType": "uint256",
          "name": "marketId",
          "type": "uint256"
        }
      ],
      "name": "beforeResolve",
      "outputs": [],
      "stateMutability": "nonpayable",
      "type": "function"
    },
    {
      "inputs": [
        {
          "internalType": "uint256",
          "name": "shares",
          "type": "uint256"
        }
      ],
      "name": "burn",
      "outputs": [],
      "stateMutability": "nonpayable",
      "type": "function"
    },
    {
      "inputs": [
        {
          "internalType": "uint256",
          "name": "marketId",
          "type": "uint256"
        }
      ],
      "name": "closeInstrument",
      "outputs": [],
      "stateMutability": "nonpayable",
      "type": "function"
    },
    {
      "inputs": [
        {
          "internalType": "uint256",
          "name": "shares",
          "type": "uint256"
        }
      ],
      "name": "convertToAssets",
      "outputs": [
        {
          "internalType": "uint256",
          "name": "",
          "type": "uint256"
        }
      ],
      "stateMutability": "view",
      "type": "function"
    },
    {
      "inputs": [
        {
          "internalType": "uint256",
          "name": "assets",
          "type": "uint256"
        }
      ],
      "name": "convertToShares",
      "outputs": [
        {
          "internalType": "uint256",
          "name": "",
          "type": "uint256"
        }
      ],
      "stateMutability": "view",
      "type": "function"
    },
    {
      "inputs": [
        {
          "internalType": "uint256",
          "name": "assets",
          "type": "uint256"
        }
      ],
      "name": "decAssetsToShares",
      "outputs": [
        {
          "internalType": "uint256",
          "name": "",
          "type": "uint256"
        }
      ],
      "stateMutability": "view",
      "type": "function"
    },
    {
      "inputs": [
        {
          "internalType": "uint256",
          "name": "shares",
          "type": "uint256"
        }
      ],
      "name": "decSharesToAssets",
      "outputs": [
        {
          "internalType": "uint256",
          "name": "",
          "type": "uint256"
        }
      ],
      "stateMutability": "view",
      "type": "function"
    },
    {
      "inputs": [],
      "name": "decimal_mismatch",
      "outputs": [
        {
          "internalType": "bool",
          "name": "",
          "type": "bool"
        }
      ],
      "stateMutability": "view",
      "type": "function"
    },
    {
      "inputs": [],
      "name": "decimals",
      "outputs": [
        {
          "internalType": "uint8",
          "name": "",
          "type": "uint8"
        }
      ],
      "stateMutability": "view",
      "type": "function"
    },
    {
      "inputs": [
        {
          "internalType": "uint256",
          "name": "marketId",
          "type": "uint256"
        }
      ],
      "name": "denyInstrument",
      "outputs": [],
      "stateMutability": "nonpayable",
      "type": "function"
    },
    {
      "inputs": [
        {
          "internalType": "uint256",
          "name": "assets",
          "type": "uint256"
        },
        {
          "internalType": "address",
          "name": "receiver",
          "type": "address"
        }
      ],
      "name": "deposit",
      "outputs": [
        {
          "internalType": "uint256",
          "name": "shares",
          "type": "uint256"
        }
      ],
      "stateMutability": "nonpayable",
      "type": "function"
    },
    {
      "inputs": [
        {
          "internalType": "uint256",
          "name": "marketId",
          "type": "uint256"
        },
        {
          "internalType": "uint256",
          "name": "underlyingAmount",
          "type": "uint256"
        },
        {
          "internalType": "bool",
          "name": "isPool",
          "type": "bool"
        }
      ],
      "name": "depositIntoInstrument",
      "outputs": [],
      "stateMutability": "nonpayable",
      "type": "function"
    },
    {
      "inputs": [],
      "name": "description",
      "outputs": [
        {
          "internalType": "string",
          "name": "",
          "type": "string"
        }
      ],
      "stateMutability": "view",
      "type": "function"
    },
    {
      "inputs": [
        {
          "internalType": "contract Instrument",
          "name": "instrument",
          "type": "address"
        }
      ],
      "name": "distrustInstrument",
      "outputs": [],
      "stateMutability": "nonpayable",
      "type": "function"
    },
    {
      "inputs": [
        {
          "internalType": "uint256",
          "name": "amounts",
          "type": "uint256"
        }
      ],
      "name": "enoughLiqudity",
      "outputs": [
        {
          "internalType": "bool",
          "name": "",
          "type": "bool"
        }
      ],
      "stateMutability": "view",
      "type": "function"
    },
    {
      "inputs": [
        {
          "internalType": "uint256",
          "name": "marketId",
          "type": "uint256"
        }
      ],
      "name": "fetchInstrument",
      "outputs": [
        {
          "internalType": "contract Instrument",
          "name": "",
          "type": "address"
        }
      ],
      "stateMutability": "view",
      "type": "function"
    },
    {
      "inputs": [
        {
          "internalType": "uint256",
          "name": "marketId",
          "type": "uint256"
        }
      ],
      "name": "fetchInstrumentData",
      "outputs": [
        {
          "components": [
            {
              "internalType": "bytes32",
              "name": "name",
              "type": "bytes32"
            },
            {
              "internalType": "bool",
              "name": "isPool",
              "type": "bool"
            },
            {
              "internalType": "bool",
              "name": "trusted",
              "type": "bool"
            },
            {
              "internalType": "uint256",
              "name": "balance",
              "type": "uint256"
            },
            {
              "internalType": "uint256",
              "name": "faceValue",
              "type": "uint256"
            },
            {
              "internalType": "uint256",
              "name": "marketId",
              "type": "uint256"
            },
            {
              "internalType": "uint256",
              "name": "principal",
              "type": "uint256"
            },
            {
              "internalType": "uint256",
              "name": "expectedYield",
              "type": "uint256"
            },
            {
              "internalType": "uint256",
              "name": "duration",
              "type": "uint256"
            },
            {
              "internalType": "string",
              "name": "description",
              "type": "string"
            },
            {
              "internalType": "address",
              "name": "instrument_address",
              "type": "address"
            },
            {
              "internalType": "enum Vault.InstrumentType",
              "name": "instrument_type",
              "type": "uint8"
            },
            {
              "internalType": "uint256",
              "name": "maturityDate",
              "type": "uint256"
            },
            {
              "components": [
                {
                  "internalType": "uint256",
                  "name": "saleAmount",
                  "type": "uint256"
                },
                {
                  "internalType": "uint256",
                  "name": "initPrice",
                  "type": "uint256"
                },
                {
                  "internalType": "uint256",
                  "name": "promisedReturn",
                  "type": "uint256"
                },
                {
                  "internalType": "uint256",
                  "name": "inceptionTime",
                  "type": "uint256"
                },
                {
                  "internalType": "uint256",
                  "name": "inceptionPrice",
                  "type": "uint256"
                },
                {
                  "internalType": "uint256",
                  "name": "leverageFactor",
                  "type": "uint256"
                },
                {
                  "internalType": "uint256",
                  "name": "managementFee",
                  "type": "uint256"
                }
              ],
              "internalType": "struct Vault.PoolData",
              "name": "poolData",
              "type": "tuple"
            }
          ],
          "internalType": "struct Vault.InstrumentData",
          "name": "",
          "type": "tuple"
        }
      ],
      "stateMutability": "view",
      "type": "function"
    },
    {
      "inputs": [
        {
          "internalType": "uint256",
          "name": "marketId",
          "type": "uint256"
        }
      ],
      "name": "fetchPoolTrancheData",
      "outputs": [
        {
          "internalType": "uint256",
          "name": "",
          "type": "uint256"
        },
        {
          "internalType": "uint256",
          "name": "",
          "type": "uint256"
        },
        {
          "internalType": "uint256",
          "name": "",
          "type": "uint256"
        },
        {
          "internalType": "uint256",
          "name": "",
          "type": "uint256"
        },
        {
          "internalType": "uint256",
          "name": "",
          "type": "uint256"
        }
      ],
      "stateMutability": "view",
      "type": "function"
    },
    {
      "inputs": [
        {
          "internalType": "contract Instrument",
          "name": "_instrument",
          "type": "address"
        }
      ],
      "name": "getInstrumentData",
      "outputs": [
        {
          "components": [
            {
              "internalType": "bytes32",
              "name": "name",
              "type": "bytes32"
            },
            {
              "internalType": "bool",
              "name": "isPool",
              "type": "bool"
            },
            {
              "internalType": "bool",
              "name": "trusted",
              "type": "bool"
            },
            {
              "internalType": "uint256",
              "name": "balance",
              "type": "uint256"
            },
            {
              "internalType": "uint256",
              "name": "faceValue",
              "type": "uint256"
            },
            {
              "internalType": "uint256",
              "name": "marketId",
              "type": "uint256"
            },
            {
              "internalType": "uint256",
              "name": "principal",
              "type": "uint256"
            },
            {
              "internalType": "uint256",
              "name": "expectedYield",
              "type": "uint256"
            },
            {
              "internalType": "uint256",
              "name": "duration",
              "type": "uint256"
            },
            {
              "internalType": "string",
              "name": "description",
              "type": "string"
            },
            {
              "internalType": "address",
              "name": "instrument_address",
              "type": "address"
            },
            {
              "internalType": "enum Vault.InstrumentType",
              "name": "instrument_type",
              "type": "uint8"
            },
            {
              "internalType": "uint256",
              "name": "maturityDate",
              "type": "uint256"
            },
            {
              "components": [
                {
                  "internalType": "uint256",
                  "name": "saleAmount",
                  "type": "uint256"
                },
                {
                  "internalType": "uint256",
                  "name": "initPrice",
                  "type": "uint256"
                },
                {
                  "internalType": "uint256",
                  "name": "promisedReturn",
                  "type": "uint256"
                },
                {
                  "internalType": "uint256",
                  "name": "inceptionTime",
                  "type": "uint256"
                },
                {
                  "internalType": "uint256",
                  "name": "inceptionPrice",
                  "type": "uint256"
                },
                {
                  "internalType": "uint256",
                  "name": "leverageFactor",
                  "type": "uint256"
                },
                {
                  "internalType": "uint256",
                  "name": "managementFee",
                  "type": "uint256"
                }
              ],
              "internalType": "struct Vault.PoolData",
              "name": "poolData",
              "type": "tuple"
            }
          ],
          "internalType": "struct Vault.InstrumentData",
          "name": "",
          "type": "tuple"
        }
      ],
      "stateMutability": "view",
      "type": "function"
    },
    {
      "inputs": [
        {
          "internalType": "uint256",
          "name": "marketId",
          "type": "uint256"
        }
      ],
      "name": "getInstrumentType",
      "outputs": [
        {
          "internalType": "uint256",
          "name": "",
          "type": "uint256"
        }
      ],
      "stateMutability": "view",
      "type": "function"
    },
    {
      "inputs": [],
      "name": "get_vault_params",
      "outputs": [
        {
          "components": [
            {
              "internalType": "uint256",
              "name": "N",
              "type": "uint256"
            },
            {
              "internalType": "uint256",
              "name": "sigma",
              "type": "uint256"
            },
            {
              "internalType": "uint256",
              "name": "alpha",
              "type": "uint256"
            },
            {
              "internalType": "uint256",
              "name": "omega",
              "type": "uint256"
            },
            {
              "internalType": "uint256",
              "name": "delta",
              "type": "uint256"
            },
            {
              "internalType": "uint256",
              "name": "r",
              "type": "uint256"
            },
            {
              "internalType": "uint256",
              "name": "s",
              "type": "uint256"
            },
            {
              "internalType": "uint256",
              "name": "steak",
              "type": "uint256"
            }
          ],
          "internalType": "struct MarketManager.MarketParameters",
          "name": "",
          "type": "tuple"
        }
      ],
      "stateMutability": "view",
      "type": "function"
    },
    {
      "inputs": [
        {
          "internalType": "address",
          "name": "instrument",
          "type": "address"
        }
      ],
      "name": "harvest",
      "outputs": [],
      "stateMutability": "nonpayable",
      "type": "function"
    },
    {
      "inputs": [
        {
          "internalType": "uint256",
          "name": "marketId",
          "type": "uint256"
        }
      ],
      "name": "instrumentApprovalCondition",
      "outputs": [
        {
          "internalType": "bool",
          "name": "",
          "type": "bool"
        }
      ],
      "stateMutability": "view",
      "type": "function"
    },
    {
      "inputs": [
        {
          "internalType": "uint256",
          "name": "marketId",
          "type": "uint256"
        },
        {
          "internalType": "uint256",
          "name": "juniorSupply",
          "type": "uint256"
        },
        {
          "internalType": "uint256",
          "name": "seniorSupply",
          "type": "uint256"
        }
      ],
      "name": "instrumentAssetOracle",
      "outputs": [
        {
          "internalType": "uint256",
          "name": "",
          "type": "uint256"
        }
      ],
      "stateMutability": "view",
      "type": "function"
    },
    {
      "inputs": [
        {
          "internalType": "contract Instrument",
          "name": "",
          "type": "address"
        }
      ],
      "name": "instrument_data",
      "outputs": [
        {
          "internalType": "bytes32",
          "name": "name",
          "type": "bytes32"
        },
        {
          "internalType": "bool",
          "name": "isPool",
          "type": "bool"
        },
        {
          "internalType": "bool",
          "name": "trusted",
          "type": "bool"
        },
        {
          "internalType": "uint256",
          "name": "balance",
          "type": "uint256"
        },
        {
          "internalType": "uint256",
          "name": "faceValue",
          "type": "uint256"
        },
        {
          "internalType": "uint256",
          "name": "marketId",
          "type": "uint256"
        },
        {
          "internalType": "uint256",
          "name": "principal",
          "type": "uint256"
        },
        {
          "internalType": "uint256",
          "name": "expectedYield",
          "type": "uint256"
        },
        {
          "internalType": "uint256",
          "name": "duration",
          "type": "uint256"
        },
        {
          "internalType": "string",
          "name": "description",
          "type": "string"
        },
        {
          "internalType": "address",
          "name": "instrument_address",
          "type": "address"
        },
        {
          "internalType": "enum Vault.InstrumentType",
          "name": "instrument_type",
          "type": "uint8"
        },
        {
          "internalType": "uint256",
          "name": "maturityDate",
          "type": "uint256"
        },
        {
          "components": [
            {
              "internalType": "uint256",
              "name": "saleAmount",
              "type": "uint256"
            },
            {
              "internalType": "uint256",
              "name": "initPrice",
              "type": "uint256"
            },
            {
              "internalType": "uint256",
              "name": "promisedReturn",
              "type": "uint256"
            },
            {
              "internalType": "uint256",
              "name": "inceptionTime",
              "type": "uint256"
            },
            {
              "internalType": "uint256",
              "name": "inceptionPrice",
              "type": "uint256"
            },
            {
              "internalType": "uint256",
              "name": "leverageFactor",
              "type": "uint256"
            },
            {
              "internalType": "uint256",
              "name": "managementFee",
              "type": "uint256"
            }
          ],
          "internalType": "struct Vault.PoolData",
          "name": "poolData",
          "type": "tuple"
        }
      ],
      "stateMutability": "view",
      "type": "function"
    },
    {
      "inputs": [
        {
          "internalType": "contract Instrument",
          "name": "instrument",
          "type": "address"
        }
      ],
      "name": "isTrusted",
      "outputs": [
        {
          "internalType": "bool",
          "name": "",
          "type": "bool"
        }
      ],
      "stateMutability": "view",
      "type": "function"
    },
    {
      "inputs": [
        {
          "internalType": "address",
          "name": "",
          "type": "address"
        }
      ],
      "name": "maxDeposit",
      "outputs": [
        {
          "internalType": "uint256",
          "name": "",
          "type": "uint256"
        }
      ],
      "stateMutability": "view",
      "type": "function"
    },
    {
      "inputs": [
        {
          "internalType": "address",
          "name": "",
          "type": "address"
        }
      ],
      "name": "maxMint",
      "outputs": [
        {
          "internalType": "uint256",
          "name": "",
          "type": "uint256"
        }
      ],
      "stateMutability": "view",
      "type": "function"
    },
    {
      "inputs": [
        {
          "internalType": "address",
          "name": "owner",
          "type": "address"
        }
      ],
      "name": "maxRedeem",
      "outputs": [
        {
          "internalType": "uint256",
          "name": "",
          "type": "uint256"
        }
      ],
      "stateMutability": "view",
      "type": "function"
    },
    {
      "inputs": [
        {
          "internalType": "address",
          "name": "owner",
          "type": "address"
        }
      ],
      "name": "maxWithdraw",
      "outputs": [
        {
          "internalType": "uint256",
          "name": "",
          "type": "uint256"
        }
      ],
      "stateMutability": "view",
      "type": "function"
    },
    {
      "inputs": [
        {
          "internalType": "uint256",
          "name": "shares",
          "type": "uint256"
        },
        {
          "internalType": "address",
          "name": "receiver",
          "type": "address"
        }
      ],
      "name": "mint",
      "outputs": [
        {
          "internalType": "uint256",
          "name": "assets",
          "type": "uint256"
        }
      ],
      "stateMutability": "nonpayable",
      "type": "function"
    },
    {
      "inputs": [],
      "name": "name",
      "outputs": [
        {
          "internalType": "string",
          "name": "",
          "type": "string"
        }
      ],
      "stateMutability": "view",
      "type": "function"
    },
    {
      "inputs": [
        {
          "internalType": "address",
          "name": "",
          "type": "address"
        }
      ],
      "name": "nonces",
      "outputs": [
        {
          "internalType": "uint256",
          "name": "",
          "type": "uint256"
        }
      ],
      "stateMutability": "view",
      "type": "function"
    },
    {
      "inputs": [],
      "name": "onlyVerified",
      "outputs": [
        {
          "internalType": "bool",
          "name": "",
          "type": "bool"
        }
      ],
      "stateMutability": "view",
      "type": "function"
    },
    {
      "inputs": [],
      "name": "owner",
      "outputs": [
        {
          "internalType": "address",
          "name": "",
          "type": "address"
        }
      ],
      "stateMutability": "view",
      "type": "function"
    },
    {
      "inputs": [
        {
          "internalType": "address",
          "name": "owner",
          "type": "address"
        },
        {
          "internalType": "address",
          "name": "spender",
          "type": "address"
        },
        {
          "internalType": "uint256",
          "name": "value",
          "type": "uint256"
        },
        {
          "internalType": "uint256",
          "name": "deadline",
          "type": "uint256"
        },
        {
          "internalType": "uint8",
          "name": "v",
          "type": "uint8"
        },
        {
          "internalType": "bytes32",
          "name": "r",
          "type": "bytes32"
        },
        {
          "internalType": "bytes32",
          "name": "s",
          "type": "bytes32"
        }
      ],
      "name": "permit",
      "outputs": [],
      "stateMutability": "nonpayable",
      "type": "function"
    },
    {
      "inputs": [
        {
          "internalType": "address",
          "name": "instrument",
          "type": "address"
        },
        {
          "internalType": "bool",
          "name": "premature",
          "type": "bool"
        }
      ],
      "name": "pingMaturity",
      "outputs": [],
      "stateMutability": "nonpayable",
      "type": "function"
    },
    {
      "inputs": [
        {
          "internalType": "uint256",
          "name": "marketId",
          "type": "uint256"
        }
      ],
      "name": "poolZCBValue",
      "outputs": [
        {
          "internalType": "uint256",
          "name": "psu",
          "type": "uint256"
        },
        {
          "internalType": "uint256",
          "name": "pju",
          "type": "uint256"
        },
        {
          "internalType": "uint256",
          "name": "levFactor",
          "type": "uint256"
        }
      ],
      "stateMutability": "view",
      "type": "function"
    },
    {
      "inputs": [
        {
          "internalType": "uint256",
          "name": "assets",
          "type": "uint256"
        }
      ],
      "name": "previewDeposit",
      "outputs": [
        {
          "internalType": "uint256",
          "name": "",
          "type": "uint256"
        }
      ],
      "stateMutability": "view",
      "type": "function"
    },
    {
      "inputs": [
        {
          "internalType": "uint256",
          "name": "shares",
          "type": "uint256"
        }
      ],
      "name": "previewMint",
      "outputs": [
        {
          "internalType": "uint256",
          "name": "",
          "type": "uint256"
        }
      ],
      "stateMutability": "view",
      "type": "function"
    },
    {
      "inputs": [
        {
          "internalType": "uint256",
          "name": "shares",
          "type": "uint256"
        }
      ],
      "name": "previewRedeem",
      "outputs": [
        {
          "internalType": "uint256",
          "name": "",
          "type": "uint256"
        }
      ],
      "stateMutability": "view",
      "type": "function"
    },
    {
      "inputs": [
        {
          "internalType": "uint256",
          "name": "assets",
          "type": "uint256"
        }
      ],
      "name": "previewWithdraw",
      "outputs": [
        {
          "internalType": "uint256",
          "name": "",
          "type": "uint256"
        }
      ],
      "stateMutability": "view",
      "type": "function"
    },
    {
      "inputs": [
        {
          "internalType": "uint256",
          "name": "amount",
          "type": "uint256"
        }
      ],
      "name": "pullFromLM",
      "outputs": [],
      "stateMutability": "nonpayable",
      "type": "function"
    },
    {
      "inputs": [
        {
          "internalType": "uint256",
          "name": "amount",
          "type": "uint256"
        }
      ],
      "name": "pushToLM",
      "outputs": [],
      "stateMutability": "nonpayable",
      "type": "function"
    },
    {
      "inputs": [],
      "name": "r",
      "outputs": [
        {
          "internalType": "uint256",
          "name": "",
          "type": "uint256"
        }
      ],
      "stateMutability": "view",
      "type": "function"
    },
    {
      "inputs": [
        {
          "internalType": "address",
          "name": "receiver",
          "type": "address"
        }
      ],
      "name": "receiver_conditions",
      "outputs": [
        {
          "internalType": "bool",
          "name": "",
          "type": "bool"
        }
      ],
      "stateMutability": "view",
      "type": "function"
    },
    {
      "inputs": [
        {
          "internalType": "uint256",
          "name": "shares",
          "type": "uint256"
        },
        {
          "internalType": "address",
          "name": "receiver",
          "type": "address"
        },
        {
          "internalType": "address",
          "name": "owner",
          "type": "address"
        }
      ],
      "name": "redeem",
      "outputs": [
        {
          "internalType": "uint256",
          "name": "assets",
          "type": "uint256"
        }
      ],
      "stateMutability": "nonpayable",
      "type": "function"
    },
    {
      "inputs": [
        {
          "internalType": "address",
          "name": "to",
          "type": "address"
        },
        {
          "internalType": "uint256",
          "name": "amount",
          "type": "uint256"
        }
      ],
      "name": "repayDebt",
      "outputs": [],
      "stateMutability": "nonpayable",
      "type": "function"
    },
    {
      "inputs": [
        {
          "internalType": "uint256",
          "name": "marketId",
          "type": "uint256"
        }
      ],
      "name": "resolveInstrument",
      "outputs": [
        {
          "internalType": "bool",
          "name": "",
          "type": "bool"
        },
        {
          "internalType": "uint256",
          "name": "",
          "type": "uint256"
        },
        {
          "internalType": "uint256",
          "name": "",
          "type": "uint256"
        },
        {
          "internalType": "bool",
          "name": "",
          "type": "bool"
        }
      ],
      "stateMutability": "nonpayable",
      "type": "function"
    },
    {
      "inputs": [],
      "name": "symbol",
      "outputs": [
        {
          "internalType": "string",
          "name": "",
          "type": "string"
        }
      ],
      "stateMutability": "view",
      "type": "function"
    },
    {
      "inputs": [],
      "name": "totalAssets",
      "outputs": [
        {
          "internalType": "uint256",
          "name": "",
          "type": "uint256"
        }
      ],
      "stateMutability": "view",
      "type": "function"
    },
    {
      "inputs": [],
      "name": "totalFloat",
      "outputs": [
        {
          "internalType": "uint256",
          "name": "",
          "type": "uint256"
        }
      ],
      "stateMutability": "view",
      "type": "function"
    },
    {
      "inputs": [],
      "name": "totalInstrumentHoldings",
      "outputs": [
        {
          "internalType": "uint256",
          "name": "",
          "type": "uint256"
        }
      ],
      "stateMutability": "view",
      "type": "function"
    },
    {
      "inputs": [],
      "name": "totalSupply",
      "outputs": [
        {
          "internalType": "uint256",
          "name": "",
          "type": "uint256"
        }
      ],
      "stateMutability": "view",
      "type": "function"
    },
    {
      "inputs": [],
      "name": "total_asset_limit",
      "outputs": [
        {
          "internalType": "uint256",
          "name": "",
          "type": "uint256"
        }
      ],
      "stateMutability": "view",
      "type": "function"
    },
    {
      "inputs": [
        {
          "internalType": "address",
          "name": "to",
          "type": "address"
        },
        {
          "internalType": "uint256",
          "name": "amount",
          "type": "uint256"
        }
      ],
      "name": "transfer",
      "outputs": [
        {
          "internalType": "bool",
          "name": "",
          "type": "bool"
        }
      ],
      "stateMutability": "nonpayable",
      "type": "function"
    },
    {
      "inputs": [
        {
          "internalType": "address",
          "name": "from",
          "type": "address"
        },
        {
          "internalType": "address",
          "name": "to",
          "type": "address"
        },
        {
          "internalType": "uint256",
          "name": "amount",
          "type": "uint256"
        }
      ],
      "name": "transferFrom",
      "outputs": [
        {
          "internalType": "bool",
          "name": "",
          "type": "bool"
        }
      ],
      "stateMutability": "nonpayable",
      "type": "function"
    },
    {
      "inputs": [
        {
          "internalType": "uint256",
          "name": "marketId",
          "type": "uint256"
        },
        {
          "components": [
            {
              "internalType": "uint256",
              "name": "managers_stake",
              "type": "uint256"
            },
            {
              "internalType": "uint256",
              "name": "approved_principal",
              "type": "uint256"
            },
            {
              "internalType": "uint256",
              "name": "approved_yield",
              "type": "uint256"
            }
          ],
          "internalType": "struct Controller.ApprovalData",
          "name": "data",
          "type": "tuple"
        },
        {
          "internalType": "bool",
          "name": "isPool",
          "type": "bool"
        }
      ],
      "name": "trustInstrument",
      "outputs": [],
      "stateMutability": "nonpayable",
      "type": "function"
    },
    {
      "inputs": [
        {
          "internalType": "uint256",
          "name": "amount",
          "type": "uint256"
        },
        {
          "internalType": "address",
          "name": "to",
          "type": "address"
        }
      ],
      "name": "trusted_transfer",
      "outputs": [],
      "stateMutability": "nonpayable",
      "type": "function"
    },
    {
      "inputs": [],
      "name": "utilizationRate",
      "outputs": [
        {
          "internalType": "uint256",
          "name": "",
          "type": "uint256"
        }
      ],
      "stateMutability": "view",
      "type": "function"
    },
    {
      "inputs": [
        {
          "internalType": "uint256",
          "name": "marketId",
          "type": "uint256"
        }
      ],
      "name": "viewPrincipalAndYield",
      "outputs": [
        {
          "internalType": "uint256",
          "name": "",
          "type": "uint256"
        },
        {
          "internalType": "uint256",
          "name": "",
          "type": "uint256"
        }
      ],
      "stateMutability": "view",
      "type": "function"
    },
    {
      "inputs": [
        {
          "internalType": "uint256",
          "name": "assets",
          "type": "uint256"
        },
        {
          "internalType": "address",
          "name": "receiver",
          "type": "address"
        },
        {
          "internalType": "address",
          "name": "owner",
          "type": "address"
        }
      ],
      "name": "withdraw",
      "outputs": [
        {
          "internalType": "uint256",
          "name": "shares",
          "type": "uint256"
        }
      ],
      "stateMutability": "nonpayable",
      "type": "function"
    },
    {
      "inputs": [
        {
          "internalType": "uint256",
          "name": "marketId",
          "type": "uint256"
        },
        {
          "internalType": "uint256",
          "name": "instrumentPullAmount",
          "type": "uint256"
        },
        {
          "internalType": "address",
          "name": "pushTo",
          "type": "address"
        },
        {
          "internalType": "uint256",
          "name": "underlyingAmount",
          "type": "uint256"
        }
      ],
      "name": "withdrawFromPoolInstrument",
      "outputs": [],
      "stateMutability": "nonpayable",
      "type": "function"
    }
  ],
  "bytecode": {
    "object": "0x6101406040523480156200001257600080fd5b50604051620058d2380380620058d283398101604081905262000035916200063f565b84856001600160a01b03166306fdde036040518163ffffffff1660e01b8152600401600060405180830381865afa15801562000075573d6000803e3d6000fd5b505050506040513d6000823e601f3d908101601f191682016040526200009f919081019062000771565b604051602001620000b19190620007b1565b604051602081830303815290604052866001600160a01b03166395d89b416040518163ffffffff1660e01b8152600401600060405180830381865afa158015620000ff573d6000803e3d6000fd5b505050506040513d6000823e601f3d908101601f1916820160405262000129919081019062000771565b6040516020016200013b9190620007f0565b60408051601f198184030181529190528181601260006200015d8482620008ad565b5060016200016c8382620008ad565b5060ff81166080524660a05262000182620004a2565b60c0525050506001600160a01b03831660e08190526040805163313ce56760e01b8152905163313ce567916004808201926020929091908290030181865afa158015620001d3573d6000803e3d6000fd5b505050506040513d601f19601f82011682018060405250810190620001f9919062000979565b60ff166101008181525050601260ff16836001600160a01b031663313ce5676040518163ffffffff1660e01b8152600401602060405180830381865afa15801562000248573d6000803e3d6000fd5b505050506040513d601f19601f820116820180604052508101906200026e919062000979565b6006805460ff191660ff9283169390931415928317905516156200030957601260ff16836001600160a01b031663313ce5676040518163ffffffff1660e01b8152600401602060405180830381865afa158015620002d0573d6000803e3d6000fd5b505050506040513d601f19601f82011682018060405250810190620002f6919062000979565b60ff16106200030957620003096200099e565b5050506000806000806000868060200190518101906200032a9190620009b4565b9398509196509450925090506012620003448282620008ad565b50601b80546001600160a01b0319166001600160a01b038a8116919091179091558a166101208190526040805163313ce56760e01b8152905163313ce567916004808201926020929091908290030181865afa158015620003a9573d6000803e3d6000fd5b505050506040513d601f19601f82011682018060405250810190620003cf919062000979565b60ff16601214620004115760405162461bcd60e51b8152602060048201526008602482015267646563696d616c7360c01b604482015260640160405180910390fd5b50670de0b6b3a7640000600755600980546001600160a01b0319166001600160a01b0399909916989098179097556013805460ff19169315159390931790925560145560155560169390935550508051600a556020810151600b556040810151600c556060810151600d556080810151600e5560a0810151600f5560c081015160105560e001516011555062000aaa565b60007f8b73c3c69bb8fe3d512ecc4cf759cc79239f7b179b0ffacaa9a75d522b39400f6000604051620004d6919062000a2c565b6040805191829003822060208301939093528101919091527fc89efdaa54c0f20c7adf612882df0950f5a951637e0307cdcb4c672f298b8bc660608201524660808201523060a082015260c00160405160208183030381529060405280519060200120905090565b80516001600160a01b03811681146200055657600080fd5b919050565b634e487b7160e01b600052604160045260246000fd5b60405161010081016001600160401b03811182821017156200059757620005976200055b565b60405290565b60005b83811015620005ba578181015183820152602001620005a0565b50506000910152565b60006001600160401b0380841115620005e057620005e06200055b565b604051601f8501601f19908116603f011681019082821181831017156200060b576200060b6200055b565b816040528093508581528686860111156200062557600080fd5b620006358660208301876200059d565b5050509392505050565b60008060008060008587036101808112156200065a57600080fd5b62000665876200053e565b955062000675602088016200053e565b945062000685604088016200053e565b60608801519094506001600160401b03811115620006a257600080fd5b8701601f81018913620006b457600080fd5b620006c589825160208401620005c3565b93505061010080607f1983011215620006dd57600080fd5b620006e762000571565b91506080880151825260a0880151602083015260c0880151604083015260e088015160608301528088015160808301525061012087015160a082015261014087015160c082015261016087015160e0820152809150509295509295909350565b600082601f8301126200075957600080fd5b6200076a83835160208501620005c3565b9392505050565b6000602082840312156200078457600080fd5b81516001600160401b038111156200079b57600080fd5b620007a98482850162000747565b949350505050565b6402930b6b6960dd1b815260008251620007d38160058501602087016200059d565b650815985d5b1d60d21b6005939091019283015250600b01919050565b6352414d4d60e01b815260008251620008118160048501602087016200059d565b9190910160040192915050565b600181811c908216806200083357607f821691505b6020821081036200085457634e487b7160e01b600052602260045260246000fd5b50919050565b601f821115620008a857600081815260208120601f850160051c81016020861015620008835750805b601f850160051c820191505b81811015620008a4578281556001016200088f565b5050505b505050565b81516001600160401b03811115620008c957620008c96200055b565b620008e181620008da84546200081e565b846200085a565b602080601f831160018114620009195760008415620009005750858301515b600019600386901b1c1916600185901b178555620008a4565b600085815260208120601f198616915b828110156200094a5788860151825594840194600190910190840162000929565b5085821015620009695787850151600019600388901b60f8161c191681555b5050505050600190811b01905550565b6000602082840312156200098c57600080fd5b815160ff811681146200076a57600080fd5b634e487b7160e01b600052600160045260246000fd5b600080600080600060a08688031215620009cd57600080fd5b85518015158114620009de57600080fd5b60208701516040880151606089015160808a0151939850919650945092506001600160401b0381111562000a1157600080fd5b62000a1f8882890162000747565b9150509295509295909350565b600080835462000a3c816200081e565b6001828116801562000a57576001811462000a6d5762000a9e565b60ff198416875282151583028701945062000a9e565b8760005260208060002060005b8581101562000a955781548a82015290840190820162000a7a565b50505082870194505b50929695505050505050565b60805160a05160c05160e0516101005161012051614d6f62000b636000396000818161096b0152818161117401528181611668015281816118410152818161191601528181611bda0152818161238e01528181612414015281816136eb015281816137df0152613826015260008181611117015261252a0152600081816106210152818161223f015281816124a101528181612b1b0152612c6701526000611ab901526000611a89015260006105cd0152614d6f6000f3fe608060405234801561001057600080fd5b506004361061043e5760003560e01c80637572cb1f11610236578063c6e6f5921161013b578063dd62ed3e116100c3578063ef8b30f711610087578063ef8b30f714610af1578063f05bcfb414610b04578063f7d070de14610b17578063fa07b19f14610b24578063fc173fc614610b3757600080fd5b8063dd62ed3e14610a55578063e134cc8214610a80578063e4cc3e7614610ab7578063e9a23d3a14610aca578063edb53d3e14610ade57600080fd5b8063ce96cb771161010a578063ce96cb77146109e0578063d505accf146109f3578063d746d3ef14610a06578063d905777e14610a19578063dc361a1314610a4257600080fd5b8063c6e6f5921461098d578063c83baf4e146109a0578063ca13e450146109a9578063ca2989f4146109d757600080fd5b806398d796e7116101be578063b3d7f6b91161018d578063b3d7f6b91461092d578063b460af9414610940578063ba08765214610953578063c5d664c614610966578063c63d75b61461065b57600080fd5b806398d796e7146108e15780639ec4d40e146108f4578063a9059cbb14610907578063b19b1f911461091a57600080fd5b80638da5cb5b116102055780638da5cb5b1461088d57806394bf804d146108a057806395d89b41146108b357806396ce9d5a146108bb57806396d64879146108ce57600080fd5b80637572cb1f146107e957806379e20bdc146108525780637ecebe0014610865578063841219e51461088557600080fd5b80633644e515116103475780634e1afd00116102cf5780636c321c8a116102935780636c321c8a1461079d5780636c8ae38c146107a55780636e553f65146107ae57806370a08231146107c15780637284e416146107e157600080fd5b80634e1afd00146106ef57806350c6e6cf1461070257806359dc5c6f1461072b5780635f260bb81461073e57806360d4efa41461074757600080fd5b8063471e1cea11610316578063471e1cea14610683578063492023f8146106965780634bd3c9a8146106a95780634cdad506146106bc5780634dc54a38146106cf57600080fd5b80633644e5151461061457806338d52e0f1461061c578063402d267d1461065b57806342966c681461067057600080fd5b80631316dbde116103ca57806322f0e0691161039957806322f0e0691461057557806323b872dd146105a25780632b858734146105b5578063313ce567146105c857806334928ace1461060157600080fd5b80631316dbde14610533578063139f4b6f1461054657806318160ddd14610559578063213a7d521461056257600080fd5b806307a2d13a1161041157806307a2d13a146104c3578063095ea7b3146104d65780630a28a477146104f95780630e5c011e1461050c5780630f65cbc41461051f57600080fd5b806301e1d11414610443578063063b31d41461045e57806306fdde0314610473578063076125a914610488575b600080fd5b61044b610b44565b6040519081526020015b60405180910390f35b61047161046c36600461417d565b610b60565b005b61047b610daa565b60405161045591906141dc565b61049b61049636600461417d565b610e38565b604080519586526020860194909452928401919091526060830152608082015260a001610455565b61044b6104d136600461417d565b610e80565b6104e96104e4366004614214565b610ec4565b6040519015158152602001610455565b61044b61050736600461417d565b610f31565b61047161051a366004614240565b610f6a565b61044b61052d36600461417d565b50600090565b61044b61054136600461417d565b611110565b6104e961055436600461417d565b611152565b61044b60025481565b610471610570366004614276565b6111e7565b610588610583366004614240565b611250565b6040516104559e9d9c9b9a9998979695949392919061432b565b6104e96105b03660046143c4565b611399565b6104716105c336600461417d565b611479565b6105ef7f000000000000000000000000000000000000000000000000000000000000000081565b60405160ff9091168152602001610455565b61047161060f366004614405565b611628565b61044b611a85565b6106437f000000000000000000000000000000000000000000000000000000000000000081565b6040516001600160a01b039091168152602001610455565b61044b610669366004614240565b5060001990565b61047161067e36600461417d565b611adb565b6104e961069136600461417d565b611ae8565b6104716106a4366004614240565b611b5e565b61044b6106b736600461443e565b611c4d565b61044b6106ca36600461417d565b611ce7565b6106e26106dd366004614240565b611cf2565b604051610455919061446a565b6104716106fd36600461458e565b611ecc565b61064361071036600461417d565b6018602052600090815260409020546001600160a01b031681565b61047161073936600461417d565b612148565b61044b60155481565b61078861075536600461417d565b6000908152601860209081526040808320546001600160a01b031683526017909152902060058101546006909101549091565b60408051928352602083019190915201610455565b61044b6121c1565b61044b60145481565b61044b6107bc36600461460c565b6121e7565b61044b6107cf366004614240565b60036020526000908152604090205481565b61047b6122bd565b6107f16122ca565b6040516104559190600061010082019050825182526020830151602083015260408301516040830152606083015160608301526080830151608083015260a083015160a083015260c083015160c083015260e083015160e083015292915050565b610471610860366004614214565b612360565b61044b610873366004614240565b60056020526000908152604090205481565b61044b6123fc565b601b54610643906001600160a01b031681565b61044b6108ae36600461460c565b612487565b61047b612516565b61044b6108c936600461417d565b612523565b6104e96108dc366004614240565b612565565b6104716108ef366004614751565b61258b565b6106e261090236600461417d565b6128ce565b6104e9610915366004614214565b612982565b610471610928366004614240565b6129e8565b61044b61093b36600461417d565b612a15565b61044b61094e366004614877565b612a34565b61044b610961366004614877565b612b42565b6106437f000000000000000000000000000000000000000000000000000000000000000081565b61044b61099b36600461417d565b612c8e565b61044b60165481565b6109bc6109b736600461417d565b612cae565b60408051938452602084019290925290820152606001610455565b61044b60085481565b61044b6109ee366004614240565b612f56565b610471610a013660046148ae565b612f78565b610471610a1436600461417d565b6131bc565b61044b610a27366004614240565b6001600160a01b031660009081526003602052604090205490565b61044b610a50366004614240565b6132d2565b61044b610a63366004614925565b600460209081526000928352604080842090915290825290205481565b610a93610a8e36600461417d565b6132f4565b60408051941515855260208501939093529183015215156060820152608001610455565b610471610ac5366004614953565b613582565b6104e9610ad8366004614240565b50600190565b610643610aec36600461417d565b613774565b61044b610aff36600461417d565b61378f565b610471610b1236600461460c565b61379a565b6013546104e99060ff1681565b610471610b3236600461417d565b61380e565b6006546104e99060ff1681565b6000610b4e6123fc565b600854610b5b91906149a8565b905090565b6000610b6c6000613774565b6040516370a0823160e01b81523060048201529091506000906001600160a01b038316906370a0823190602401602060405180830381865afa158015610bb6573d6000803e3d6000fd5b505050506040513d601f19601f82011682018060405250810190610bda91906149bb565b60405163b3d7f6b960e01b8152600481018290529091506001600160a01b0383169063b3d7f6b990602401602060405180830381865afa158015610c22573d6000803e3d6000fd5b505050506040513d601f19601f82011682018060405250810190610c4691906149bb565b831115610c835760405162461bcd60e51b815260206004820152600660248201526521216c69713160d01b60448201526064015b60405180910390fd5b60405163537d940960e01b8152600481018490526001600160a01b0383169063537d940990602401602060405180830381865afa158015610cc8573d6000803e3d6000fd5b505050506040513d601f19601f82011682018060405250810190610cec91906149d4565b610d205760405162461bcd60e51b815260206004820152600560248201526410b634b89960d91b6044820152606401610c7a565b604051632d182be560e21b815260048101849052306024820181905260448201526001600160a01b0383169063b460af94906064016020604051808303816000875af1158015610d74573d6000803e3d6000fd5b505050506040513d601f19601f82011682018060405250810190610d9891906149bb565b50610da5828460006138fd565b505050565b60008054610db7906149f1565b80601f0160208091040260200160405190810160405280929190818152602001828054610de3906149f1565b8015610e305780601f10610e0557610100808354040283529160200191610e30565b820191906000526020600020905b815481529060010190602001808311610e1357829003601f168201915b505050505081565b6000908152601860209081526040808320546001600160a01b0316835260179091529020600d810154600e820154600f83015460108401546011909401549294919390929091565b6002546000908015610ea457610e9f610e97610b44565b849083613a53565b610ebd565b60065460ff16610eb45782610ebd565b610ebd83611110565b9392505050565b3360008181526004602090815260408083206001600160a01b038716808552925280832085905551919290917f8c5be1e5ebec7d5bd14f71427d1e84f3dd0314c0f7b2291e5b200ac8c7c3b92590610f1f9086815260200190565b60405180910390a35060015b92915050565b6002546000908015610f5157610e9f81610f49610b44565b859190613a72565b60065460ff16610f615782610ebd565b610ebd83612523565b6001600160a01b038116600090815260176020526040902060010154610100900460ff16610fd15760405162461bcd60e51b8152602060048201526014602482015273155395149554d5115117d25b9cdd1c9d5b595b9d60621b6044820152606401610c7a565b6001600160a01b03811660008181526017602052604080822060085460028201549251633af9e66960e01b8152600481018690529194909391633af9e66990602401602060405180830381865afa158015611030573d6000803e3d6000fd5b505050506040513d601f19601f8201168201806040525081019061105491906149bb565b9050808203611064575050505050565b6002840181905560008282101580611085576110808385614a2b565b61108f565b61108f8484614a2b565b9150806110a5576110a08286614a2b565b6110af565b6110af82866149a8565b60088190556040805191825260208201859052810183905281151560608201526001600160a01b038816907f6421c76ff84322b255b480a074dc3b65357a55f650d5fc4eedfeea5437c96b719060800160405180910390a250505050505050565b600061113d7f00000000000000000000000000000000000000000000000000000000000000006012614a2b565b61114890600a614b22565b610f2b9083614b2e565b6040516370a0823160e01b815230600482015260009082906001600160a01b037f000000000000000000000000000000000000000000000000000000000000000016906370a0823190602401602060405180830381865afa1580156111bb573d6000803e3d6000fd5b505050506040513d601f19601f820116820180604052508101906111df91906149bb565b101592915050565b336001600160a01b0383161480611202575061120282612565565b61120b57600080fd5b6001600160a01b03821660009081526017602052604090206004015461123081611479565b6000908152601960205260409020805460ff191691151591909117905550565b601760205260009081526040902080546001820154600283015460038401546004850154600586015460068701546007880154600889018054989960ff808a169a610100909a0416989091906112a5906149f1565b80601f01602080910402602001604051908101604052809291908181526020018280546112d1906149f1565b801561131e5780601f106112f35761010080835404028352916020019161131e565b820191906000526020600020905b81548152906001019060200180831161130157829003601f168201915b505050506009830154600a8401546040805160e081018252600b8701548152600c8701546020820152600d87015491810191909152600e8601546060820152600f8601546080820152601086015460a082015260119095015460c086015292936001600160a01b03821693600160a01b90920460ff1692508e565b6001600160a01b038316600090815260046020908152604080832033845290915281205460001981146113f5576113d08382614a2b565b6001600160a01b03861660009081526004602090815260408083203384529091529020555b6001600160a01b0385166000908152600360205260408120805485929061141d908490614a2b565b90915550506001600160a01b0380851660008181526003602052604090819020805487019055519091871690600080516020614d1a833981519152906114669087815260200190565b60405180910390a3506001949350505050565b6000818152601860205260409020546001600160a01b0316338114806114a957506009546001600160a01b031633145b6114e35760405162461bcd60e51b815260206004820152600b60248201526a139bdd08185b1b1bddd95960aa1b6044820152606401610c7a565b6114ec81612565565b6115265760405162461bcd60e51b815260206004820152600b60248201526a139bdd081d1c9d5cdd195960aa1b6044820152606401610c7a565b806001600160a01b03166349dcf4ed6040518163ffffffff1660e01b81526004016060604051808303816000875af1158015611566573d6000803e3d6000fd5b505050506040513d601f19601f8201168201806040525081019061158a9190614b50565b50505061159681610f6a565b806001600160a01b031663f3aa68d36040518163ffffffff1660e01b8152600401600060405180830381600087803b1580156115d157600080fd5b505af11580156115e5573d6000803e3d6000fd5b5050604080518082018252438152600160208083018281526000988952601a909152929096209051815590519401805460ff191694151594909417909355505050565b61163183613774565b61163a81613aa0565b600061164585613774565b6040516370a0823160e01b81523060048201529091506000906001600160a01b037f000000000000000000000000000000000000000000000000000000000000000016906370a0823190602401602060405180830381865afa1580156116af573d6000803e3d6000fd5b505050506040513d601f19601f820116820180604052508101906116d391906149bb565b9050808511156117ce5760006116e98287614a2b565b6000805260186020527f999d26de3473317ead3eeaf34ca78057f1439db67b6953469c3c96ce9caf6bd7546040516366c4437760e11b8152306004820152602481018390529192506001600160a01b03169063cd8886ee90604401602060405180830381865afa158015611761573d6000803e3d6000fd5b505050506040513d601f19601f8201168201806040525081019061178591906149d4565b156117985761179381610b60565b6117cc565b60405162461bcd60e51b8152602060048201526009602482015268085d985d5b1d18985b60ba1b6044820152606401610c7a565b505b84600860008282546117e091906149a8565b90915550506001600160a01b038216600090815260176020526040812060020180548792906118109084906149a8565b909155508490506118f05760405163a9059cbb60e01b81526001600160a01b038381166004830152602482018790527f0000000000000000000000000000000000000000000000000000000000000000169063a9059cbb906044016020604051808303816000875af115801561188a573d6000803e3d6000fd5b505050506040513d601f19601f820116820180604052508101906118ae91906149d4565b6118eb5760405162461bcd60e51b815260206004820152600e60248201526d11115413d4d25517d1905253115160921b6044820152606401610c7a565b611a36565b60405163095ea7b360e01b81526001600160a01b038381166004830152602482018790527f0000000000000000000000000000000000000000000000000000000000000000169063095ea7b3906044016020604051808303816000875af115801561195f573d6000803e3d6000fd5b505050506040513d601f19601f8201168201806040525081019061198391906149d4565b50604051636e553f6560e01b8152600481018690523060248201526000906001600160a01b03841690636e553f65906044016020604051808303816000875af11580156119d4573d6000803e3d6000fd5b505050506040513d601f19601f820116820180604052508101906119f891906149bb565b11611a365760405162461bcd60e51b815260206004820152600e60248201526d11115413d4d25517d1905253115160921b6044820152606401610c7a565b6040805186815285151560208201526001600160a01b0384169188917f96ba8877ce47ffd9d7af35a44207700582bc048cfc0be644d3f7d43cf3275258910160405180910390a3505050505050565b60007f00000000000000000000000000000000000000000000000000000000000000004614611ab657610b5b613b07565b507f000000000000000000000000000000000000000000000000000000000000000090565b611ae53382613ba1565b50565b600081815260186020908152604080832054815163041f3aa560e51b815291516001600160a01b03909116926383e754a092600480820193918290030181865afa158015611b3a573d6000803e3d6000fd5b505050506040513d601f19601f82011682018060405250810190610f2b91906149d4565b7f999d26de3473317ead3eeaf34ca78057f1439db67b6953469c3c96ce9caf6bd780546001600160a01b038381166001600160a01b0319909216821790925560008181526017602052604090819020600101805461ff0019166101001790555163095ea7b360e01b8152600481019190915260001960248201527f00000000000000000000000000000000000000000000000000000000000000009091169063095ea7b3906044016020604051808303816000875af1158015611c25573d6000803e3d6000fd5b505050506040513d601f19601f82011682018060405250810190611c4991906149d4565b5050565b60008381526018602052604080822054600754915163b3d7f6b960e01b815260048101929092526001600160a01b031690611cde90829063b3d7f6b990602401602060405180830381865afa158015611caa573d6000803e3d6000fd5b505050506040513d601f19601f82011682018060405250810190611cce91906149bb565b611cd885876149a8565b90613c0b565b95945050505050565b6000610f2b82610e80565b611cfa614080565b6001600160a01b03821660009081526017602090815260409182902082516101c08101845281548152600182015460ff808216151594830194909452610100908190049093161515938101939093526002810154606084015260038101546080840152600481015460a0840152600581015460c0840152600681015460e084015260078101549183019190915260088101805461012084019190611d9d906149f1565b80601f0160208091040260200160405190810160405280929190818152602001828054611dc9906149f1565b8015611e165780601f10611deb57610100808354040283529160200191611e16565b820191906000526020600020905b815481529060010190602001808311611df957829003601f168201915b505050918352505060098201546001600160a01b0381166020830152604090910190600160a01b900460ff166005811115611e5357611e536142af565b6005811115611e6457611e646142af565b8152600a8201546020808301919091526040805160e081018252600b8501548152600c85015492810192909252600d84015482820152600e8401546060830152600f8401546080830152601084015460a083015260119093015460c082015291015292915050565b611ed4613c20565b600160176000611ee386613774565b6001600160a01b03168152602081019190915260400160002060010180549115156101000261ff001990921691909117905580612069576000838152601860209081526040808320546001600160a01b031683526017825291829020908401516005820181905591840151600682018190559091611f6191906149a8565b600382015582516020840151611f84918691611f7d9190614a2b565b6000611628565b4260176000611f9287613774565b6001600160a01b03166001600160a01b0316815260200190815260200160002060070154611fc091906149a8565b60176000611fcd87613774565b6001600160a01b031681526020810191909152604001600020600a0155611ff384613774565b6001600160a01b031663416288dd846020015185604001516040518363ffffffff1660e01b8152600401612031929190918252602082015260400190565b600060405180830381600087803b15801561204b57600080fd5b505af115801561205f573d6000803e3d6000fd5b50505050506120b1565b6000838152601860209081526040808320546001600160a01b031683526017825290912042600e909101558251908301516120b19185916120aa9190614a2b565b6001611628565b60008381526018602090815260408083205491850151908501516001600160a01b039092169286927f5f22436ca8b356fcfdd826ffa74d4bbbf0f4a1066169f36d2d8fcfebc9e285fa929160179061210886613774565b6001600160a01b031681526020808201929092526040908101600020600a01548151948552918401929092529082015260600160405180910390a3505050565b612150613c20565b600061215b82613774565b9050806001600160a01b03166350bb4beb6040518163ffffffff1660e01b81526004016020604051808303816000875af115801561219d573d6000803e3d6000fd5b505050506040513d601f19601f82011682018060405250810190610da591906149bb565b60006008546000036121d35750600090565b610b5b6121de610b44565b60085490613c8f565b60006121f28361378f565b9050806000036122325760405162461bcd60e51b815260206004820152600b60248201526a5a45524f5f53484152455360a81b6044820152606401610c7a565b6122676001600160a01b037f000000000000000000000000000000000000000000000000000000000000000016333086613ca4565b6122718282613d27565b60408051848152602081018390526001600160a01b0384169133917fdcbc1c05240f31ff3ad067ef1ee35ce4997762752e3a095284754544f4c709d791015b60405180910390a3610f2b565b60128054610db7906149f1565b61231260405180610100016040528060008152602001600081526020016000815260200160008152602001600081526020016000815260200160008152602001600081525090565b506040805161010081018252600a548152600b546020820152600c5491810191909152600d546060820152600e546080820152600f5460a082015260105460c082015260115460e082015290565b612368613c20565b60405163a9059cbb60e01b81526001600160a01b038381166004830152602482018390527f0000000000000000000000000000000000000000000000000000000000000000169063a9059cbb906044015b6020604051808303816000875af11580156123d8573d6000803e3d6000fd5b505050506040513d601f19601f82011682018060405250810190610da591906149d4565b6040516370a0823160e01b81523060048201526000907f00000000000000000000000000000000000000000000000000000000000000006001600160a01b0316906370a0823190602401602060405180830381865afa158015612463573d6000803e3d6000fd5b505050506040513d601f19601f82011682018060405250810190610b5b91906149bb565b600061249283612a15565b90506124c96001600160a01b037f000000000000000000000000000000000000000000000000000000000000000016333084613ca4565b6124d38284613d27565b60408051828152602081018590526001600160a01b0384169133917fdcbc1c05240f31ff3ad067ef1ee35ce4997762752e3a095284754544f4c709d791016122b0565b60018054610db7906149f1565b60006125507f00000000000000000000000000000000000000000000000000000000000000006012614a2b565b61255b90600a614b22565b610f2b9083614b7e565b6001600160a01b0316600090815260176020526040902060010154610100900460ff1690565b612593613c20565b80602001516127435760008160c00151116125f05760405162461bcd60e51b815260206004820181905260248201527f7072696e636970616c206d7573742062652067726561746572207468616e20306044820152606401610c7a565b6000816101000151116126455760405162461bcd60e51b815260206004820152601f60248201527f6475726174696f6e206d7573742062652067726561746572207468616e2030006044820152606401610c7a565b60008160800151116126995760405162461bcd60e51b815260206004820181905260248201527f6661636556616c7565206d7573742062652067726561746572207468616e20306044820152606401610c7a565b6007548160c0015110156126ef5760405162461bcd60e51b815260206004820152601d60248201527f4e6565647320746f20626520696e20646563696d616c20666f726d61740000006044820152606401610c7a565b60008160a00151116127435760405162461bcd60e51b815260206004820152601860248201527f6d7573742062652076616c696420696e737472756d656e7400000000000000006044820152606401610c7a565b6101408101516001600160a01b031660009081526017602090815260409182902083518155908301516001820180549385015161ffff1990941691151561ff001916919091176101009315158402179055606083015160028201556080830151600382015560a0830151600482015560c0830151600582015560e0830151600682015590820151600782015561012082015182919060088201906127e79082614be3565b506101408201516009820180546001600160a01b039092166001600160a01b0319831681178255610160850151926001600160a81b03191617600160a01b836005811115612837576128376142af565b0217905550610180820151600a8201556101a0909101518051600b830155602080820151600c840155604080830151600d8501556060830151600e8501556080830151600f85015560a080840151601086015560c0909301516011909401939093556101408401519390910151600090815260189091522080546001600160a01b0319166001600160a01b03909216919091179055565b6128d6614080565b6000828152601860209081526040808320546001600160a01b03168352601782529182902082516101c08101845281548152600182015460ff808216151594830194909452610100908190049093161515938101939093526002810154606084015260038101546080840152600481015460a0840152600581015460c0840152600681015460e084015260078101549183019190915260088101805461012084019190611d9d906149f1565b336000908152600360205260408120805483919083906129a3908490614a2b565b90915550506001600160a01b03831660008181526003602052604090819020805485019055513390600080516020614d1a83398151915290610f1f9086815260200190565b6129f0613c20565b6001600160a01b03166000908152601760205260409020600101805461ff0019169055565b6002546000908015610ea457610e9f612a2c610b44565b849083613a72565b6000612a3f84610f31565b9050336001600160a01b03831614612aaf576001600160a01b03821660009081526004602090815260408083203384529091529020546000198114612aad57612a888282614a2b565b6001600160a01b03841660009081526004602090815260408083203384529091529020555b505b612ab98482613d79565b612ac38282613ba1565b60408051858152602081018390526001600160a01b03808516929086169133917ffbde797d201c681b91056529119e0b02407c7bb96a4a2c75c01fc9667232c8db910160405180910390a4610ebd6001600160a01b037f0000000000000000000000000000000000000000000000000000000000000000168486613dce565b6000336001600160a01b03831614612bb2576001600160a01b03821660009081526004602090815260408083203384529091529020546000198114612bb057612b8b8582614a2b565b6001600160a01b03841660009081526004602090815260408083203384529091529020555b505b612bbb84611ce7565b905080600003612bfb5760405162461bcd60e51b815260206004820152600b60248201526a5a45524f5f41535345545360a81b6044820152606401610c7a565b612c058185613d79565b612c0f8285613ba1565b60408051828152602081018690526001600160a01b03808516929086169133917ffbde797d201c681b91056529119e0b02407c7bb96a4a2c75c01fc9667232c8db910160405180910390a4610ebd6001600160a01b037f0000000000000000000000000000000000000000000000000000000000000000168483613dce565b6002546000908015610f5157610e9f81612ca6610b44565b859190613a53565b6000806000612d0b6040518061014001604052806000815260200160008152602001600081526020016000815260200160008152602001600081526020016000815260200160008152602001600081526020016000151581525090565b612d1485610e38565b6080860152606085018190526040850182905260208501929092529183529250612d645760405162461bcd60e51b81526020600482015260016024820152600360fc1b6044820152606401610c7a565b612d9b612d90826020015142612d7a9190614a2b565b6007548451612d8990826149a8565b9190613e4c565b604083015190613c0b565b60a0820152600954604051634955b91f60e11b8152600481018790526001600160a01b03909116906392ab723e90602401602060405180830381865afa158015612de9573d6000803e3d6000fd5b505050506040513d601f19601f82011682018060405250810190612e0d91906149bb565b60e082018190526060820151612e239190613c0b565b6101008201819052604082015160e0830151612e4492611cd8918991611c4d565b60c0820152610100810151600003612e645760a001519250829150612f4f565b61010081015160a0820151612e7891613c0b565b8160c0015110612e8e578060a001519350612ead565b61010081015160c0820151612ea291613c8f565b600161012083015293505b806101200151612ef357612ef08160e00151612edb8361010001518460a00151613c0b90919063ffffffff16565b8360c00151612eea9190614a2b565b90613c8f565b92505b6000612f1082606001518360a00151613c0b90919063ffffffff16565b612f41612f2f61093b8560400151600754613c0b90919063ffffffff16565b8460600151600754611cd891906149a8565b612f4b9190614a2b565b5050505b9193909250565b6001600160a01b038116600090815260036020526040812054610f2b90610e80565b42841015612fc85760405162461bcd60e51b815260206004820152601760248201527f5045524d49545f444541444c494e455f455850495245440000000000000000006044820152606401610c7a565b60006001612fd4611a85565b6001600160a01b038a811660008181526005602090815260409182902080546001810190915582517f6e71edae12b1b97f4d1f60370fef10105fa2faae0126114a169c64845d6126c98184015280840194909452938d166060840152608083018c905260a083019390935260c08083018b90528151808403909101815260e08301909152805192019190912061190160f01b6101008301526101028201929092526101228101919091526101420160408051601f198184030181528282528051602091820120600084529083018083525260ff871690820152606081018590526080810184905260a0016020604051602081039080840390855afa1580156130e0573d6000803e3d6000fd5b5050604051601f1901519150506001600160a01b038116158015906131165750876001600160a01b0316816001600160a01b0316145b6131535760405162461bcd60e51b815260206004820152600e60248201526d24a72b20a624a22fa9a4a3a722a960911b6044820152606401610c7a565b6001600160a01b0390811660009081526004602090815260408083208a8516808552908352928190208990555188815291928a16917f8c5be1e5ebec7d5bd14f71427d1e84f3dd0314c0f7b2291e5b200ac8c7c3b925910160405180910390a350505050505050565b6131c4613c20565b6000818152601860209081526040808320546001600160a01b03168352601790915290208115801590613203575060098101546001600160a01b031615155b6132445760405162461bcd60e51b81526020600482015260126024820152711a5b9d985b1a59081a5b9cdd1c9d5b595b9d60721b6044820152606401610c7a565b6001810154610100900460ff161561329e5760405162461bcd60e51b815260206004820152601e60248201527f63616e27742064656e7920617070726f76656420696e737472756d656e7400006044820152606401610c7a565b60405182907f2d0c55bb11caafe3aed6eebf9c466c6c50dc9b2706d918bc83357ee394da0ef590600090a2611c4982613f0a565b6001600160a01b038116600090815260036020526040812054610f2b90611ce7565b600080600080613302613c20565b600085815260186020908152604080832054601a835292819020815180830183528154815260019091015460ff161515818401528151632938b58d60e21b815291516001600160a01b03909416939092849263a4e2d63492600480830193928290030181865afa15801561337a573d6000803e3d6000fd5b505050506040513d601f19601f8201168201806040525081019061339e91906149d4565b6133d75760405162461bcd60e51b815260206004820152600a602482015269139bdd08131bd8dad95960b21b6044820152606401610c7a565b6000826001600160a01b0316631104aafd6040518163ffffffff1660e01b8152600401602060405180830381865afa158015613417573d6000803e3d6000fd5b505050506040513d601f19601f8201168201806040525081019061343b91906149bb565b60008981526019602052604081205491925060ff909116908080836134e9576001600160a01b03871660009081526017602052604090206003015485109250826134865760006134ad565b6001600160a01b0387166000908152601760205260409020600301546134ad908690614a2b565b915082156134bc5760006134e2565b6001600160a01b0387166000908152601760205260409020600301546134e29086614a2b565b905061353f565b6001600160a01b038716600090815260176020526040902060050154851092508261351557600061353c565b6001600160a01b03871660009081526017602052604090206005015461353c908690614a2b565b91505b61354b878660016138fd565b6001600160a01b03871660009081526017602052604090206004015461357090613f0a565b919b919a509850909650945050505050565b600061358d85613774565b90506001600160a01b03811663537d94096135a886856149a8565b6040518263ffffffff1660e01b81526004016135c691815260200190565b602060405180830381865afa1580156135e3573d6000803e3d6000fd5b505050506040513d601f19601f8201168201806040525081019061360791906149d4565b61363c5760405162461bcd60e51b8152600401610c7a90602080825260049082015263216c697160e01b604082015260600190565b6001600160a01b03811663b460af9461365586856149a8565b6040516001600160e01b031960e084901b1681526004810191909152306024820181905260448201526064016020604051808303816000875af11580156136a0573d6000803e3d6000fd5b505050506040513d601f19601f820116820180604052508101906136c491906149bb565b5060405163a9059cbb60e01b81526001600160a01b038481166004830152602482018690527f0000000000000000000000000000000000000000000000000000000000000000169063a9059cbb906044016020604051808303816000875af1158015613734573d6000803e3d6000fd5b505050506040513d601f19601f8201168201806040525081019061375891906149d4565b5061376d61376586613774565b8360006138fd565b5050505050565b6000908152601860205260409020546001600160a01b031690565b6000610f2b82612c8e565b6137a2613c20565b60065460ff16156137b9576137b682611110565b91505b60405163a9059cbb60e01b81526001600160a01b038281166004830152602482018490527f0000000000000000000000000000000000000000000000000000000000000000169063a9059cbb906044016123b9565b6040516370a0823160e01b81523060048201526000907f00000000000000000000000000000000000000000000000000000000000000006001600160a01b0316906370a0823190602401602060405180830381865afa158015613875573d6000803e3d6000fd5b505050506040513d601f19601f8201168201806040525081019061389991906149bb565b9050808211156138de5760405162461bcd60e51b815260206004820152601060248201526f707573682065786365656473206c697160801b6044820152606401610c7a565b600082156138ec57826138ee565b815b9050610da56000826001611628565b8261390781613aa0565b6001600160a01b03841660009081526017602052604081206002018054859290613932908490614a2b565b92505081905550826008600082825461394b9190614a2b565b909155505081156139fd5760405163852a12e360e01b8152600481018490526001600160a01b0385169063852a12e3906024016020604051808303816000875af115801561399d573d6000803e3d6000fd5b505050506040513d601f19601f820116820180604052508101906139c191906149d4565b6139fd5760405162461bcd60e51b815260206004820152600d60248201526c14915111515357d19052531151609a1b6044820152606401610c7a565b6001600160a01b0384166000818152601760209081526040918290206004015491518681527f881b4464dbc964dda309ca47f63a3fbbfb685abbe05c3c6687dd03f08bfeea12910160405180910390a350505050565b828202811515841585830485141716613a6b57600080fd5b0492915050565b828202811515841585830485141716613a8a57600080fd5b6001826001830304018115150290509392505050565b6001600160a01b038116600090815260176020526040902060010154610100900460ff16611ae55760405162461bcd60e51b8152602060048201526014602482015273155395149554d5115108125b9cdd1c9d5b595b9d60621b6044820152606401610c7a565b60007f8b73c3c69bb8fe3d512ecc4cf759cc79239f7b179b0ffacaa9a75d522b39400f6000604051613b399190614ca3565b6040805191829003822060208301939093528101919091527fc89efdaa54c0f20c7adf612882df0950f5a951637e0307cdcb4c672f298b8bc660608201524660808201523060a082015260c00160405160208183030381529060405280519060200120905090565b6001600160a01b03821660009081526003602052604081208054839290613bc9908490614a2b565b90915550506002805482900390556040518181526000906001600160a01b03841690600080516020614d1a833981519152906020015b60405180910390a35050565b6000610ebd8383670de0b6b3a7640000613a53565b6009546001600160a01b0316331480613c435750601b546001600160a01b031633145b80613c4d57503033145b613c8d5760405162461bcd60e51b815260206004820152601160248201527034b9903737ba1031b7b73a3937b63632b960791b6044820152606401610c7a565b565b6000610ebd83670de0b6b3a764000084613a53565b60006040516323b872dd60e01b81528460048201528360248201528260448201526020600060648360008a5af13d15601f3d116001600051141617169150508061376d5760405162461bcd60e51b81526020600482015260146024820152731514905394d1915497d19493d357d1905253115160621b6044820152606401610c7a565b8060026000828254613d3991906149a8565b90915550506001600160a01b038216600081815260036020908152604080832080548601905551848152600080516020614d1a8339815191529101613bff565b613d8282611152565b611c495760405162461bcd60e51b815260206004820152601c60248201527f4e6f7420656e6f756768206c6971756469747920696e207661756c74000000006044820152606401610c7a565b600060405163a9059cbb60e01b8152836004820152826024820152602060006044836000895af13d15601f3d1160016000511416171691505080613e465760405162461bcd60e51b815260206004820152600f60248201526e1514905394d1915497d19052531151608a1b6044820152606401610c7a565b50505050565b6000838015613eec57600184168015613e6757859250613e6b565b8392505b508260011c8460011c94505b8415613ee6578560801c15613e8b57600080fd5b85860281810181811015613e9e57600080fd5b8590049650506001851615613edb578583028387820414613ec4578615613ec457600080fd5b81810181811015613ed457600080fd5b8590049350505b8460011c9450613e77565b50613f02565b838015613efc5760009250613f00565b8392505b505b509392505050565b6000818152601860209081526040808320546001600160a01b03168352601790915290206004810154613f7f5760405162461bcd60e51b815260206004820152601860248201527f696e737472756d656e7420646f65736e277420657869737400000000000000006044820152606401610c7a565b6000828152601860209081526040808320546001600160a01b031683526017909152812081815560018101805461ffff1916905560028101829055600381018290556004810182905560058101829055600681018290556007810182905590613feb600883018261412f565b506009810180546001600160a81b03191690556000600a8201819055600b8201819055600c8201819055600d8201819055600e8201819055600f82018190556010820181905560119091018190558281526018602052604080822080546001600160a01b03191690555183907ff2c79fb37cf068a1203864bc62bac9000eb31d5a2425782708e645934a942bbe908390a35050565b604080516101c08101825260008082526020820181905291810182905260608082018390526080820183905260a0820183905260c0820183905260e08201839052610100820183905261012082015261014081018290529061016082019081526020016000815260200161412a6040518060e00160405280600081526020016000815260200160008152602001600081526020016000815260200160008152602001600081525090565b905290565b50805461413b906149f1565b6000825580601f1061414b575050565b601f016020900490600052602060002090810190611ae591905b808211156141795760008155600101614165565b5090565b60006020828403121561418f57600080fd5b5035919050565b6000815180845260005b818110156141bc576020818501810151868301820152016141a0565b506000602082860101526020601f19601f83011685010191505092915050565b602081526000610ebd6020830184614196565b6001600160a01b0381168114611ae557600080fd5b803561420f816141ef565b919050565b6000806040838503121561422757600080fd5b8235614232816141ef565b946020939093013593505050565b60006020828403121561425257600080fd5b8135610ebd816141ef565b8015158114611ae557600080fd5b803561420f8161425d565b6000806040838503121561428957600080fd5b8235614294816141ef565b915060208301356142a48161425d565b809150509250929050565b634e487b7160e01b600052602160045260246000fd5b600681106142e357634e487b7160e01b600052602160045260246000fd5b9052565b805182526020810151602083015260408101516040830152606081015160608301526080810151608083015260a081015160a083015260c081015160c08301525050565b8e81528d151560208201528c151560408201528b60608201528a60808201528960a08201528860c08201528760e082015286610100820152610280610120820152600061437c610280830188614196565b6001600160a01b038716610140840152905061439c6101608301866142c5565b836101808301526143b16101a08301846142e7565b9f9e505050505050505050505050505050565b6000806000606084860312156143d957600080fd5b83356143e4816141ef565b925060208401356143f4816141ef565b929592945050506040919091013590565b60008060006060848603121561441a57600080fd5b833592506020840135915060408401356144338161425d565b809150509250925092565b60008060006060848603121561445357600080fd5b505081359360208301359350604090920135919050565b60208152815160208201526000602083015161448a604084018215159052565b50604083015180151560608401525060608301516080830152608083015160a083015260a083015160c083015260c083015160e083015260e0830151610100818185015280850151915050610120818185015280850151915050610140610280818501526144fc6102a0850183614196565b9085015190915061016061451a858201836001600160a01b03169052565b850151905061018061452e858201836142c5565b8501516101a0858101919091528501519050613f026101c08501826142e7565b634e487b7160e01b600052604160045260246000fd5b6040516101c0810167ffffffffffffffff811182821017156145885761458861454e565b60405290565b600080600083850360a08112156145a457600080fd5b843593506060601f19820112156145ba57600080fd5b506040516060810181811067ffffffffffffffff821117156145de576145de61454e565b604090815260208681013583528682013590830152606086013590820152915060808401356144338161425d565b6000806040838503121561461f57600080fd5b8235915060208301356142a4816141ef565b600082601f83011261464257600080fd5b813567ffffffffffffffff8082111561465d5761465d61454e565b604051601f8301601f19908116603f011681019082821181831017156146855761468561454e565b8160405283815286602085880101111561469e57600080fd5b836020870160208301376000602085830101528094505050505092915050565b80356006811061420f57600080fd5b600060e082840312156146df57600080fd5b60405160e0810181811067ffffffffffffffff821117156147025761470261454e565b8060405250809150823581526020830135602082015260408301356040820152606083013560608201526080830135608082015260a083013560a082015260c083013560c08201525092915050565b60006020828403121561476357600080fd5b813567ffffffffffffffff8082111561477b57600080fd5b90830190610280828603121561479057600080fd5b614798614564565b823581526147a86020840161426b565b60208201526147b96040840161426b565b6040820152606083013560608201526080830135608082015260a083013560a082015260c083013560c082015260e083013560e0820152610100808401358183015250610120808401358381111561481057600080fd5b61481c88828701614631565b8284015250506101409150614832828401614204565b8282015261016091506148468284016146be565b82820152610180915081830135828201526101a09150614868868385016146cd565b91810191909152949350505050565b60008060006060848603121561488c57600080fd5b83359250602084013561489e816141ef565b91506040840135614433816141ef565b600080600080600080600060e0888a0312156148c957600080fd5b87356148d4816141ef565b965060208801356148e4816141ef565b95506040880135945060608801359350608088013560ff8116811461490857600080fd5b9699959850939692959460a0840135945060c09093013592915050565b6000806040838503121561493857600080fd5b8235614943816141ef565b915060208301356142a4816141ef565b6000806000806080858703121561496957600080fd5b84359350602085013592506040850135614982816141ef565b9396929550929360600135925050565b634e487b7160e01b600052601160045260246000fd5b80820180821115610f2b57610f2b614992565b6000602082840312156149cd57600080fd5b5051919050565b6000602082840312156149e657600080fd5b8151610ebd8161425d565b600181811c90821680614a0557607f821691505b602082108103614a2557634e487b7160e01b600052602260045260246000fd5b50919050565b81810381811115610f2b57610f2b614992565b600181815b80851115614a79578160001904821115614a5f57614a5f614992565b80851615614a6c57918102915b93841c9390800290614a43565b509250929050565b600082614a9057506001610f2b565b81614a9d57506000610f2b565b8160018114614ab35760028114614abd57614ad9565b6001915050610f2b565b60ff841115614ace57614ace614992565b50506001821b610f2b565b5060208310610133831016604e8410600b8410161715614afc575081810a610f2b565b614b068383614a3e565b8060001904821115614b1a57614b1a614992565b029392505050565b6000610ebd8383614a81565b600082614b4b57634e487b7160e01b600052601260045260246000fd5b500490565b600080600060608486031215614b6557600080fd5b8351925060208401519150604084015190509250925092565b8082028115828204841417610f2b57610f2b614992565b601f821115610da557600081815260208120601f850160051c81016020861015614bbc5750805b601f850160051c820191505b81811015614bdb57828155600101614bc8565b505050505050565b815167ffffffffffffffff811115614bfd57614bfd61454e565b614c1181614c0b84546149f1565b84614b95565b602080601f831160018114614c465760008415614c2e5750858301515b600019600386901b1c1916600185901b178555614bdb565b600085815260208120601f198616915b82811015614c7557888601518255948401946001909101908401614c56565b5085821015614c935787850151600019600388901b60f8161c191681555b5050505050600190811b01905550565b6000808354614cb1816149f1565b60018281168015614cc95760018114614cde57614d0d565b60ff1984168752821515830287019450614d0d565b8760005260208060002060005b85811015614d045781548a820152908401908201614ceb565b50505082870194505b5092969550505050505056feddf252ad1be2c89b69c2b068fc378daa952ba7f163c4a11628f55a4df523b3efa2646970667358221220289aece9e9dfbcd42bdf704d3710b7f094d784c77fdb24634c271158af00313264736f6c63430008110033",
    "linkReferences": {}
  },
  "methodIdentifiers": {
    "DOMAIN_SEPARATOR()": "3644e515",
    "Instruments(uint256)": "50c6e6cf",
    "UNDERLYING()": "c5d664c6",
    "addLendingModule(address)": "492023f8",
    "addProposal((bytes32,bool,bool,uint256,uint256,uint256,uint256,uint256,uint256,string,address,uint8,uint256,(uint256,uint256,uint256,uint256,uint256,uint256,uint256)))": "98d796e7",
    "allowance(address,address)": "dd62ed3e",
    "approve(address,uint256)": "095ea7b3",
    "asset()": "38d52e0f",
    "asset_limit()": "5f260bb8",
    "balanceInUnderlying(address)": "dc361a13",
    "balanceOf(address)": "70a08231",
    "beforeResolve(uint256)": "2b858734",
    "burn(uint256)": "42966c68",
    "closeInstrument(uint256)": "59dc5c6f",
    "convertToAssets(uint256)": "07a2d13a",
    "convertToShares(uint256)": "c6e6f592",
    "decAssetsToShares(uint256)": "96ce9d5a",
    "decSharesToAssets(uint256)": "1316dbde",
    "decimal_mismatch()": "fc173fc6",
    "decimals()": "313ce567",
    "denyInstrument(uint256)": "d746d3ef",
    "deposit(uint256,address)": "6e553f65",
    "depositIntoInstrument(uint256,uint256,bool)": "34928ace",
    "description()": "7284e416",
    "distrustInstrument(address)": "b19b1f91",
    "enoughLiqudity(uint256)": "139f4b6f",
    "fetchInstrument(uint256)": "edb53d3e",
    "fetchInstrumentData(uint256)": "9ec4d40e",
    "fetchPoolTrancheData(uint256)": "076125a9",
    "getInstrumentData(address)": "4dc54a38",
    "getInstrumentType(uint256)": "0f65cbc4",
    "get_vault_params()": "7572cb1f",
    "harvest(address)": "0e5c011e",
    "instrumentApprovalCondition(uint256)": "471e1cea",
    "instrumentAssetOracle(uint256,uint256,uint256)": "4bd3c9a8",
    "instrument_data(address)": "22f0e069",
    "isTrusted(address)": "96d64879",
    "maxDeposit(address)": "402d267d",
    "maxMint(address)": "c63d75b6",
    "maxRedeem(address)": "d905777e",
    "maxWithdraw(address)": "ce96cb77",
    "mint(uint256,address)": "94bf804d",
    "name()": "06fdde03",
    "nonces(address)": "7ecebe00",
    "onlyVerified()": "f7d070de",
    "owner()": "8da5cb5b",
    "permit(address,address,uint256,uint256,uint8,bytes32,bytes32)": "d505accf",
    "pingMaturity(address,bool)": "213a7d52",
    "poolZCBValue(uint256)": "ca13e450",
    "previewDeposit(uint256)": "ef8b30f7",
    "previewMint(uint256)": "b3d7f6b9",
    "previewRedeem(uint256)": "4cdad506",
    "previewWithdraw(uint256)": "0a28a477",
    "pullFromLM(uint256)": "063b31d4",
    "pushToLM(uint256)": "fa07b19f",
    "r()": "6c8ae38c",
    "receiver_conditions(address)": "e9a23d3a",
    "redeem(uint256,address,address)": "ba087652",
    "repayDebt(address,uint256)": "79e20bdc",
    "resolveInstrument(uint256)": "e134cc82",
    "symbol()": "95d89b41",
    "totalAssets()": "01e1d114",
    "totalFloat()": "841219e5",
    "totalInstrumentHoldings()": "ca2989f4",
    "totalSupply()": "18160ddd",
    "total_asset_limit()": "c83baf4e",
    "transfer(address,uint256)": "a9059cbb",
    "transferFrom(address,address,uint256)": "23b872dd",
    "trustInstrument(uint256,(uint256,uint256,uint256),bool)": "4e1afd00",
    "trusted_transfer(uint256,address)": "f05bcfb4",
    "utilizationRate()": "6c321c8a",
    "viewPrincipalAndYield(uint256)": "60d4efa4",
    "withdraw(uint256,address,address)": "b460af94",
    "withdrawFromPoolInstrument(uint256,uint256,address,uint256)": "e4cc3e76"
  },
  "id": 33
}